:020000040800F2
:10000000D80600207902000871200008F3130008C8
:100010006D2000087F0300089D23000800000000F9
:100020000000000000000000000000001523000890
:100030008303000800000000752000081723000853
:10004000930200089302000893020008930200083C
:10005000930200089302000893020008930200082C
:10006000930200089302000893020008930200081C
:10007000930200089302000893020008930200080C
:100080009302000800000000930200089302000899
:1000900093020008930200089302000893020008EC
:1000A00093020008930200089302000893020008DC
:1000B00093020008930200089302000893020008CC
:1000C00093020008930200089302000893020008BC
:1000D00093020008930200089302000893020008AC
:1000E000930200089302000893020008930200089C
:1000F0009302000893020008930200080000000029
:1001000000000000930200080000000093020008B5
:100110009302000800000000930200089302000808
:10012000930200089302000893020008930200085B
:100130009302000800000000000000009302000885
:100140009302000893020008000000000000000075
:10015000000000000000000000000000000000009F
:1001600000000000000000000000000093020008F2
:1001700093020008000000000000000000000000E2
:1001800000000000930200080000000000000000D2
:10019000000000000000000000000000000000005F
:1001A0000000000000000000930200089302000815
:1001B0009302000893020008930200080000000068
:1001C0000000000093020008000000000000000092
:1001D000930200089302000800F002F800F03CF8D7
:1001E0000AA090E8000C82448344AAF10107DA4592
:1001F00001D100F031F8AFF2090EBAE80F0013F0A8
:10020000010F18BFFB1A43F001031847886D000067
:10021000A86D0000103A24BF78C878C1FAD85207F8
:1002200024BF30C830C144BF04680C607047000070
:100230000023002400250026103A28BF78C1FBD8EF
:10024000520728BF30C148BF0B6070471FB502F08E
:10025000BDFB1FBD10B510BD00F058F81146FFF7EB
:10026000F5FF02F0B9F800F076F803B4FFF7F2FFFB
:1002700003BC00F07DF800000948804709480047AA
:10028000FEE7FEE7FEE7FEE7FEE7FEE7FEE7FEE746
:10029000FEE7FEE704480549054A064B70470000A3
:1002A00089230008D9010008D8000020D8060020C2
:1002B000D8020020D80200204FF0000200B51346FB
:1002C00094469646203922BFA0E80C50A0E80C5076
:1002D000B1F12001BFF4F7AF090728BFA0E80C5027
:1002E00048BF0CC05DF804EB890028BF40F8042B20
:1002F00008BF704748BF20F8022B11F0804F18BF8D
:1003000000F8012B7047704770477047754600F042
:100310002BF8AE4605006946534620F00700854697
:1003200018B020B5FFF7B6FFBDE820404FF000063B
:100330004FF000074FF000084FF0000B21F00701CD
:10034000AC46ACE8C009ACE8C009ACE8C009ACE810
:10035000C0098D46704710B50446AFF300802046B3
:10036000BDE81040FFF781BF0048704774000020CF
:1003700001491820ABBEFEE726000200704700BF0F
:10038000FEE7704772B600BFFEE7000070B5044696
:1003900000F0FCF806462546681C10B104480068C9
:1003A000054400BF00F0F2F8801BA842FAD370BDEC
:1003B0000800002078B502460B460021CAE001265D
:1003C0008E401D6805EA0604002C73D01D7905F0E7
:1003D0000305012D04D01D7905F00305022D13D16D
:1003E00090684E000325B540A8434E00DD68B54037
:1003F00028439060506801258D40A8431D79C5F3BE
:1004000000158D40284350601D7905F00305032D2C
:1004100009D0D0684E000325B540A8434E009D6822
:10042000B5402843D0601D7905F00305022D13D196
:10043000CE0802F1200555F826004D07EE0E0F25D7
:10044000B540A8434E07F60E1D69B5402843CE08B7
:1004500002F1200545F8260010684E000325B5403E
:10046000A8431D7905F003054E00B54028431060F0
:100470005D6805F44035002D6BD000BF384D2D6E02
:1004800045F00105364E356635462D6E05F0010501
:10049000009500BF00BF4FEAB6358E0855F826001C
:1004A0008D072E0F0F25B540A843B2F1904F02D112
:1004B00000251AE04DE02B4DAA4201D1012514E0A0
:1004C000294DAA4201D102250FE0284DAA4201D1AF
:1004D00003250AE0264DAA4201D1042505E0254D59
:1004E000AA4201D1052500E006258E07360FB5404A
:1004F0002843214D8E0845F82600204D2868A0434A
:100500005D6805F4801505B120431C4D28602D1D44
:100510002868A0435D6805F4001505B12043174D18
:100520002D1D2860154D2D1F2868A0435D6805F41A
:10053000003505B12043114D2D1F28602D1F28685F
:10054000A0435D6805F4803505B120430B4D083D9F
:100550002860491C1D68CD40002D7FF430AF78BD68
:10056000001002400004004800080048000C004849
:100570000010004800140048080001400804014031
:100580000AB1816100E081627047000001480068A3
:100590007047000000000020034800680349096814
:1005A000084401490860704700000020080000204E
:1005B00010B50024032000F097F80F2000F008F891
:1005C00008B1012401E000F02FF8204610BD000022
:1005D00070B50446002511480068D8B10F4800687E
:1005E0004FF47A71B1FBF0F00D490968B1FBF0F6F8
:1005F000304600F0E4FE58B9102C07D20022214604
:10060000501E00F033F80748046004E0012502E0C2
:10061000012500E00125284670BD000008000020EB
:100620000C0000200400002008B500BF0E48006E3A
:1006300040F001000C4908660846006E00F0010019
:10064000009000BF00BF00BF0846806D40F08050A2
:1006500088650846806D00F08050009000BF00BFA4
:1006600000F0E2F808BD0000001002402DE9F05F44
:1006700080460D46164601F093FE074639462A4647
:10068000334601F00700C0F1070ABAF1040F02D99E
:100690004FF0040A01E0C0F1070AD14600F1040A54
:1006A000BAF1070F02D24FF0000A01E0A0F1030AED
:1006B000D4464FF0010A0AFA09FAAAF1010A0AEA35
:1006C000020A0AFA0CFA4FF0010B0BFA0CFBABF121
:1006D000010B0BEA030B4AEA0B042146404601F0EA
:1006E00067FEBDE8F09F000000BF00F00702064B68
:1006F00019684FF6FF031940044B0B4343EA0221EC
:10070000014B196000BF70470CED00E00000FA05D6
:1007100002468ABB4148006800F4C060B0F5806FB3
:100720002BD13E488030006820F480703B4BC3F8EA
:1007300080001846006820F4C06040F40070186023
:100740003748006832235843364BB0FBF3F0411C66
:1007500000E0491E3148406900F48060B0F5806FC8
:1007600001D10029F5D12D48406900F48060B0F531
:10077000806F51D10320704708E02848803000681E
:1007800020F48070254BC3F8800045E0B2F5007F6F
:100790003AD12248006800F4C060B0F5806F2AD1D9
:1007A0001E488030006840F480701C4BC3F8800005
:1007B0001846006820F4C06040F4007018601848C3
:1007C000006832235843174BB0FBF3F0411C00E0A4
:1007D000491E1248406900F48060B0F5806F01D175
:1007E0000029F5D10D48406900F48060B0F5806FB4
:1007F00012D10320BFE709488030006840F48070C0
:10080000064BC3F8800007E00448006820F4C0608D
:1008100040F48060014B18600020ACE7007000409D
:100820000C00002040420F000348806840F48040E4
:100830000149886070470000007000402DE9F041D8
:1008400004460D464FF0000814B90120BDE8F081C0
:100850007D48006800F00F00A8420ED27A48006878
:1008600020F00F002843784908600846006800F02F
:100870000F00A84201D00120E8E7207800F0010035
:10088000002864D06068032823D17048006800F015
:10089000007008B90120D9E701F0EEFB06466C486C
:1008A000864237D96948806800F0F00030B120787E
:1008B00000F0020002282DD1A06858BB6348806870
:1008C00020F0F00040F08000604988604FF0800820
:1008D00020E06068022806D15C48006800F400301F
:1008E00040B90120B2E75948006800F4806008B9B7
:1008F0000120ABE700F0B4F806465548864209D916
:100900005248806820F0F00040F080004F49886035
:100910004FF080084D48806820F00300616808436C
:100920004A498860FFF732FE074608E0FFF72EFECF
:10093000C01B41F28831884201D9032086E7434831
:10094000806800F00C006168B0EB810FEED1207878
:1009500000F00200022820D1207800F004000428D2
:1009600005D13A48806840F4E060384988602078D2
:1009700000F00800082807D13448806820F460504F
:1009800040F4E060314988603048806820F0F00031
:10099000A16808432D49886008E0B8F1800F05D1AF
:1009A0002A48806820F0F0002849886026480068BE
:1009B00000F00F00A84219D92348006820F00F006A
:1009C000284321490860FFF7E1FD074608E0FFF7EB
:1009D000DDFDC01B41F28831884201D9032035E793
:1009E0001948006800F00F00A842F0D1207800F00C
:1009F0000400042807D11548806820F4E060E1680D
:100A0000084312498860207800F00800082808D1BF
:100A10000E48806820F46050216940EAC1000B490B
:100A2000886000F01DF809498968C1F30311094A7B
:100A3000515C01F01F01C840074908600748006881
:100A4000FFF7C6FD02E70000002002400010024050
:100A500000B4C404603600080C000020040000202C
:100A600070B5224DAD6805F00C05042D01D120486C
:100A70003AE01E4DAD6805F00C05082D01D11D486A
:100A800032E01A4DAD6805F00C050C2D2BD1174D39
:100A9000ED6805F00304154DED68C5F303156A1CF8
:100AA000022C0CD0032C09D1124DB5FBF2F50F4EE0
:100AB000F668C6F3062605FB06F10AE000BF0C4DFA
:100AC000B5FBF2F5094EF668C6F3062605FB06F1FE
:100AD00000BF00BF054DED68C5F341656D1C6B009F
:100AE000B1FBF3F000E0002070BD000000100240F8
:100AF0000024F40000127A002DE9F843044614B9EA
:100B00000120BDE8F883207800F00100002865D0BE
:100B1000FC48806800F00C07FA48C06800F0030643
:100B20000C2F01D1032E01D0082F0AD1F5480068FF
:100B300000F40030002851D0606800284ED1012018
:100B4000DFE700BF6068B0F5803F06D1ED48006880
:100B500040F48030EB4908601AE06068B0F5A02FDF
:100B60000BD1E848006840F48020E6490860084658
:100B7000006840F4803008600AE0E248006820F431
:100B80008030E04908600846006820F48020086052
:100B900000BF606888B1FFF7F9FC054606E0FFF783
:100BA000F5FC401B642801D90320AAE7D54800685A
:100BB00000F400300028F2D010E0FFF7E7FC054613
:100BC00006E0FFF7E3FC401B642801D9032098E707
:100BD000CC48006800F400300028F2D1207800F002
:100BE0000200022860D1C748806800F00C07C548A1
:100BF000C06800F003060C2F01D1022E01D0042F93
:100C000018D1C048006800F4806018B1E06808B9E5
:100C1000012076E7BB48406820F0FE40217C40EA96
:100C20000160B8494860B8480068FFF7D1FC18B3C4
:100C3000012066E7E06800B3B248006840F48070C5
:100C4000B0490860FFF7A2FC054606E0FFF79EFCEE
:100C5000401B022801D9032053E7AA48006800F48A
:100C600080600028F2D0A748406820F0FE40217C38
:100C700040EA0160A349486016E0A248006820F4F9
:100C80008070A0490860FFF781FC054606E0FFF789
:100C90007DFC401B022801D9032032E799480068F7
:100CA00000F480600028F2D1207800F008000828C5
:100CB00036D16069D0B193489430006840F00100AB
:100CC0009049C1F89400FFF761FC054606E0FFF784
:100CD0005DFC401B022801D9032012E789489430AB
:100CE000006800F002000028F1D019E08548943037
:100CF000006820F001008349C1F89400FFF746FC2A
:100D0000054606E0FFF742FC401B022801D90320FC
:100D1000F7E67C489430006800F002000028F1D12A
:100D2000207800F00400042872D14FF000087548C4
:100D3000806D012121EA107078B100BF7148806D8B
:100D400040F080506F4988650846806D00F0805003
:100D5000009000BF00BF4FF001086C48006800F42D
:100D60008070B0B96948006840F4807067490860D5
:100D7000FFF70CFC054606E0FFF708FC401B0228C5
:100D800001D90320BDE66148006800F480700028A6
:100D9000F2D000BFA068012808D15A4890300068FE
:100DA00040F001005749C1F8900021E0A0680528F3
:100DB0000FD154489030006840F004005149C1F808
:100DC00090000846D0F8900040F00100C1F8900073
:100DD0000EE04C489030006820F001004949C1F80D
:100DE00090000846D0F8900020F00400C1F8900070
:100DF00000BFA068A8B1FFF7C9FB054609E0FFF7EF
:100E0000C5FB401B41F28831884202D9032078E6B5
:100E100025E03C489030006800F002000028EED049
:100E200013E0FFF7B3FB054608E0FFF7AFFB401BFD
:100E300041F28831884201D9032062E6314890307E
:100E4000006800F002000028EFD1B8F1010F05D1D1
:100E50002C48806D20F080502A49886500BF20789A
:100E600000F02000202836D1A069D0B12548983064
:100E7000006840F001002349C1F89800FFF786FBA5
:100E8000054606E0FFF782FB401B022801D903203C
:100E900037E61C489830006800F002000028F1D0C6
:100EA00019E018489830006820F001001549C1F891
:100EB0009800FFF76BFB054606E0FFF767FB401B5A
:100EC000022801D903201CE60E489830006800F083
:100ED00002000028F1D1E069002860D0094880684C
:100EE00000F00C000C287AD0E069022858D105489F
:100EF000006820F0807003490860FFF747FB054653
:100F00000DE00000001002400400002000700040CE
:100F1000FFF73CFB401B022801D90320F1E54A48BA
:100F2000006800F000700028F2D1D4E90810401EDB
:100F300041EA0011A06A41EA0021208E0122C2EBA1
:100F4000500041EA40513420005DC2EB500041EABC
:100F500040612C20005D41EAC0603B49C9683B4AC2
:100F6000114008433849C8600846006840F0807066
:100F700008600846C06840F08070C860FFF706FB54
:100F8000054606E0FFF702FB401B022801D90320BB
:100F9000B7E52D48006800F000700028F2D051E05D
:100FA0002948006820F0807027490860FFF7EEFAB2
:100FB000054606E0FFF7EAFA401B022801D90320A4
:100FC0009FE52148006800F000700028F2D11E481B
:100FD000C0681F4908401C49C86033E0FFE7E0696A
:100FE000012800D18DE51848C66806F00301206A83
:100FF000814225D106F0F001606A401EB1EB001F6E
:101000001ED106F4FE41A06AB1EB002F18D106F004
:1010100078412C20005DB1EBC06F11D106F4C00106
:10102000208E0122C2EB5000B1EB405F08D106F0E8
:10103000C0613420005DC2EB5000B1EB406F01D0C5
:1010400001205EE500205CE5001002400C809F015D
:10105000FCFFEEFE70B504460CB9012070BD606A5D
:1010600038B96068B0F5827F00D105E00021E16108
:1010700002E00021216161610021A16294F85D001C
:1010800028B9002084F85C00204600F061F80220B6
:1010900084F85D002068006820F040002168086046
:1010A000E068B0F5E06F01D9002501E04FF480550C
:1010B000E068B0F5706F05D0E068B0F5E06F01D082
:1010C0000021A162A08800F48270218901F404410A
:1010D0000843217C01F002010843217D01F0010158
:1010E0000843218B01F400710843217F01F038018E
:1010F00008432021095D01F080010843218D01F49E
:1011000000510843216808600421A06901EA1040E9
:1011100094F8241001F01001084394F8341001F001
:1011200008010843A18901F47061084305F4805166
:101130000843216848602068C06920F40060216885
:10114000C86100202066012084F85D00002085E74A
:1011500010B586B00446142101A8FFF7ADF8174971
:101160002068884228D100BF1548006E40F48050A6
:10117000134908660846006E00F48050009000BFD6
:1011800000BF00BF0846C06C40F00100C8640846BC
:10119000C06C00F00100009000BF00BFA0200190D3
:1011A000022002900020039004900520059001A9E0
:1011B0004FF09040FFF7FEF806B010BD0030014040
:1011C000001002402DE9F84304460F4616461D461E
:1011D000FFF7DCF98046B14694F85D00012802D0A3
:1011E0000220BDE8F88307B10EB90120F9E700BF7E
:1011F00094F85C00012801D10220F2E7012084F874
:101200005C0000BF032084F85D0000202066A76317
:10121000A687E6872064A4F84400A4F84600206569
:10122000E064A068B0F5004F0BD12068006820F0A2
:101230004000216808602068006840F48040216810
:1012400008602068006800F04000402805D0206851
:10125000006840F0400021680860E068B0F5E06F89
:1012600037D9606810B1B9F1010F09D1A06B0088BE
:101270002168C860A06B801CA063E08F401EE087DF
:1012800023E02068806800F0020002280AD1A06BE9
:1012900000882168C860A06B801CA063E08F401E9E
:1012A000E08712E0FFF772F9A0EB0800A84201D333
:1012B000681C00B94DB9012084F85D0000BF002012
:1012C00084F85C0000BF03208BE7E08F0028D8D1B2
:1012D00052E0606810B1B9F1010F17D1E08F012819
:1012E0000AD9A06B00882168C860A06B801CA0632D
:1012F000E08F801EE08709E0A06B0078216808730A
:10130000A06B401CA063E08F401EE08731E02068A6
:10131000806800F00200022818D1E08F01280AD965
:10132000A06B00882168C860A06B801CA063E08F60
:10133000801EE0871DE0A06B007821680873A06B19
:10134000401CA063E08F401EE08712E0FFF71EF90B
:10135000A0EB0800A84201D3681C00B94DB90120D8
:1013600084F85D0000BF002084F85C0000BF03200B
:1013700037E7E08F0028CAD142462946204600F0D0
:10138000AFFE08B120202066A06850B900BF002041
:1013900000902068C068009020688068009000BFBE
:1013A00000BF012084F85D0000BF002084F85C00CD
:1013B00000BF206E08B1012013E7002011E770B5CF
:1013C00004462546681EB0F1807F01D301200FE05E
:1013D000681E4FF0E02148610F214FF0FF3000F010
:1013E000E7FF00204FF0E02188610720086100201E
:1013F00070BD00BFFEE72DE9F04107460C461546DB
:101400001E462A2000F0ACFD384600F08BFD284631
:1014100000F088FD2B2000F0A3FD204600F082FDA7
:10142000304600F07FFD2C2000F09AFDBDE8F081F1
:1014300070B504460D4616462B46224629462046E0
:10144000FFF7D9FF304600F06DFD70BD2DE9F04784
:1014500006460F4614461D46DDF820A0681E83B2DE
:10146000601E82B239463046FFF7C5FFB8460EE02F
:10147000B14606E0504600F055FD09F101001FFAA3
:1014800080F9A145F6DB08F101001FFA80F8A845B4
:10149000EEDBBDE8F08710B500BF002204214FF05D
:1014A0009040FFF76DF800BF6420FEF76FFF00BFAC
:1014B000012204214FF09040FFF762F800BF642042
:1014C000FEF764FF00BF012210214FF09040FFF7AC
:1014D00057F800BF6420FEF759FF112000F040FDCF
:1014E0007820FEF753FF362000F03AFD002000F090
:1014F0002BFD3A2000F034FD052000F025FDB22040
:1015000000F02EFD0C2000F01FFD0C2000F01CFD53
:10151000002000F019FD332000F016FD332000F00C
:1015200013FDB72000F01CFD352000F00DFDBB20A1
:1015300000F016FD372000F007FDC02000F010FD80
:101540002C2000F001FDC22000F00AFD012000F077
:10155000FBFCC32000F004FD122000F0F5FCC420C9
:1015600000F0FEFC202000F0EFFCC62000F0F8FCAC
:101570000F2000F0E9FCD02000F0F2FCA42000F0E5
:10158000E3FCA12000F0E0FCE02000F0E9FCD0202A
:1015900000F0DAFC042000F0D7FC0D2000F0D4FCB1
:1015A000112000F0D1FC132000F0CEFC2B2000F025
:1015B000CBFC3F2000F0C8FC542000F0C5FC4C20C0
:1015C00000F0C2FC182000F0BFFC0D2000F0BCFCB5
:1015D0000B2000F0B9FC1F2000F0B6FC232000F027
:1015E000B3FCE12000F0BCFCD02000F0ADFC0420F6
:1015F00000F0AAFC0C2000F0A7FC112000F0A4FCD5
:10160000132000F0A1FC2C2000F09EFC3F2000F0F5
:101610009BFC442000F098FC512000F095FC2F200A
:1016200000F092FC1F2000F08FFC1F2000F08CFCCB
:10163000202000F089FC232000F086FC212000F00F
:101640008FFC292000F08CFC10BD00002DE9FF5F0D
:1016500080468A4617469B460F9D00200290CDF893
:101660000080284605EBD071C1F347042046E217FD
:1016700004EB5272D2102146E31704EB5373DB10D4
:10168000A4EBC3030BB1012300E000231A446A4317
:1016900092B20192A7F12000C7B20AEB0500401EEA
:1016A00083B208EB0400401E82B251464046FFF769
:1016B000A2FE002669E00C2D07D107EB4700354953
:1016C00001EB8000805D03901BE0102D05D13248B6
:1016D00000EB0710805D039013E0182D07D107EB96
:1016E00047002E4901EB0010805D039009E0202D9A
:1016F00005D12B4800EB8710805D039001E0BDE829
:10170000FF9F4FF000093AE01098C8B9012000FA95
:1017100009F00399084018B1584600F003FC02E0B4
:101720000E9800F0FFFB0298401CC0B20290029895
:1017300090FBF4F104FB1100E8B90020029021E0D5
:10174000012000FA09F00399084020B15A46514699
:101750004046FFF76DFE08F101001FFA80F800987F
:10176000A8EB0000A04206D1DDF800800AF10100DC
:101770001FFA80FA06E009F1010000F0FF09B9F153
:10178000080FC1DB00BF701C86B20198864292DB55
:1017900000BFB4E778360008EC3A0008DC400008E7
:1017A000AC5200082DE9FE4F8046894617469A46FE
:1017B000DDE90D460C9D36E00C2C09D153463A4626
:1017C00049464046CDE90146009500F031F825E054
:1017D000102C09D153463A4649464046CDE90146C8
:1017E000009500F0C9F819E0182C09D153463A4683
:1017F00049464046CDE90146009500F059F90DE013
:10180000202C09D153463A4649464046CDE9014687
:10181000009500F0F1F901E0BDE8FE8FBF1C08EB78
:1018200004001FFA80F838780028C5D100BFF3E71C
:101830002DE9FF5F0646894692469B460F9C002095
:10184000039000962046E21704EB5272D210214614
:10185000E31704EB5373DB10A4EBC3030BB10123B9
:1018600000E000231A44624392B2019205200290E4
:10187000002579E005EB850000EBC5003D4911F836
:1018800010009AF8001088426BD105EB850000EB40
:10189000C500384901EB400040789AF801108842B1
:1018A0005FD109EB0400401E83B23019401E82B2A2
:1018B00049463046FFF79FFD00274FE04FF00008F4
:1018C00046E0109808BB05EB850000EBC5002949F0
:1018D00001EB4000801CC05D012101FA08F10840C5
:1018E00018B1584600F01EFB02E00E9800F01AFBFB
:1018F0000398401CC0B20390039890FBF4F104FBE2
:10190000110008BB0020039025E005EB850000EBEB
:10191000C500184901EB4000801CC05D012101FA9F
:1019200008F1084020B15A4649463046FFF780FD8D
:10193000701C86B20098301AA04205D1009E09F1B1
:1019400001001FFA80F906E008F1010000F0FF082D
:10195000B8F1080FB5DB00BF781CC7B20198874209
:10196000ACDB00BF681C85B20298854282DBBDE813
:10197000FF9F00006C6A00082DE9FF5F064689465C
:1019800092469B460F9C0020039000962046E2174B
:1019900004EB5272D2102146E31704EB5373DB10B1
:1019A000A4EBC3030BB1012300E000231A446243FC
:1019B00092B2019205200290002571E005EB05101E
:1019C0003A4911F810009AF80010884265D105EBE9
:1019D0000510364901EB400040789AF80110884222
:1019E0005BD109EB0400401E83B23019401E82B265
:1019F00049463046FFF7FFFC00274BE04FF0000858
:101A000042E01098F8B905EB0510284901EB4000B9
:101A1000801CC05D012101FA08F1084018B1584648
:101A200000F080FA02E00E9800F07CFA0398401C67
:101A3000C0B20390039890FBF4F104FB1100F8B9D5
:101A40000020039023E005EB0510184901EB40004E
:101A5000801CC05D012101FA08F1084020B15A46FE
:101A600049463046FFF7E4FC701C86B20098301AF5
:101A7000A04205D1009E09F101001FFA80F906E09D
:101A800008F1010000F0FF08B8F1080FB9DB00BF52
:101A9000781CC7B201988742B0DB00BF681C85B2D2
:101AA000029885428ADBBDE8FF9F0000EE6A0008CD
:101AB0002DE9FF5F0646894692469B460F9C002013
:101AC000039000962046E21704EB5272D210214692
:101AD000E31704EB5373DB10A4EBC3030BB1012337
:101AE00000E000231A44624392B201920520029062
:101AF000002579E005EB850000EB45103D4911F824
:101B000010009AF8001088426BD105EB850000EBBD
:101B10004510384901EB400040789AF8011088429E
:101B20005FD109EB0400401E83B23019401E82B21F
:101B300049463046FFF75FFC00274FE04FF00008B2
:101B400046E0109808BB05EB850000EB45102949DD
:101B500001EB4000801CC05D012101FA08F1084042
:101B600018B1584600F0DEF902E00E9800F0DAF9FC
:101B70000398401CC0B20390039890FBF4F104FB5F
:101B8000110008BB0020039025E005EB850000EB69
:101B90004510184901EB4000801CC05D012101FA8D
:101BA00008F1084020B15A4649463046FFF740FC4C
:101BB000701C86B20098301AA04205D1009E09F12F
:101BC00001001FFA80F906E008F1010000F0FF08AB
:101BD000B8F1080FB5DB00BF781CC7B20198874287
:101BE000ACDB00BF681C85B20298854282DBBDE891
:101BF000FF9F0000986B00082DE9FF5F06468946AD
:101C000092469B460F9C0020039000962046E217C8
:101C100004EB5272D2102146E31704EB5373DB102E
:101C2000A4EBC3030BB1012300E000231A44624379
:101C300092B2019205200290002571E005EB85101B
:101C40003A4911F810009AF80010884265D105EB66
:101C50008510364901EB400040789AF8011088421F
:101C60005BD109EB0400401E83B23019401E82B2E2
:101C700049463046FFF7BFFB00274BE04FF0000816
:101C800042E01098F8B905EB8510284901EB4000B7
:101C9000801CC05D012101FA08F1084018B15846C6
:101CA00000F040F902E00E9800F03CF90398401C67
:101CB000C0B20390039890FBF4F104FB1100F8B953
:101CC0000020039023E005EB8510184901EB40004C
:101CD000801CC05D012101FA08F1084020B15A467C
:101CE00049463046FFF7A4FB701C86B20098301AB4
:101CF000A04205D1009E09F101001FFA80F906E01B
:101D000008F1010000F0FF08B8F1080FB9DB00BFCF
:101D1000781CC7B201988742B0DB00BF681C85B24F
:101D2000029885428ADBBDE8FF9F00000A6D00082B
:101D30002DE9FF4F2DED020B2DED028B83B00746F1
:101D4000B0EE408A1446DDE91486304606EBD071C9
:101D5000C1F3470A9FED220A28EE000ABCEEC00A32
:101D600010EE100A1FFA80FB002530E0601B401EB9
:101D7000C1B20A2000F006FCBBFBF0F00A21B0FB68
:101D8000F1F201FB1209A01EA84210D10020A11EF1
:101D900001FB0A71CDE90086029088B22E220A9BCF
:101DA0000899FFF753FC681CC5B2601CC4B2002040
:101DB00009F13001CAB205FB0A71CDE90086029033
:101DC00088B20A9B0899FFF741FC681CC5B2A5427E
:101DD000CCDB03B0BDEC028B06B0BDE8F08F000099
:101DE0000000C8422DE9FF4F85B0074691461D46C9
:101DF000DDE913A600200490304606EBD071C1F354
:101E0000470B002434E0281B401EC1B20A2000F01A
:101E1000B9FBB9FBF0F00A21B0FBF1F201FB1208AB
:101E20000498A0B9681EA04211DDB8F1000F0CD1D2
:101E3000002004FB0B71CDE900A6029088B220229D
:101E4000129B0699FFF702FC10E00120049000208D
:101E500008F13001CAB204FB0B71CDE900A6029073
:101E600088B2129B0699FFF7F1FB00BF601CC4B259
:101E7000AC42C8DB09B0BDE8F08F2DE9F05F074642
:101E8000884615461E46DDF82890002408EB06001B
:101E9000401E83B27819401E82B241463846FFF791
:101EA000AAFAA24618E04FF0000B0FE019F8140050
:101EB00000F04AF8012101EB440119F8010000F09B
:101EC00043F8641C0BF101001FFA80FBB345EDDB06
:101ED0000AF101001FFA80FAAA45E4DBBDE8F09F91
:101EE0002DE9FE4F06460F4614469846DDE90D5A89
:101EF000DDF8309010E0CDE9015ACDF8009022785D
:101F0000434639463046FFF7A1FB284605EBD07122
:101F100006EB61018EB2641C20780028EBD1BDE88D
:101F2000FE8F000038B5044620128DF80000E0B2A4
:101F30008DF801004FF0FF33022269460148FFF798
:101F400041F938BD1000002001B54FF0FF330122E8
:101F500069460248FFF736F908BD0000100000206E
:101F600001B500BF002208214FF09040FEF708FBAA
:101F700000BF4FF0FF33012269460648FFF722F900
:101F800000BF012208214FF09040FEF7F9FA00BF90
:101F900008BD00001000002000B587B0142102A881
:101FA000FEF78AF900BF1748C06C40F020001549C1
:101FB000C8640846C06C00F02000019000BF00BF5C
:101FC00000BF0846C06C40F00100C8640846C06C01
:101FD00000F00100019000BF00BF01221C214FF062
:101FE0009040FEF7CDFA1C2002900120039004904F
:101FF0000320059002A94FF09040FEF7DBF907B0EF
:1020000000BD00000010024010B5164816490860D7
:102010004FF4827048604FF40041134881604FF4E0
:10202000E061C1600021016141614FF40071816193
:102030001821C16100210162416281620721C162F0
:102040000021016308214163FFF704F808B1FEF79E
:1020500099F905480068006840F0400002490968A5
:10206000086010BD003001401000002000BFFEE7F6
:1020700000BFFEE77047000070B5164DED6805F033
:102080000304144DED68C5F303156B1C022C0CD032
:10209000032C09D1104DB5FBF3F50E4EF668C6F3CF
:1020A000062605FB06F10AE000BF0C4DB5FBF3F573
:1020B000084EF668C6F3062605FB06F100BF00BF12
:1020C000044DED68C5F341656D1C6A00B1FBF2F08B
:1020D00070BD00000010024000127A000024F400DD
:1020E000F8B504460E461546334600224FF4C0515B
:1020F0002046009500F026F828B1206E40F0200020
:1021000020660320F8BD334600228021204600953A
:1021100000F094F828B1206E40F0200020660320E3
:10212000F0E7334600224FF4C0612046009500F0EE
:1021300009F828B1206E40F0200020660320E1E776
:102140000020DFE72DE9FC5F04460D4616461F46DA
:10215000DDF8309000200090FEF718FAA0EB09009F
:10216000A7EB0008FEF712FA8246206800F10C0B7C
:1021700031480068C0EBC00000EB8000000D00FBA0
:1021800008F0019050E0B5F5C06F05D126B99BF875
:10219000000000909DF80000781C002844D0FEF755
:1021A000F5F9A0EB0A00404502D2B8F1000F34D196
:1021B0002068406820F0E000216848606068B0F561
:1021C000827F0DD1A068B0F5004F03D0A068B0F5B4
:1021D000806F05D12068006820F040002168086009
:1021E000A06AB0F5005F0DD100BF2068006820F440
:1021F0000050216808602068006840F400502168A1
:10220000086000BF012084F85D0000BF002084F852
:102210005C0000BF0320BDE8FC9F019808B94FF0A7
:1022200000080198401E0190206880682840B04254
:10223000A9D10020EFE700000C0000202DE9F84FA5
:1022400004460D4690461E46DDF82890FEF79EF99E
:10225000A0EB0900371AFEF799F982462C4800686E
:10226000C0F3CB307843009045E0701C002842D08A
:10227000FEF78CF9A0EB0A00B84200D2A7BB206899
:10228000406820F0E000216848606068B0F5827F17
:102290000DD1A068B0F5004F03D0A068B0F5806FF5
:1022A00005D12068006820F0400021680860A06A1D
:1022B000B0F5005F0DD100BF2068006820F4005029
:1022C000216808602068006840F4005021680860B8
:1022D00000BF012084F85D0000BF002084F85C008E
:1022E00000BF0320BDE8F88FFFE7009800B9002782
:1022F0000098401E0090206880682840A84201D1C4
:10230000012000E000204045AFD10020EAE70000B6
:102310000C000020704710B5FEF73EF910BD00B567
:1023200093B0382105A8FDF7C7FF14216846FDF7D3
:10233000C3FF0020FEF7ECF9012005900004069091
:1023400002200C9003210D9102210E9155210F9135
:10235000022110911191129105A8FEF7CDFB08B151
:10236000FEF710F80F20009003200190002002904B
:102370000390049004216846FEF760FA08B1FEF766
:1023800001F813B000BD00000348006840F470007D
:10239000014908607047000088ED00E000BFFEE7DB
:1023A00002480068C0F30220704700000CED00E016
:1023B00010B5002804DB0A07130E054A135406E083
:1023C0000A07140E034A00F00F031B1FD45410BD5C
:1023D00000E400E018ED00E02DED048B84B0FEF782
:1023E000E7F8FFF79CFFFFF7D7FDFFF70DFEFFF7BC
:1023F00052F84FF6FF70F0231A460021009008466D
:10240000FFF724F89FED4F0BB0EE408AF0EE608AA4
:1024100096E0002020214FF6FF724FF47843CDE97B
:102420000021029049A20146FFF7BCF900201021CB
:102430004FF6FF724FF47843CDE90021029045A298
:102440002821FFF74DFD10204FF6FF714FF4784221
:102450000323CDE900210290F02228213020FFF74C
:10246000C1FC002010214FF6FF724FF47843CDE9F4
:102470000021029039A228215020FFF731FD1020C1
:102480004FF6FF714FF478420323CDE9002102900B
:10249000F02228218020FFF7A5FC002010214FF614
:1024A000FF724FF47843CDE9002102902BA228213E
:1024B0005020FFF715FD002010214FF6FF724FF45A
:1024C0007843CDE90021029026A24621FFF708FDBE
:1024D00051EC180B00F062F809EE100A10204FF6CC
:1024E000FF714FF478430422B0EE490ACDE90010A1
:1024F00046218020FFF71CFC9FED1F0B53EC102B97
:1025000051EC180B00F07CF841EC180B002515E09D
:1025100000240FE01A4805EB8502782303EBC20183
:1025200004EB84020090D00028231A46FFF7A5FC94
:10253000601CC4B2062CEDDB681CC5B2032DE7DBC2
:1025400067E7000000000000000000007A6A79647C
:102550007A0000004C43445F573A00004C43445F0C
:10256000483A0000496E637265617365696E672061
:102570004E756E3A00000000295C8FC2F528BC3F02
:10258000E029000810B50246012000E050430B1E70
:10259000A1F10104E1B2F9D110BD000021F0004227
:1025A000A2F16052B2F5801F01F0004328BFD2F1C2
:1025B0007F6C0BD95FEA001C43EAC20242EB507009
:1025C00018BF704728BF20F001007047B2F5801F88
:1025D000BCBF184670474FEA410C1CF5001F02D2E1
:1025E000084600F0F8B970B500F0B2F800000089B4
:1025F000FFF7F6BF4FF00040A0F5800070470000E5
:1026000010B591EA030F48BF83F0004300F1FC804E
:10261000841A71EB030C05D2121943EB0C03001B57
:1026200061EB0C01DFF824E14FEA1154A4EB135CD9
:102630001EEA430F18BF9EEA445F73D023EA0E03DD
:10264000DCF1200E21EA045143F4801332D322FA44
:102650000CFE10EB0E0023FA0CFE41EB0E01CCF148
:10266000200E03FA0EFE10EB0E0051F10001B1F541
:10267000801FCCF1200E32D201EB045112FA0EF27F
:10268000BDE8104058BF7047401C38BF5FEA4202A7
:1026900018BF7047002814BF20F0010041F100016D
:1026A0004FEA410313F5001F38BF7047A1F1C04145
:1026B00000F09CB8012A43EB0302ACF1200CDCF1E2
:1026C0001F0E32BF4FF0000E23FA0CF310EB030085
:1026D00041EB0451B4EB115FD0D0A1EB045101F5F3
:1026E000801149085FEA300001EB04510ED350F12C
:1026F000000038BF12FA0EFE08D1BDE81040C9E74D
:10270000401C38BF5FEA4202CAD1C3E7BDE81040AF
:102710004FEA410313F5001F38BF7047A1F1C041D4
:1027200000F064B89EEA445F08D011EA5E0FBDE88D
:10273000104004BF01F0004100207047BDE8104088
:1027400070B500F005F800BF64FBBE3E0000E0FF7E
:102750000EF1020E2EF0030E5EF8046B364205D425
:10276000012A43EB030515F5001F12D8012841EBA0
:10277000010C1CF5001F0CD80ED14FEAD17C15F5C9
:10278000001F0CEB4C0C0CF1020C08BF4CEBD37C83
:1027900004E04FF0080C01E04FEAD37C0CEB4C0551
:1027A00026FA05F606F00706B6F1040C06D20EEB83
:1027B000860CBDE870404CF0010C6047DFE80CF07F
:1027C000090B02024FF000414FF00000A1F500217B
:1027D00070BD19461046012851EB010418BFD4F50D
:1027E000001484BF002001F0004170BD0808A0F56E
:1027F00000114FEA3101704710B591EA030F48BF4D
:1028000083F000433FF504AF841A71EB030C07D249
:1028100012198CF0004C43EB0C03001B61EB0C0114
:10282000DFF8A4E14FEA1154A4EB135C1EEA430F56
:1028300018BF9EEA445F00F0B08023EA6E03524264
:1028400021EA0451C3EB6E0338BF5B1EDCF1200E9E
:1028500025D322FA0CFE10EB0E0043FA0CFE41EBDE
:102860000E01CCF1200E03FA0EFE10EB0E0051F11A
:102870000001CCF1200E29D412FA0EF201EB045122
:10288000BDE8104058BF7047401C1CBFB2F1004F5C
:10289000704700280CBF491C20F00100704712EB64
:1028A000020E43EB030218BF4FF0010E4EEA420244
:1028B000ACF1200CDCF11E0E54D943FA0CFE10EBE7
:1028C0000E0051F1FF31CCF11E0ED5D50EF1010EE7
:1028D00012FA0EFE404141EB010101EB445C5FEA5C
:1028E0005C5C10D910EBDE7001EB045138BFBEF117
:1028F000004FBDE8104018BF704700280CBF491CAE
:1029000020F00100704730D24FEAD42C11F50011AD
:1029100024F400641BD0B1FA81F20B3AA41AA41E6D
:10292000D2F12003914030FA03F31943904001EBB8
:10293000CC71002C01EB0451BDE81040A8BF7047DA
:1029400001F1C0414FF0000001F000417047B0FAC2
:1029500080F310FA03F100D110BDE41A173C4805CA
:10296000C90AE4E701EB045110BD491001EB045121
:10297000BDE810404FEA300002E04FF00001704720
:102980004A0008BF0042F8D0B2F5001F28BF7047C8
:1029900001F000414FF0000070479EEA445F07D00D
:1029A00011EA5E0FBDE8104004BF0021002070470F
:1029B000BDE8104070B5FFF7CBFE00BF40DFF63E2C
:1029C00083F00041104670470000E0FF4FF0407078
:1029D000E1EE100A7047FF2141EAD050C005704770
:1029E000FFFFFFFFFFFFFFFFFFFFFFFFFFFFFFFFF7
:1029F000FFFFFFFFFFFFFFFFFFFFFFFFFFFFF7BE30
:102A0000FFFFFFDEC6388C926B8E6B6E7C10AD962E
:102A1000E73CFFFFFFFFFFFFFFFFFFFFFFFFFFFFA1
:102A2000FFFFFFFFFFFFFFFFFFFFFFFFFFFFFFFFB6
:102A3000FFFFFFFFFFFFFFFFFFFFFFFFFFFFFFFFA6
:102A4000FFFFFFFFFFFFFFFFFFFFFFFFFFFFEF5D48
:102A50009D15634F426C320A298819461925214574
:102A600031E86B8EC638FFFFFFFFFFFFFFFFFFFF60
:102A7000FFFFFFFFFFFFFFFFFFFFFFFFFFFFFFFF66
:102A8000FFFFFFFFFFFFFFFFFFFFFFFFFFFFFFFF56
:102A9000FFFFFFFFFFFFFFFFFFFFFFFFA536531004
:102AA0004B1053514B0F3A6C31E92167192510E453
:102AB00008A30062088352CBD69AFFFFFFFFFFFFF7
:102AC000FFFFFFFFFFFFFFFFFFFFFFFFFFFFFFFF16
:102AD000FFFFFFFFFFFFFFFFFFFFFFFFFFFFFFFF06
:102AE000FFFFFFFFFFFFFFFFE73C637063B37CB8AE
:102AF00063F54311324D29EA218819261905190574
:102B00001104110410E4008308A38C72FFFFFFFF7F
:102B1000FFFFFFFFFFFFFFFFFFFFFFFFFFFFFFFFC5
:102B2000FFFFFFFFFFFFFFFFFFFFFFFFFFFFFFFFB5
:102B3000FFFFFFFFFFFFDEDB3A4B42F06C354B54EB
:102B400032B12A2E21EB21A91967190511041104AC
:102B5000110411041104190510E4004273AFFFFFC2
:102B6000FFFFFFFFFFFFFFFFFFFFFFFFFFFFFFFF75
:102B7000FFFFFFFFFFFFFFFFFFFFFFFFFFFFFFFF65
:102B8000FFFFFFFFEF5D3209324C4B10328F2A4FAF
:102B90002A2E19CC19892189194719051104110404
:102BA00010C410C411041104110410E40042843153
:102BB000FFFFFFFFFFFFFFFFFFFFFFFFFFFFFFFF25
:102BC000FFFFFFFFFFFFFFFFFFFFFFFFFFFFFFFF15
:102BD000FFFFFFFF52EC1947324C2A0B21EC21EC8E
:102BE000220C5B914AEE11061926190410E410E438
:102BF00029A7216608A319051104110410E4008215
:102C0000BDF7FFFFFFFFFFFFFFFFFFFFFFFFFFFF1E
:102C1000FFFFFFFFFFFFFFFFFFFFFFFFFFFFFFFFC4
:102C2000FFFFA535088321882188218921AA218ACF
:102C3000426B8C71FFFF8C720883110408C4422917
:102C4000DEFBEF5D5AEC08831104110411040883C4
:102C500031E8FFDFFFFFFFFFFFFFFFFFFFFFFFFF89
:102C6000FFFFFFFFFFFFFFFFFFFFFFFFFFFFFFFF74
:102C7000F7BE31C710C4192519261947194729A8C5
:102C8000528A4A28AD55FFFF31E808A319056B4D5C
:102C90006B4DFFFFEF7D214510C411041104110499
:102CA0000062AD76FFFFFFFFFFFFFFFFFFFFFFFFAB
:102CB000FFFFFFFFFFFFFFFFFFFFFFFFFFFFFFFF24
:102CC000B5960062110419041105190508C44A8B50
:102CD000B5B6EF5DBDF7FFFF6B8E006242295AAAC1
:102CE0004208FFFFFFFF52CC0883110411041104B6
:102CF00008A352ADFFFFFFFFFFFFFFFFFFFFFFFF36
:102D0000FFFFFFFFFFFFE71CFFFFFFFFFFFFFFFFCE
:102D1000634E006211041104110410E40062638E1A
:102D2000FFFFFFFFFFFFFFFF73CF00019CF3632C4A
:102D3000B596FFFFFFFF5B2D008311041104110402
:102D400010E42167EF3DFFFFFFFFFFFFFFFFFFFFE5
:102D5000BDF8B5B7EF9E52CB94B3FFFFFFFFFFDF87
:102D600031E808A3110411041104110408A3424915
:102D7000F7FFF7FFFFFFFFFF4A6A00018472FFFFC2
:102D8000FFFFF7FFEFDF3A0908A311041104110454
:102D900011041105BE18FFFFFFFFFFFFFFFFFFFF3C
:102DA0007BF0006231E831C70041A535FFFFEF5DE0
:102DB000214610C4110411041104110410E408A3E5
:102DC0009D76F7FFFFFFADB708A308A331C7E79EC5
:102DD000F7FFF7FFA57608A310E41104110411040E
:102DE00011051105A535FFFFFFFFFFFFFFFFFFFFE7
:102DF000DEDB29A7008310C410C410C4E71CEF9EBB
:102E0000110510E41104110411041104190408C47B
:102E100010E56BD16BD108C5006408A50043322BC7
:102E20009D7784B3192510C41104110411041104F1
:102E3000192509269D35FFFFFFFFFFFFFFFFFFFF5D
:102E4000FFFF73AF00621904190500825B0D9B8EB2
:102E50001062110511041104190410E40085110514
:102E600039C45A817B409C22AC43A4039B83728269
:102E7000498218C200A400C510E419041104190500
:102E8000194711675AECFFBEFFFFFFFFFFFFFFFF6F
:102E9000FFDFDEDB10C410E41104110518A4C0012B
:102EA000888300E41905190408C521448343D52308
:102EB000FE42FEE4FF27FF07FEA4FE64FE03FDA31F
:102EC000FCE2EC42B383622410E508C4190419261D
:102ED00019A821879000BCD3FFFFFFFFFFFFFFFF72
:102EE000FFDFFFFF7C100042190511052883D00188
:102EF000F84448A300E408C55A44ED02FDE2FE028E
:102F0000FE66FF74FFB8FF73F6E7F6A6F645F5A474
:102F1000FCC3FC62FCC2FCC2CBE349C411061988A5
:102F2000018790A4F8019AECFFFFFFFFFFFFFFFF6E
:102F3000FFFFFFFFF7BE31E8008309054082C001B3
:102F4000F823F08548A300A45A44FD02CC23DCC238
:102F5000FE04FE28F648F646F624F5E4FD64FCE39C
:102F6000FC62FCC2E402DC02FCE27AA401480167D4
:102F700078C4F824F802B084E77DFFFFFFFFFFFF6D
:102F8000FFFFFFFFFFFFDEDB192500A338C4E002CF
:102F9000D822F844F8A678A40063214372833983C9
:102FA0009B82F521FD61FD22FCE2FCA2FC42FC4279
:102FB000FC42AB22418392C352040126192598A4F6
:102FC000F844F823F802D0A4EF9EFFFFFFFFFFFFB5
:102FD000FFFFFFFFFFFFFFFFD69A298700A5B84339
:102FE000F822E023F865F8E8C9074883004200A307
:102FF000008429637AA2B362CBA2D362BB028A8225
:10300000398300A400E500E508E560C4D864F8440D
:10301000F824F823F8028883C6DBFFFFFFFFFFFFD9
:10302000FFFFFFFFFFFFFFFFFFFFE73D5B503108A2
:10303000E823F843F044F865F909F9ABD18989062A
:1030400048A3184200020042006100820062006250
:10305000008320A350C488A5D885F865F844F844B7
:10306000F823F823D003108229C7EF5DFFFFFFFF8D
:10307000FFFFFFFFFFFFFFFFFFFFFFFFFFFF326CC0
:1030800038A5D802F823F865F866F8A7F94AFA0CCB
:10309000FA4DEA4CD20BB9A9B168A947B127B907D3
:1030A000D107E8E7F8C7F8A7F865F865F844F8230A
:1030B000F803D00228A3090508C45AECFFFFFFFF5C
:1030C000FFFFFFFFFFFFFFFFFFFFFFFFDEFB190515
:1030D00000C441A7C0E6F803F886F8A7F887F88689
:1030E000F8C7F929F98AF9ABF9ABF98BF96AF9292B
:1030F000F908F8C7F8A6F886F865F864F823F0022E
:10310000B106292500E410E4192519259D14FFFFB7
:10311000FFFFFFFFFFFFFFFFFFFFFFFFAD96006216
:1031200008829535CEBAA28BD044F825F887F8A747
:10313000F8C7F8A7F887F886F886F886F887F8A71A
:10314000F8A7F8A6F885F865F864F024B864930D3C
:10315000B6BB63CF0883110410E421663A49EF5DE2
:10316000FFFFFFFFFFFFFFFFFFFFFFFF94D30042C2
:1031700010E4CEBBFFFFE7BEB576AACCC107E045A1
:10318000F845F846F866F886F886F886F886F86511
:10319000F845F865E865D044A84388019082D73C9B
:1031A000EFFF95550883110411041905194694B3CE
:1031B000FFFFFFFFFFFFFFFFFFFFFFFF94B3004193
:1031C0002186DF5DFFFFFFFFFFFFE7DFC67AB4D395
:1031D000B34EC22AD168E0E6E8A6E8A5E8A5D8E69D
:1031E000C988A906A822A802A000C800D800E5F74F
:1031F000E7FFADF810C410E4110410E411054A8B88
:10320000FFFFFFFFFFFFFFFFFFFFFFFFA55500418F
:1032100029A7DF5DF7FFFFFFFFFFFFFFFFFFFFFFB6
:10322000EFFFDF7DCEDBCE59CDF8CDD7C5F7CE7918
:10323000BEFBA2ABF003F845D042E843F000D472E5
:10324000DFFFAE3910E410E4110410E41105298702
:10325000FFFFFFFFFFFFFFFFFFFFFFFFCE590883C8
:103260002146D71CF7FFFFFFFFFFFFFFFFFFFFFF18
:10327000FFFFFFFFFFFFFFFFFFFFFFFFFFFFFFFF5E
:10328000EFFFBA8BF804F845E062F044F800DB8EFB
:10329000DFFFA5F810C410E410E4110410E41925B0
:1032A000FFFFFFFFFFFFFFFFFFFFFFFFF7BE2987C5
:1032B0000883B639F7FFF7DFFFFFFFFFFFFFFFFFD0
:1032C000FFFFFFFFFFFFFFFFFFFFFFFFFFFFFFFF0E
:1032D000E7BEBA4AF803F845F864F844F800E36E2C
:1032E000D7FF8CF40883110410E410E410E41905EE
:1032F000FFFFFFFFFFFFFFFFFFFFFFFFFFFF73EF7A
:1033000000008472EFFFEFBEFFDFFFFFFFFFFFFF54
:10331000FFFFFFFFFFFFFFFFFFFFFFFFFFFFFFFFBD
:10332000E7DFBA8BF803F845F845F823F800D4D363
:10333000D7FF5B4E00213A29A555088310C41925F3
:10334000FFFFFFFFFFFFFFFFFFFFFFFFFFFFDEFBB2
:1033500008A331E8DF9EE79EEFBFFFFFFFFFFFFFFF
:10336000FFFFFFFFFFFFFFFFFFFFFFFFFFFFFFFF6D
:10337000F7FFBC51E002F803F003E043C2ECCF7E5C
:10338000BEFC2146002194D3FFFF84510000298711
:10339000FFFFFFFFFFFFFFFFFFFFFFFFFFFFFFFF3D
:1033A000845100008CF4EFFFE79EEFBFFFDFFFFFCB
:1033B000FFFFFFFFFFFFFFFFFFFFFFFFFFFFFFFF1D
:1033C000FFFFDF3DBD55BC52BC72B5B7C75DDFFF27
:1033D0006BF000003A09F7BFFFFFFFFF9D14A555F2
:1033E000FFFFFFFFFFFFFFFFFFFFFFFFFFFFFFFFED
:1033F000FFFF4AAC08A4BEBBE7DFE77EEFBEF7DF06
:10340000FFDFFFFFFFFFFFFFFFFFFFFFFFFFFFFFEC
:10341000FFDFF7DFEFFFDFDFD7BFD79EDFDFA5D806
:1034200008831126D6DBFFFFFFFFFFFFFFFFFFFF33
:10343000FFFFFFFFFFFFFFFFFFFFFFFFFFFFFFFF9C
:10344000EE79DC8B312121A9CF3DDFBFDF7EE79E06
:10345000EFBEEFBFF7DFF7DFF7DFF7DFF7DFEFBF35
:10346000EFBEE79EDF7ED75ED75EDFDFB69A192616
:103470000842A3EDFFBFFFFFFFFFFFFFFFFFFFFFBE
:10348000FFFFFFFFFFFFFFFFFFFFFFFFFFFFDD74F9
:10349000DBC0FE00EE4242022189B67BDFDFD77E31
:1034A000DF7EDF7EE79EE79EE79EE79EE79EDF7E6C
:1034B000DF7ED75DD75DDF9EE7FFA5F8110718E334
:1034C000C502FD60D3E6EEDBFFFFFFFFFFFFFFFF5E
:1034D000FFFFFFFFFFFFFFFFFFFFFFFFF79EBA8425
:1034E000FCC1FE42FE82FEA2838121457474C75E48
:1034F000DFDFD77ED75ED75DD75ED75ED75DD75D7E
:10350000D75EDF9EE7FFC73D63F108845242E6269F
:10351000FF29FE86F3E0C36AFFFFFFFFFFFFFFFF07
:10352000FFFFFFFFFFFFFFFFFFFFFFFFDE18D2C11E
:10353000FDA2FE22FE42FE42FE62D4E26A41424900
:103540007453A63BC73ED7BFD7BFD7BFDFBFD7BFD8
:10355000C73EA61A63F229A74182B422FE62FE8307
:10356000FEAAFF0FFD67BA63EF3CFFFFFFFFFFFFFF
:10357000FFFFFFFFFFFFFFFFFFFFFFFFE69AD28085
:10358000FD21FDC2F5E2F5C2F582FD82FD62DC613E
:103590009B216A846AE9632C63AF7411636E632CA8
:1035A0005A8952047A81CBC2FCE2FD62FD82FDC2DF
:1035B000FDC2FDE4FD24CA62E71CFFFFFFFFFFFF21
:1035C000FFFFFFFFFFFFFFFFFFFFFFFFFFFFCCB18C
:1035D000D281F3C0FCC1FD02FD02FCE2FCC2FCC2D0
:1035E000FC81FB80C9C081A4AD35CE599C7181217D
:1035F000DA00FBA1FC82FCA2FC82FCA2FD02FD22FF
:10360000FCE2FC00DA60CC90FFFFFFFFFFFFFFFF52
:10361000FFFFFFFFFFFFFFFFFFFFFFFFFFFFFFFFBA
:10362000DE59C40DCB06D2E4DB03DB03DAE3D2C3FD
:10363000C2A4B309BCD2F79EFFFFFFFFFFFFE6FB6A
:10364000B40EBAA6D283E2E3EB02EB22E322DB0361
:10365000D2E4C36AD5B6FFFFFFFFFFFFFFFFFFFF06
:103660000000000000000000010203040607080932
:103670000000000001020304000000000000000040
:103680000000000000000404040404000004000022
:1036900014140A00000000000000000000000A0AE4
:1036A0001F0A0A1F0A0A000000040E1505060C1462
:1036B000150E0400000012150D152E2C2A12000004
:1036C0000000040A0A36151529160000020201003E
:1036D00000000000000000001008080404040404B6
:1036E000080810000204040808080808040402007E
:1036F00000000004150E0E15040000000000000874
:10370000083E080800000000000000000000000063
:103710000202010000000000003F00000000000065
:103720000000000000000000000200000020101057
:10373000080804040202010000000E111111111109
:10374000110E00000000040604040404040E00002E
:1037500000000E1111080402011F000000000E11EC
:10376000100C1010110E00000000080C0C0A091FAC
:10377000081C000000001F01010F1110110E0000B5
:1037800000000C12010D1311110E000000001E109C
:10379000080804040404000000000E11110E1111A9
:1037A000110E000000000E1111191610090600007C
:1037B0000000000004000000000400000000000001
:1037C00000040000000404000000100804020204C9
:1037D00008100000000000003F003F000000000053
:1037E00000000204081010080402000000000E117E
:1037F000110804040004000000001C22292D2D1DC6
:10380000221C0000000004040C0A0A1E12330000EF
:1038100000000F12120E1212120F000000001E11F3
:1038200001010101110E000000000F12121212120C
:10383000120F000000001F120A0E0A02121F0000E1
:1038400000001F120A0E0A020207000000001C12EC
:1038500001013911120C000000003312121E121265
:103860001233000000001F0404040404041F0000BD
:1038700000003E0808080808080809070000371279
:103880000A060A12123700000000070202020202B2
:10389000223F000000003B1B1B1B151515350000C7
:1038A00000003B1216161A1A1217000000000E1123
:1038B00011111111110E000000000F12120E020260
:1038C0000207000000000E1111111117190E180047
:1038D00000000F12120E0A121237000000001E1113
:1038E00001060810110F000000001F150404040455
:1038F000040E00000000331212121212120C00000B
:1039000000003312120A0A0C04040000000015150E
:1039100015150E0A0A0A000000001B0A0A04040A10
:103920000A1B000000001B0A0A0A0404040E00001F
:1039300000001F0908040402121F00001C040404F4
:103940000404040404041C00000202040404080823
:10395000081010000E0808080808080808080E00DB
:10396000040A000000000000000000000000000049
:10397000000000000000003F020400000000000002
:103980000000000000000000000C121C123C0000AF
:1039900000030202020E1212120E000000000000CC
:1039A000001C1202120C000000181010101C121241
:1039B000123C000000000000000C121E021C00005F
:1039C00000182404041E0404041E0000000000006B
:1039D000003C120C021C221C00030202020E1212F6
:1039E000123700000004040000060404040E000066
:1039F00000080800000C0808080808070003020275
:103A0000021A0A060A13000000070404040404044E
:103A1000041F000000000000000F15151515000020
:103A200000000000000F121212370000000000001A
:103A3000000C1212120C000000000000000F121205
:103A4000120E020700000000001C1212121C103897
:103A500000000000001B060202070000000000003A
:103A6000001E020C101E000000000004041E0404CE
:103A7000041C000000000000001B1212123C000099
:103A800000000000001B0A0A0404000000000000FF
:103A90000015150E0A0A000000000000001B0A04B1
:103AA0000A1B000000000000003312120C0804037F
:103AB00000000000001E0804041E0000180808088A
:103AC000080C08080808180008080808080808086A
:103AD0000808080806040404040804040404060092
:103AE00016090000000000000000000000000000B7
:103AF00000000000000000000000000000000008BE
:103B000008080808080800001818000000486C247D
:103B1000120000000000000000000000000000246F
:103B200024247F1212127F12121200000000081CBF
:103B30002A2A0A0C1828282A2A1C08080000002211
:103B4000251515152A585454542200000000000C65
:103B50001212120A76252911916E00000006060441
:103B600003000000000000000000000000402010E2
:103B70001008080808080810102040000002040877
:103B800008101010101010080804020000000000B7
:103B900008086B1C1C6B08080000000000000000F7
:103BA000080808087F080808080000000000000056
:103BB00000000000000000000606040300000000F2
:103BC00000000000FE0000000000000000000000F7
:103BD0000000000000000000060600000000804019
:103BE0004020201010080804040202000000001801
:103BF000244242424242424224180000000000088F
:103C00000E08080808080808083E00000000003CEC
:103C10004242422020100804427E00000000003C86
:103C20004242201820404042221C00000000002098
:103C30003028242422227E20207800000000007EEC
:103C40000202021A26404042221C000000000038F6
:103C50002402021A26424242241800000000007E7C
:103C60002222101008080808080800000000003C84
:103C70004242422418244242423C00000000001804
:103C80002442424264584040241C000000000000CE
:103C900000001818000000001818000000000000C4
:103CA00000000008000000000008080400000040B8
:103CB000201008040204081020400000000000004A
:103CC00000007F0000007F000000000000000002F4
:103CD0000408102040201008040200000000003CEE
:103CE0004242464020101000181800000000001C3E
:103CF000225A555555552D42221C0000000000083F
:103D000008181414243C224242E700000000001F5F
:103D10002222221E22424242221F00000000007C7A
:103D20004242010101010142221C00000000001F6B
:103D30002242424242424242221F00000000003F13
:103D40004212121E12120242423F00000000003FC7
:103D50004212121E12120202020700000000003C72
:103D60002222010101712122221C0000000000E733
:103D7000424242427E42424242E700000000003E90
:103D80000808080808080808083E00000000007C31
:103D900010101010101010101010110F00000077EC
:103DA00022120A0E0A1212222277000000000007D7
:103DB0000202020202020202427F000000000077BB
:103DC000363636362A2A2A2A2A6B0000000000E3FB
:103DD00046464A4A52525262624700000000001CA6
:103DE0002241414141414141221C00000000003F6D
:103DF000424242423E020202020700000000001C52
:103E00002241414141414D53321C60000000003FBE
:103E10004242423E1212222242C700000000007CB1
:103E20004242020418204042423E00000000007F4F
:103E30004908080808080808081C0000000000E7F6
:103E40004242424242424242423C0000000000E7FD
:103E50004242222424141418080800000000006BB9
:103E6000494949495555362222220000000000E701
:103E7000422424181818242442E700000000007788
:103E80002222141408080808081C00000000007E04
:103E90002120101008040442423F00000078080866
:103EA0000808080808080808080878000000020246
:103EB000040408080810102020204040001E1010A4
:103EC000101010101010101010101E0000384400B8
:103ED00000000000000000000000000000000000E2
:103EE0000000000000000000000000FF00060800C5
:103EF00000000000000000000000000000000000C2
:103F00000000003C4278444242FC000000000003F4
:103F10000202021A26424242261A00000000000055
:103F20000000003844020202443800000000006033
:103F3000404040784442424264D800000000000003
:103F40000000003C427E0202423C0000000000F003
:103F50008808087E08080808083E000000000000E5
:103F60000000007C22221C023C42423C0000000374
:103F70000202023A4642424242E700000000000CC0
:103F80000C00000E08080808083E00000000003081
:103F900030000038202020202020221E00000003B6
:103FA00002020272120A1612227700000000000EAE
:103FB0000808080808080808083E0000000000007B
:103FC0000000007F9292929292B7000000000000E1
:103FD0000000003B4642424242E700000000000071
:103FE0000000003C42424242423C0000000000000F
:103FF0000000001B26424242221E02070000000071
:104000000000007844424242447840E00000000052
:10401000000000774C040404041F000000000000AE
:104020000000007C42023C40423E000000000000D4
:104030000008083E080808080830000000000000DA
:10404000000000634242424262DC000000000000C7
:10405000000000E7422424140808000000000000CB
:10406000000000EB494955552222000000000000E5
:104070000000007624181818246E000000000000CC
:10408000000000E74224241418080807000000007C
:104090000000007E22100808447E000000C020209E
:1040A00020202010202020202020C00010101010E0
:1040B000101010101010101010101010000608082A
:1040C0000808081008080808080806000C32C20092
:1040D00000000000000000000000000000000000E0
:1040E00000000000000000000000000000000000D0
:1040F00000000000000000000000000000000000C0
:1041000000000000000000000000000000000000AF
:10411000000000006000600060006000600060005F
:10412000600040002000200020000000000000008F
:10413000600060006000000000000000000000005F
:10414000600660063003980188004400000000000B
:10415000000000000000000000000000000000005F
:10416000000000000000000000000000000000004F
:10417000000000001002100210021002FE07FE07ED
:1041800008020801080108010801FE07FE070401F2
:104190000401040104010000000000000000000010
:1041A000000040004000F00158034C03CC034C00D9
:1041B00058007000E000C001C00140034C035C03E4
:1041C0004C034801F00040004000000000000000E7
:1041D000000000000E010A019100910091005100C1
:1041E00051003A00AE03A0025004500448044804B1
:1041F0004804840284030000000000000000000066
:104200000000000038006C006C006C006C006C005A
:104210002C0098071C011A01330133016301E300EC
:10422000C308C6093C0700000000000000000000B1
:104230000C001C001000100008000400000000002A
:10424000000000000000000000000000000000006E
:10425000000000000000000000000000000000005E
:1042600000040002000180008000400040002000A7
:1042700020002000200020002000200040004000FE
:104280008000800000010002000400000000000027
:104290000200040008001000100020002000400070
:1042A000400040004000400040004000200020004E
:1042B00010001000080004000200000000000000D0
:1042C00000000000000000004000C0004000460C5C
:1042D0004E0FD001F0015E0F460C40004000400040
:1042E00000000000000000000000000000000000CE
:1042F00000000000000000000000400040004000FE
:1043000040004000FE0F40004000400040004000E0
:10431000000000000000000000000000000000009D
:10432000000000000000000000000000000000008D
:10433000000000000000000000000000000000007D
:104340000C001C0010001000080004000000000019
:10435000000000000000000000000000000000005D
:1043600000000000FE070000000000000000000048
:10437000000000000000000000000000000000003D
:10438000000000000000000000000000000000002D
:10439000000000000000000000000000000000001D
:1043A0001C001C001C0000000000000000000000B9
:1043B00000040006000200030001000180008000EC
:1043C00040004000600020002000100010000800A5
:1043D00008000C00040006000200000000000000BD
:1043E000000000000000F00098010C030C0306061A
:1043F00006060606060606060606060606060C035A
:104400000C039801F0000000000000000000000014
:1044100000000000000040007C00600060006000C0
:10442000600060006000600060006000600060008C
:1044300060006000FC0300000000000000000000BD
:10444000000000000000F8008401020306030603D8
:10445000000300018001C00060002000100008027D
:1044600004020602FE03000000000000000000003D
:104470000000000000007800C6008601860180016F
:104480008001C000700080010001000300030603EA
:1044900006038601F8000000000000000000000094
:1044A00000000000000080018001C001A001A00107
:1044B00090018801880184018201FE0F8001800142
:1044C00080018001E0070000000000000000000003
:1044D000000000000000FC030400040004000400CD
:1044E0000400F4008C010403000300030603060328
:1044F00082018401F80000000000000000000000BC
:10450000000000000000E00118030C030C00040090
:104510000600E60116030E06060606060606040653
:104520000C021803F0000000000000000000000072
:10453000000000000000F8070C060402040100015E
:1045400000018000800040004000400060006000EA
:10455000600060006000000000000000000000003B
:10456000000000000000F8010C030606060606061F
:104570000C021C03F000C8010C0306060606060622
:1045800006060C03F001000000000000000000001F
:10459000000000000000F0000C010C0306020606FB
:1045A0000606060606078C067806000600030003CA
:1045B0000C018C01780000000000000000000000E9
:1045C00000000000000000000000000000000000EB
:1045D000E000E000E000000000000000000000003B
:1045E000E000E000E000000000000000000000002B
:1045F00000000000000000000000000000000000BB
:1046000060006000000000000000000000000000EA
:10461000000060006000400020002000000000005A
:1046200000000000000400020001800040002000A3
:104630001000080004000800100020004000800066
:104640000001000200040000000000000000000063
:10465000000000000000000000000000000000005A
:10466000FE07000000000000FE0700000000000040
:10467000000000000000000000000000000000003A
:10468000000000000400080010002000400080002E
:104690000001000200040002000180004000200030
:1046A00010000800040000000000000000000000EE
:1046B000000000000000E0031806040C040C0C0CC1
:1046C0000C0C00078001400040004000000000008A
:1046D000E000E000E000000000000000000000003A
:1046E00000000000E00018030C02CC05640566051C
:1046F000A605B604B604B604B604B602E4010C047A
:104700000C021803F0000000000000000000000090
:10471000000000000000600060005000D000900029
:104720009000880088010801F801040304030402D2
:10473000020202060F0F000000000000000000004F
:10474000000000000000FE008C030C030C030C03AF
:104750000C038C01FC000C030C020C060C060C066E
:104760000C060C03FE010000000000000000000029
:10477000000000000000E00318030C060C04040411
:1047800006000600060006000600060006040C04EB
:104790000C021803F0000000000000000000000000
:1047A0000000000000007F008C010C030C030C06CD
:1047B0000C060C060C060C060C060C060C060C036C
:1047C0000C038C017F0000000000000000000000CE
:1047D000000000000000FF030603060406040600B4
:1047E00086008600FE00860086008600060006041D
:1047F00006040602FF0300000000000000000000A5
:10480000000000000000FF03060306040604060083
:1048100086008600FE0086008600860006000600F0
:10482000060006001F00000000000000000000005D
:10483000000000000000F00018010C020C0204024D
:104840000600060006000600C60F060306030C035A
:104850000C031803F000000000000000000000003E
:104860000000000000000F0F0606060606060606FA
:1048700006060606FE0706060606060606060606DF
:10488000060606060F0F00000000000000000000F2
:10489000000000000000FC03600060006000600099
:1048A0006000600060006000600060006000600008
:1048B00060006000FC030000000000000000000039
:1048C000000000000000F807C000C000C000C000E9
:1048D000C000C000C000C000C000C000C000C000D8
:1048E000C000C000C000C60066003C000000000020
:1048F000000000000000CF038601C600460026002D
:10490000160036002E006E004600C60086008601A6
:10491000060106038F0700000000000000000000F1
:104920000000000000001F00060006000600060050
:104930000600060006000600060006000600060443
:1049400006040602FF030000000000000000000053
:104950000000000000000707860386038E038E0315
:104960004E034E034A035A035A033A0332033203F7
:10497000320312038707000000000000000000005F
:104980000000000000008E0F0C021C021C0234020A
:104990003402640264024402C40284028403840375
:1049A000040304031F0200000000000000000000D8
:1049B000000000000000F00098010C030C02060645
:1049C00006060606060606060606060606060C0285
:1049D0000C039801F000000000000000000000003F
:1049E000000000000000FF0006030606060606069B
:1049F000060606068603FE00060006000600060000
:104A0000060006001F00000000000000000000007B
:104A1000000000000000F00098010C030C020606E4
:104A200006060606060606060606060676064C0274
:104A3000CC039801F0008007000300000000000094
:104A4000000000000000FF01060306060606060639
:104A500006060603FE004600C60086008601060321
:104A6000060306060F0E0000000000000000000014
:104A7000000000000000F8020C0306020602060017
:104A80000E003C00F800E003800300070206020667
:104A900006060C03F001000000000000000000000A
:104AA000000000000000FE07620461086108600069
:104AB00060006000600060006000600060006000F6
:104AC00060006000F801000000000000000000002D
:104AD0000000000000001E070C020C020C020C0279
:104AE0000C020C020C020C020C020C020C020C0256
:104AF0000C021801F000000000000000000000009F
:104B00000000000000000F070602040104010C0170
:104B10000C01880088009800980050005000700038
:104B20003000200020000000000000000000000015
:104B3000000000000000F70E620442044604460430
:104B400064026402E402E4029C029C019801980160
:104B500088018800880000000000000000000000BC
:104B60000000000000009E070C01080118019000E1
:104B7000B0006000200060006000D000900088015C
:104B8000080104038E070000000000000000000080
:104B90000000000000000F0F060404020C020801D0
:104BA0001801B800B0007000600060006000600094
:104BB00060006000F801000000000000000000003C
:104BC000000000000000FC070C0206030201800147
:104BD0008000400040002000200010001800080461
:104BE0000C040402FE0300000000000000000000AE
:104BF000E0032000200020002000200020002000F2
:104C000020002000200020002000200020002000A4
:104C10002000200020002000E00300000000000031
:104C2000000000000400040008000800100010004C
:104C300010002000200040004000C00080008000E4
:104C40000001000100020002000200040000000058
:104C50007C00400040004000400040004000400018
:104C60004000400040004000400040004000400044
:104C700040004000400040007C0000000000600058
:104C8000900008010000000000000000000000008B
:104C90000000000000000000000000000000000014
:104CA0000000000000000000000000000000000004
:104CB00000000000000000000000000000000000F4
:104CC00000000000000000000000000000000000E4
:104CD00000000000000000000000FF0F00000000C6
:104CE000180060000000000000000000000000004C
:104CF00000000000000000000000000000000000B4
:104D000000000000000000000000000000000000A3
:104D10000000000000000000000000000000000093
:104D2000F0010C030C030003E0031C030E03060355
:104D300006038E0B7C0E0000000000000000000047
:104D40000000000008000E000C000C000C000C001D
:104D5000CC013C031C060C060C060C060C060C06CB
:104D60000C021C03E4010000000000000000000031
:104D70000000000000000000000000000000000033
:104D8000F0008C018C018601060006000600060278
:104D90000C020C01F0000000000000000000000008
:104DA000000000000002C003000300030003000332
:104DB00078038C030C0306030603060306030603AD
:104DC00004038C07780100000000000000000000D0
:104DD00000000000000000000000000000000000D3
:104DE000E001180308020C060C06FC070C000C007E
:104DF00018041802E001000000000000000000009C
:104E0000000000000000C0036006300630003000E3
:104E1000FE01300030003000300030003000300043
:104E200030003000FC010000000000000000000025
:104E30000000000000000000000000000000000072
:104E4000F007D8068C018C018C019801F8000C0049
:104E5000FC00CC03060306038E03F80000000000EC
:104E60000000000008000E000C000C000C000C00FC
:104E7000EC011C030C030C030C030C030C030C03CC
:104E80000C030C039E07000000000000000000005F
:104E90000000000000006000600000000000400012
:104EA0007C006000600060006000600060006000E6
:104EB00060006000FC030000000000000000000033
:104EC000000000000000C001C0010000000000015F
:104ED000F00180018001800180018001800180015A
:104EE0008001800180018001CC007C000000000076
:104EF0000000000008000E000C000C000C000C006C
:104F00008C038C008C004C006C005C008C008C01CD
:104F10000C010C039E0700000000000000000000D0
:104F20000000000040007C00600060006000600045
:104F30006000600060006000600060006000600071
:104F400060006000FC0300000000000000000000A2
:104F50000000000000000000000000000000000051
:104F60003707EE0666066606660666066606660687
:104F700066066606FF0F000000000000000000004B
:104F80000000000000000000000000000000000021
:104F9000EE011C030C030C030C030C030C030C03A9
:104FA0000C030C039E07000000000000000000003E
:104FB00000000000000000000000000000000000F1
:104FC000F00098010C03060606060606060606060D
:104FD0000C030C03F00000000000000000000000C3
:104FE00000000000000000000000000000000000C1
:104FF000EE011C030C060C060C060C060C060C0637
:105000000C031C03EC010C000C003E00000000002F
:105010000000000000000000000000000000000090
:1050200078028C030C03060306030603060306033B
:1050300004038C03780300030003C0070000000092
:105040000000000000000000000000000000000060
:105050009F0358063806180018001800180018009A
:1050600018001800FF000000000000000000000011
:105070000000000000000000000000000000000030
:10508000F0031C030C020C023800F000C003040300
:1050900004038C03FC01000000000000000000007D
:1050A0000000000000000000200020003000300060
:1050B000FE013000300030003000300030003000A1
:1050C00030023002E001000000000000000000009B
:1050D00000000000000000000000000000000802C6
:1050E0008E030C030C030C030C030C030C030C03C6
:1050F0000C039C0778010000000000000000000085
:10510000000000000000000000000000000000009F
:105110001E070C020801080118019000B000B00041
:10512000600060002000000000000000000000009F
:10513000000000000000000000000000000000006F
:10514000F70E6204460464026402EC029C019801BA
:105150009801980108000000000000000000000015
:10516000000000000000000000000000000000003F
:10517000BC0718011001B00060006000E000900062
:10518000080108039E070000000000000000000066
:10519000000000000000000000000000000000000F
:1051A0009E0708010801080190009000B00060000F
:1051B000600060002000200024001C0000000000AF
:1051C00000000000000000000000000000000000DF
:1051D000FC018401C400440060002000300018027B
:1051E00008020C03FC0100000000000000000000A9
:1051F000000380008000800080008000800080002C
:10520000800040002000400080008000800080007E
:10521000800080008000800000030000400040000B
:10522000400040004000400040004000400040007E
:10523000400040004000400040004000400040006E
:1052400040004000400040004000400000000000DE
:105250000C001000100010001000100010001000D2
:10526000100020004000200010001000100010006E
:1052700010001000100010000C00000000001C00C6
:105280002204C204800300000000000000000000AF
:10529000000000000000000000000000000000000E
:1052A00000000000000000000000000000000000FE
:1052B00000000000000000000000000000000000EE
:1052C00000000000000000000000000000000000DE
:1052D00000000000000000000000000000000000CE
:1052E00000000000000000000000000000000000BE
:1052F000000000000000C001C001C001C001C001E9
:10530000C001C0018000800080008000800080001B
:10531000800000000000000000008001C003C00306
:1053200080010000000000000000000000000000FC
:105330000000E01CE01CF01E700E38071803080186
:1053400084000000000000000000000000000000D9
:10535000000000000000000000000000000000004D
:10536000000000000000000000000000000000003D
:10537000000000000000000020102010201020106D
:105380002010FE7FFE7F100810081008100810087B
:1053900010081008FE7FFE7F0804080408040804B3
:1053A00008040000000000000000000000000000F1
:1053B0000000000000010001C00760191031183121
:1053C0001839183938017001E001C0038007000F57
:1053D000001D003900311C311C310C310C11180D2D
:1053E000E0070001000100010000000000000000D3
:1053F00000000000000000001C1036186308630C59
:1054000063046304630263026301361D9C378022D8
:10541000806340634063206320633063102218364A
:10542000081C000000000000000000000000000058
:105430000000000000000000F00098018C018C01C9
:105440008C018C018C00CC007800183E1C083608BA
:10545000320863046304C304C303834306438E26F4
:10546000781C0000000000000000000000000000A8
:1054700000001C003C003C003000300010000C001C
:105480000600000000000000000000000000000016
:10549000000000000000000000000000000000000C
:1054A00000000000000000000000000000000000FC
:1054B00000000040002000100008000C000400065E
:1054C000000300030003800180018001800180014E
:1054D0008001800180010003000300030006000634
:1054E000000C000800100020004000000000000038
:1054F00000000200040008001000300020006000DE
:10550000C000C000C00080018001800180018001D6
:10551000800180018001C000C000C0006000600008
:10552000300010000800040002000000000000002D
:1055300000000000000000000000000000018003E7
:10554000800300011C713C79783DC0070001C00751
:10555000783D3C791C7100018003800380010000CC
:10556000000000000000000000000000000000003B
:10557000000000000000000000000000000000012A
:10558000000100010001000100010001FC7F000199
:105590000001000100010001000100010000000005
:1055A00000000000000000000000000000000000FB
:1055B00000000000000000000000000000000000EB
:1055C00000000000000000000000000000000000DB
:1055D0000000000000000000000000001C003C0073
:1055E0003C003000300010000C00060000000000FD
:1055F00000000000000000000000000000000000AB
:10560000000000000000000000000000FE7F00001D
:10561000000000000000000000000000000000008A
:10562000000000000000000000000000000000007A
:10563000000000000000000000000000000000006A
:10564000000000000000000000000000000000005A
:105650000000000000000000000018003C003C00BA
:105660001800000000000000000000000000000022
:10567000000000400060002000300010001800080A
:10568000000C0004000600020003000180018000FD
:10569000C00040006000200030001000180008002A
:1056A0000C000400060002000000000000000000E2
:1056B0000000000000000000C007600C3018183027
:1056C000183018200C600C600C600C600C600C60D2
:1056D0000C600C600C601820183018303018600C0A
:1056E000C0070000000000000000000000000000F3
:1056F000000000000000000000018001F8018001AE
:105700008001800180018001800180018001800191
:105710008001800180018001800180018001C0033F
:10572000F81F000000000000000000000000000062
:105730000000000000000000E007101C0818043002
:1057400004300C300C300030001800080004000257
:105750000001800040002020102008200430FC1FA1
:10576000FC1F00000000000000000000000000001E
:105770000000000000000000E003180E0C0C0C18E4
:105780000C180C180018000C0006C003000E0018BE
:105790000010003000300C300C300C100C18180CBD
:1057A000E003000000000000000000000000000016
:1057B0000000000000000000000C000E000E000FB2
:1057C000800E800E400E600E200E100E100E080E81
:1057D000040E040EFE7F000E000E000E000E000EE2
:1057E000000EC07F0000000000000000000000006C
:1057F0000000000000000000F03FF03F100010002B
:10580000100008000800C807280C181808100030FD
:105810000030003000300C300C3004180418080C34
:10582000F003000000000000000000000000000085
:105830000000000000000000800FC0102030103079
:105840001800180008000C008C0F6C183C301C600D
:105850000C600C600C600C60186018203030601810
:10586000C007000000000000000000000000000071
:105870000000000000000000F83FF83F1C100C087A
:1058800004080404000400020002000100010001F9
:10589000800080008000C000C000C000C000C000C8
:1058A000C000000000000000000000000000000038
:1058B0000000000000000000E007300C18180C3059
:1058C0000C300C301C3038187008E007B007180E88
:1058D0000C1C063806300630063006300C18180C42
:1058E000E0030000000000000000000000000000D5
:1058F0000000000000000000E00318040C080C1871
:105900000610063006300630063006380C3C1836D5
:10591000F03100300018001800180C0C0C060C03B5
:10592000F001000000000000000000000000000086
:105930000000000000000000000000000000000067
:105940000000000000008001C003C00380010000CF
:10595000000000000000000000008001C003C00340
:1059600080010000000000000000000000000000B6
:105970000000000000000000000000000000000027
:10598000000000000000C000C00000000000000097
:105990000000000000000000000000000000C00047
:1059A000C0008000800040004000000000000000B7
:1059B00000000000000000200010000800040006A5
:1059C00000038001C0006000300018000C001800C7
:1059D00030006000C00080010003000600040008E1
:1059E0000010002000000000000000000000000087
:1059F00000000000000000000000000000000000A7
:105A0000000000000000FE7F000000000000000019
:105A10000000FE7F00000000000000000000000009
:105A20000000000000000000000000000000000076
:105A300000000000000004000800100020006000CA
:105A4000C000800100030006000C001800300018A0
:105A5000000C000600038001C00060002000100060
:105A6000080004000000000000000000000000002A
:105A7000000000000000C0073018083008600C600B
:105A80001C601C601C600030001C000600018000CF
:105A9000800080008000000000008001C003C0037F
:105AA0008001000000000000000000000000000075
:105AB0000000000000000000C0076018103018202F
:105AC0000C2F8C4D864CC64CC64C664C66446644C6
:105AD000662666266615CC1C0C4008201830301847
