:020000040800F2
:10000000700A00202503000887270008252700081C
:1000100085270008531C0008B139000800000000C3
:10002000000000000000000000000000313900085E
:10003000551C0008000000002F3900083339000863
:100040003F0300083F0300083F0300083F03000888
:100050003F0300083F0300083F0300083F03000878
:100060003F0300083F0300083F0300083F03000868
:100070003F0300083F0300083F0300083F03000858
:100080003F030008000000003F0300083F03000892
:100090003F0300083F0300083F0300083F03000838
:1000A0003F0300083F0300083F0300083F03000828
:1000B0003F0300083F0300083F0300083F03000818
:1000C0003F0300083F0300083F0300083F03000808
:1000D0003F0300083F0300083F0300083F030008F8
:1000E0003F0300083F0300083F0300083F030008E8
:1000F0003F0300083F0300083F0300080000000022
:10010000000000003F030008000000003F0300085B
:100110003F030008000000003F0300083F03000801
:100120003F0300083F0300083F0300083F030008A7
:100130003F03000800000000000000003F0300082B
:100140003F0300083F03000800000000000000001B
:10015000000000000000000000000000000000009F
:100160000000000000000000000000003F03000845
:100170003F03000800000000000000000000000035
:10018000000000003F030008000000000000000025
:10019000000000000000000000000000000000005F
:1001A00000000000000000003F0300083F030008BB
:1001B0003F0300083F0300083F0300080000000061
:1001C000000000003F0300080000000000000000E5
:1001D0003F0300083F03000800F002F800F092F827
:1001E0000AA090E8000C82448344AAF10107DA4592
:1001F00001D100F087F8AFF2090EBAE80F0013F052
:10020000010F18BFFB1A43F001031847785800008C
:1002100098580000103A24BF78C878C1FAD852071D
:1002200024BF30C830C144BF04680C607047000070
:100230000023002400250026103A28BF78C1FBD8EF
:10024000520728BF30C148BF0B6070476E2900F0CD
:10025000AF81702900F0F182662904F08F8665294C
:1002600004F08C86672904F08986612904F0888669
:1002700003681B0A28BF41F08001692900F05C81F6
:10028000642900F05981752900F056816F2900F02A
:100290007E82782900F0BD82E92900F01982E429E4
:1002A00000F01682F52900F01382EF2900F07B821E
:1002B000F82900F0BC820368DB0928BF41F0800107
:1002C000632900F0C387732900F0C887E32900F091
:1002D000D387F32900F0D887002070471FB504F0BA
:1002E00043FE01F027F804000020002104F058F834
:1002F000401C60600020002104F03CF8E0601FBD5D
:1003000010B510BD00F0E8FF1146FFF7E7FF03F05E
:1003100019FF01F0C5F803B4FFF7F2FF03BC01F0C9
:10032000C9F800000948804709480047FEE7FEE792
:10033000FEE7FEE7FEE7FEE7FEE7FEE7FEE7FEE795
:1003400004480549054A064B70470000A1390008DA
:10035000D901000870040020700A002070060020F7
:10036000700600201CB50C46064B7B446946009085
:10037000204600F036F904460020694600F044F9B2
:1003800020461CBD9B0200004FF0000200B5134642
:1003900094469646203922BFA0E80C50A0E80C50A5
:1003A000B1F12001BFF4F7AF090728BFA0E80C5056
:1003B00048BF0CC05DF804EB890028BF40F8042B4F
:1003C00008BF704748BF20F8022B11F0804F18BFBC
:1003D00000F8012B704700004FF0013C50F8042B4F
:1003E00051F8043B9A4221D1A2EB0C03934313EA48
:1003F000CC1317D150F8042B51F8043B9A4215D175
:10040000A2EB0C03934313EACC130BD150F8042B4B
:1004100051F8043B9A4209D1A2EB0C03934313EA2F
:10042000CC13DBD04FF00000704700BFD01A01BAE8
:10043000B1FA81F101F0180122FA01F0CB40C1F1CB
:100440002001DBB2C0B2C01A2CFA01F3D11A9143D9
:1004500011EAC311E6D1704770477047704710B575
:1004600000F0BAFA006810BD10B5044600F0B4FA06
:10047000046010BD70B5044685690068C10601D5E9
:10048000302600E02026C00707D070BDD4E9012146
:1004900030469047206A401C20626D1EF6D570BD24
:1004A00070B5044685690078C00707D170BDD4E9EE
:1004B000012120209047206A401C20626D1EF6D545
:1004C00070BD09684A0501D540B27047C905FCD521
:1004D00000B2704709684A0501D5C0B27047C90526
:1004E000FCD580B2704770B50C460546012A05D090
:1004F0002878800600D5EA69002302E0012305E0A0
:100500005B1C934202D2E05C0028F9D1A869E6188E
:10051000C01AA861286A184428622846FFF7AAFF73
:1005200004E0D5E9012114F8010B9047B442F8D357
:100530002846FFF7B5FF70BD2DE9F04106460024BF
:1005400010687529314616A510D0FFF7BAFF0028AC
:1005500002DA404213A507E031688A0701D512A5E7
:1005600002E0490704D511A5012401E0FFF7B2FF1D
:1005700000210A2206F1240709E0B0FBF2FCB0FBDF
:10058000F2F302FB1C00303078541846491C002856
:10059000F3D123462A463046BDE8F04100F065BA63
:1005A000000000002D0000002B00000020000000D3
:1005B00011680268006A530501D508700AE0D30586
:1005C00001D5088006E0130603D5C217C1E9000271
:1005D00000E008600120704701694A1C0261087848
:1005E000704700B58FB0CDE9013100210591054973
:1005F0007944CDE903101146684600F029F90FB09F
:1006000000BD0000E5FFFFFF0A6802F8010B0A6069
:10061000704700002DE9FF5F15468A460446DFF863
:10062000AC80F8440027D8E900103E46CDE9001020
:1006300010E03AF816106A4602A800F029FE411CA4
:1006400007D02178890603D5E269391891420DD87F
:100650000744761C2078800602D5E069B84205DDA3
:10066000AE42E6DB3AF816000028E2D1A069C01BD2
:10067000A0612046FFF7FEFED8E90010CDE900108A
:10068000002017E03AF818106A4602A800F000FEB1
:10069000B0F1FF3F81460BD000250DF1080B05E0BE
:1006A000D4E901211BF8050090476D1C4D45F7D397
:1006B00008F10100B0428046E4DB206A3844206241
:1006C0002046FFF7EDFEBDE8FF9F0000BE52000090
:1006D0002DE9F0418046D21D22F007020025D2E923
:1006E0000002F52915A614D0011E72F1000106DAE8
:1006F0000023D0EB030063EB020211A608E0D8F858
:1007000000108B0701D50FA602E0490701D50EA600
:1007100001251146002408F1240704E000F060F9E7
:1007200030323A55641C50EA0102F7D12B4632466A
:1007300021464046BDE8F04100F097B900000000B6
:100740002D0000002B0000002000000030B400212C
:1007500000F1240408E002F00705D208303542EA2F
:100760004372DB086554491C52EA0305F3D104685F
:10077000002310A2250707D5A40600D421B1C4691F
:1007800001230DA2641EC46130BC00F06EB910B527
:10079000044621461068FFF79DFE02462046BDE84C
:1007A00010400023D2E7D21D22F00701D1E9002337
:1007B000CCE700000000000030000000F0B40D465F
:1007C0000188090502D5214C7C4402E01F4C7C4481
:1007D0000E34002100F1240608E002F00F07120990
:1007E000E75D42EA03721B097754491C52EA03078A
:1007F000F3D102780023120704D5702D06D009B179
:10080000022311342246F0BC00F02FB9012310342A
:10081000F8E770B504460D4621461068FFF75AFE0A
:10082000024629462046BDE870400023C6E7D21D97
:1008300022F00703D3E90023C0E70368126843F0FE
:10084000200303600823C3610023B7E720510000A1
:100850002DE9F05F894604464FF0000ADFF874B1D5
:10086000FB44C0F820A02046E1688847002874D0E7
:10087000252806D0D4E901219047206A401C206237
:10088000F1E700265F462046E168884720280546B4
:1008900007DB312D05D2781910F8200C08B106437A
:1008A000F1E7B00701D526F00406C4F81CA0002724
:1008B000C4F818A02A2D09D0284603F021FC38B32B
:1008C00004EB8708303DC8F8185019E059F8041BAC
:1008D000204604EB87029161E1688847012F0546B5
:1008E00018D1E069002820DA26F020061DE0D8F8AB
:1008F000180000EB800005EB40003038C8F8180005
:100900002046E1688847054603F0FAFB0028EED14F
:10091000012F0AD02E2D08D12046E16888477F1C80
:100920000546022F46F02006C4DBA069002803DA42
:10093000404246F00106A061F00701D026F0100603
:100940006C2D0BD0682D09D04C2D39D06A2D35D0A7
:10095000742D35D07A2D33D016E038E0E1682F467B
:1009600020468847B842054609D16C2F26D04FF45F
:100970008060E168064320468847054604E06C2F06
:100980001AD04FF4807006430DB3A5F14100192829
:1009900002D8203546F400664A462946204626609D
:1009A0004E46FFF753FC80B101280BD0F61D26F010
:1009B000070000F1080956E74020E4E78020D8E767
:1009C0000020D6E706F104094DE7284652E7206AE1
:1009D000BDE8F09FB05000000048704710040020B0
:1009E00030B5B0F10A024FEA900E71F100034EEA01
:1009F000817EB0EB0E0061EB91014FEA101E4EEAD2
:100A0000017E10EB0E0041EB11114FEA102E4EEA61
:100A1000016E10EB0E0041EB11214FEA104E4EEA31
:100A2000014E10EB0E0041EB1141401841F1000165
:100A30004FEAD00040EA41704FEAD10110EB800547
:100A40004FEA810444EA907444EB01046D1944EBCD
:100A50000404521BA3414FF0000348BF0A3200D5E3
:100A600030BD401C41F1000130BD2DE9F0470D467D
:100A700099469246044600F124080168880604D588
:100A8000E06921F01001216000E00120A84201DDB1
:100A9000471B00E00027A1697A1902EB0900081A38
:100AA000A0612078C00602D42046FFF7E3FC0026B0
:100AB00008E0D4E901211AF806009047206A401C9A
:100AC000761C20624E45F4DB2078C0060AD520460D
:100AD000FFF7D0FC06E0D4E9012130209047206ADE
:100AE000401C2062381EA7F10107F4DC07E0D4E9BE
:100AF000012118F805009047206A401C2062281E3A
:100B0000A5F10105F3DC2046FFF7CAFC20780006BA
:100B100002D50220BDE8F0870120FBE770472DE9F0
:100B2000FF4F0C461E464FF0FF378BB0D2E9000155
:100B3000DDF860800A908A46C1F30A5505B93D4642
:100B4000002108464FF00000BAF1000F00F4400009
:100B500005DA00EB80004FF4400101EA50004FEA53
:100B60009059B9F1010F00DDB9460A9850EA4A00E0
:100B70000ED044F61050A5F2FF3545432F14B8F1BE
:100B8000000F1ED07542291E1EDDC9F100021CE0B7
:100B9000B8F1010F4FF0000001D0302103E0F24323
:100BA00005E02154401CB042FBDB3046002200210E
:100BB00021540B99C1F80880C1E900200FB0BDE8AD
:100BC000F08FBD1B6D1CDEE74A4600DA694206A8BD
:100BD00000F0F4FB06AB93E8070003AB83E80700E3
:100BE00050460A9900F06DFC8DE80700A0F5005012
:100BF0001F3800900398002D0ADD42F21F014A467B
:100C00000844002303A90390684600F0D6FE09E0DB
:100C1000A0F500504A461F38002303A903906846F8
:100C200000F0E0FE8DE807000004000C03D04FF058
:100C3000FF30410800E01046B8F1000F03D0002259
:100C4000009215461EE0751E05D4FFF7C9FE30322E
:100C500062556D1EF9D5B3460122084302D0002229
:100C60007F1C04E02078302801D100227F1E002A5A
:100C7000099784D01DE0112D07DAFFF7B1FE30325D
:100C800062556D1C50EA0102F5D1084302D000986C
:100C9000C8B10EE00021681E05E0235C625C63546D
:100CA0002254401E491C8142F7DBAB46A81B401E64
:100CB0000990002004F80B000B98099AC0F80880EE
:100CC000C0E9002B7AE711264FF0000857E72DE91D
:100CD000F04F88460446D21D22F0070191B0D1E9B9
:100CE0000001CDE90A0102F064FE02460B98C00F34
:100CF00001D02D2007E02068810701D52B2002E0DC
:100D0000202101EAC000032A099001D0072A05DB4F
:100D100003464146204600F011FB0BE12078800697
:100D200001D5E06900E00620B8F1650F814606D0E4
:100D3000B8F1660F18D0B8F1670F70D131E000201C
:100D4000B9F1110F009001DB112301E009F101035A
:100D50000AAA01A90CA8FFF7E2FEDDE90C70002643
:100D600009F10105834647E001204B4600904FF012
:100D700000470AAA01A90CA8FFF7D1FEDDE90DB0D2
:100D80000C995D46002610B909F101000D18B9EB68
:100D9000050003D4C0F1FF3609F10105A5EB0900F8
:100DA0002BE0B9F1010F01DA4FF001090020B9F190
:100DB000110F0090484601DD112300E003460AAA06
:100DC00001A90CA8FFF7ABFEDDE90C704D4600262B
:100DD0008346207800070AD4AB4500DA5D4601A8B7
:100DE000012D04DD411911F8011C302907D04F45B0
:100DF00002DA17F1040F04DA012082460FE06D1EBB
:100E0000EEE7002F02DCED1B3E4403E0781CA84215
:100E100000DD7D1CB81B00F1010A4FF0004720786F
:100E2000000703D4AA4501DB4FF0FF3A0021B7F1D8
:100E3000004F0DF143088DF8431024D002202B23DE
:100E4000002F01DA7F422D230A21021EA0F10100AA
:100E500000DC5FB197FBF1FC97FBF1F201FB1C7C1E
:100E600017460CF1300C08F801CDEEE7A8F10100AF
:100E700003702188090501D5452100E06521A0F115
:100E8000010800F8011C09980FA9A1EB0807FF1D34
:100E900000B10120411901EBEA70A1693844081A38
:100EA000401EA0612078C00602D42046FFF7E2FA77
:100EB000099828B1D4E901219047206A401C20629A
:100EC0002078C00622D52046FFF7D4FA1EE0002E77
:100ED00004DBB34502DD01A8805D00E03020D4E9E9
:100EE00001219047206A401C2062761CAAF1010073
:100EF0005FEA000A0AD100F01DFAC0680168405C90
:100F0000D4E901219047206A401C2062281EA5F1E7
:100F10000105DCDC07E0D4E9012118F8010B90475A
:100F2000206A401C2062381EA7F10107F3DC20462E
:100F3000FFF7B6FA032011B041E600002DE9F04FAB
:100F400004460D46D21D22F0070089B0D0E9009773
:100F50004846394602F02DFD0246F80F01D02D23F8
:100F600007E02068810701D52B2302E0202101EA58
:100F7000C0038DF820300BB1012000E00020032ACF
:100F8000824601D0072A04DB2946204600F0D6F924
:100F90003FE12078800601D40D2500E0E569C7F324
:100FA0000A560D2D49DA00214FEA175B08464FF02B
:100FB0000000002F00F4400007DA00EB80004FF43F
:100FC000400100EBD07001EA60008115012901DDCC
:100FD0004FF0FF3100224FEA850CBCF1180F06D309
:100FE0001346ACF118004FF08052C24003E04FF4BA
:100FF000801323FA0CF30CF10C0CBCF1200F04D37A
:10100000ACF1200C09FA0CF001E007FA0CF0002911
:101010004FF0004801DD18B90FE00ED140450CD368
:1010200019EB02095F4121B9404502D19F4329EAEA
:101030000209BBEB175F00D0761C2088000502D5A3
:101040007B48784402E07A487844193808AA30236B
:1010500002F80A30037C0AF10101002E0AF1020AAB
:1010600053546A4602DC4FF0300101E04FF0310189
:101070004FF001088DF8001002D0A6F2FF3603E011
:1010800059EA470100D06B4E002D02DC2178090798
:1010900004D54FF002082E218DF80110C44600211E
:1010A0000BE0C7F303433F01C35C491C6D1E02F80C
:1010B0000830052908F1010801DA002DF1DC0021D2
:1010C0000CE000EB1973491C1B786D1E082902F80F
:1010D00008304FEA091908F1010801DA002DF0DCA7
:1010E00021688B0602D516E0A8F10108E04505DD70
:1010F00002EB080313F8013C302BF5D0B8F1000FD8
:1011000009DD02EB080313F8013C2E2B03D109077C
:1011100001D4A8F10108002D05DD3E2102F80810D8
:101120006D1E08F10108407C002E02F8080008F14D
:10113000010804DA2D20764202F8080002E02B2094
:1011400002F808000A214FF47A70864208F101087B
:101150000BDB96FBF0F3303302F8083096FBF0F32C
:1011600008F1010800FB136601E0642E0CDB64202B
:1011700096FBF0F3303302F8083096FBF0F308F1F9
:10118000010800FB136601E00A2E06DB96FBF1F076
:10119000303002F8080008F1010896FBF1F001FB7D
:1011A0001060303002F80800A16908F1010808EB6E
:1011B000050202EB0A00081AA0612078C00602D4DA
:1011C0002046FFF757F9216A08AE01EB0A002062BA
:1011D00004E0D4E9012116F8010B9047BAF1010AA5
:1011E000F7D22078C00602D52046FFF743F96E46B5
:1011F00009E016F8010B3E280FD0D4E901219047F1
:10120000206A401C2062B8F10108F2D22046FFF7A4
:1012100047F909B00320BDE8F08F206A2844206216
:1012200003E0D4E90121302090476D1EEBD3F8E7AD
:101230009549000002FCFFFF10B5436913B1AFF3FD
:10124000008001E0FFF74FF9012010BD127800F196
:1012500024010A7000224A700122EDE711684FF064
:10126000FF32E9E710B5436913B1AFF3008001E045
:10127000FFF7D0F9012010BD128800F1240182840B
:101280000022C2840122EDE711684FF0FF32E9E746
:1012900070B516460C46054600F044F8036893F80E
:1012A0000101012806D0FF2C0FD8185D68B101207C
:1012B0002C7070BDD3F807013246214603F20713A4
:1012C00003442846BDE8704018474FF0FF3070BD1A
:1012D00000487047100400207546FFF7F9FFAE463E
:1012E00005006946534620F00700854618B020B532
:1012F000FFF726F8BDE820404FF000064FF000074A
:101300004FF000084FF0000B21F00701AC46ACE8AD
:10131000C009ACE8C009ACE8C009ACE8C0098D461A
:101320007047000010B500F005F8001D10BD00BFAB
:101330007130000000487047300400202DE9F04172
:101340001F46044603260168072A01F4006004DBF7
:1013500008B116A505E016A503E008B115A500E043
:1013600015A521F010002060A069C01EA0610FB17A
:10137000401EA0612046FFF77DF84FB1D4E901215E
:1013800038469047206A401C2062C01C206206E05C
:10139000206AFAE7D4E9012115F8010B9047761E7F
:1013A000F8D22046FFF77CF8BDE8F0814E414E00B0
:1013B0006E616E00494E4600696E66002DE9F04789
:1013C000814616468AB0354878440DC88DE80D0030
:1013D00032487844801C03AC0DC884E80D0041F607
:1013E0009B300844372190FBF1F290FBF1F5A5F119
:1013F000800501FB12041B3C02D56442012000E081
:101400000020DFF898A080460027FA44AAF1BE0A1F
:101410000EE0E0070AD03246684607EB4701012399
:101420000AEB810100F0DEFA8DE8070064107F1CF2
:10143000002CEED1194F7F44AE3F19E0E80715D0DC
:1014400007EB04100DF1180A90E80E008AE80E0070
:10145000C068F04201D1981908903246012306A9CC
:1014600003A800F0BFFA03AB83E807006D10641C0B
:10147000002DE3D14FF0010332466946B8F1000F69
:1014800003A802D000F099FA01E000F0ABFAC9E934
:101490000001C9F808200AB0BDE8F087A0460000A6
:1014A00010B50446AFF300802046BDE81040FEF7BB
:1014B00032BF000001491820ABBEFEE72600020043
:1014C00070475FEA400C08BF91F0000F4FEA8C2391
:1014D0004FEAC12243EA51514FEA1C5018BF00F5B0
:1014E000F0404FEA300018BF41F000415FEA6C5C09
:1014F00000F02980BCF1FF3F08BF40F080407047FA
:10150000130C06BF12044FF0100C4FF0000C130E1A
:1015100004BF12020CF1080C130F04BF12010CF1EE
:10152000040C930F04BF92000CF1020CD30F04BF04
:1015300052000CF1010C11464FF00002A0F11F0007
:10154000A0EB0C00704711F0004F08BF704731F05E
:1015500000413FF4D5AF0B0C06BF09044FF0100C4F
:101560004FF0000C0B0E04BF09020CF1080C0B0F1E
:1015700004BF09010CF1040C8B0F04BF89000CF1AE
:10158000020CCB0F04BF49000CF1010CCCF120037D
:10159000A0EB0C0022FA03F302FA0CF241EA030179
:1015A00000F10100704720F07F4C80EA030023F037
:1015B0007F47ACEB070303F57C5300F0004003F1D9
:1015C000FF032DE980494FEA154B09B44FEA144354
:1015D00025EA0B4E24EA03480FF2042606EB1327F4
:1015E00049083E785FEA320203FB0667C7F5000749
:1015F00007FB06F64FEA54374FEAD64606F10206D5
:1016000007FB066CCCF1005C4FEA1C472CEA074C48
:1016100007FB06F40CFB06F504EB15464FEA96169D
:1016200034BF00204FF000404FEAD13706FB07FCE3
:101630004FEA1C4C0CFB0BF7D21B03FB0CF761EBC6
:1016400007010CFB0EF7B0EB074072EB17420CFBE7
:1016500008F734BFA2EB0742B2EB074261EB174138
:101660004FEA0C444FEA910706FB07FC4FEA1C4C7B
:101670000CFB0BF7B0EBC74072EB573203FB0CF7D8
:1016800034BFA2EBC742B2EBC74261EB57310CFB50
:101690000EF7B0EBC70072EB57720CFB08F734BFC4
:1016A000A2EBC702B2EBC70261EB5771039F4FEA8F
:1016B000816141EA921104EBCC044FEAD1374FEA41
:1016C000826206FB07FC42EA90124FEA80604FEA12
:1016D0001C4C0CFB0BF7D21B03FB0CF761EB070157
:1016E0000CFB0EF7B0EB074072EB17420CFB08F750
:1016F00034BFA2EB0742B2EB074261EB17414FEA5E
:101700008C554FEA910704EB9C2406FB07FC4FEA3B
:101710001C4C0CFB0BF7B0EBC74072EB573203FBD2
:101720000CF734BFA2EBC742B2EBC74261EB5731B3
:101730000CFB0EF7B0EBC70072EB57720CFB08F70F
:1017400034BFA2EBC702B2EBC70261EB577115EBD6
:101750004C254FEA816141EA92114FEA82624FEAD9
:10176000D13742EA901206FB07FC44F100044FEA2D
:1017700080604FEA1C4C0CFB0BF7D21B03FB0CF7F1
:1017800061EB07010CFB0EF7B0EB074072EB174261
:101790000CFB08F734BFA2EB0742B2EB074261EB48
:1017A000174115EB1C154FEA813141EA92414FEA8E
:1017B000823242EA90424FEA80304FEA0C7644F19E
:1017C000000448EA03434EEA0B484FF0000EB2EB28
:1017D000080C71EB030724BF624639464EEB0E0E30
:1017E0004FF0000B0018524149414BEB0B0BB2EB91
:1017F000080C71EB03077BF1000B24BF62463946EE
:101800004EEB0E0E4FF0000B0018524149414BEBCE
:101810000B0BB2EB080C71EB03077BF1000B24BF41
:10182000624639464EEB0E0E51EA020718BF46F0EB
:10183000010616EB0E7655F1000254F1000103D5B6
:10184000BDE88901BDE80088BDE88901BDE8004820
:10185000B619524141EB0101A3F1010370478080A9
:101860007F7E7D7C7B7A79787776767574737271FA
:1018700071706F6E6E6D6C6C6B6A6A6968686766B2
:1018800066656464636362616160605F5F5E5E5D44
:101890005D5C5C5B5B5A5A595958585757565655B8
:1018A00055555454535352525251515050504F4F1A
:1018B0004F4E4E4D4D4D4C4C4C4B4B4B4A4A4A496A
:1018C00049494848484747474746464645454544AD
:1018D0004444444343434342424242414141002B3A
:1018E0009C4630D477002BD01CB54FEA370703B4A1
:1018F0004FF010004FF01001BAF1000F06D0BCF10C
:10190000000FDCBF40F0080040F008014FF000007D
:101910000FBCBDE810400BF1010BBBF1010F08BF7C
:101920005FEA170722BF12F1010211F101014FF026
:10193000004143F1000300F0004043EA000070471B
:10194000F9D35708D0E746EA064613F1400F4FEAAD
:1019500016461FDD13F1200FDFBF16430A46002194
:1019600020335B42BED0C3F1200746EA064602FAA6
:1019700007F74FEA164646EA0706C3F1200722FAA0
:1019800003F201FA07F721FA03F14FF0000342EAEC
:101990000702A7E746EA020646EA06464FEA164667
:1019A00046EA0106BCBF46EA0646360C4FF0000385
:1019B0004FF000024FF0000194E72DE9804C9A4669
:1019C000934670B491E8380007C831EA400C48BF2C
:1019D00034EA430C03D5FFF7E6FDFFF780FFF0BCC8
:1019E000BDE8008C2DE9804C9A46934670B491E88E
:1019F000380007C810F0804F08BF13F0804F03D1A4
:101A000000F005F8FFF76BFFF0BCBDE8008C20F09C
:101A10007F4780EA030023F07F4C07EB0C03A3F51C
:101A20007C5300F00040A3F1FE0392F0000F00F0A1
:101A3000B38095F0000F00F077802DE901494FEA5F
:101A400011404FEA144621EA004800FB06FC24EA54
:101A5000064708FB06F607FB08F800FB07F718EB3C
:101A600006484CEB164C4FEA124B18EB07484FEA6E
:101A700015464CEB174022EA0B4E0BFB06FC25EA01
:101A800006470EFB06F607FB0EFE0BFB07F71EEBE9
:101A9000064E4CEB164C4FF000061EEB074E4CEB7F
:101AA000174B18EB0B0840F1000018EB0E0B58EB2E
:101AB000000840F100008F1A4FF000013CBFC943FD
:101AC000661B14BFB5EB040C00213CBFC943F61BD9
:101AD0004FEA17444EEA8E0E27EA04454FEA1C47A8
:101AE00004FB07622CEA074C05FB07F70CFB05F625
:101AF00004FB0CFC16EB074642EB174216EB0C46B8
:101B000042EB1C421BEB060658EB0202414146EA3F
:101B10009E0601D5BDE80189B619524141EB01018C
:101B2000A3F10103BDE801894FEA14454FEA1147CB
:101B300024EA054621EA074C05FB07F406FB07F7F4
:101B40000CFB06F105FB0CFC11EB074144EB1744C1
:101B50004FEA124711EB0C4144EB1C4422EA074CBC
:101B600005FB07F206FB07F70CFB06F605FB0CFC72
:101B700016EB074642EB174216EB0C4642EB1C45B0
:101B80006A1854F1000148BF7047B619524141EB41
:101B90000101A3F10103704795F0000F37D04FEA20
:101BA00011424FEA144721EA024624EA074C02FB9D
:101BB00007F106FB07F70CFB06F402FB0CFC14EB29
:101BC000074441EB17414FEA154714EB0C4441EB36
:101BD0001C4125EA074C02FB07F506FB07F70CFB47
:101BE00006F602FB0CFC16EB074645EB174516EB19
:101BF0000C4645EB1C42121951F1000148BF7047D9
:101C0000B619524141EB0101A3F1010370474FEABC
:101C100014454FEA114724EA054621EA074C05FB23
:101C200007F106FB07F70CFB06F24FF0000605FB79
:101C30000CFC12EB074241EB174112EB0C4251EB4B
:101C40001C4148BF7047921841EB0101A3F1010309
:101C50007047FEE77047000070B5044600F038F9A1
:101C60000546601C02D004484068044400F030F986
:101C7000401BA042FAD370BD000000202DE9F04FB8
:101C8000DFF82092002301260324A9F1040B85B07C
:101C90000F2709F1040AABF1040EFAE006FA03F586
:101CA0002A407CD091F804C00CF0030CBCF1010F69
:101CB00002D0BCF1020F26D1D0F808C0CDF800C088
:101CC0004FEA430C04FA0CF8CDF810C0DDF800C060
:101CD0002CEA080CCDF800C0D1F80C80DDF810C05B
:101CE00008FA0CF8DDF800C048EA0C08C0F80880D3
:101CF000D0F804C02CEA050C0D79C5F300159D4001
:101D000045EA0C0545600D79ED43AD070ED0C56879
:101D10004FEA430804FA08FC25EA0C05D1F808C08C
:101D20000CFA08FC4CEA050CC0F80CC00D7905F063
:101D30000305022D16D1DD0800EB850CCDF808C097
:101D4000DCF820805D074FEAD56C07FA0CF528EA2D
:101D500005080D6905FA0CF5DDF808C045EA080527
:101D6000CCF8205005684FEA430CCDF808C004FABF
:101D70000CFC25EA0C0591F804C00CF00308DDF812
:101D800008C008FA0CF848EA0508C0F800804D6859
:101D900015F4403F7CD0444DD5F860C000E077E0BA
:101DA0004CF0010CC5F860C02D6E23F0030C05F05B
:101DB000010500953D4D65440295AD684FEA837C71
:101DC0004FEA1C7807FA08FC25EA0C05B0F1904FA1
:101DD00006D0DFF8DCC0604505D14FF0010C20E0F3
:101DE0004FF0000C1DE0DFF8CCC0604502D14FF091
:101DF000020C16E0DFF8C0C0604502D14FF0030CC2
:101E00000FE0DFF8B8C0604502D14FF0040C08E0E5
:101E1000DFF8ACC0604502D14FF0050C01E04FF097
:101E2000060C0CFA08FC4CEA050C029DC5F808C02B
:101E3000D9F80050CC46D1F8048095435FEAC82811
:101E400000D51543CCF80050DAF80050D446D1F84C
:101E5000048095435FEA882800D51543CCF80050EC
:101E6000DBF80050DC46D1F8048095435FEA8838FF
:101E700000D51543CCF80050DEF80050F446D1F8F8
:101E8000048095435FEAC83800D51543CCF800506C
:101E90005B1C0A6832FA03F57FF400AF05B0BDE8B9
:101EA000F08F0000080401400010024000000140D3
:101EB0000004004800080048000C004800100048DA
:101EC000001400480AB181617047816270470000C8
:101ED00001488068704700000000002002488168C7
:101EE00042681144816070470000002010B5002452
:101EF000032000F065F80F2000F008F808B1012475
:101F000001E000F025F8204610BD000070B50E4E2F
:101F100005460024706898B14FF47A71B1FBF0F077
:101F20000A490968B1FBF0F000F0E8FB40B9102D58
:101F300006D200222946501E00F022F8356000E04B
:101F40000124204670BD0000000000200C0000208D
:101F50000A4882B0016E41F001010166016E01F094
:101F600001010091816D41F080518165806D00F02B
:101F70008050009002B000F093B8000000100240C2
:101F8000F0B40E4B1B680C46C3F30223C3F10705E4
:101F9000042D00D90425191D072901D2002300E0D2
:101FA000DB1E012606FA05F1491E214099409E409C
:101FB000761E16403143F0BC01F013BD0CED00E07D
:101FC000064900F0070208684FF6FF03184040EA90
:101FD0000220034A10430860704700000CED00E047
:101FE0000000FA052B492C4B0A6832214A432B4941
:101FF00040B1B0F5007F086829D020F4C06040F4FB
:1020000080602CE00868C0F34120022804D051F819
:10201000800F20F4807022E0D1F8800020F48070DE
:10202000C1F88000086820F4C06040F400700860C7
:10203000B2FBF3F0401C00E0401E4A69520501D596
:102040000028F9D1486940050AD503207047C0F33C
:102050004120022806D051F8800F40F480700860BB
:1020600000207047D1F8800040F48070C1F88000F3
:10207000086820F4C06040F400700860B2FBF3F020
:10208000401C00E0401E4A695205DBD50028F9D10A
:10209000D8E700000C00002040420F000070004014
:1020A0000248816841F480418160704700700040BF
:1020B0002DE9F0470E4605004FF0000725D0DFF868
:1020C000AC81D8F8000000F00F00B0420CD2D8F874
:1020D000001021F00F013143C8F80010D8F80000BB
:1020E00000F00F00B04210D12968614CC80741F2DE
:1020F000883A5AD06868DFF87C91032808D0022813
:1021000020682DD0400500282CDB0120BDE8F08799
:1021100020688001F9D5E06800F00302E068C0F3B0
:102120000310401C032A19D0534A00BFB2FBF0F041
:10213000E268C2F306225043E268C2F34162521CD5
:102140005200B0FBF2F0484517D9A06810F0F00F2C
:102150000CD0880711D5A86840B10EE0474AE5E7E2
:102160008003D0E700F092F8484506D9A06820F037
:10217000F00040F08000A0608027A068696820F02F
:1021800003000843A060FFF7A3FE814606E000BFFE
:10219000FFF79EFEA0EB090151453AD8A068696897
:1021A00000F00C00B0EB810FF2D12868810714D544
:1021B000400703D5A06840F4E060A06028780007DD
:1021C00005D5A06820F4605040F4E060A060A068ED
:1021D000A96820F0F000084304E0802F03D1A06834
:1021E00020F0F000A060D8F80010404601F00F0188
:1021F000B14216D9016821F00F0131430160FFF7A8
:1022000067FE074607E000BFFFF762FEC11B5145AE
:1022100001D903207AE7D8F8000000F00F00B0429F
:10222000F2D12878400705D5A068E96820F4E0607D
:102230000843A0602878000706D5A068296920F423
:10224000605040EAC100A06000F020F8A1680C4A8C
:10225000C1F30311515C01F01F01C8400949086036
:1022600009480068BDE8F047FFF750BE0020024073
:102270000010024000B4C4040024F40000127A00EC
:10228000844F00080C00002000000020184910B501
:102290008868C0F381021748012A0BD08A6843106E
:1022A000C2F38102022A06D08A68C2F38102032A9D
:1022B00003D0002010BD184610BDCA6802F0030408
:1022C000CA68C2F30312521C032C02D0B0FBF2F016
:1022D00001E0B3FBF2F0CA68C968C2F306225043BA
:1022E000C1F34161491C4900B0FBF1F010BD000091
:1022F000001002400024F4002DE9F84304007AD0D5
:102300002078F84DC00747D0A868E96800F00C00B5
:1023100001F003010C2802D0082817D001E003299E
:1023200014D06068B0F5803F17D0B0F5A02F2868B2
:1023300017D020F480302860286820F4802028609E
:102340006068E0B1FFF7C4FD064614E0286880032A
:1023500022D560680028D2D01EE0286840F4803082
:10236000EDE740F480202860F7E700BFFFF7B0FDFD
:10237000801B642870D828688003F7D50CE0FFF72D
:10238000A7FD064605E000BFFFF7A2FD801B6428FD
:10239000F0D828688003F7D4207880074CD5A86847
:1023A000E96800F00C0001F003010C2802D00428B9
:1023B0000DD001E002290AD0E068002828682BD05F
:1023C00040F480702860FFF783FD064619E0286816
:1023D000400502D5E068002891D06868217C20F093
:1023E000FE4040EA01606860BF480068FFF78EFD6C
:1023F000002800D120E072E1FFF76AFD801B02286F
:10240000B8D828684005F7D56868217C20F0FE40E0
:1024100040EA016068600FE020F480702860FFF7F8
:1024200057FD064605E000BFFFF752FD801B02285E
:10243000A0D828684005F7D42078000729D560691E
:102440000028D5F8940013D040F00100C5F894009E
:10245000FFF73EFD064606E090E000BFFFF738FDBF
:10246000801B022886D8D5F894008007F6D510E0A6
:1024700020F00100C5F89400FFF72AFD064604E0AD
:10248000FFF726FD801B022878D8D5F89400800736
:10249000F6D42078400761D5A86D0026C00008D486
:1024A000A86D40F08050A865A86D012600F080500E
:1024B00000908E480168C90511D40168804641F436
:1024C00080710160FFF704FD074604E0FFF700FD9F
:1024D000C01B022852D8D8F80000C005F6D5A06865
:1024E000012815D00528D5F8900016D020F001005D
:1024F000C5F89000D5F8900020F00400C5F89000D1
:10250000A06841F28838B8B1FFF7E2FC07460EE058
:10251000D5F8900040F00100F0E740F00400C5F865
:102520009000F5E7FFF7D4FCC11B414526D8D5F84C
:1025300090008007F6D50CE0FFF7CAFC074604E0E0
:10254000FFF7C6FCC11B414518D8D5F8900080079D
:10255000F6D41EB1A86D20F08050A86520788006C2
:1025600029D5A0690028D5F8980013D040F00100C3
:10257000C5F89800FFF7ACFC064606E075E000BF22
:10258000FFF7A6FC801B02286FD8D5F898008007BB
:10259000F6D510E020F00100C5F89800FFF798FC90
:1025A000064604E0FFF794FC801B02285DD8D5F8AE
:1025B00098008007F6D4E069F0B3A968C1F38101FF
:1025C00003295DD00228286820F08070286003D09D
:1025D000FFF77EFC04464BE0FFF77AFC064604E07A
:1025E000FFF776FC801B02283FD828688001F7D4CB
:1025F000F4E908016FF00F0202EB01110843218A90
:102600005204490802EB4151A26841EA0221084301
:10261000217D4FF07E42490802EB41610843217B56
:1026200040EAC160E968324A11400843E86028681E
:1026300040F08070286000E05EE0E86840F0807064
:10264000E860FFF745FC044605E000BFFFF740FCEB
:10265000001B022809D828688001F7D54CE000BF8C
:10266000FFF736FC001B022802D90320BDE8F883DF
:1026700028688001F4D4E8681E490840E8603BE01F
:102680000128F3D0E868226A00F00301914226D1C4
:10269000616A00F0F0020901103991421FD1A26A6B
:1026A00000F4FE41B1EB022F19D194F82C2000F078
:1026B0007841B1EBC26F12D1218E00F4C0024908FB
:1026C0004905A1F50011914209D194F8341000F0A8
:1026D000C06049084906A1F1007181420CD0012077
:1026E000C4E700000010024000000020007000401D
:1026F0000C809F01FCFFEEFE0020B7E710B5401EE6
:10270000B0F1807F01D3012010BD4FF0E024606163
:102710000F21601701F065F90020A06107202061FA
:10272000002010BDFEE7000010B586B014216846F9
:10273000FDF72AFE1248C16C41F02001C164C16C52
:1027400001F020010591C16C41F00101C164C06C30
:102750004FF0904400F00100059000220321204634
:10276000FFF7B0FB03210120CDE900100020CDE9E7
:10277000020169462046FFF781FA06B010BD00004D
:1027800000100240FEE7FEE710B50021074C0A46A4
:10279000002004EBC1131A54401CC0B28028FAD3A5
:1027A000491CC9B20829F3D310BD00001000002055
:1027B000F0B50B4424E0044685181DE07F2C19D8A1
:1027C000002917DB3F2915DCCE1701EB56764FEABF
:1027D000E60C0D4F26F0070607EBCC172744A1EBBC
:1027E000060E97F800C0012606FA0EF62CEA060C33
:1027F00087F800C0641C24B2A542DFDC491C09B282
:102800008B42D8DCF0BD0000100000202DE9FF5FF6
:1028100014460D468046C2F1010B00262146304683
:102820000E9B039A00F00CFD474620B1281901B217
:10283000404600F099FB61424FF0000A894650463D
:102840000E9B039A00F0FCFC20B1281B01B2384615
:1028500000F08AFB314620460E9B039A00F0F0FC04
:1028600028B108EB0400294600B200F07DFB514678
:1028700048460E9B039A00F0E3FC28B1A8EB040045
:10288000294600B200F070FB0F98002811D04F4687
:102890000DE0394600200E9B039A00F0D1FC20B1D8
:1028A000E81901B2404600F05FFB7F1C3FB2A7422F
:1028B000EFDBCBE0761C36B2BBF1000F02DA0BEB9C
:1028C000460004E0641E24B2311B0BEB4100401CA7
:1028D0000FFA80FB214630460E9B039A00F0B0FCB5
:1028E00030B1281901B208EB060000B200F03CFB41
:1028F000314620460E9B039A00F0A2FC30B1A81985
:1029000001B208EB040000B200F02EFB604201B2FD
:10291000704200B2894682460E9B039A00F090FCFA
:1029200030B1281B01B2A8EB060000B200F01CFB7E
:10293000514648460E9B039A00F082FC30B1A81B1A
:1029400001B2A8EB040000B200F00EFB494630468D
:102950000E9B039A00F074FC30B1281B01B208EB07
:10296000060000B200F000FB514620460E9B039A81
:1029700000F066FC30B1A81B01B208EB040000B205
:1029800000F0F2FA214650460E9B039A00F058FCE4
:1029900030B1281901B2A8EB060000B200F0E4FA49
:1029A000314648460E9B039A00F04AFC30B1A81904
:1029B00001B2A8EB040000B200F0D6FA0F98E8B319
:1029C0004F461DE0394630460E9B039A00F038FC16
:1029D00030B1E81901B208EB060000B200F0C4FA09
:1029E000394650460E9B039A00F02AFC30B1E81994
:1029F00001B2A8EB060000B200F0B6FA7F1C3FB2AD
:102A0000A742DFDB57461FE0394648460E9B039A34
:102A100000F016FC30B1E81901B2A8EB040000B2D6
:102A200000F0A2FA394620460E9B039A00F008FCFB
:102A300040B1E81901B208EB040000E006E000B282
:102A400000F092FA7F1C3FB2B742DDDBA642FFF6F0
:102A500031AFBDE8FF9F2DE9FF4F804687B0C2F13F
:102A60000100144603900D46081901B2002647469E
:102A7000404600F079FA281B01B2384600F074FA9B
:102A800008EB040000B2294600F06EFAA8EB04003F
:102A900000B2294600F068FA0A98002875D067420B
:102AA00006E0E81901B2404600F05EFA7F1C3FB232
:102AB000A742F6DB69E0761C039836B2002802DAFA
:102AC00000EB460004E0641E24B2311B00EB410021
:102AD000401C00B20390281901B208EB060000B2B6
:102AE00081460291069000F03FFAA81901B208EB66
:102AF000040000B28346059100F036FA281B01B2AB
:102B0000A8EB060000B20F460190009000F02CFAEE
:102B1000A81B01B2A8EB040000B28246049100F0A9
:102B200023FA3946484600F01FFA5846049900F047
:102B30001BFA0299009800F017FA5046059900F028
:102B400013FA0A9808B3604207B20BE0E81901B221
:102B50008946069800F008FA4946019800F004FA00
:102B60007F1C3FB2A742F1DB704207B20BE0E819CD
:102B700001B28946504600F0F7F94946584600F040
:102B8000F3F97F1C3FB2B742F1DBA64293DB0BB0F7
:102B9000BDE8F08F2DE9F04F804699462DED088B6A
:102BA000C9F1000087B00E46924600251C46074634
:102BB00001F0EFFE9FEDAF9B53EC192B01F044FCAD
:102BC00041EC180B1AFB0AF0824601F0E2FECDE957
:102BD000020153EC182B01F043FF41EC180B19FBD9
:102BE00009F0834601F0D5FECDE9000153EC182B26
:102BF00001F02AFC01F0F6FB08EE100A189860B903
:102C00000DE0F01901B24046049100F0ADF94046E4
:102C1000049900F0A9F97F1C3FB2A742F1DB3019FB
:102C200007B208EB050000B23946059000F09CF9A8
:102C3000301B01B2A8EB050000B20491069000F031
:102C400093F9394606984FE0B5EEC08A4FF003017C
:102C5000F1EE10FA01EB45010BFB01F006D800EE96
:102C6000100AB8EEC00A30EE088A0DE06342022274
:102C700002EB43020AFB020000EE100A641E24B2BB
:102C8000B8EEC00A30EE088A18983DB2C0B1604272
:102C900007B208EB050000B20690A8EB050000B2F1
:102CA00005900BE0F01901B20491069800F05CF970
:102CB000DDE9041000F058F97F1C3FB2A742F1DBB8
:102CC000301901B208EB050000B2CDE9050100F0B2
:102CD0004BF9301B01B2A8EB050000B20746049186
:102CE00000F042F93846069900F03EF9DDE904109B
:102CF00000F03AF9204601F04CFE53EC192B02F09B
:102D000049F841EC100BDDE9020153EC102B01F006
:102D1000A7FE41EC1A0B6F1C0BFB07F001F039FE0C
:102D200053EC1A2B01F060FE8ED30AFB09F000FB76
:102D300009F001F02EFE41EC180B611E0AFB01F0B8
:102D4000484301F026FE41EC1A0B284601F021FE13
:102D5000894649EC100B074653EC192B51EC100B2C
:102D600001F072FB49EC107B41EC1B0B53EC192B6F
:102D700051EC100B01F068FB41EC100BDDE9000198
:102D800053EC102B01F06CFE53EC1B2B01F068FE92
:102D900053EC1A2B01F058FB53EC182B01F0FAFFFF
:102DA00001F020FB00EE100A5CE000BFB5EEC00AA7
:102DB000F1EE10FA13D8022101EB45016342032220
:102DC0000BFB01F002EB43020AFB020000EE900A4B
:102DD0006D1C2DB2F8EEE00A30EE800A0BE0624284
:102DE000032101EB42010AFB01F000EE900AF8EE2C
:102DF000E00A30EE800A641E189824B2C0B1604226
:102E000007B208EB050000B20190A8EB050000B284
:102E100000900BE0F01901B28946019800F0A4F887
:102E20004946009800F0A0F87F1C3FB2A742F1DBB2
:102E3000301907B208EB050000B23946019000F0E6
:102E400093F8301B01B2A8EB050000B28146009157
:102E500000F08AF84846394600F086F8DDE90010AF
:102E600000F082F8002CA1DC07B0BDEC088BBDE8B7
:102E7000F08F0000000000000000E03F2DE9F04F5F
:102E80001E464FF0000904460D461746C846B1429B
:102E90000ED1BC4208DD2746144605E029462046EF
:102EA00000F062F8641C24B2BC42F7DDBDE8F08F8C
:102EB000BC420DD1B54208DD1D460E4605E029464F
:102EC000204600F051F86D1C2DB2B542F7DDEDE75C
:102ED00003DD274614461D460E46B54205DD684211
:102EE00005B2704206B24FF00109701B391B8842CF
:102EF00007DD20462C4605463846374606464FF045
:102F00000108701B4200391B0FFA82FB421A520063
:102F10000FFA82FAC1EB400019E0604201B203E00F
:102F2000684201B203E02146284601E029462046D6
:102F300000F01AF8BC42B9DA641C24B2002E02DA9E
:102F400006EB0B0003E06D1C2DB206EB0A0006B287
:102F5000B9F1000F03D0B8F1000FE1D0DDE7B8F10F
:102F6000000FE3D0DFE7000010B57F2813D8002959
:102F700011DB3F290FDCCA1701EB5272D410064B4C
:102F800022F0070203EBC41318448A1A03780121C4
:102F900091400B43037010BD100000202DE9F04359
:102FA0000446CD1807988846A618274668BB681EB1
:102FB0000FFA80F909E041463846FFF7D5FF494648
:102FC0003846FFF7D1FF7F1C3FB2BE42F3DC761ECE
:102FD000474636B209E039462046FFF7C5FF30467E
:102FE0003946FFF7C1FF7F1C3FB2BD42F3DCBDE8AD
:102FF000F083444605E021463846FFF7B5FF641CE0
:1030000024B2A542F7DC7F1C3FB2BE42F1DCEEE702
:103010002DE9F04785B00C46DDE90E810D9EADF837
:103020000400ADF80C409A46914605462746ADF897
:103030000620ADF80860ADF80E30ADF8108001B391
:103040004946814500DA0846864200DA3046514654
:10305000A24500DA0C46A04500DA44464946A94597
:1030600000DD0D46AE4200DD35465146BA4500DD75
:103070000F46B84500DD47468046A84213DC264689
:1030800022E053464A4621462846FFF7F7FE4346CC
:10309000324621462846FFF7F1FE43463246514666
:1030A0004846FFF7EBFE05B0BDE8F087434603AAAC
:1030B00001A90320009600F000FC18B131464046FB
:1030C000FFF752FF761C36B2BE42EFDD08F1010079
:1030D00000B2D1E710B500204FF47A720021491CEC
:1030E0009142FCD3401C9042F8D3012000F0A4FB95
:1030F000BDE81040012000F0ABBB000010B57F28F8
:1031000014D8002912DB3F2910DCCA1701EB5272D8
:10311000D310074C22F0070204EBC3138A1A185C81
:1031200001219140084201D0012010BD002010BDB6
:103130001000002070B500240646802525FA04F012
:10314000304000D0012000F083FB012000F074FB30
:10315000002000F071FB641CE4B2082CEED30120C7
:1031600000F06AFBBDE87040002000F065BB10B5C0
:10317000012000F06DFB012000F05EFB002000F05C
:1031800067FBBDE81040002000F056BB10B50020E2
:1031900000F05EFB012000F04FFBBDE81040012075
:1031A00000F056BB10B5FFF795FFAE2000F05CFBBA
:1031B000D52000F059FB802000F056FBA82000F03D
:1031C00053FB3F2000F050FBD32000F04DFB0020CC
:1031D00000F04AFB402000F047FBA12000F044FB38
:1031E000C82000F041FBDA2000F03EFB122000F086
:1031F0003BFB812000F038FBCF2000F035FBD920CD
:1032000000F032FBF12000F02FFBDB2000F02CFB64
:10321000302000F029FBA42000F026FBA62000F0BF
:1032200023FB8D2000F020FB142000F01DFBAF20BD
:1032300000F01AFBFFF7A8FABDE8104000F0E8BA6A
:1032400070B51C462DED028B15460E4601F0A1FB14
:1032500041EC180B304601F09CFB41EC100BB0EE3A
:10326000481AF0EE681A00F03BFD9FED101B51EC80
:10327000100B53EC112B01F09BF99FED0E1B53EC3F
:10328000112B01F0EDFB01F027FB00B2A54204DA9F
:10329000A84208DBA04202DD05E0A842FADB0120DB
:1032A000BDEC028B70BD0020FAE700001F85EB51DA
:1032B000B81E094000000000008066400246012060
:1032C00000E05043491EFCD270470FB470B5C0B047
:1032D00014460D46064648AA68464799FDF742F847
:1032E00023466A462946304600F0DCF940B070BCFF
:1032F0005DF814FB10B5084B0021002003EBC11250
:10330000145CE4431454401CC0B28028F8D3491C18
:10331000C9B20829F1D310BD10000020F0B50B444C
:1033200023E0044685181CE07F2C18D8002916DB02
:103330003F2914DCCE1701EB567C4FEAEC070C4E0C
:103340002CF0070C06EBC7162644A1EB0C0E3778C1
:103350004FF0010C0CFA0EFC87EA0C073770641C66
:1033600024B2A542E0DC491C09B28B42D9DCF0BD95
:103370001000002010B50C4640F0B00000F074FAC8
:10338000102040EA141000F06FFA04F00F00BDE8BE
:10339000104000F069BA2DE9F0431D4617468946F2
:1033A00080460024079E12E0291B0220491EFFF7D9
:1033B00085FFB7FBF0F000F0010204FB068000B2CD
:1033C00033464946303200F007F8641CE4B2AC42A0
:1033D000EAD3BDE8F083000008B5082B0DD0062B1A
:1033E0000AD10A4B02EB420203EB4202C03A0092BE
:1033F0000823062200F0A4F808BD054B03EB0212D7
:10340000A2F50072102300920822F3E78455000809
:10341000944F00082DE9F04F9A462DED028BB0EE47
:10342000408AF0EE608A81B09FED310B15468B46E5
:10343000074653EC102B51EC180B0C9C01F00EFCC2
:10344000234605D82B2259463846FFF7C5FF0AE028
:103450002D2259463846FFF7BFFF51EC180B00F0FC
:10346000B5FF41EC180B51EC180B01F065FA8146E1
:1034700001F0A6FA53EC182B01F080FC41EC180B7C
:1034800051460A20FFF71AFF804601F099FA53ECE3
:10349000182B01F0E5FA41EC100B00F021FD51EC86
:1034A000100B01F049FAB0FBF8F1064601EB0902F6
:1034B000381900B22B465946009400F0A1F8681C58
:1034C00000FB047000B223462E225946FFF784FF0A
:1034D000AD1C05FB047000B25346324659460094B9
:1034E00000F08EF801B0BDEC028BBDE8F08F00005B
:1034F00000000000000000002DE9F0431D4690464A
:10350000894607460024079E16E0291B1020491E05
:10351000FFF7D4FEB8FBF0F000F00F0204FB0670DA
:103520000A2A00B23346494601D2303200E037322F
:10353000FFF752FF641CE4B2AC42E6D3BDE8F0836F
:103540002DE9F04F1F4616460C4682460025FFF730
:103550002FF97F1EF81707EB50700121DFF89CB0A0
:1035600001EBE00745E000203FE000BF0AEB00036D
:103570007F2B38D8E11704EB5171CA1021F00701F5
:10358000611A002C03DA521E083112B209B202EBA2
:103590000509B9F1070F10D80BEBC91E1EF803205F
:1035A00015FB06F8DDF824C0844418F80CC00CFAAA
:1035B00001FC42EA0C020EF8032009F10102072A7D
:1035C00011D80BEBC91202EB030898F8803015FBF9
:1035D00006FC099AC1F1080102441CF80220CA4005
:1035E000134388F88030401CC0B2B042BED36D1C7B
:1035F000EDB2AF42B7DCBDE8F08F00001000002054
:103600002DE9F04700241D4690468A4681460A2748
:10361000089E14E0291B0A20491EFFF74FFEB8FB45
:10362000F0F0B0FBF7F107FB110204FB069000B2CB
:10363000334651463032FFF7CFFE641CE4B2AC4251
:10364000E8D3BDE8F0872DE9F0471E46DDF820807D
:1036500014008A468146434604D42B22FFF7BCFE61
:10366000254603E02D22FFF7B7FE654200240A2716
:1036700014E0311B0A20491EFFF720FEB5FBF0F0D5
:10368000B0FBF7F107FB1102641C04FB089000B2C9
:10369000434651463032FFF79FFEE4B2B442E8D3CE
:1036A000BDE8F0872DE9FF4F002483B09B4690468C
:1036B0002546A246DFF850919EE0100610D40398EC
:1036C0008DF80420641C2844A4B28DF805A000B233
:1036D0005B460499FFF780FE05EB0B0085B28BE09B
:1036E0000620B0EB521F0ED1641CA0B28DF804204E
:1036F00018F80010002974D08DF80510401C84B211
:103700008DF806A03CE00E20B0EB121F16D1641C11
:10371000A0B28DF8042018F80010002971D0401CC8
:1037200080B28DF8051018F80010002969D08DF8C6
:103730000610401C84B28DF807A021E01E20B0EBDB
:10374000D20F1FD1641CA0B28DF8042018F800100D
:10375000002956D0401C80B28DF8051018F80010D2
:1037600000294ED0401C80B28DF8061018F80010C9
:10377000002946D0401C8DF8071084B28DF808A0AF
:10378000002609E0641CA4B236E0384601A9FCF723
:1037900023FE68B1761CB6B206EB860000EB46113C
:1037A00001EB0900074619A1FCF716FE0028ECD131
:1037B000BBF1080F03D0BBF1060F1DD112E006EBE1
:1037C000860000EB461101EB0900401D00900398B4
:1037D0001023284400B21A460499FFF7B1FE1035B1
:1037E00009E00EE003980623284400B23F22049922
:1037F000FFF7F2FDAD1DADB218F80420002A7FF4EA
:103800005CAF07B0BDE8F08FBE57000800000000B5
:1038100070B5084D002400212046FFF7ABFD05EBF5
:10382000C410802100F031F8641CE4B2082CF2D3FB
:1038300070BD00001000002010B5024601214FF0BD
:103840009040FEF73FFBBDE81040012000F073BC44
:1038500010B5024602214FF09040FEF733FBBDE861
:103860001040012000F067BC10B50446FFF77FFC54
:103870007820FFF75FFC0020FFF75CFC2046FFF795
:1038800059FCBDE81040FFF781BC70B50D460646F7
:10389000FFF76DFC7820FFF74DFC4020FFF74AFC56
:1038A000002404E0305DFFF745FC641CE4B2AC4248
:1038B000F8D3BDE87040FFF769BC2DE9F0479A46A0
:1038C0000023894604461946401E089D28E032F927
:1038D0001160AE4202DD4FF0010C01E04FF0000C30
:1038E00032F91070AF4202DD4FF0010801E04FF0F5
:1038F0000008C44511D039F910C039F91100A5EB01
:103900000608ACEB000C0CFB08FCBE1B9CFBF6F69F
:103910000644564501DD43B100230846491C09B25F
:10392000A142D4DB1846BDE8F0870123F5E77047D4
:103930007047FEF7D3BA00B593B038216846FCF75C
:1039400023FD14210EA8FCF71FFD4FF40070FEF7B5
:1039500049FB0220C1010391402104910421CDE9DA
:10396000080100904B21CDE90A1007900C900D90B2
:103970006846FEF7C1FC08B172B6FEE70F200E9054
:1039800003200F90002010901190129004210EA897
:10399000FEF78EFB002801D072B6FEE713B000BD23
:1039A0000248016841F470010160704788ED00E051
:1039B000FEE703B401984100009850EAC12018BF07
:1039C00004204A0D18BF40F0010040F2FF72B2EB34
:1039D000515F08BF40F00200012808BF052002B077
:1039E00070470907090E002804DB00F1E02080F889
:1039F0000014704700F00F0000F1E02080F8141D63
:103A0000704700000000000070B59B482DED020BD0
:103A10002DED068B079D25F00044A04218DC974849
:103A2000844202DC0AD1069840B19DED060BBDEC44
:103A3000068B02B0BDE8704000F03EBB002DCCBF4D
:103A40009FED8F0B9FED900BBDEC068B02B070BD10
:103A50008F48A04215DD8F48A042D8BF4FF0FF34F9
:103A600058DD9DED060B51EC100BFFF7A2FF04286B
:103A700008BF00F035FB9DED060BBDEC068B02B0D8
:103A800070BD9DED060B51EC100B00F048FBCDE92D
:103A9000060181489FED828BA0423CDD8248A04216
:103AA0001FDD00249FED82AB9DED060B53EC1A2B1E
:103AB00051EC100B00F0C8FC9DED060B41EC190B0E
:103AC00053EC1A2B51EC100B00F0CAFF53EC182BDF
:103AD00001F060F953EC192B00F06AFDCDE9060105
:103AE00049E09DED060B012453EC182B51EC100B13
:103AF00000F0AAFC9DED060B41EC190B53EC182BC2
:103B000051EC100B01F046F953EC192B00F050FD6D
:103B1000CDE906012FE06848A0421FDD02249FED99
:103B2000689B9DED060B53EC192B51EC100B00F02C
:103B300097FF53EC182B00F087FC9DED060B41EC32
:103B4000180B53EC192B51EC100B01F023F953EC2B
:103B5000182B00F02DFDCDE906010CE09DED060BC4
:103B6000032453EC102B9FED580B51EC100B00F07D
:103B70001FFDCDE906019DED060B53EC102B51EC1A
:103B8000100B00F06DFF41EC180B53EC182B00F0FC
:103B900067FF41EC190B4E480621B0EE490AF0EEE2
:103BA000690A784400F00CFA53EC182B51EC100B16
:103BB00000F056FF41EC180B4648B0EE490AF0EE13
:103BC000690A0521784400F0FBF953EC192B51ECFC
:103BD000100B00F045FF41EC100B51EC180B53ECAF
:103BE000102B002C0EDA00F02FFC9DED061B53EC81
:103BF000112B00F035FF9DED061B53EC112B01F04E
:103C0000BDF835E000F020FC9DED061B53EC112BB8
:103C100000F026FF41EC100B2F48784400EBC40065
:103C200090ED001B51EC100B53EC112B01F0B2F88E
:103C30009DED061B53EC112B01F0ACF841EC100B81
:103C40002648784400EBC40090ED001B51EC100BAB
:103C500053EC112B01F092F841EC100B002DA2BF98
:103C6000BDEC068B02B070BD51EC100B00F0AEFB4A
:103C700041EC100B01E70000000010440000F07F51
:103C8000182D4454FB21F93F182D4454FB21F9BF52
:103C90000000DC3F0000203E0000F33F0000000079
:103CA000000000000000F03F0000E63F00000000C0
:103CB0000000000000000040008003400000000001
:103CC000000000000000F83F000000000000F0BF0E
:103CD000EA1D0000A01D00002A1D0000E21C0000DB
:103CE00070B56F4E2DED040B2DED048B82B0DDF819
:103CF00024C0DDE907235C422CF000411C4341EA6B
:103D0000D474069D22F00040B44205D86C422C4386
:103D100040EAD474B4420BD99DED081B9DED060B0F
:103D200002B0BDEC048B04B0BDE8704000F0CEB929
:103D3000ACF14054A4F17F641C430BD0022404EA8C
:103D4000AC7444EAD27405439FED578B9FED582B1A
:103D500007D015E09DED060B51EC100B00F0D7F9E4
:103D600042E0002C11BF012C9DED060B02B0BDEC12
:103D7000048B04BF04B070BD022C38D0032C3BD0A0
:103D80000B439FED4D1B9FED4E0B0AD0B14218D156
:103D9000B04209D121F0804120F080400991079084
:103DA0000FE0002A15DA10E0474B7B44002C08BFD7
:103DB00093ED000B0DD0012C10D0022C17D0032C4A
:103DC0001AD0B0421DD1002A03DAB0EE410AF0EE5B
:103DD000610A02B0BDEC048B04B070BD93ED000B22
:103DE00051EC100B00F0F2FA41EC100BF1E7B0EEE1
:103DF000480AF0EE680AECE7B0EE420AF0EE620A1A
:103E0000E7E7401A00159FED329B3C28C8BF8DEDB7
:103E1000000B17DCBCF1000FBCBF10F13C0F8DEDA7
:103E2000009B0FDB9DED080B53EC102B9DED060B5B
:103E300051EC100B00F0BCFB00F071F900F067F9D9
:103E4000CDE90001B4B1012C10D0022C9FED220B62
:103E500053EC102B9DED000B51EC100B19D000F022
:103E600099FF53EC182B00F095FFBDE7019880F007
:103E7000004001909DED000B53EC192B51EC100B01
:103E800000F0EEFC04BF0220FCF7EEFA9DED000B03
:103E90009FE700F07FFF53EC182B00F06FFFA3E7C4
:103EA0000000F07F00000000182D4454FB21094061
:103EB000182D4454FB2109C0182D4454FB21F9BF8F
:103EC000182D4454FB21F93F121C00000000000093
:103ED0000000000000000000075C143326A6A13C8F
:103EE00010B52DED020B2DED088B84B09DED0C0B64
:103EF00051EC100B00F0E8FE41EC180B9DED0C0BA3
:103F000053EC182B51EC100B00F044FF41EC190B53
:103F10000D989FED290B10F0004F53EC102B51EC36
:103F2000190B9FED21AB9FED22BB0ED000F05CFD85
:103F30000ED953EC1B2B51EC190B00F08FFE1CD249
:103F400014E000BF41EC180B17E000F04DFD06D265
:103F500053EC1A2B51EC180B00F01CFFF2E753EC5A
:103F60001B2B51EC190B00F079FE06D853EC1A2BE1
:103F700051EC180B00F068FAE4E78DED028B9DED33
:103F80000C0B18EE901A10EE900A8DED000B61F3F9
:103F90001E0003909DED020B04B0BDEC088B02B037
:103FA00010BD000000000000000000000000F03F15
:103FB000000000000000E03F000000000000E0BF43
:103FC00070B504462DED028B4D1E00EBC500B0EE22
:103FD000408AF0EE608A90ED000B35F0060017D0B5
:103FE00053EC182B51EC100B00F03AFD41EC100B88
:103FF0006D1E04EBC50090ED001B51EC100B53EC53
:10400000112B00F021FA41EC100B35F00600E7D13E
:10401000022D36D0042D1CD0062D1CBFBDEC028B0A
:1040200070BD53EC182B51EC100B00F019FD94ED02
:104030000A1B53EC112B00F007FA53EC182B00F07D
:104040000FFD94ED081B53EC112B00F0FDF941EC32
:10405000100B53EC182B51EC100B00F001FD94EDFC
:10406000061B53EC112B00F0EFF953EC182B00F06A
:10407000F7FC94ED040B53EC102B00F0E5F941EC48
:10408000100B53EC182B51EC100B00F0E9FC94EDE5
:10409000021B53EC112B00F0D7F953EC182B00F056
:1040A000DFFC94ED001B53EC112B00F0CDF9BDECBF
:1040B000028B41EC100B70BD10B553EC102B51EC82
:1040C000100B00F0C1F941EC100B10BD10B553EC12
:1040D000112B51EC100B00F0B7F941EC100B10BD97
:1040E0009FED050B10B553EC102B51EC100B00F0AD
:1040F000B7FC41EC100B10BD0000000000000010E8
:1041000030380A2801D2012070470020704710B5CE
:1041100041EC100BFFF778FC51EC100B10BD82B096
:10412000CDE9000121F0004001909DED000B02B0AF
:1041300051EC100B7047A8214843800800BF401E77
:10414000FCD270470EB5FDF7D1FEFFF7F4FBFEF78A
:10415000EBFAFFF727F80021082341220846FFF772
:104160003BF9082374A200211020FFF79BFA0623D5
:10417000412212210020FFF72FF906236EA21221FF
:104180001020FFF78FFA0624052343F239021C2181
:1041900000200094FFF734FA02236FF041021C2143
:1041A00028200094FFF74FFA04234AF2A5521C215D
:1041B00046200094FFF7A0F90823A522262100201D
:1041C0000094FFF7E8F8022303229FED5F0B2621FE
:1041D0003C200094FFF71EF908235DA23021002047
:1041E000FFF760FA5E48102300901A4630216020E5
:1041F000FFF7A6F95BA30622122160200094FFF7C7
:1042000064F8FFF705FB40F6B8373846FDF724FDA4
:10421000FEF7BAFA08210520FEF7A6FE08210520C0
:10422000FEF76CFF234608B150A200E050A2042123
:104230000A20FFF737FA0F237F2200212820FEF7FC
:104240001DFE00237F220F212820FEF717FE0024E9
:104250000F230C22142120460094FEF79FFE012517
:104260000F230C22282100200095FEF797FE1E2622
:1042700023200096CDE901041421192328220846A1
:10428000FEF7C6FE37200096CDE9010528222D2332
:1042900011461420FEF7BCFE002308221B21372004
:1042A000FEF7D9FB012308222F213720FEF7D3FB8D
:1042B00008230C221B2152200094FEF76BFC0823DC
:1042C0000C222F2152200095FEF764FC7D26CDE9BB
:1042D000006419230F2212216E20FEF797FACDE910
:1042E000006519230F2226216E20FEF78FFAFFF7B3
:1042F0008FFA3846FDF7B0FCF500002426011023A4
:10430000802231460020FFF709F8FFF781FA28469E
:10431000FDF7A2FC1023802231460020FEF7FEFFAD
:10432000641CE4B2042CE9D3FEF7E4FFFFF770FA53
:104330002846FDF791FCE0E748656C6C6F20576FED
:10434000726C642100000000CDCCCCCCCCDC5E4093
:1043500048656C6C6F2CCAC0BDE7A1A300000000CB
:10436000C15800085B253032645D00005945530098
:104370004E4F200010B500290AD00878002807D039
:1043800005487844FCF728F8002801D0002010BD2B
:104390000248784410BD0000221700001A170000E0
:1043A00010B500290AD00878002807D005487844BD
:1043B000FCF712F8002801D0002010BD0248784414
:1043C00010BD0000121700000A17000081F0004124
:1043D000704780F00040704721F00041704720F0A6
:1043E0000040704721F00042A2F16052B2F5801FF8
:1043F00001F0004328BFD2F17F6C0BD95FEA001CAB
:1044000043EAC20242EB507018BF704728BF20F049
:1044100001007047B2F5801FBCBF184670474FEAD5
:10442000410C1CF5001F02D2084600F0A2BD70B579
:1044300000F0C0FB00000089FFF7F6BF4FF000401E
:10444000A0F580007047000010B591EA030F48BF47
:1044500083F0004300F1A684841A71EB030C05D2AB
:10446000121943EB0C03001B61EB0C01DFF824E194
:104470004FEA1154A4EB135C1EEA430F18BF9EEAE7
:10448000445F73D023EA0E03DCF1200E21EA0451CD
:1044900043F4801332D322FA0CFE10EB0E0023FA01
:1044A0000CFE41EB0E01CCF1200E03FA0EFE10EBD8
:1044B0000E0051F10001B1F5801FCCF1200E32D277
:1044C00001EB045112FA0EF2BDE8104058BF7047DC
:1044D000401C38BF5FEA420218BF7047002814BF73
:1044E00020F0010041F100014FEA410313F5001FE4
:1044F00038BF7047A1F1C04100F0AABB012A43EBCD
:104500000302ACF1200CDCF11F0E32BF4FF0000EA5
:1045100023FA0CF310EB030041EB0451B4EB115FF1
:10452000D0D0A1EB045101F5801149085FEA3000B9
:1045300001EB04510ED350F1000038BF12FA0EFE09
:1045400008D1BDE81040C9E7401C38BF5FEA42020D
:10455000CAD1C3E7BDE810404FEA410313F5001F7D
:1045600038BF7047A1F1C04100F072BB9EEA445FC2
:1045700008D011EA5E0FBDE8104004BF01F0004111
:1045800000207047BDE8104070B500F013FB00BF7D
:1045900064FBBE3E0000E0FF491058BFC1F140413E
:1045A0005B1058BFC3F140438B42EFF3008070476C
:1045B0002DE9C04130B4DFF8A0C23CEA111418BFA5
:1045C0003CEA131400F0EC8081EA03051CEA1114A4
:1045D00044EAD57418BF1CEA131500F0C780A4EB99
:1045E00005044FF0004545EAC12145EAC32341EAED
:1045F000505143EA525304F17F74994204F5003458
:104600004FEAC0204FEAC22208BF904200F09C80CF
:104610004FEA13650FF24016765D4FEA134506FB2D
:1046200005F7C7F1807706FB07F74FEAD737A7FBF7
:1046300003687642C8F58038A7FB06CE38BFA8F1DC
:10464000010807FB08E64FF0000EA6FB028CE6FB14
:1046500003CEDCF1000CCEF1004E38BFAEF1010EFE
:10466000A6FB0C584FF000074FF00005E6FB0E8745
:10467000A1FB08C6A0FB07CE16EB0E0645F1000510
:10468000E1FB076515F1E04E7EBFA4F580345FEADB
:1046900046066D4116F1800745F100054FEA1727E0
:1046A0004FEA066647EA0567A6F1DE46B6F1805F87
:1046B0004FEA15251FD9384624F0010C05EBC471CB
:1046C000BCF1FE6F01EB0C1102D8F0BCBDE800811B
:1046D00024425CBF01F5801E9EEAC47F02D4F0BC78
:1046E000BDE80081244238D4F0BCA1F1C041BDE84E
:1046F000004100F0ADBA4FEAD22242EA43524FEAFB
:10470000D323A7FB02864FEAD02040EA415007FBA3
:1047100003661EEA0E0F4FEAD12105FB026658BF61
:10472000A6EB0056B6EB00564FEA520E4EEAC37E99
:1047300018EB0E0E56EB530EBDD518EB02085E417A
:104740007F1C55F10005B6E74FF480154FF00007C8
:104750004FF000064FF00008ADE7F0BC4FF000004E
:1047600001F1C04101F00041BDE8008111EA0C1FD8
:104770000CEA131500D00CE013EA0C1F00F02580A2
:104780004FF00000F0BC81EA030101F00041BDE8F8
:104790000081F0BCBDE8004181EA030100F058BA95
:1047A000F0BCBDE8004170B500F004FA097EFC3EA3
:1047B00000F007B881EA03014FF0000001F000416A
:1047C000704781EA030100F043BAF0BCBDE8004144
:1047D0004FF0000021497047FFFDFBF9F7F5F4F2B7
:1047E000F0EEEDEBE9E8E6E4E3E1E0DEDDDBDAD88C
:1047F000D7D5D4D3D1D0CFCDCCCBCAC8C7C6C5C4EA
:10480000C2C1C0BFBEBDBCBBBAB9B8B7B6B5B4B300
:10481000B2B1B0AFAEADACABAAA9A8A8A7A6A5A4EB
:10482000A3A3A2A1A09F9F9E9D9C9C9B9A999998AF
:104830009797969595949393929191908F8F8E8E52
:104840008D8C8C8B8B8A89898888878786858584DF
:1048500084838382828181800000FF070000F87FCB
:1048600051EA030C17D41CF5801F58BFBCF5801FFC
:1048700000F10680994218BF704708BF9042704708
:1048800007D711F5801F58BF13F5801F19D499421F
:104890007047894270471CF5801F08D5BCF5801F02
:1048A000F7D58B4218BF704708BF824270474FF45C
:1048B000001C1CEB410F38BF1CEB430F01D28B4295
:1048C000704770B500F076F9922449004FF000511E
:1048D0004FF08053FFF760BE4FEA41034FEA535356
:1048E000A3F58063D3F11E03C8BFD3F1210C0CDD07
:1048F0004FF0004242EAC12242EA505232FA03FC2F
:104900008CEAE17CACEBE1707047102BC4BF002057
:10491000704703F5787CBCF1FF3F04D06FF0004294
:1049200082EA2100704770B500F044F94992248072
:1049300000207047F2E700004FEA1153A3F58063AF
:10494000D3F11E03A8BFD3F1200C08DB4FF00042C7
:1049500042EAC12252EA505232FA03F07047094249
:104960000BD4102BC4BF0020704703F5787CBCF13A
:10497000FF3F05D04FF0FF3070474FF00000704709
:1049800070B500F017F900BF4992248000207047ED
:10499000F0E710F0004248BF4042B0FA80F310FA4E
:1049A00003F10AD0C3F11D0303F580634FEA4150C0
:1049B00002EB035202EBD12170474FF00000704729
:1049C000B0FA80F310FA03F10AD0C3F11D0303F526
:1049D00080634FEA41504FEA035202EBD121704706
:1049E0004FF000007047000051EA030C17D41CF58B
:1049F000801F58BFBCF5801F00F10680994218BF88
:104A0000704708BF9042704707D711F5801F58BF05
:104A100013F5801F19D499427047894270471CF5DD
:104A2000801F08D5BCF5801FF7D58B4218BF704793
:104A300008BF824270474FF4001C1CEB410F38BF87
:104A40001CEB430F01D28B42704770B500F0B2F8F7
:104A5000922449004FF000514FF08053FFF79CBD66
:104A6000DFF848C170B51CEA111E1EBF1CEA131501
:104A70009EEA0C0F95EA0C0F00F06F8081EA0304A8
:104A800023EA4C134EEAD47E21EA4C1141F4801102
:104A900043F48013AE44A1FB024CA0FB0365AEF1CE
:104AA0007F7E361955EB0C05A1FB034C4CF100033E
:104AB000A0FB021C16EB0C06654153F100030942F2
:104AC00018BF46F0010613F4007F0BD14FEA033103
:104AD0004FEA0530340341EA155140EA16506FF0B1
:104AE00003020AE04FEAC3214FEAC520F40241EA7B
:104AF000555140EA56506FF0020202EB2E4201EB94
:104B0000025585EACE710AD05FEA440C18BF24F042
:104B1000004450F1000041F1000120EAD47040F25D
:104B2000FE7C624500D270BDA84214BF4FF08044A5
:104B30004FF04044002E08BF0024BEF1806FA8BF94
:104B4000A1F1C041BDE8704080F282804FF00000CA
:104B500001F1C04101F0004170479EEA0C0F0CEAE0
:104B6000131518BF95EA0C0F06D04FF0000081EA2C
:104B7000030E0EF0004170BD00F01CF88900013EEC
:104B800000F007B800F009B84FEA430C5FEA5C5C3C
:104B900008D081EA030100F05BB84FEA410C5FEAFC
:104BA0005C5CF6D14FF00000014970470000FF0740
:104BB0000000F87F0EF1020E2EF0030E5EF8046B7B
:104BC000364205D4012A43EB030515F5001F12D820
:104BD000012841EB010C1CF5001F0CD80ED14FEA47
:104BE000D17C15F5001F0CEB4C0C0CF1020C08BF2E
:104BF0004CEBD37C04E04FF0080C01E04FEAD37C8F
:104C00000CEB4C0526FA05F606F00706B6F1040C87
:104C100006D20EEB860CBDE870404CF0010C6047EC
:104C2000DFE80CF0090B02024FF000414FF00000EA
:104C3000A1F5002170BD19461046012851EB010471
:104C400018BFD4F5001484BF002001F0004170BDEE
:104C50000808A0F500114FEA3101704753EA010C32
:104C600017D41CF5801F58BFBCF5801F00F10680CB
:104C70008B4218BF704708BF8242704707D713F5B1
:104C8000801F58BF11F5801F19D48B4270479B427B
:104C900070471CF5801F08D5BCF5801FF7D59942D9
:104CA00018BF704708BF904270474FF4001C1CEBC0
:104CB000430F38BF1CEB410F01D2994270470FB42C
:104CC0000CBC03BCFFF7C1BE5FEA410C5FEA5C5C51
:104CD000ACF580635B1C39D4D3F1340240F34580DA
:104CE000B2F1200314DA4FF0010C0CFA02FCACF123
:104CF00001030340B3EB5C0220EA030008BF10EAA3
:104D00000C0F98BF704710EB0C0041F10001704789
:104D10000AD0C3F1200201FA02FC012821FA03F1B2
:104D200001FA03F14CF100004FF0010C0CFA03FC06
:104D3000ACF10103B0F1004F21EA030108BF11EA11
:104D40000C0F4FF0000088BF61447047B3F1FF3F84
:104D500028BF50EAC12C01F000414FF0000084BF91
:104D600041F07C5141F470017047B3F5806FB8BFDA
:104D7000704770B5FFF71EFF40DBB6BE91EA030F28
:104D800010B581F000413FF567AB83F0004300F0C0
:104D900009B8000010B591EA030F48BF83F0004343
:104DA0003FF55AAB841A71EB030C07D212198CF041
:104DB000004C43EB0C03001B61EB0C01DFF8A4E19A
:104DC0004FEA1154A4EB135C1EEA430F18BF9EEA8E
:104DD000445F00F0B08023EA6E03524221EA04519E
:104DE000C3EB6E0338BF5B1EDCF1200E25D322FA25
:104DF0000CFE10EB0E0043FA0CFE41EB0E01CCF161
:104E0000200E03FA0EFE10EB0E0051F10001CCF162
:104E1000200E29D412FA0EF201EB0451BDE8104025
:104E200058BF7047401C1CBFB2F1004F70470028AC
:104E30000CBF491C20F00100704712EB020E43EB3F
:104E4000030218BF4FF0010E4EEA4202ACF1200CF3
:104E5000DCF11E0E54D943FA0CFE10EB0E0051F19A
:104E6000FF31CCF11E0ED5D50EF1010E12FA0EFE59
:104E7000404141EB010101EB445C5FEA5C5C10D90D
:104E800010EBDE7001EB045138BFBEF1004FBDE8FE
:104E9000104018BF704700280CBF491C20F00100CB
:104EA000704730D24FEAD42C11F5001124F400647D
:104EB0001BD0B1FA81F20B3AA41AA41ED2F120033E
:104EC000914030FA03F31943904001EBCC71002C70
:104ED00001EB0451BDE81040A8BF704701F1C0418B
:104EE0004FF0000001F000417047B0FA80F310FA73
:104EF00003F100D110BDE41A173C4805C90AE4E7E4
:104F000001EB045110BD491001EB0451BDE8104004
:104F10004FEA300002E04FF0000170474A0008BF3E
:104F20000042F8D0B2F5001F28BF704701F00041E1
:104F30004FF0000070479EEA445F07D011EA5E0F11
:104F4000BDE8104004BF002100207047BDE81040BC
:104F500070B5FFF72FFE00BF40DFF63E83F0004143
:104F6000104670470000E0FF4FF04070E1EE100A7D
:104F70007047FF2141EAD050C0057047FBF7A7BE3C
:104F8000FBF7DCBF0000000000000000010203048A
:104F900006070809000000000000000000000000F3
:104FA00000000000000000F80000000000000033D6
:104FB0003000000000160E00160E00000000000079
:104FC0000000000040C07840C0784000043F040466
:104FD0003F040400007088FC08300000001820FF27
:104FE000211E0000F008F000E018000000211C0362
:104FF0001E211E0000F00888700000001E212324DE
:1050000019272110000000160E000000000000000B
:1050100000000000000000E018040200000000078B
:105020001820400000020418E00000000040201892
:1050300007000000404080F0804040000202010F65
:1050400001020200000000F0000000000101011F49
:1050500001010100000000000000000000B070002D
:10506000000000000000000000000000000101013D
:1050700001010101000000000000000000303000CC
:1050800000000000000000008060180400601806A6
:105090000100000000E010080810E000000F1020E0
:1050A00020100F00001010F8000000000020203F2A
:1050B00020200000007008080888700000302824B4
:1050C0002221300000300888884830000018202055
:1050D00020110E000000C02010F80000000704247A
:1050E000243F240000F808888808080000192120BF
:1050F00020110E0000E0108888180000000F112019
:1051000020110E0000380808C83808000000003FD1
:10511000000000000070880808887000001C222130
:1051200021221C0000E010080810E00000003122DD
:1051300022110F00000000C0C0000000000000307D
:1051400030000000000000C0C0000000000080B07F
:1051500070000000000080402010080000010204E0
:105160000810200040404040404040000404040437
:1051700004040400000810204080000000201008F3
:1051800004020100007048080808F0000000003028
:1051900036010000C030C828E810E00007182724B6
:1051A00023140B000000C038E0000000203C230264
:1051B0000227382008F8888888700000203F2020C7
:1051C00020110E00C03008080808380007182020F9
:1051D0002010080008F808080810E000203F2020F0
:1051E00020100F0008F88888E8081000203F2020D1
:1051F0002320180008F88888E8081000203F2000C5
:1052000003000000C03008080838000007182020FC
:10521000221E020008F808000008F808203F2101BB
:1052200001213F20000808F8080800000020203F66
:105230002020000000000808F8080800C0808080D6
:105240007F00000008F888C028180800203F2001CF
:105250002638200008F8080000000000203F202029
:105260002020300008F8F800F8F80800203F003F40
:10527000003F200008F830C00008F808203F200058
:1052800007183F00E01008080810E0000F10202069
:1052900020100F0008F808080808F000203F21013E
:1052A00001010000E01008080810E0000F18242495
:1052B00038504F0008F8888888887000203F200008
:1052C000030C3020007088080808380000382021BE
:1052D00021221C00180808F8080818000000203FC8
:1052E0002000000008F808000008F808001F20202F
:1052F00020201F000878880000C838080000073800
:105300000E010000F80800F80008F800033C070050
:10531000073C0300081868808068180820302C03B8
:10532000032C30200838C800C83808000000203F8F
:105330002000000010080808C8380800203826217E
:1053400020201800000000FE020202000000007F82
:1053500040404000000C30C0000000000000000190
:105360000638C00000020202FE000000004040407B
:105370007F0000000020100804081020000000003A
:10538000000000000000000000000000808080801D
:1053900080808080000204080000000000000000FF
:1053A000000000000000808080800000001924229E
:1053B00022223F2008F8008080000000003F1120DA
:1053C00020110E000000008080800000000E1120DF
:1053D00020201100000000808088F800000E1120BD
:1053E00020103F200000808080800000001F2222CB
:1053F00022221300008080F0888888180020203F37
:10540000202000000000808080808000006B949449
:105410009493600008F8008080800000203F210005
:1054200000203F2000809898000000000020203FCE
:1054300020200000000000809898000000C08080BC
:10544000807F000008F8000080808000203F240258
:105450002D302000000808F8000000000020203F48
:10546000202000008080808080808000203F2000FD
:105470003F20003F008080008080000000203F210E
:1054800000203F200000808080800000001F20203E
:1054900020201F00808000808000000080FFA1206D
:1054A00020110E000000008080808000000E11207E
:1054B00020A0FF80808080008080800020203F210D
:1054C00020000100000080808080800000332424C0
:1054D00024241900008080E0808000000000001F6C
:1054E000202000008080000000808000001F20201D
:1054F00020103F20808080000080808000010E30DE
:105500000806010080800080008080800F300C033E
:105510000C300F0000808000808080000020312E41
:105520000E312000808080000080808080818E701D
:105530001806010000808080808080000021302CCF
:105540002221300000000000807C020200000000E8
:10555000003F404000000000FF000000000000008D
:10556000FF0000000002027C800000000040403F7D
:10557000000000000080404080000080000000002B
:10558000000101000000000000000000002F0000EA
:1055900000000700070000147F147F1400242A7FF6
:1055A0002A12002313086462003649552250000075
:1055B0000007000000001C224100000041221C00E6
:1055C0000014083E08140008083E0808000000A067
:1055D0006000000808080808000060600000002063
:1055E00010080402003E5149453E0000427F400041
:1055F000004261514946002141454B3100181412C7
:105600007F10002745454539003C4A494930000193
:105610007109050300364949493600064949291EE2
:105620000000363600000000563600000008142244
:105630004100001414141414000041221408000244
:1056400001510906003E4955592E007C1211127C69
:10565000007F49494936003E41414122007F414196
:10566000221C007F49494941007F09090901003E88
:105670004149497A007F0808087F0000417F4100C6
:10568000002040413F01007F08142241007F40403C
:105690004040007F020C027F007F0408107F003E24
:1056A0004141413E007F09090906003E4151215E0A
:1056B000007F091929460046494949310001017F07
:1056C0000101003F4040403F001F2040201F003F9D
:1056D0004038403F0063140814630007087008074F
:1056E00000615149454300007F4141000002040828
:1056F0001020000041417F0000040201020400402C
:1057000040404040000001020400002054545478FE
:10571000007F48444438003844444420003844441E
:10572000487F00385454541800087E0901020018BC
:10573000A4A4A47C007F080404780000447D4000F9
:10574000004080847D00007F102844000000417FDD
:105750004000007C04180478007C080404780038B9
:105760004444443800FC242424180018242418FC41
:10577000007C0804040800485454542000043F44AA
:105780004020003C4040207C001C2040201C003C6D
:105790004030403C004428102844001CA0A0A07CBD
:1057A000004464544C440000087F41000000007F26
:1057B00000000000417F0800000804081008EFBC4A
:1057C0008C0000000000000000000000000000004D
:1057D0000000000000583800000000000000000039
:1057E000000000E3808200000000000000000000D4
:1057F0000000000000000000000018242418000031
:105800000000000000000000E4BDA0000000806077
:10581000F8074020180F08C80808281800010000E1
:10582000FF00100C0340807F0001061800E5A5BDB5
:1058300000001010F01F10F000808282E2928A8631
:105840008000402215081661000040807F000000A3
:105850000000E4B8960000202020FE2020FF202039
:1058600020FF20202020000000007F4040474444CB
:1058700044474040400000E7958C0000000000FED7
:10588000929292FE929292FE000000000808048418
:10589000621E010001FE020404080800000000006E
:1058A00000FF0101013109090909897101010101A3
:1058B000FFFF8080808080809681808080808080D3
:1058C000FFFF01818181FD8991A1C1FD818181015C
:1058D000FFFF808080809F888482819F808080807D
:1058E000FF000000000000000000000030313233F3
:1058F0003435363738394142434445464030580004
:105900003031323334353637383961626364656635
:105910004030780004000008000000000000000291
:1059200000010000100000004FBB610567ACDD3FC7
:10593000182D4454FB21E93F9BF681D20B73EF3FB6
:10594000182D4454FB21F93FE2652F227F2B7A3C2E
:10595000075C143326A6813CBDCBF07A8807703CE7
:10596000075C143326A6913CC4EB98999999C9BF5A
:10597000711623FEC671BCBF6D9A74AFF2B0B3BF8F
:105980009AFDDE522DDEADBF2F6C6A2C44B4A2BF4F
:105990000D5555555555D53FFF8300922449C23FBB
:1059A0006E204CC5CD45B73F513DD0A0660DB13FEF
:1059B000EB0D76244B7BA93F11DA22E33AAD903F01
:1059C000000000000000000030313233343536373B
:1059D000383961626364656678700030313233341F
:1059E0003536373839414243444546585000000067
:1059F00002400000000000A0000000000540000080
:105A0000000000C8000000000C4000000000409CA6
:105A100000000000194000000020BCBE0000000093
:105A200034400000BFC91B8E00000004B5400000D8
:105A3000504BCFD06607E2CF010000006C41000060
:105A40003E8251AADFEEA73401000000D9420000D7
:105A5000DCB5A0E23A301F97FFFFFFFFB44500001E
:105A6000FD25A0C8E9A3C14FFFFFFFFFFF3F0000D6
:105A70000000008000000000FF3F000000000080E8
:105A800000000000D05B00080000002010000000B3
:105A900014020008E05B000810000020600A00000B
:105AA000300200081C00000043000000F8FFFFFF68
:105AB0000C0000000E0000000F0000002E0000008F
:105AC0001001000043000000F8FFFFFF00404040CD
:105AD00040404040404041414141414040404040C1
