:020000040800F2
:1000000040060020F1010008A1420008832A0008F0
:100010009D4200085D080008A54C00080000000093
:10002000000000000000000000000000454500083E
:100030002909000800000000A54200084745000803
:100040000B0200080B0200080B0200080B0200085C
:100050000B0200080B0200080B0200080B0200084C
:100060000B0200080B0200080B02000861080008E0
:10007000710800080B0200080B0200080B020008C0
:100080000B020008000000000B0200080B02000831
:100090000B0200080B0200080B0200080B0200080C
:1000A0000B0200080B0200080B0200080B020008FC
:1000B0000B0200080B0200080B020008992A000836
:1000C000892A00080B0200080B0200080B02000836
:1000D0000B0200080B0200080B0200080B020008CC
:1000E0000B0200080B0200080B0200080B020008BC
:1000F0000B0200080B0200080B02000800000000C1
:10010000000000000B020008000000000B020008C5
:100110000B020008000000000B0200080B020008A0
:100120000B0200080B0200080B0200080B0200087B
:100130000B02000800000000000000000B02000895
:100140000B0200080B020008000000000000000085
:10015000000000000000000000000000000000009F
:100160000000000000000000000000000B0200087A
:100170000B0200080000000000000000000000006A
:10018000000000000B02000800000000000000005A
:10019000000000000000000000000000000000005F
:1001A00000000000000000000B0200080B02000825
:1001B0000B0200080B0200080B0200080000000000
:1001C000000000000B02000800000000000000001A
:1001D0000B0200080B020008DFF810D000F086FACE
:1001E00000480047CD580008AFF3008040060020CB
:1001F0000648804706480047FEE7FEE7FEE7FEE7C1
:10020000FEE7FEE7FEE7FEE7FEE7FEE7B94500088A
:10021000D90100082DE9F05F0546002092469B4673
:1002200088460646814640241BE02846414647460C
:10023000224600F06AF853465A46C01A914110D33C
:1002400011461846224600F051F82D1A67EB0108B6
:100250004F4622460120002100F048F817EB000924
:100260004E41201EA4F10104DFDC484631462A46F7
:100270004346BDE8F09FD2B201E000F8012B491ED1
:10028000FBD270470022F6E710B513460A46044633
:100290001946FFF7F0FF204610BD00F0004230F095
:1002A00000400AD0C10D01F56071C0F3160042EAAA
:1002B0000151C208400711437047002001467047B2
:1002C00030B50B46014600202022012409E021FA26
:1002D00002F59D4205D303FA02F5491B04FA02F523
:1002E0002844151EA2F10102F1DC30BD202A04DBF6
:1002F000203A00FA02F1002070479140C2F1200339
:1003000020FA03F3194390407047202A04DB203A77
:1003100021FA02F00021704721FA02F3D040C2F125
:1003200020029140084319467047F0B400F00042A3
:1003300021F0004120F00040CE0DC30DC1F31601A5
:1003400041F40001C0F316004C42154640F4000091
:10035000761E09E010EB440002D582F000424042D4
:100360008842F7D840005B1EB342F9DA18B1F0BCFE
:10037000002100F0E8B92846F0BC70472DE9FE4F97
:10038000804681EA0300C00F0C46009021F0004136
:1003900023F00045B8EB0200A94105D240462146B2
:1003A00090461C460B46024623F00040104347D0BF
:1003B000270DC7F30A00C3F30A510290401A0190B7
:1003C00040286BDAC3F3130040F4801B0098924678
:1003D00020B10023D2EB030A63EB0B0B01985946C3
:1003E000C0F140025046FFF781FF06460D465046D9
:1003F0005946019A00F08CF910EB08006141002485
:1004000087EA115284EAE7731A4340D0009A62B334
:10041000019A012A4FEA075215DC001B61EB020129
:100420004FF0004202EA0752CDE90042001C41F5BC
:10043000801132462B4600F0C3F903B0BDE8F08FBF
:1004400040462146F9E7001B61EB0201001C41F523
:10045000801300185B412018A2F5001747EB030139
:1004600040EAD570B6196D4111E06D084FEA3606C5
:1004700045EAC0754FEA0752001B61EB0201001C00
:1004800041F5801149084FEA3000001951413246C8
:100490002B4603B0BDE8F04F00F083B9009801226D
:1004A00040000023D0EB020263EBE073009821468A
:1004B0004FEAE074B8EB000061EB0401E9E783F078
:1004C00000435BE781F0004158E72DE9FE4F81EAE8
:1004D000030404F0004421F0004100944FF0000BAD
:1004E00023F0004350EA01045ED052EA03045BD0DB
:1004F000C3F30A54C1F30A552C44A4F2F334019413
:10050000A0FB0254C1F3130141F48011C3F31303A0
:1005100043F4801301FB024400FB034E840A970A54
:1005200044EA815447EA8357A4FB076802958D0A81
:1005300005FB07854FEA932C04FB0C542705029D0D
:100540004FEA065847EA1637B5EB08056EEB070C7D
:10055000870E920E47EA811742EA8312A7FB020137
:10056000B6EB0B0164EB00042B0D43EA0C335E1871
:1005700044EB1C50DA465146E7FB0201C5F3130475
:100580004FEA0B3343EA14534FEA0432019C43EA27
:100590000603A4F10C040294009CCDE900B400F021
:1005A0000FF903B0BDE8F08F00200146F9E72DE90F
:1005B000F04D81EA030404F0004B21F0004514469D
:1005C0004FF0000A23F0004150EA050220D054EA1F
:1005D00001021DD0C5F30A570246C5F31303C1F348
:1005E0001300C1F30A5640F4801543F48013A7EBBF
:1005F0000608101BD64608F2FD3873EB050002D33F
:1006000008F1010801E092185B41B8F1000F03DA2C
:1006100000200146BDE8F08D00204FF48011064611
:1006200084460EE0171B73EB050705D3121B63EB23
:10063000050306434CEA010C49084FEA30009218C2
:100640005B4150EA0107EDD152EA030012D082EA81
:10065000040083EA0501084305D0101BAB4106D214
:100660000122002306E000224FF0004302E06FF079
:10067000010253101AEB06004CEB085110EB0A0074
:1006800041EB0B01BDE8F04D00F08BB8C1F30A520D
:10069000C1F3130140F2FF3341F480119A4202DAB0
:1006A00000200146704740F233439A42A2F233429F
:1006B00002DC5242FFF729BEFFF718BE30B5041E18
:1006C00071F1000404DB4FF00044404264EB01018F
:1006D000141E73F1000405DB1C464FF00043524228
:1006E00063EB0403994208BF904230BD064C074DAE
:1006F00006E0E06840F0010394E8070098471034F2
:10070000AC42F6D3FFF76CFD5894000878940008CB
:10071000202A06DBCB17203A41FA02F043EAE073C5
:1007200006E041FA02F3D040C2F1200291400843B2
:10073000194670470029A8BF7047401C490008BFF0
:1007400020F00100704710B4B0FA80FC00FA0CF001
:1007500050EA010404BF10BC704749B1CCF1200439
:1007600021FA04F411FA0CF118BF012121430843C6
:10077000A3EB0C01CB1D4FEA00614FEA102042BFF2
:10078000002010BC704700EBC35010440029A4BFE8
:1007900010BC7047401C490008BF20F0010010BC8D
:1007A000704710B5141E73F1000408DA401C41F1C3
:1007B000000192185B411A4301D120F0010010BDE5
:1007C0002DE9F04D92469B4611B1B1FA81F202E05B
:1007D000B0FA80F220329046FFF788FD04460F46BB
:1007E00040EA0A0041EA0B0153465A46084313D037
:1007F000114653EA010019D0C8F140025046FFF7F4
:1008000084FD05460E46504659464246FFF76EFDAA
:10081000084305D0012004E020463946BDE8F08DAC
:100820000020054346EAE0762C4337430A986305E7
:10083000E40AA0EB08000022FD0A44EA47540A300B
:1008400002D500200146E9E7010510196941DDE9FB
:10085000084500196941BDE8F04DA2E700BFFEE779
:1008600010B5024800F0B2F810BD0000840000206E
:1008700010B5024800F0AAF810BD0000E400002006
:1008800030B50E4D0468AC4201D20D4901E00C496F
:1008900020310B460478083C1425B4FBF5F2446C77
:1008A000A40803EB84048464054C8034C46402F01F
:1008B0001F050124AC40046530BD0000080402405F
:1008C0000008024001794A1E064B03EB8202426592
:1008D000044A403282654A1E02F01F0301229A40F8
:1008E000C26570470009024030B5D0E913546C600E
:1008F000446D14B1D0E916546C6090F8444004F093
:100900001F050124AC40056C6C600468636084685A
:10091000102C04D10468A2600468E16003E004685C
:10092000A1600468E26030BD704772B600BFFEE7A8
:1009300070B50446002594F8250002280BD0042049
:10094000E063012084F8250000BF002084F8240023
:1009500000BF012534E02068006820F00E00216807
:1009600008602068006820F0010021680860A06C21
:10097000006820F48070A16C086094F8440000F0D6
:100980001F0101208840216C4860D4E913104860A1
:10099000606D40B1606D006820F48070616D08602A
:1009A000D4E916104860012084F8250000BF00201B
:1009B00084F8240000BFA06B10B12046A16B8847CB
:1009C000284670BD014691F82500704770B5044671
:1009D000206C05682068066894F8440000F01F0148
:1009E000042088402840E0B106F00400C8B1206827
:1009F000006800F0200028B92068006820F004009A
:100A00002168086094F8440000F01F010420884029
:100A1000216C4860206B002856D02046216B884707
:100A200052E094F8440000F01F0102208840284062
:100A300018B306F0020000B32068006800F0200040
:100A400040B92068006820F00A0021680860012091
:100A500084F8250094F8440000F01F01022088402B
:100A6000216C486000BF002084F8240000BFE06AC9
:100A700050B32046E16A884726E094F8440000F02D
:100A80001F01082088402840F0B106F00800D8B1C6
:100A90002068006820F00E002168086094F8440087
:100AA00000F01F0101208840216C48600120E063B4
:100AB00084F8250000BF002084F8240000BF606B8C
:100AC00010B12046616B884770BD000070B50446C8
:100AD0000CB9012070BD2F49206888420BD22E49E5
:100AE0002068401A1421B0FBF1F0800060642A48AD
:100AF000083820640AE027492068401A1421B0FB16
:100B0000F1F080006064234808382064022084F8F3
:100B100025002068056847F6F0708543D4E9020196
:100B200008432169084361690843A1690843E169F1
:100B30000843216A08430543206805602046FFF703
:100B40009FFEA068B0F5804F01D100206060207941
:100B5000A16C0860D4E913104860606860B16068F7
:100B6000042809D82046FFF7ADFE0020616D08601B
:100B7000D4E91610486003E000206065A065E065D8
:100B80000020E063012084F82500002084F8240080
:100B900000BF9FE708040240080002402DE9F04131
:100BA00004460D4616461F464FF0000800BF94F855
:100BB0002400012802D10220BDE8F081012084F840
:100BC000240000BF94F8250001283FD1022084F8BA
:100BD00025000020E0632068006820F00100216803
:100BE00008603B46324629462046FFF77DFE206BD3
:100BF00030B12068006840F00E00216808600BE00A
:100C00002068006820F004002168086020680068FF
:100C100040F00A0021680860A06C006800F4803091
:100C200028B1A06C006840F48070A16C0860606D11
:100C300028B1606D006840F48070616D08602068C4
:100C4000006840F001002168086006E000BF002055
:100C500084F8240000BF4FF002084046ACE70000D3
:100C600070B5044600F0FCF806462546681C10B135
:100C700004480068054400BF00F0F2F8801BA84259
:100C8000FAD370BD0800002078B502460B4600215B
:100C9000CAE001268E401D6805EA0604002C73D0C8
:100CA0001D7905F00305012D04D01D7905F003051C
:100CB000022D13D190684E000325B540A8434E0085
:100CC000DD68B54028439060506801258D40A843F9
:100CD0001D79C5F300158D40284350601D7905F03E
:100CE0000305032D09D0D0684E000325B540A84365
:100CF0004E009D68B5402843D0601D7905F003057E
:100D0000022D13D1CE0802F1200555F826004D071B
:100D1000EE0E0F25B540A8434E07F60E1D69B540EF
:100D20002843CE0802F1200545F8260010684E0041
:100D30000325B540A8431D7905F003054E00B540D5
:100D4000284310605D6805F44035002D6BD000BF6E
:100D5000384D2D6E45F00105364E356635462D6E03
:100D600005F00105009500BF00BF4FEAB6358E08BB
:100D700055F826008D072E0F0F25B540A843B2F178
:100D8000904F02D100251AE04DE02B4DAA4201D12F
:100D9000012514E0294DAA4201D102250FE0284D7A
:100DA000AA4201D103250AE0264DAA4201D1042519
:100DB00005E0254DAA4201D1052500E006258E0754
:100DC000360FB5402843214D8E0845F82600204DAA
:100DD0002868A0435D6805F4801505B120431C4DCB
:100DE00028602D1D2868A0435D6805F4001505B135
:100DF0002043174D2D1D2860154D2D1F2868A04339
:100E00005D6805F4003505B12043114D2D1F2860A4
:100E10002D1F2868A0435D6805F4803505B1204387
:100E20000B4D083D2860491C1D68CD40002D7FF406
:100E300030AF78BD001002400004004800080048B0
:100E4000000C004800100048001400480800014051
:100E5000080401400AB1816100E08162704700002E
:100E6000014800687047000000000020024692F828
:100E7000410020282DD100BF92F84000012801D167
:100E800002207047012082F8400000BF242082F831
:100E900041001068006820F00100136818601068B5
:100EA000006820F4805013681860106800680843D8
:100EB000136818601068006840F00100136818603B
:100EC000202082F8410000BF002082F8400000BFCF
:100ED000D7E70220D5E710B502460B4692F841004D
:100EE00020282AD100BF92F84000012801D1022019
:100EF00010BD012082F8400000BF242082F841008C
:100F00001068006820F00100146820601068016813
:100F100021F4706141EA03211068016010680068E3
:100F200040F0010014682060202082F8410000BFDA
:100F3000002082F8400000BFDAE70220D8E77047BF
:100F400070472DE9F04104462068856920680668ED
:100F5000C5F3002050B1C6F3C01038B1606C40F04A
:100F6000010060644FF480702168C861C5F380207F
:100F700050B1C6F3C01038B1606C40F00800606436
:100F80004FF480602168C861C5F3402050B1C6F3BA
:100F9000C01038B1606C40F0020060644FF4007023
:100FA0002168C861676C07F00B0018B1394620460C
:100FB00001F0D0FEBDE8F08170B504462068856977
:100FC00020680668606B20B1324629462046636B74
:100FD000984770BD7047000010B504460CB9012059
:100FE00010BD94F8410028B9002084F84000204644
:100FF00000F000FA242084F841002068006820F006
:10100000010021680860606820F070602168086154
:101010002068806820F4004021688860E06801282A
:1010200005D1A06840F400402168886004E0A06811
:1010300040F4044021688860E068022806D12068F6
:10104000406840F400602168486005E0206840681E
:1010500020F4006021684860206840681349084314
:10106000216848602068C06820F400402168C8609A
:10107000D4E904010843A16940EA01202168C8605D
:10108000D4E907010843216808602068006840F03F
:1010900001002168086000206064202084F841007D
:1010A0000020206384F8420000BF99E7008000021E
:1010B000704770477047000010B504460949206822
:1010C00088420ED104F0C0FB074880ED000A04F00E
:1010D00079FB064880ED000A022205490C2004F045
:1010E000CBFA10BD00540040200000202400002056
:1010F0001C000020704700002DE9FC5F0446894673
:1011000092469B46DDE90C780E9E94F8410020281B
:101110007ED117B1B8F1000F05D14FF400706064B3
:101120000120BDE8FC9F00BF94F84000012801D1D8
:101130000220F6E7012084F8400000BFFFF790FE90
:10114000054619230122D1032046009502F0C9FC6F
:1011500008B10120E5E7222084F84100402084F80E
:101160004200002060646762A4F82A8060635B46E6
:10117000524649462046CDE9006502F0F7FA30B103
:1011800000BF002084F8400000BF0120C9E7608D47
:10119000FF280CD9FF2020853D48009094F8282096
:1011A0004FF080734946204602F062FC0BE0608DF0
:1011B00020853748009094F828204FF00073494666
:1011C000204602F055FC00BF334600220421204691
:1011D000009502F086FC08B10120A2E72068406A71
:1011E000616A0870606A401C6062208D401E208524
:1011F000608D401E6085608D48B3208D38BB3346BE
:10120000002280212046009502F06BFC18B100E01E
:101210003CE0012085E7608DFF280CD9FF20208568
:101220000020009094F828204FF080734946204613
:1012300002F01EFC0BE0608D20850020009094F8E9
:1012400028204FF000734946204602F011FC608DC3
:101250000028B9D12A463146204602F083FC08B165
:1012600001205EE720202168C861206840680949A4
:10127000084021684860202084F84100002084F85C
:10128000420000BF84F8400000BF4AE7022048E760
:101290000024008000E800FE2DE9F84F044689464E
:1012A00015461E46DDE90A7A94F8410020287DD1D2
:1012B00017B1BAF1000F05D14FF40070606401203E
:1012C000BDE8F88F20688069C0F3C03008B1022003
:1012D000F6E700BF94F84000012801D10220EFE7B3
:1012E000012084F8400000BF222084F84100402003
:1012F00084F84200002060646762A4F82AA038489D
:10130000E06238486063C4F84C90608DFF2802D9D1
:10131000FF20208501E0608D2085012E05D1E8B2F7
:1013200021688862B01E206505E0C5F307202168AA
:101330008862E8B22065E06BA0B12B48E16BC8621F
:101340002A48E16B48630020E16B0863E16B886326
:10135000238D226802F124013A46E06BFFF71EFC60
:10136000804610E0202084F84100002084F84200EC
:10137000606C40F08000606400BF002084F8400092
:1013800000BF01209CE7B8F1000F13D11848F2B25A
:10139000002349460090204602F06AFB00BF00206F
:1013A00084F8400000BF0121204600E015E001F074
:1013B00001FC10E0202084F84100002084F8420065
:1013C000606C40F01000606400BF002084F84000B2
:1013D00000BF012074E7002072E7022070E70000E0
:1013E0000000FFFFB9350008E72A0008CB2A0008F3
:1013F0000020008010B598B00446142113A8FEF711
:1014000041FF442102A8FEF73DFF4E492068884273
:101410007ED1402002900020089002A800F008FA37
:1014200008B1FFF782FA00BF4748C06C40F00100E6
:101430004549C8640846C06C00F00100019000BF37
:1014400000BF00BF0846C06C40F00200C8640846F8
:10145000C06C00F00200019000BF00BF4FF40040DC
:1014600013901220149000201590169004201790CD
:1014700013A94FF09040FFF707FC80201390122033
:1014800014900020159016900420179013A92F484F
:10149000FFF7FAFB00BF2C48806D40F400102A498A
:1014A00088650846806D00F40010019000BF00BF01
:1014B000274828490860112048601021254881608C
:1014C0000021C16080210161002141618161C16110
:1014D0000162FFF7FBFA08B1FFF727FA00BF1D48CA
:1014E000A063846200BF1A4814301B4908601020B2
:1014F0004860002118488160C1608021016100219D
:1015000041618161C1610162FFF7E0FA18B100E059
:1015100016E0FFF70AFA00BF0F48E063846200BFDD
:10152000002202211F2000F09BF81F2000F084F809
:1015300000220221202000F093F8202000F07CF807
:1015400018B010BD005400400010024000040048D4
:101550000800024084000020E4000020704770472B
:101560000348006803490968084401490860704756
:10157000000000200800002010B50024032000F027
:10158000ADF8032000F008F808B1012401E000F0F4
:101590002FF8204610BD000070B504460025114804
:1015A0000068D8B10F4800684FF47A71B1FBF0F0D1
:1015B0000D490968B1FBF0F6304601F0DCF858B986
:1015C000102C07D200222146501E00F049F807488F
:1015D000046004E0012502E0012500E00125284621
:1015E00070BD0000080000200C0000200400002056
:1015F00008B500BF0F48006E40F001000D490866B5
:101600000846006E00F00100009000BF00BF00BF60
:101610000846806D40F0805088650846806D00F077
:101620008050009000BF00BF052000F057F800F088
:10163000F5F808BD001002400146084600280DDB01
:1016400000BF00BF00F01F0301229A4043099B0026
:1016500003F1E023C3F8002100BF00BF00BF7047C3
:101660002DE9F05F80460D46164603F02DFB074638
:1016700039462A46334601F00700C0F1070ABAF19D
:10168000040F02D94FF0040A01E0C0F1070AD14665
:1016900000F1040ABAF1070F02D24FF0000A01E08C
:1016A000A0F1030AD4464FF0010A0AFA09FAAAF196
:1016B000010A0AEA020A0AFA0CFA4FF0010B0BFAC5
:1016C0000CFBABF1010B0BEA030B4AEA0B042146BE
:1016D000404603F001FBBDE8F09F000000BF00F0B2
:1016E0000702064B19684FF6FF031940044B0B43E2
:1016F00043EA0221014B196000BF70470CED00E086
:101700000000FA0502468ABB4148006800F4C06048
:10171000B0F5806F2BD13E488030006820F4807097
:101720003B4BC3F880001846006820F4C06040F4CA
:10173000007018603748006832235843364BB0FBBE
:10174000F3F0411C00E0491E3148406900F480601C
:10175000B0F5806F01D10029F5D12D48406900F422
:101760008060B0F5806F51D10320704708E02848B1
:101770008030006820F48070254BC3F8800045E07D
:10178000B2F5007F3AD12248006800F4C060B0F59D
:10179000806F2AD11E488030006840F480701C4B56
:1017A000C3F880001846006820F4C06040F4007060
:1017B00018601848006832235843174BB0FBF3F009
:1017C000411C00E0491E1248406900F48060B0F5F9
:1017D000806F01D10029F5D10D48406900F4806087
:1017E000B0F5806F12D10320BFE709488030006850
:1017F00040F48070064BC3F8800007E0044800689E
:1018000020F4C06040F48060014B18600020ACE719
:10181000007000400C00002040420F000348806828
:1018200040F480400149886070470000007000402B
:101830002DE9F84304460027B846206800F400204C
:10184000B0F5002F73D1B946D348806D00F08050B9
:1018500078B900BFD048806D40F08050CE4988658F
:101860000846806D00F08050009000BF00BF4FF030
:101870000109CA48006840F48070C8490860FFF751
:10188000EFFA064606E0FFF7EBFA801B022801D9C3
:10189000032705E0C148006800F480700028F2D0FA
:1018A00000BF002F46D1BC489030006800F440755E
:1018B000CDB1206CA84216D0B7489030006820F413
:1018C0004075B548D0F8900040F48030B249C1F876
:1018D00090000846D0F8900020F48030C1F89000C5
:1018E0000846C0F8905005F00100A0B1FFF7B8FA23
:1018F000064608E0FFF7B4FA801B41F288318842BF
:1019000001D9032706E0A4489030006800F00200E7
:101910000028EFD000BF5FB99F489030006820F4E6
:101920004070216C08439C49C1F8900003E00CE032
:10193000B84600E0B846B9F1010F05D19648806D70
:1019400020F080509449886500BF207800F00100A5
:1019500048B191488830006820F00300616808436E
:101960008D49C1F88800207800F00200022809D1D2
:1019700089488830006820F00C00A1680843864937
:10198000C1F88800207800F00400042809D18248BA
:101990008830006820F03000E16808437E49C1F8D3
:1019A0008800207800F00800082809D17A4888309B
:1019B000006820F0C000216908437749C1F8880019
:1019C000207800F02000202809D173488830006872
:1019D00020F44060616908436F49C1F888002078AD
:1019E00000F04000402809D16B488830006820F49E
:1019F0004050A16908436849C1F88800207800F088
:101A00008000802809D164488830006820F4404074
:101A1000E16908436049C1F88800208800F48070BB
:101A2000B0F5807F09D15C488830006820F44030F0
:101A3000216A08435849C1F88800208800F40070E2
:101A4000B0F5007F09D154488830006820F4402068
:101A5000616A08435049C1F88800208800F480601A
:101A6000B0F5806F13D14C488830006820F44010E6
:101A7000A16A0843484988310860A06AB0F5801F10
:101A800005D14548C06840F480104349C8602088AB
:101A900000F40060B0F5006F13D13F488830006853
:101AA00020F44000E16A08433B4988310860E06A5D
:101AB000B0F5800F05D13848C06840F48010364931
:101AC000C860208800F48050B0F5805F13D13248A0
:101AD0008830006820F04070216B08432E4988311F
:101AE0000860206BB0F1807F05D12B48C06840F4BE
:101AF00080102949C860208800F40050B0F5005FCC
:101B000013D125488830006820F04060616B08439D
:101B1000214988310860606BB0F1006F05D11E4823
:101B2000C06840F480101C49C860208800F48040E0
:101B3000B0F5804F13D118488830006820F040601D
:101B4000A16B0843144988310860A06BB0F1006FA5
:101B500005D11148C06840F480100F49C860208842
:101B600000F40040B0F5004F13D10B4888300068F6
:101B700020F04050E16B0843074988310860E06B72
:101B8000B0F1805F05D10448C06840F4803002495C
:101B9000C8604046BDE8F883001002400070004075
:101BA0002DE9F04104460D464FF0000814B901201C
:101BB000BDE8F0817D48006800F00F00A8420ED219
:101BC0007A48006820F00F002843784908600846EA
:101BD000006800F00F00A84201D00120E8E720785B
:101BE00000F00100002864D06068032823D1704809
:101BF000006800F0007008B90120D9E702F054FB3A
:101C000006466C48864237D96948806800F0F00083
:101C100030B1207800F0020002282DD1A06858BB16
:101C20006348806820F0F00040F0800060498860E0
:101C30004FF0800820E06068022806D15C48006808
:101C400000F4003040B90120B2E75948006800F4C0
:101C5000806008B90120ABE700F0DEF80646554881
:101C6000864209D95248806820F0F00040F0800098
:101C70004F4988604FF080084D48806820F003008D
:101C8000616808434A498860FFF7EAF8074608E0B8
:101C9000FFF7E6F8C01B41F28831884201D90320E2
:101CA00086E74348806800F00C006168B0EB810F64
:101CB000EED1207800F00200022820D1207800F038
:101CC0000400042805D13A48806840F4E0603849AF
:101CD0008860207800F00800082807D13448806820
:101CE00020F4605040F4E0603149886030488068FA
:101CF00020F0F000A16808432D49886008E0B8F1A1
:101D0000800F05D12A48806820F0F00028498860BB
:101D10002648006800F00F00A84219D9234800683F
:101D200020F00F00284321490860FFF799F8074683
:101D300008E0FFF795F8C01B41F28831884201D9CD
:101D4000032035E71948006800F00F00A842F0D1E1
:101D5000207800F00400042807D11548806820F49A
:101D6000E060E168084312498860207800F00800CC
:101D7000082808D10E48806820F46050216940EAA4
:101D8000C1000B49886000F047F809498968C1F330
:101D90000311094A515C01F01F01C840074908605E
:101DA00007480068FFF7F8FB02E700000020024048
:101DB0000010024000B4C404DC5A00080C000020EB
:101DC0000400002001480068704700000C0000205B
:101DD00000B5FFF7F7FF05498968C1F30221044AFE
:101DE000515C01F01F01C84000BD0000001002401E
:101DF000EC5A000800B5FFF7E5FF05498968C1F313
:101E0000C221044A515C01F01F01C84000BD00001E
:101E100000100240EC5A000870B5224DAD6805F084
:101E20000C05042D01D120483AE01E4DAD6805F0A7
:101E30000C05082D01D11D4832E01A4DAD6805F0A2
:101E40000C050C2D2BD1174DED6805F00304154D35
:101E5000ED68C5F303156A1C022C0CD0032C09D1C4
:101E6000124DB5FBF2F50F4EF668C6F3062605FBDC
:101E700006F10AE000BF0C4DB5FBF2F5094EF6681D
:101E8000C6F3062605FB06F100BF00BF054DED6851
:101E9000C5F341656D1C6B00B1FBF3F000E0002061
:101EA00070BD0000001002400024F40000127A000F
:101EB0002DE9F843044614B90120BDE8F8832078E1
:101EC00000F00100002865D0FC48806800F00C0795
:101ED000FA48C06800F003060C2F01D1032E01D090
:101EE000082F0AD1F548006800F40030002851D0CE
:101EF000606800284ED10120DFE700BF6068B0F5C0
:101F0000803F06D1ED48006840F48030EB4908601E
:101F10001AE06068B0F5A02F0BD1E848006840F4E3
:101F20008020E64908600846006840F48030086078
:101F30000AE0E248006820F48030E0490860084682
:101F4000006820F48020086000BF606888B1FEF758
:101F500087FF054606E0FEF783FF401B642801D992
:101F60000320AAE7D548006800F400300028F2D02A
:101F700010E0FEF775FF054606E0FEF771FF401B17
:101F8000642801D9032098E7CC48006800F40030A9
:101F90000028F2D1207800F00200022860D1C74862
:101FA000806800F00C07C548C06800F003060C2FDD
:101FB00001D1022E01D0042F18D1C048006800F4CE
:101FC000806018B1E06808B9012076E7BB48406836
:101FD00020F0FE40217C40EA0160B8494860B848E2
:101FE0000068FFF7D9FA18B3012066E7E06800B38C
:101FF000B248006840F48070B0490860FEF730FFD6
:10200000054606E0FEF72CFF401B022801D90320FD
:1020100053E7AA48006800F480600028F2D0A7487F
:10202000406820F0FE40217C40EA0160A3494860FE
:1020300016E0A248006820F48070A0490860FEF70E
:102040000FFF054606E0FEF70BFF401B022801D9F3
:10205000032032E79948006800F480600028F2D13C
:10206000207800F00800082836D16069D0B1934884
:102070009430006840F001009049C1F89400FEF7E8
:10208000EFFE054606E0FEF7EBFE401B022801D9F5
:10209000032012E789489430006800F0020000280D
:1020A000F1D019E085489430006820F001008349A0
:1020B000C1F89400FEF7D4FE054606E0FEF7D0FE18
:1020C000401B022801D90320F7E67C4894300068C1
:1020D00000F002000028F1D1207800F0040004286C
:1020E00072D14FF000087548806D012121EA10700F
:1020F00078B100BF7148806D40F080506F498865AD
:102100000846806D00F08050009000BF00BF4FF087
:1021100001086C48006800F48070B0B96948006834
:1021200040F4807067490860FEF79AFE054606E0B5
:10213000FEF796FE401B022801D90320BDE6614848
:10214000006800F480700028F2D000BFA068012869
:1021500008D15A489030006840F001005749C1F852
:10216000900021E0A06805280FD154489030006805
:1021700040F004005149C1F890000846D0F89000A2
:1021800040F00100C1F890000EE04C48903000682B
:1021900020F001004949C1F890000846D0F89000AD
:1021A00020F00400C1F8900000BFA068A8B1FEF7BD
:1021B00057FE054609E0FEF753FE401B41F2883109
:1021C000884202D9032078E625E03C489030006838
:1021D00000F002000028EED013E0FEF741FE0546B5
:1021E00008E0FEF73DFE401B41F28831884201D9EC
:1021F000032062E631489030006800F002000028B9
:10220000EFD1B8F1010F05D12C48806D20F080503E
:102210002A49886500BF207800F02000202836D1A8
:10222000A069D0B125489830006840F001002349EA
:10223000C1F89800FEF714FE054606E0FEF710FE12
:10224000401B022801D9032037E61C48983000685B
:1022500000F002000028F1D019E01848983000681A
:1022600020F001001549C1F89800FEF7F9FD054678
:1022700006E0FEF7F5FD401B022801D903201CE60D
:102280000E489830006800F002000028F1D1E069A3
:10229000002860D00948806800F00C000C287AD033
:1022A000E069022858D10548006820F08070034991
:1022B0000860FEF7D5FD05460DE000000010024065
:1022C0000400002000700040FEF7CAFD401B0228F9
:1022D00001D90320F1E54A48006800F000700028A9
:1022E000F2D1D4E90810401E41EA0011A06A41EA87
:1022F0000021208E0122C2EB500041EA40513420DF
:10230000005DC2EB500041EA40612C20005D41EAD3
:10231000C0603B49C9683B4A114008433849C8601E
:102320000846006840F0807008600846C06840F0C9
:102330008070C860FEF794FD054606E0FEF790FD4C
:10234000401B022801D90320B7E52D48006800F0A2
:1023500000700028F2D051E02948006820F0807019
:1023600027490860FEF77CFD054606E0FEF778FD8C
:10237000401B022801D903209FE52148006800F096
:1023800000700028F2D11E48C0681F4908401C494F
:10239000C86033E0FFE7E069012800D18DE5184807
:1023A000C66806F00301206A814225D106F0F001DB
:1023B000606A401EB1EB001F1ED106F4FE41A06A08
:1023C000B1EB002F18D106F078412C20005DB1EB65
:1023D000C06F11D106F4C001208E0122C2EB500063
:1023E000B1EB405F08D106F0C0613420005DC2EB64
:1023F0005000B1EB406F01D001205EE500205CE5AC
:10240000001002400C809F01FCFFEEFE70B50446F8
:102410000CB9012070BD606A38B96068B0F5827F80
:1024200000D105E00021E16102E00021216161614C
:102430000021A16294F85D0028B9002084F85C00B6
:10244000204600F061F8022084F85D0020680068F2
:1024500020F0400021680860E068B0F5E06F01D925
:10246000002501E04FF48055E068B0F5706F05D0AD
:10247000E068B0F5E06F01D00021A162A08800F40F
:102480008270218901F404410843217C01F002019A
:102490000843217D01F001010843218B01F4007103
:1024A0000843217F01F0380108432021095D01F034
:1024B00080010843218D01F4005108432168086020
:1024C0000421A06901EA104094F8241001F01001E1
:1024D000084394F8341001F008010843A18901F47D
:1024E0007061084305F48051084321684860206802
:1024F000C06920F400602168C861002020660120C6
:1025000084F85D00002085E710B586B004461421EC
:1025100001A8FDF7B7FE17492068884228D100BFFF
:102520001548006E40F48050134908660846006E56
:1025300000F48050009000BF00BF00BF0846C06C90
:1025400040F00100C8640846C06C00F00100009033
:1025500000BF00BFA0200190022002900020039045
:1025600004900520059001A94FF09040FEF78CFBE8
:1025700006B010BD00300140001002402DE9F843C4
:1025800004460F4616461D46FEF76AFC8046B146D5
:1025900094F85D00012802D00220BDE8F88307B15D
:1025A0000EB90120F9E700BF94F85C00012801D1C1
:1025B0000220F2E7012084F85C0000BF032084F8C9
:1025C0005D0000202066A763A687E6872064A4F844
:1025D0004400A4F846002065E064A068B0F5004F10
:1025E0000BD12068006820F0400021680860206856
:1025F000006840F48040216808602068006800F0AE
:102600004000402805D02068006840F04000216864
:102610000860E068B0F5E06F37D9606810B1B9F1D3
:10262000010F09D1A06B00882168C860A06B801CD5
:10263000A063E08F401EE08723E02068806800F000
:10264000020002280AD1A06B00882168C860A06B34
:10265000801CA063E08F401EE08712E0FEF700FCC4
:10266000A0EB0800A84201D3681C00B94DB90120B5
:1026700084F85D0000BF002084F85C0000BF0320E8
:102680008BE7E08F0028D8D152E0606810B1B9F133
:10269000010F17D1E08F01280AD9A06B00882168AB
:1026A000C860A06B801CA063E08F801EE08709E0FB
:1026B000A06B007821680873A06B401CA063E08FBA
:1026C000401EE08731E02068806800F002000228A8
:1026D00018D1E08F01280AD9A06B00882168C86052
:1026E000A06B801CA063E08F801EE0871DE0A06BC4
:1026F000007821680873A06B401CA063E08F401E27
:10270000E08712E0FEF7ACFBA0EB0800A84201D383
:10271000681C00B94DB9012084F85D0000BF00209D
:1027200084F85C0000BF032037E7E08F0028CAD19F
:1027300042462946204601F0EBFD08B120202066E4
:10274000A06850B900BF002000902068C0680090C9
:1027500020688068009000BF00BF012084F85D0001
:1027600000BF002084F85C0000BF206E08B101208B
:1027700013E7002011E770B504462546681EB0F146
:10278000807F01D301200FE0681E4FF0E0214861F7
:102790000F214FF0FF3002F09FFA00204FF0E021B0
:1027A000886107200861002070BD014600BF91F8D4
:1027B0008400012801D102207047012081F88400A3
:1027C00000BF2420C1F88800086802680868006813
:1027D00020F001000B68186022F0005200204866CB
:1027E000086802602020C1F8880000BF002081F83E
:1027F000840000BF00BFDFE770B504460D4600BF90
:1028000094F88400012801D1022070BD012084F8D1
:10281000840000BF2420C4F888002068066820686F
:10282000006820F00100216808602068806820F0BE
:102830006060284321688860204601F0C7FE206858
:1028400006602020C4F8880000BF002084F88400BF
:1028500000BF00BFD9E770B504460D4600BF94F82D
:102860008400012801D1022070BD012084F8840079
:1028700000BF2420C4F8880020680668206800682B
:1028800020F00100216808602068806820F0604026
:10289000284321688860204601F098FE2068066081
:1028A0002020C4F8880000BF002084F8840000BF06
:1028B00000BFD9E710B504460CB9012010BDA069CE
:1028C00000B100E000BFD4F8880028B9002084F8E7
:1028D0008400204600F02AF82420C4F888002068EC
:1028E000006820F0010021680860A06A10B120464D
:1028F00001F098FE204601F0BDFF012800D1DDE780
:102900002068406820F49040216848602068806812
:1029100020F02A00216888602068006840F00100EB
:1029200021680860204601F0F9FEC7E710B598B0AD
:102930000446142113A8FDF7A5FC442102A8FDF7C5
:10294000A1FC1D492068884234D10120029000205A
:10295000039002A8FEF76CFF08B1FDF7E6FF00BF89
:102960001648006E40F48040144908660846006E20
:1029700000F48040019000BF00BF00BF0846C06C5B
:1029800040F00100C8640846C06C00F001000190EE
:1029900000BF00BF4FF4C0601390022014900020CD
:1029A0001590032016900720179013A94FF0904020
:1029B000FEF76AF918B010BD00380140001002405F
:1029C0002DE9F84F04460E4617469946D4F888007C
:1029D000202854D106B117B90120BDE8F88F002096
:1029E0005434E06321206063FEF73AFA8246278080
:1029F0006780543CA068B0F5805F04D1206910B9AD
:102A00000025B04602E035464FF0000820E053466E
:102A1000002280212046CDF8009002F0EDF820B190
:102A20002020C4F888000320D7E745B9B8F8000093
:102A3000C0F308002168886208F1020803E02878E2
:102A4000216888626D1CB4F85600401EA4F8560038
:102A5000B4F856000028DAD153460022402120461F
:102A6000CDF8009002F0C8F820B12020C4F888000A
:102A70000320B2E72020C4F888000020ADE7022040
:102A8000ABE700BFFEE7000010B50248FEF759FAB9
:102A900010BD00003000002010B50248FEF78CFA8F
:102AA00010BD00003000002070B50546AC6AA06B78
:102AB00010B10020A16B8863E06B10B10020E16BC6
:102AC0008863204600F0F0FF70BD70B50546AC6A23
:102AD0002068406840F4004021684860102120468A
:102AE00000F038F970BD70B50546AC6A2068006822
:102AF00020F4004021680860608D20B92021204624
:102B000000F058F81DE0218D606A08446062608D15
:102B1000FF2802D9FF20208501E0608D2085238DCC
:102B2000266806F12401626AE06BFEF737F820B1EF
:102B30001021204600F00EF903E04021204600F06D
:102B400039F870BD10B50246002001F001034BB109
:102B500040F0420092F8413003F02803282B01D0C6
:102B600040F0B00001F00203022B09D140F0440014
:102B700092F8413003F02803282B01D040F0B00038
:102B800001F40043B3F5004F01D140F0B800102923
:102B900001D140F09000202901D140F020004029CF
:102BA00001D140F0400013681B6883431468236020
:102BB00010BD000010B502460020254C536BA34207
:102BC00022D0244C536BA3421ED0234C536BA34200
:102BD0001AD001F40043B3F5004F01D140F0B80022
:102BE00001F001030BB140F0F20001F00203022BEF
:102BF00001D140F0F400102901D140F090002029CB
:102C000020D140F020001DE001F40043B3F5004F57
:102C100001D140F0B80001F001030BB140F0F20027
:102C200001F00203022B01D140F0F400102901D180
:102C300040F09000202901D140F06000402901D1EE
:102C400040F0400013681B6803431468236010BD04
:102C500059340008E9370008B93500080168896966
:102C6000C1F3400111B100210268916201688969D4
:102C700001F0010129B90168896941F00101026887
:102C8000916170472DE9F0470446894694F8410068
:102C900000F02800282852D120688069C0F300473E
:102CA0002068806900F47E00050C20688068C0F30D
:102CB00009062068C06800F0FE08E06802282ED1EE
:102CC00005F00600062101EAE611884216D13546D4
:102CD000A06C401CA064A06C022838D10020A06425
:102CE00008202168C86100BF002084F8400000BFB0
:102CF0002A4639462046FEF723F928E045464FF498
:102D000000412046FFF71EFF00BF002084F840006E
:102D100000BF2A4639462046FEF712F917E04FF465
:102D200000412046FFF70EFF00BF002084F840005E
:102D300000BF2A4639462046FEF702F907E0082080
:102D40002168C86100BF002084F8400000BFBDE8D2
:102D5000F08700002DE9F04104460F4694F84160E9
:102D6000002084F842004D48E06200206085606CDD
:102D700038436064282E03D0292E01D02A2E09D191
:102D800003212046FFF7DEFE282084F84100444856
:102D9000606324E048F203012046FFF7D3FE20469B
:102DA000FFF75CFF94F84100602816D0202084F8DB
:102DB000410020688069C0F3401070B120688069CC
:102DC000C0F3001030B110202168C861606C40F081
:102DD0000400606420202168C86100206063256BC6
:102DE000A06B48B3112D01D0212D25D1206800689A
:102DF00000F48040B0F5804F05D12068006820F4D1
:102E0000804021680860A06BFDF7DCFD01280FD031
:102E10002448A16B886300BF002084F8400000BFF5
:102E2000A06BFDF785FD70B3A06B816B884732E026
:102E3000204600F039FE2EE0E06B48B3122D01D0A1
:102E4000222D25D12068006800F40040B0F5004F25
:102E500005D12068006820F4004021680860E06B1C
:102E6000FDF7B0FD01280FD00E48E16B886300BF6D
:102E7000002084F8400000BFE06BFDF759FD10B161
:102E8000E06B816B884706E0204600F00DFE02E013
:102E9000204600F009FEBDE8F08100000000FFFFC1
:102EA00027390008A92A000870B504460D461948BC
:102EB000E06200202063202084F84100002084F894
:102EC00042006063C5F3800090B12068406A616A87
:102ED0000870606A401C6062208D48B1208D401EE1
:102EE0002085608D401E6085606C40F00400606449
:102EF00048F203012046FFF725FE10202168C86133
:102F000000BF002084F8400000BF2046FEF7D0F844
:102F100070BD00000000FFFFF8B504460D462F46C7
:102F200020202168C86194F84100212806D10121A0
:102F30002046FFF707FE1120206309E094F84100C6
:102F4000222805D102212046FFF7FCFD1220206334
:102F50002068406838490840216848600020606364
:102F60003648E062C7F3001030B110202168C86114
:102F7000606C40F00400606494F84100602807D160
:102F8000C7F3800020B12068406AC0B2009000BF43
:102F90002046FFF763FE666C94F84100602800D07D
:102FA00026B1616C2046FFF7D5FE44E094F841005D
:102FB00021281ED1202084F841000020206394F8AD
:102FC000420040280AD1002084F8420000BF84F863
:102FD000400000BF2046FEF78DF82CE0002084F86A
:102FE000420000BF84F8400000BF2046FEF762F8B0
:102FF00021E094F8410022281DD1202084F84100CE
:103000000020206394F8420040280AD1002084F870
:10301000420000BF84F8400000BF2046FEF74CF895
:1030200009E0002084F8420000BF84F8400000BF9F
:103030002046FEF73EF8F8BD00E800FE0000FFFF66
:1030400010B50446002084F8420094F8410021287D
:1030500013D1202084F841001120206300206063F8
:1030600001212046FFF76EFD00BF002084F84000DC
:1030700000BF2046FEF71EF812E0202084F8410031
:10308000122020630020606302212046FFF75AFDD2
:1030900000BF002084F8400000BF2046FEF709F87A
:1030A00010BD00002DE9F047044689462068D0F89D
:1030B00000804E46E76A94F8415020202168C8619C
:1030C000212D01D0292D07D148F201012046FFF71B
:1030D00039FD2120206314E0222D01D02A2D07D1B3
:1030E00048F202012046FFF72DFD2220206308E070
:1030F000282D06D148F203012046FFF723FD0020CA
:1031000020632068406840F40040216848602068DF
:10311000406860490840216848602046FFF79EFDEE
:10312000C8F3803060B12068006820F480402168D6
:103130000860A06B98B1A06B0068406860850EE0E5
:10314000C8F3C03058B12068006820F400402168FE
:103150000860E06B18B1E06B006840686085C6F3FA
:10316000800080B126F004062068406A616A087019
:10317000606A401C6062208D28B1208D401E208531
:10318000608D401E6085608D18B1606C40F0040059
:103190006064C6F3001000B3C8F30010E8B1608D9E
:1031A00000BB94F84100282807D1B7F1007F04D173
:1031B00031462046FFF778FE23E094F841002928A5
:1031C0000CD117F5803F09D010202168C861204636
:1031D000FFF744FD204600F061F812E0102021685E
:1031E000C8610EE010202168C861606C40F00400E6
:1031F000606417B1B7F1807F03D1616C2046FFF79F
:10320000A9FD002084F842006063606C60B1616CCD
:103210002046FFF79FFD94F84100282837D131461A
:103220002046FFF741FE32E0E06A10F5803F11D002
:10323000204600F033F81848E062202084F841006E
:103240000020206300BF84F8400000BF2046FDF747
:103250002FFF1CE094F8410022280CD1202084F894
:1032600041000020206300BF84F8400000BF2046DA
:10327000FEF774F90BE0202084F841000020206361
:1032800000BF84F8400000BF2046FEF768F9BDE8A3
:10329000F087000000E800FE0000FFFF70B5044664
:1032A00020680568002084F84200C5F3803030B102
:1032B0002068006820F480402168086008E0C5F3B9
:1032C000C03028B12068006820F400402168086000
:1032D00094F84100292811D1282084F841002120A8
:1032E000206301212046FFF72DFC00BF002084F859
:1032F000400000BF2046FEF732F914E094F8410088
:103300002A2810D1282084F841002220206302219D
:103310002046FFF717FC00BF002084F8400000BFE4
:103320002046FEF71BF970BD2DE9F74F04460E4607
:1033300000272068D0F818800025DDF8089008F0F4
:103340001000102845D12168C86134E0701C90B38A
:10335000FDF786FDA0EB0900B04200D85EBB2068F7
:10336000406800F4804A94F842B020688069C0F355
:10337000C03070B1BAF5804F0BD0BBF1200F08D030
:103380002068406840F4804021684860FDF768FD8F
:10339000814609E0FDF764FDA0EB0900192803D977
:1033A00045F02005012705E020688069C0F3401042
:1033B0000028EFD000BF20688069C0F3401008B932
:1033C000002FC3D017B920202168C86145F004053B
:1033D00001272068D0F8188008F48070B0F5807F4D
:1033E00006D145F001054FF480702168C8610127BE
:1033F00008F48060B0F5806F06D145F008054FF401
:1034000080602168C861012708F40070B0F5007F72
:1034100006D145F002054FF400702168C86101270C
:10342000AFB12046FFF71AFC206840680949084000
:1034300021684860606C28436064202084F8410063
:10344000002084F8420000BF84F8400000BF3846E6
:10345000BDE8FE8F00E800FE2DE9F84304460D4666
:10346000164600BF94F84000012802D10220BDE8B2
:10347000F883012084F8400000BFC5F3001088B134
:10348000C6F3001070B110202168C861606C40F074
:103490000400606420212046FFF78CFB2046FFF7E4
:1034A000DDFB82E0C5F3C010002851D0C6F38010C8
:1034B00000284DD02068006820F040002168086096
:1034C000608DA0B320684068C0F30908608DFF28B4
:1034D00004D9FF2020854FF0807709E0608D20859A
:1034E000E06A10F5803F01D0E76A01E04FF0007715
:1034F0000020009094F828203B464146204600F0EA
:10350000B7FA608D218D401A608594F84100222819
:1035100006D12068006840F400402168086044E05B
:103520002068006840F48040216808603DE0FFE7C3
:103530002068406800F00070B0F1007F03D02046A2
:10354000FFF77EFD31E040212046FFF703FC2CE031
:10355000C5F38010F8B1C6F38010E0B1608DA8B952
:103560002068406800F00070B0F1007F1DD0E06A74
:1035700010F5803F06D12068406840F48040216803
:10358000486012E02046FFF75BFD0EE04021204638
:10359000FFF7E0FB09E0C5F3401030B1C6F340107F
:1035A00018B129462046FFF7B7FC00BF002084F879
:1035B000400000BF00BF5AE7F8B504460D46164666
:1035C000684F00BF94F84000012801D10220F8BDE7
:1035D000012084F8400000BFC5F3001088B1C6F395
:1035E000001070B110202168C861606C40F00400C8
:1035F000606420212046FFF7DDFA2046FFF72EFB0E
:10360000A8E0C5F3400048B1C6F3400030B1206DDA
:10361000216888624FF0FF3020659BE0C5F3C01041
:10362000002847D0C6F38010002843D0012120464F
:10363000FFF788FA10212046FFF7BCFA608D98B397
:10364000608DFF280DD9FF2020850020009094F880
:103650002820E06C81B24FF08073204600F008FA19
:103660000CE0608D20850020009094F82820E06C0C
:1036700081B24FF00073204600F0FAF9608D218D81
:10368000401A608594F84100222806D1206800681D
:1036900040F40040216808605CE02068006840F465
:1036A00080402168086055E0FFE740212046FFF791
:1036B00051FB4FE0C5F38010D0B3C6F38010B8B310
:1036C00001212046FFF73EFA10212046FFF772FA4B
:1036D00094F84100222800D1234F608DFF280CD997
:1036E000FF202085009794F82820E06C81B24FF0ED
:1036F0008073204600F0BCF90BE0608D20850097B8
:1037000094F82820E06C81B24FF00073204600F05E
:10371000AFF9608D218D401A608594F84100222810
:1037200007D12068006840F400402168086011E07B
:1037300006E02068006840F480402168086009E0E5
:10374000C5F3401030B1C6F3401018B129462046E9
:10375000FFF7E2FB00BF002084F8400000BF00BF7D
:1037600035E7000000200080002400802DE9F843A8
:103770000446894615461E46DDE908781948F2B226
:10378000002349460090204600F072F9424639462F
:10379000204600F017FA10B10120BDE8F883012E91
:1037A00003D1E8B2216888620EE0C5F307202168E2
:1037B000886242463946204600F004FA08B10120EA
:1037C000EBE7E8B2216888623B46002240212046B0
:1037D000CDF8008000F085F908B10120DDE7002078
:1037E000DBE70000002000802DE9F04704460F468B
:1037F0001546D4F82C804FF0000900BF94F8400023
:10380000012802D10220BDE8F087012084F84000A1
:1038100000BFC7F3401038B1C5F3401020B139469E
:103820002046FFF73FFC77E0C7F30010002869D07F
:10383000C5F30010002865D0C5F3803018B9C5F372
:10384000C03000285AD0E06B40B1C5F3C03028B179
:10385000E06B0068406808B94FF00109A06B40B107
:10386000C5F3803028B1A06B0068406808B94FF0FC
:103870000109B9F1010F20D194F84100282807D19E
:10388000B8F1007F04D139462046FFF70DFB43E035
:1038900094F8410029280CD118F5803F09D0102058
:1038A0002168C8612046FFF7D9F92046FFF7F6FCEA
:1038B00032E010202168C8612EE010202168C86124
:1038C000606C40F00400606494F84160B8F1000F4F
:1038D00002D0B8F1807F1FD1212E01D0292E02D134
:1038E0002120206305E0222E01D02A2E01D12220A2
:1038F0002063616C2046FFF72DFA0DE0102021684F
:10390000C86109E0C7F3C00030B1C5F3C00018B109
:1039100039462046FFF7B6F900BF002084F8400082
:1039200000BF00BF6FE72DE9F04104468846164608
:10393000E56A474600BF94F84000012802D1022002
:10394000BDE8F081012084F8400000BFC7F34010BB
:1039500038B1C6F3401020B139462046FFF7A2FB2C
:103960007FE0C7F30010A8B3C6F3001090B3608DDA
:1039700000BB94F84100282807D1B5F1007F04D19D
:1039800039462046FFF790FA6BE094F84100292869
:103990000CD115F5803F09D010202168C861204660
:1039A000FFF75CF92046FFF779FC5AE01020216808
:1039B000C86156E010202168C861606C40F00400C6
:1039C000606415B1B5F1807F4BD1616C2046FFF783
:1039D000C1F946E0FFE7C7F38000D0B1C6F380002D
:1039E000B8B1608D60B12068406A616A0870606A31
:1039F000401C6062208D401E2085608D401E6085C9
:103A0000608D30BB15F5803F2BD02046FFF746FC7C
:103A100027E0C7F3C00038B1C6F3C00020B1394673
:103A20002046FFF72FF91CE0C7F3400088B1C6F32A
:103A3000400070B1608D68B1606A0078216888626A
:103A4000606A401C6062608D401E6085208D401E53
:103A5000208506E0B5F1807F00D015B92046FFF73C
:103A60001DFC00BF002084F8400000BF00BF67E7D6
:103A7000F0B5059CC1F309064FF47F0707EA02473A
:103A80003E431E43264326F00045066876684FF401
:103A9000806707EA545767F0FC2747F4C047BE43E6
:103AA0002E4307687E60F0BD10B5044694F84100CF
:103AB00060280CD1202084F841000020206300BF42
:103AC00084F8400000BF2046FDF739FA08E00020E6
:103AD000206300BF84F8400000BF2046FDF77AFA5B
:103AE00010BD2DE9F04104460D4617461E46DDF88F
:103AF00018802BE0424631462046FFF715FC10B1F6
:103B00000120BDE8F081701C00B3FDF7A9F9A0EB1E
:103B10000800B04200D8CEB9206880692840A84289
:103B200001D1012000E00020B8420FD1606C40F0CC
:103B300020006064202084F84100002084F84200C6
:103B400000BF84F8400000BF0120DAE720688069E8
:103B50002840A84201D1012000E00020B842C9D08D
:103B60000020CEE770B504460D46164622E03246E8
:103B700029462046FFF7D8FB08B1012070BDFDF7AC
:103B80006FF9801BA84200D8A5B920688069C0F3EE
:103B9000401078B9606C40F020006064202084F808
:103BA0004100002084F8420000BF84F8400000BFBC
:103BB0000120E3E720688069C0F340100028D6D0D8
:103BC0000020DBE770B504460D46164624E0324679
:103BD00029462046FFF7A8FB08B1012070BD681CEC
:103BE000D0B1FDF73DF9801BA84200D8A5B92068E7
:103BF0008069C0F3400078B9606C40F020006064D8
:103C0000202084F84100002084F8420000BF84F89E
:103C1000400000BF0120E1E720688069C0F3400058
:103C20000028D4D00020D9E72DE9F04107460C4602
:103C300015461E462A2000F00DFA384600F0ECF931
:103C4000284600F0E9F92B2000F004FA204600F0A5
:103C5000E3F9304600F0E0F92C2000F0FBF9BDE874
:103C6000F08170B504460D4616462B46224629467D
:103C70002046FFF7D9FF304600F0CEF970BD2DE9A0
:103C8000F04706460F4614461D46DDF820A0681E84
:103C900083B2601E82B239463046FFF7C5FFB84690
:103CA0000EE0B14606E0504600F0B6F909F1010019
:103CB0001FFA80F9A145F6DB08F101001FFA80F830
:103CC000A845EEDBBDE8F08710B500BF0022042157
:103CD0004FF09040FDF7BEF800BF6420FCF7C0FF36
:103CE00000BF012204214FF09040FDF7B3F800BF60
:103CF0006420FCF7B5FF00BF012210214FF0904077
:103D0000FDF7A8F800BF6420FCF7AAFF112000F01F
:103D1000A1F97820FCF7A4FF362000F09BF90020E1
:103D200000F08CF93A2000F095F9052000F086F9B2
:103D3000B22000F08FF90C2000F080F90C2000F088
:103D40007DF9002000F07AF9332000F077F9332074
:103D500000F074F9B72000F07DF9352000F06EF91D
:103D6000BB2000F077F9372000F068F9C02000F0A0
:103D700071F92C2000F062F9C22000F06BF90120EB
:103D800000F05CF9C32000F065F9122000F056F94C
:103D9000C42000F05FF9202000F050F9C62000F0A8
:103DA00059F90F2000F04AF9D02000F053F9A4206F
:103DB00000F044F9A12000F041F9E02000F04AF9B8
:103DC000D02000F03BF9042000F038F90D2000F07D
:103DD00035F9112000F032F9132000F02FF92B20D3
:103DE00000F02CF93F2000F029F9542000F026F9CA
:103DF0004C2000F023F9182000F020F90D2000F0ED
:103E00001DF90B2000F01AF91F2000F017F92320EC
:103E100000F014F9E12000F01DF9D02000F00EF9B7
:103E2000042000F00BF90C2000F008F9112000F03C
:103E300005F9132000F002F92C2000F0FFF83F20D4
:103E400000F0FCF8442000F0F9F8512000F0F6F8FA
:103E50002F2000F0F3F81F2000F0F0F81F2000F0F2
:103E6000EDF8202000F0EAF8232000F0E7F8212008
:103E700000F0F0F8292000F0EDF810BD2DE9FF5F0B
:103E800080468A4617469B460F9D00200290CDF83B
:103E90000080284605EBD071C1F347042046E217A5
:103EA00004EB5272D2102146E31704EB5373DB107C
:103EB000A4EBC3030BB1012300E000231A446A43BF
:103EC00092B20192A7F12000C7B20AEB0500401E92
:103ED00083B208EB0400401E82B251464046FFF711
:103EE000A3FE002669E00C2D07D107EB47003549FA
:103EF00001EB8000805D03901BE0102D05D132485E
:103F000000EB0710805D039013E0182D07D107EB3D
:103F100047002E4901EB0010805D039009E0202D41
:103F200005D12B4800EB8710805D039001E0BDE8D0
:103F3000FF9F4FF000093AE01098C8B9012000FA3D
:103F400009F00399084018B1584600F065F802E0FE
:103F50000E9800F061F80298401CC0B202900298DE
:103F600090FBF4F104FB1100E8B90020029021E07D
:103F7000012000FA09F00399084020B15A46514641
:103F80004046FFF76EFE08F101001FFA80F8009826
:103F9000A8EB0000A04206D1DDF800800AF1010084
:103FA0001FFA80FA06E009F1010000F0FF09B9F1FB
:103FB000080FC1DB00BF701C86B20198864292DBFD
:103FC00000BFB4E7F45A0008685F000858650008AD
:103FD000287700082DE9FE4F06460F4614469846FE
:103FE000DDE90D5ADDF8309010E0CDE9015ACDF849
:103FF00000902278434639463046FFF73FFF284677
:1040000005EBD07106EB61018EB2641C20780028AC
:10401000EBD1BDE8FE8F000038B5044620128DF8C4
:104020000000E0B28DF801004FF0FF330222694634
:104030000148FEF7A3FA38BD4401002001B54FF056
:10404000FF33012269460248FEF798FA08BD0000D6
:104050004401002001B500BF002208214FF090402C
:10406000FCF7F8FE00BF4FF0FF3301226946064817
:10407000FEF784FA00BF012208214FF09040FCF7C0
:10408000E9FE00BF08BD00004401002008B500BFE4
:104090001548806C40F00400134988640846806C21
:1040A00000F00400009000BF00BF00BF0846806C15
:1040B00040F0010088640846806C00F00100009028
:1040C00000BF00BF002201210B20FDF7C9FA0B2021
:1040D000FDF7B2FA002201210C20FDF7C1FA0C20F5
:1040E000FDF7AAFA08BD00000010024000B587B035
:1040F000142102A8FCF7C6F800BF1D48C06C40F0B0
:1041000020001B49C8640846C06C00F020000190E4
:1041100000BF00BF00BF0846C06C40F00100C8648B
:104120000846C06C00F00100019000BF00BF00BF56
:104130000846C06C40F00200C8640846C06C00F03D
:104140000200019000BF00BF01221C214FF09040EF
:10415000FCF780FE1C2002900120039004900320B5
:10416000059002A94FF09040FCF78EFD07B000BD0E
:104170000010024010B51248124908601248486009
:104180000021104881600121C1600021016141616D
:104190008161C1610162FCF71FFF08B1FCF7C5FB3B
:1041A00000210848FCF762FE08B1FCF7BEFB0021C5
:1041B0000448FCF790FE08B1FCF7B7FB10BD000007
:1041C00000540040300000203612624010B51648FE
:1041D000164908604FF4827048604FF4004113485C
:1041E00081604FF4E061C1600021016141614FF4E1
:1041F000007181611821C161002101624162816207
:104200000721C1620021016308214163FEF7FEF826
:1042100008B1FCF78AFB05480068006840F04000E0
:1042200002490968086010BD0030014044010020C7
:1042300010B51848184908604FF4E1304860002173
:1042400015488160C16001610C21416100218161DB
:10425000C1610162416200200F4988620846FEF791
:1042600029FB08B1FCF761FB00210B48FEF7F3FACC
:1042700008B1FCF75AFB00210748FEF7BDFA08B168
:10428000FCF753FB0448FEF790FA08B1FCF74DFB2E
:1042900010BD000000380140A801002000BFFEE76B
:1042A00000BFFEE77047000070B5164DED6805F0E1
:1042B0000304144DED68C5F303156B1C022C0CD0E0
:1042C000032C09D1104DB5FBF3F50E4EF668C6F37D
:1042D000062605FB06F10AE000BF0C4DB5FBF3F521
:1042E000084EF668C6F3062605FB06F100BF00BFC0
:1042F000044DED68C5F341656D1C6A00B1FBF2F039
:1043000070BD00000010024000127A000024F4008A
:10431000F8B504460E461546334600224FF4C05108
:104320002046009500F026F828B1206E40F02000CD
:1043300020660320F8BD33460022802120460095E8
:1043400000F094F828B1206E40F020002066032091
:10435000F0E7334600224FF4C0612046009500F09C
:1043600009F828B1206E40F0200020660320E1E724
:104370000020DFE72DE9FC5F04460D4616461F4688
:10438000DDF8309000200090FCF76AFDA0EB0900FA
:10439000A7EB0008FCF764FD8246206800F10C0BD7
:1043A00031480068C0EBC00000EB8000000D00FB4E
:1043B00008F0019050E0B5F5C06F05D126B99BF823
:1043C000000000909DF80000781C002844D0FCF705
:1043D00047FDA0EB0A00404502D2B8F1000F34D1EE
:1043E0002068406820F0E000216848606068B0F50F
:1043F000827F0DD1A068B0F5004F03D0A068B0F562
:10440000806F05D12068006820F0400021680860B6
:10441000A06AB0F5005F0DD100BF2068006820F4ED
:104420000050216808602068006840F4005021684E
:10443000086000BF012084F85D0000BF002084F800
:104440005C0000BF0320BDE8FC9F019808B94FF055
:1044500000080198401E0190206880682840B04202
:10446000A9D10020EFE700000C0000202DE9F84F53
:1044700004460D4690461E46DDF82890FCF7F0FCF9
:10448000A0EB0900371AFCF7EBFC82462C480068C9
:10449000C0F3CB307843009045E0701C002842D038
:1044A000FCF7DEFCA0EB0A00B84200D2A7BB2068F4
:1044B000406820F0E000216848606068B0F5827FC5
:1044C0000DD1A068B0F5004F03D0A068B0F5806FA3
:1044D00005D12068006820F0400021680860A06ACB
:1044E000B0F5005F0DD100BF2068006820F40050D7
:1044F000216808602068006840F400502168086066
:1045000000BF012084F85D0000BF002084F85C003B
:1045100000BF0320BDE8F88FFFE7009800B900272F
:104520000098401E0090206880682840A84201D171
:10453000012000E000204045AFD10020EAE7000064
:104540000C000020704710B5FDF70AF810BD00B54B
:1045500093B0382105A8FBF795FE14216846FBF7B8
:1045600091FE0020FDF7CEF8012005900004069092
:1045700002200C9003210D9102210E9155210F91E3
:10458000022110911191129105A8FDF791FC08B13B
:10459000FCF7CBF90F20009003200190002002903F
:1045A0000390049004216846FDF7FAFA08B1FCF77D
:1045B000BCF913B000BD00000348006840F470006F
:1045C000014908607047000088ED00E070B5456E55
:1045D0002DB90125A0F86A50A0F868501CE0082306
:1045E00008240568AD68C5F342610568AD686A0FC7
:1045F0000A4DAD5C15FB04F5094EB65C95FBF6F56E
:10460000A0F86A50054D6D5C15FB03F5044E765C11
:1046100095FBF6F5A0F8685070BD0000CC5A000874
:10462000D45A000890F8281001F00801082907D191
:104630000168496821F40041826B114302685160AE
:1046400090F8281001F0010139B10168496821F49E
:104650000031C26A11430268516090F8281001F0DD
:104660000201022907D10168496821F48031026BF7
:1046700011430268516090F8281001F004010429E8
:1046800007D10168496821F48021426B1143026817
:10469000516090F8281001F01001102907D101682D
:1046A000896821F48051C26B11430268916090F8CF
:1046B000281001F02001202907D10168896821F420
:1046C0000051026C11430268916090F8281001F0CB
:1046D0004001402913D10168496821F48011426CDE
:1046E000114302685160416CB1F5801F07D1016828
:1046F000496821F4C001826C11430268516090F84E
:10470000281001F08001802907D10168496821F44F
:104710000021C26C114302685160704738B50446ED
:104720000020C4F89000FCF79BFB05462068006859
:1047300000F00800082821D16FF07E402B460022AF
:104740004FF400110090204600F056FAB0B100BFBF
:1047500000BF216851E8001F21F08000226842E874
:1047600000010029F5D100BF2020C4F8880000BF57
:10477000002084F8840000BF032038BD2068006852
:1047800000F00400042830D16FF07E402B46002258
:104790004FF480010090204600F02EFA28B300BFAD
:1047A00000BF216851E8001F21F49070226842E8A0
:1047B00000010029F5D100BF00BF00BF216808310A
:1047C00051E8001F21F001002168083141E8000292
:1047D000002AF3D100BF2020C4F88C0000BF0020C5
:1047E00084F8840000BF0320C7E72020C4F88800B5
:1047F000C4F88C000020E066206700BF84F88400C5
:1048000000BF00BFB9E7000000BF00BF026852E868
:10481000002F22F49071036843E80012002AF5D1BA
:1048200000BF00BF00BF0268083252E8002F104BE3
:1048300002EA03010268083242E80013002BF2D1B9
:1048400000BFC16E01290CD100BF00BF026852E851
:10485000002F22F01001036843E80012002AF5D16E
:1048600000BF2021C0F88C100021C166416770474D
:10487000FEFFFFEF2DE9FE4F044600200290D449D1
:104880002068884200D100E000BF2169A068084389
:1048900061690843E16940EA010820680068CD4980
:1048A000084040EA0800216808602068406820F459
:1048B0004050E168084321684860D4F81880C44932
:1048C0002068884202D0206A40EA08082068806890
:1048D000C149084040EA0800216888602068C06A31
:1048E00020F00F00616A08432168C86200BFBB491D
:1048F0002068884216D1BA48006800F0030030B141
:10490000012808D0022804D0032808D105E0012599
:1049100007E0022505E0042503E0082501E0102555
:1049200000BF6FE0AF492068884216D1AC480068EC
:1049300000F00C0030B1042808D0082804D00C285E
:1049400008D105E0002507E0022505E0042503E085
:10495000082501E0102500BF54E0A34920688842E3
:1049600016D19F48006800F0300030B1102808D000
:10497000202804D0302808D105E0002507E00225D2
:1049800005E0042503E0082501E0102500BF39E01B
:1049900096492068884216D19148006800F0C0000E
:1049A00030B1402808D0802804D0C02808D105E0C4
:1049B000002507E0022505E0042503E0082501E0C5
:1049C000102500BF1EE082492068884219D1844822
:1049D000006800F4406048B1B0F5806F0AD0B0F5CF
:1049E000006F05D0B0F5406F08D105E0002507E065
:1049F000022505E0042503E0082501E0102500BF9D
:104A000000E0102500BF72492068884259D135B1B5
:104A1000022D08D0042D08D0082D0DD109E0FDF796
:104A2000D7F906460CE0724E0AE0FDF7F5F90646A6
:104A300006E04FF4004603E000260120029000BF8C
:104A400000BF002E10D06B49606A31F81000B6FB31
:104A5000F0F9606800EB4000484503D86068000347
:104A6000484502D201200290A6E06249606A31F80E
:104A700010C06246002330461946FBF7CBFB4FF4CB
:104A8000807C0022A0FB0C3B01FB0CB100FB02115F
:104A90006068400818185141CDE90001D4F804C0FD
:104AA00062460023FBF7B6FB0746B7F5407F05D308
:104AB000B7F5801F02D22068C7607DE00120029018
:104AC0007AE0E069B0F5004F3FD1092D17D2DFE859
:104AD00005F005090D160F1616161300FDF778F9E7
:104AE000064610E0FDF786F906460CE0404E0AE067
:104AF000FDF792F9064606E04FF4004603E0002673
:104B00000120029000BF00BF86B33A49606A31F8C5
:104B10001000B6FBF0F04000616800EB5100B0FB04
:104B2000F1F7102F0ED3B7F5803F0BD24FF6F07090
:104B300007EA000AC7F342004AEA000A2068C0F800
:104B40000CA039E00120029036E0092D18D2DFE8F0
:104B500005F005090E17101717171400FDF738F99F
:104B6000064611E0FDF746F906460DE024E0204E2A
:104B70000AE0FDF751F9064606E04FF4004603E06F
:104B800000260120029000BF00BFAEB11949606A43
:104B900031F81000B6FBF0F0616800EB5100B0FB9B
:104BA000F1F7102F06D3B7F5803F03D2B8B22168D2
:104BB000C86001E0012002900120A4F86A00A4F876
:104BC000680000206067A0670298BDE8FE8F0000C3
:104BD00000800040F369FFCFFFF4FF11003801406F
:104BE000881002400044004000480040004C004053
:104BF0000024F400B45A00082DE9F04104460D46A3
:104C000017469846069E41E0701C00283ED0FCF7EF
:104C100027F9A0EB0800B04200D816B90320BDE880
:104C2000F0812068006800F0040070B3802D2DD062
:104C3000402D2BD02068C069C0F3C00078B1082097
:104C4000216808622046FFF7DFFD0820C4F89000C5
:104C500000BF002084F8840000BF0120DFE7206847
:104C6000C069C0F3C02080B14FF4006021680862C1
:104C70002046FFF7C9FD2020C4F8900000BF0020A7
:104C800084F8840000BF0320C9E7FFE72068C069FB
:104C90002840A84201D1012000E00020B842B3D052
:104CA0000020BCE700BFFEE70FB4054B10B503A919
:104CB000044A029800F05CF910BC5DF814FB000097
:104CC000A95700082800002002480068C0F302200D
:104CD000704700000CED00E010B5002804DB0A0767
:104CE000130E054A135406E00A07140E034A00F097
:104CF0000F031B1FD45410BD00E400E018ED00E0CA
:104D000010B52DED028BF0EE408A18EE900AB0EE51
:104D1000608A20F00040C0F1FF40C00F07D118EEBC
:104D2000100A20F00040C0F1FF40C00F2BD018EE59
:104D3000101A18EE900AFBF7F8FA00EE100A10EEBF
:104D4000100A6FEAD05010F0FF0F04BFBDEC028BC9
:104D500010BD18EE900A00F0004110EE100A00F0AD
:104D60000040814204BFBDEC028B10BD18EE101A4A
:104D700010EE100ABDEC028B61F31E0000EE900AEB
:104D800030EE600A10BD18EE900A4FF07F41B1EB93
:104D9000400F1CBF18EE100A5FEA4000C7D1012087
:104DA00000F01EF8BDEC028BBDE81040AFF30080B0
:104DB000DFED020A80EEA00A70470000000000004C
:104DC00002E008C8121F08C1002AFAD170477047D4
:104DD000002001E001C1121F002AFBD17047000032
:104DE00001490860704700002C0000202DE9FF5F9A
:104DF00082B00021DDE90430020DDDF840B003434C
:104E000018D044F61050A2F2FF3242431514119804
:104E100001281FD0A5EB0B00401C5FEA000A4FF0F1
:104E200000064E4FDFF83891B046504615D5CAF10E
:104E3000000413E0119801244AA3012801D16FEA6C
:104E40000B010298119AC0E90031C0E9024206B094
:104E5000BDE8F09FCBF10000DFE704460021404AA7
:104E6000491842EB0450CDE9001012E0E00707D0EA
:104E700032463B4640464946FBF727FB804689467B
:104E800032463B4610461946FBF71FFB06460F46C7
:104E90006410002CEAD1DDE90401DDE90023BAF158
:104EA000000F06DAFBF711FB42464B46FBF70DFB02
:104EB00005E0FBF77CFB42464B46FBF778FB0446DC
:104EC0000E460022284BFBF7F9FB03D84FF0FF30CA
:104ED000014607E00022254B20463146FBF74EFAFB
:104EE000FBF7D4FB102409E0002C0ADB0A22002384
:104EF000FBF790F9039B30321A55641E50EA010209
:104F0000F2D1641C039AC4F111031444119A012ACA
:104F100003D0012208430DD10AE0084304D0002049
:104F20004FF0110B119072E7A3EB0B056D1E0DE016
:104F30005B4504DD4FF0000205F1010504E003DAF2
:104F40004FF00002A5F10105002AECD0029811995A
:104F5000C0E90231C0E9004579E7000000001440D3
:104F60000000F03F300000000000F0430000E03F90
:104F70002DE9FF4F95B09A46884606460025EEE19A
:104F8000252877D100242746F94A0121039400E01F
:104F9000044316F8013F203B01FA03F01042F7D119
:104FA00030782A2811D06FF02F033078A0F130022A
:104FB000092A16D8039A44F0020402EB820203EB9A
:104FC00042021044761C0390EFE758F8042B03923A
:104FD000002A03DA504244F40054039044F00204DF
:104FE000761C30782E2816D116F8010F44F00404F0
:104FF0002A280DD06FF02F023078A0F13003092B52
:1050000009D807EB870302EB4303C718761CF3E7C5
:1050100058F8047B761C30786C280FD006DC4C28BE
:1050200017D068280DD06A2814D104E0742810D055
:105030007A280FD10DE044F400140AE044F48014FF
:1050400001E044F440147278824202D104F58014E5
:10505000761C761C307866280BD013DC582877D065
:1050600009DC002875D04528F6D04628F4D047281A
:105070001AD193E118E0632835D0642879D06528E7
:1050800012D18BE1702873D008DC6728F1D0692831
:105090006FD06E280DD06F2806D1ACE073282CD0CD
:1050A000752874D0782853D05246179990476D1CB4
:1050B00054E1C4F30250022809D003280DD0D8F8D7
:1050C000001004280DD00D6008F1040846E1D8F85E
:1050D0000010EA17C1E90052F6E7D8F800100D8079
:1050E000F2E70D70F0E718F8041B8DF800100020AF
:1050F0008DF80100EB46012003E058F804BB4FF0A7
:10510000FF3061074FF0000102D40DE009F1010109
:105110008946B9420FDA8145F8DB1BF809100029EE
:10512000F4D108E009F1010189468142FADB1BF85C
:1051300009100029F6D103985346A0EB0907214630
:105140003846179A00F080FA284400EB090507E07A
:1051500044E008E10DE01BF8010B52461799904717
:10516000B9F10109F7D2534621463846179AF2E0C1
:1051700039E00A21C4F302524FF0000B0091022AD9
:1051800006D058F8040BC117032A09D00AE023E01F
:1051900008F1070020F00702F2E80201904605E05E
:1051A00000B2C117042A01D140B2C117002906DAA2
:1051B0000A460021404261EB02012D2202E0220555
:1051C00004D52B228DF80420012203E0E20701D050
:1051D0002022F7E7914657E00A2100E010214FF026
:1051E000000B00910BE010214FF0000B44F0040481
:1051F0000827009103E008204FF0000B0090C4F353
:105200000252022A05D058F8040B0021032A08D0C4
:1052100008E008F1070020F00702F2E802019046DA
:1052200003E080B2042A00D1C0B24FF00009220787
:105230002AD53278702A07D0DDF800C08CF0100C27
:105240005CEA0B0C05D00EE040228DF80420012210
:1052500008E050EA010306D030238DF804308DF8C1
:10526000052002229146009B83F0080353EA0B03BA
:105270000AD150EA010201D1620705D530228DF82A
:1052800004204FF001097F1E3278582A04D039A239
:105290000C920CAA02920BE03BA2F9E75B46009A43
:1052A000FAF7B8FF0C9B9B5C029A521E0292137095
:1052B00050EA0102F2D1029804A9081A00F1200B69
:1052C000600702D524F4803400E001275F4502DD49
:1052D000A7EB0B0000E0002000EB0B01009003980F
:1052E0004944401A0390E00306D453462146179AD6
:1052F000039800F0A9F90544002706E001A85246EA
:10530000C05D179990476D1C7F1C4F45F6DBE0038D
:105310000CD553462146179A039800F095F9054499
:1053200004E030205246179990476D1C0099481EA2
:1053300000900029F5DC08E00298029952460078B6
:10534000491C0291179990476D1CBBF10001ABF10C
:10535000010BF1DC5BE100F065F90544761C307867
:1053600000287FF40DAE19B02846BDE8F08F00008C
:10537000092801003031323334353637383961622B
:1053800063646566000000003031323334353637EF
:10539000383941424344454600000000600700D4CC
:1053A000062708F1070020F00700F0E802238046F6
:1053B00003F0004C5FEA0C0001D097A009E0200543
:1053C00001D596A005E0E00701D095A001E0AFF27D
:1053D0004C001390307823F0004365280CD006DC95
:1053E000452809D046281DD047287FD13BE06628B4
:1053F00018D067287AD136E00021112F01DB112067
:1054000000E0781CCDE9000104A90CA8FFF7EEFC30
:10541000DDE90D010C9A4FF0000B07F10109109224
:1054200000914EE04FF000400097CDE9011004A933
:105430000CA8FFF7DBFCDDE90D020C9B0F994FF088
:10544000000B91461093009211B9791C00EB0109F1
:10545000B7EB090003D4C0F1FF3B07F10109A9EB49
:105460000700019042E0012F00DA01270021112FEF
:1054700001DD112000E03846CDE9000104A90CA8A7
:10548000FFF7B4FCDDE90D010C9A00914FF0000B21
:10549000B946109221070FD4009A4A4503DA914683
:1054A00001E0A9F10109B9F1010F05DD109AA9F197
:1054B0000101515C3029F4D0B84202DA10F1040F36
:1054C00003DA0121CDE9011010E0002803DC834458
:1054D000A9EB000102E0411C494500DD8946A0EB33
:1054E0000B00401C01904FF000400290200705D4B3
:1054F0000198484502DB4FF0FF30019000208DF805
:105500004B0002980DF14B07B0F1004F25D002205F
:105510000C902B200D90029800280CDA404202904B
:105520002D200D9007E00A210298FAF7C9FE3031CC
:10553000029007F8011D0C99481E0C900029F2DC1E
:1055400002980028EFD1791E0D980870307800F08D
:10555000200040F0450007F8020D11A8C01BC01D37
:1055600002901398007800B1012000EB0901019826
:1055700001EBE071029801440398401A401E039029
:10558000E00306D453462146179A039800F05CF8CE
:1055900005441398007818B15246179990476D1C2E
:1055A000E00323D553462146179A039800F04CF8A0
:1055B00005441BE0BBF1000F07DB0098584504DDF4
:1055C0001098179910F80B0001E0179930205246F7
:1055D000904701980BF1010B401E05F10105019068
:1055E00004D12E205246179990476D1CB9F1000145
:1055F000A9F10109DEDC05E017F8010B5246179905
:1056000090476D1C0299481E02900029F4DC534615
:105610002146179A03989EE62D0000002B000000FB
:10562000200000002DE9F041044600251E461746E3
:10563000880404D405E039462020B0476D1C641E60
:10564000F9D52846BDE8F0812DE9F0410446002552
:105650001E469046C80301D5302700E02027880465
:1056600004D505E041463846B0476D1C641EF9D5A7
:105670002846BDE8F08100007CB504460D4616467C
:10568000012322466C210548CDE90056FBF704FEB4
:1056900010B103A0FFF708FB7CBD00003000002024
:1056A00049324320444D412072656164206661693E
:1056B0006C65640D0A0000001FB56420022103AA76
:1056C0000123CDE9002102900C226C210748FBF751
:1056D00013FD48B99DF80D009DF80C1040EA01201B
:1056E000C0F30B0004B010BD0020FBE73000002029
:1056F00010B52DED028BFFF7DFFF044600EE104AD8
:10570000B8EE400ADFED140A20EE200ADFED130A9E
:1057100080EE201A124880ED001A0020114908601E
:105720009FED110A114880ED000AC4F307101049DB
:1057300008702007000E487009480068FAF7ADFDB0
:1057400041EC180B53EC182B21460AA0FFF7ACFADA
:10575000BDEC028B10BD0000DB0FC940000080458E
:10576000180000201400002000000000100000209D
:105770001C0000205A65726F20706F736974696F26
:105780006E207365743A207261773D30782530332E
:10579000582C206F66667365743D252E3466207222
:1057A00061640D0A0000000013B50C464FF6FF734C
:1057B000012269460248FDF703F900981CBD00006C
:1057C000A801002010B52DED028B00F03DF8B0EEE1
:1057D000408A194890ED000A38EE400AF0EE408AFF
:1057E000B0EEE80ADFED150AB4EEE00AF1EE10FAC9
:1057F0000DDDF5EEC08AF1EE10FA02DD4FF0FF305C
:1058000000E001200E49096808440D4908600A4873
:1058100080ED008A0A4890ED000AB8EEC00AF0EE6A
:10582000000A60EE200AB0EE480A9FED061A00EE6C
:10583000810ABDEC028B10BD100000207CD9A04075
:1058400014000020DB0F494010B52DED028B1B48E2
:1058500040781A49097840EA012004B2C4F30B04E5
:1058600000EE104AB8EEC00ADFED150A20EE200A5D
:10587000DFED140A80EE201AF0EE418A124890ED16
:10588000000A38EEC00AB0EE408ADFED0D0AB0EE35
:10589000480AFFF735FAB0EE408AB5EEC08AF1EE5D
:1058A00010FA05D29FED060A38EE000AB0EE408AE3
:1058B000B0EE480ABDEC028B10BD00001C000020B9
:1058C000DB0FC94000008045180000202DED048B3F
:1058D00084B0FBF751FEFEF73AFEFEF707FCFEF739
:1058E000D5FBFEF773FCFEF7A3FCFEF743FC00BFFD
:1058F000FEF7EAF90020F0231A4601460090FEF771
:10590000BEF900201021CDE900014FF4784333A205
:105910000A2102900846FEF75DFB33A0FFF7C4F9A9
:105920004FF47A70FBF79CF96420012103AA0B461F
:10593000CDE9002102900B226C212F48FBF7DCFB04
:105940009DF80C00C00900909DF80C00C0F3801376
:10595000C0F34012014629A0FFF7A6F99DF80C00FC
:1059600000F0800018B12EA0FFF79EF914E09DF81A
:105970000C0000F0400018B132A0FFF795F90BE0E1
:105980009DF80C0000F0200018B937A0FFF78CF943
:1059900002E03BA0FFF788F9FFF7AAFE0222404988
:1059A0000C20FFF769FE18E03E480068FAF775FC26
:1059B00041EC180B3C480068FAF76FFC41EC190BFE
:1059C0003A48006802908DED008B53EC192B384853
:1059D000FFF76AF96420FBF743F9E5E753543737DB
:1059E0003839204F4B00000068656C6C6F20776F72
:1059F000726C640D0A0000003000002053544154C2
:105A00005553203D2030782530325820204D443DDC
:105A10002564204D4C3D2564204D483D25640A00F9
:105A20004D483D3120E7A381E59CBAE5A4AAE5BC39
:105A3000BAEFBC81E8A792E5BAA6E697A0E69588FA
:105A40005C6E00004D4C3D3120E7A381E59CBAE53A
:105A5000A4AAE5BCB1EFBC81E8A792E5BAA6E4B878
:105A60008DE587865C6E00004D443D3020E695B0A4
:105A7000E68DAEE69CAAE69BB4E696B05C6E0000AE
:105A8000E7A381E59CBAE6ADA3E5B8B8EFBC8CE529
:105A90008FAFE4BBA5E8AFBBE8A792E5BAA60A00C2
:105AA0001C00002024000020200000201400002002
:105AB00010940008010002000400060008000A001B
:105AC0000C001000200040008000000101010103D3
:105AD00007010000080402040801010100000000A1
