:020000040800F2
:10000000700A0020790200088F0E00082D0E0008EB
:100010008D0E00087F030008651200080000000034
:10002000000000000000000000000000E9110008CE
:100030008103000800000000E7110008EB11000830
:10004000930200089302000893020008930200083C
:10005000930200089302000893020008930200082C
:10006000930200089302000893020008930200081C
:10007000930200089302000893020008930200080C
:100080009302000800000000930200089302000899
:1000900093020008930200089302000893020008EC
:1000A00093020008930200089302000893020008DC
:1000B00093020008930200089302000893020008CC
:1000C00093020008930200089302000893020008BC
:1000D00093020008930200089302000893020008AC
:1000E000930200089302000893020008930200089C
:1000F0009302000893020008930200080000000029
:1001000000000000930200080000000093020008B5
:100110009302000800000000930200089302000808
:10012000930200089302000893020008930200085B
:100130009302000800000000000000009302000885
:100140009302000893020008000000000000000075
:10015000000000000000000000000000000000009F
:1001600000000000000000000000000093020008F2
:1001700093020008000000000000000000000000E2
:1001800000000000930200080000000000000000D2
:10019000000000000000000000000000000000005F
:1001A0000000000000000000930200089302000815
:1001B0009302000893020008930200080000000068
:1001C0000000000093020008000000000000000092
:1001D000930200089302000800F002F800F03CF8D7
:1001E0000AA090E8000C82448344AAF10107DA4592
:1001F00001D100F031F8AFF2090EBAE80F0013F0A8
:10020000010F18BFFB1A43F001031847E81800005C
:1002100008190000103A24BF78C878C1FAD85207EC
:1002200024BF30C830C144BF04680C607047000070
:100230000023002400250026103A28BF78C1FBD8EF
:10024000520728BF30C148BF0B6070471FB501F08F
:100250002FF81FBD10B510BD00F05CF81146FFF778
:10026000F5FF01F010F800F07AF803B4FFF7F2FFA1
:1002700003BC00F07DF800000948804709480047AA
:10028000FEE7FEE7FEE7FEE7FEE7FEE7FEE7FEE746
:10029000FEE7FEE704480549054A064B70470000A3
:1002A00055120008D901000870040020700A0020CF
:1002B00070060020700600204FF0000200B51346C3
:1002C00094469646203922BFA0E80C50A0E80C5076
:1002D000B1F12001BFF4F7AF090728BFA0E80C5027
:1002E00048BF0CC05DF804EB890028BF40F8042B20
:1002F00008BF704748BF20F8022B11F0804F18BF8D
:1003000000F8012B704770477047704700487047EE
:10031000100400207546FFF7F9FFAE460500694658
:10032000534620F00700854618B020B5FFF7B2FF0E
:10033000BDE820404FF000064FF000074FF00008E6
:100340004FF0000B21F00701AC46ACE8C009ACE867
:10035000C009ACE8C009ACE8C0098D46704710B5CB
:100360000446AFF300802046BDE81040FFF77DBF94
:1003700001491820ABBEFEE7260002007047FEE7E9
:10038000704700002DE9F04FDFF82092002301268E
:100390000324A9F1040B85B00F2709F1040AABF17E
:1003A000040EFAE006FA03F52A407CD091F804C066
:1003B0000CF0030CBCF1010F02D0BCF1020F26D1EE
:1003C000D0F808C0CDF800C04FEA430C04FA0CF88E
:1003D000CDF810C0DDF800C02CEA080CCDF800C044
:1003E000D1F80C80DDF810C008FA0CF8DDF800C078
:1003F00048EA0C08C0F80880D0F804C02CEA050CC4
:100400000D79C5F300159D4045EA0C0545600D7951
:10041000ED43AD070ED0C5684FEA430804FA08FC67
:1004200025EA0C05D1F808C00CFA08FC4CEA050CCA
:10043000C0F80CC00D7905F00305022D16D1DD08BA
:1004400000EB850CCDF808C0DCF820805D074FEA92
:10045000D56C07FA0CF528EA05080D6905FA0CF5C4
:10046000DDF808C045EA0805CCF8205005684FEAD9
:10047000430CCDF808C004FA0CFC25EA0C0591F8F1
:1004800004C00CF00308DDF808C008FA0CF848EACC
:100490000508C0F800804D6815F4403F7CD0444DFD
:1004A000D5F860C000E077E04CF0010CC5F860C002
:1004B0002D6E23F0030C05F0010500953D4D6544BC
:1004C0000295AD684FEA837C4FEA1C7807FA08FC76
:1004D00025EA0C05B0F1904F06D0DFF8DCC060458E
:1004E00005D14FF0010C20E04FF0000C1DE0DFF8CB
:1004F000CCC0604502D14FF0020C16E0DFF8C0C05E
:10050000604502D14FF0030C0FE0DFF8B8C0604542
:1005100002D14FF0040C08E0DFF8ACC0604502D116
:100520004FF0050C01E04FF0060C0CFA08FC4CEA09
:10053000050C029DC5F808C0D9F80050CC46D1F88A
:10054000048095435FEAC82800D51543CCF80050D5
:10055000DAF80050D446D1F8048095435FEA882841
:1005600000D51543CCF80050DBF80050DC46D1F83C
:10057000048095435FEA883800D51543CCF80050D5
:10058000DEF80050F446D1F8048095435FEAC8389D
:1005900000D51543CCF800505B1C0A6832FA03F50D
:1005A0007FF400AF05B0BDE8F08F00000804014003
:1005B000001002400000014000040048000800480C
:1005C000000C004800100048001400480AB1816186
:1005D00070478162704700000148806870470000E2
:1005E0000000002002488168426811448160704721
:1005F0000000002010B50024032000F065F80F2053
:1006000000F008F808B1012401E000F025F82046C8
:1006100010BD000070B50E4E05460024706898B1FC
:100620004FF47A71B1FBF0F00A490968B1FBF0F0C0
:1006300000F0E8FB40B9102D06D200222946501EDA
:1006400000F022F8356000E00124204670BD000073
:10065000000000200C0000200A4882B0016E41F02A
:1006600001010166016E01F001010091816D41F00F
:1006700080518165806D00F08050009002B000F0E4
:1006800093B8000000100240F0B40E4B1B680C46FB
:10069000C3F30223C3F10705042D00D90425191D56
:1006A000072901D2002300E0DB1E012606FA05F12E
:1006B000491E214099409E40761E16403143F0BCB1
:1006C00000F0D1BD0CED00E0064900F0070208681B
:1006D0004FF6FF03184040EA0220034A1043086027
:1006E000704700000CED00E00000FA052B492C4B90
:1006F0000A6832214A432B4940B1B0F5007F0868AF
:1007000029D020F4C06040F480602CE00868C0F379
:100710004120022804D051F8800F20F4807022E09C
:10072000D1F8800020F48070C1F88000086820F4BF
:10073000C06040F400700860B2FBF3F0401C00E0C1
:10074000401E4A69520501D50028F9D14869400583
:100750000AD503207047C0F34120022806D051F883
:10076000800F40F48070086000207047D1F880004E
:1007700040F48070C1F88000086820F4C06040F444
:1007800000700860B2FBF3F0401C00E0401E4A69B4
:100790005205DBD50028F9D1D8E700000C00002075
:1007A00040420F00007000400248816841F48041DF
:1007B00081607047007000402DE9F0470E4605004B
:1007C0004FF0000725D0DFF8AC81D8F8000000F02A
:1007D0000F00B0420CD2D8F8001021F00F013143C5
:1007E000C8F80010D8F8000000F00F00B04210D197
:1007F0002968614CC80741F2883A5AD06868DFF826
:100800007C91032808D0022820682DD040050028BC
:100810002CDB0120BDE8F08720688001F9D5E06875
:1008200000F00302E068C0F30310401C032A19D053
:10083000534A00BFB2FBF0F0E268C2F30622504315
:10084000E268C2F34162521C5200B0FBF2F048452C
:1008500017D9A06810F0F00F0CD0880711D5A86840
:1008600040B10EE0474AE5E78003D0E700F092F898
:10087000484506D9A06820F0F00040F08000A06054
:100880008027A068696820F003000843A060FFF794
:10089000A3FE814606E000BFFFF79EFEA0EB090124
:1008A00051453AD8A068696800F00C00B0EB810FA0
:1008B000F2D12868810714D5400703D5A06840F419
:1008C000E060A0602878000705D5A06820F460509B
:1008D00040F4E060A060A068A96820F0F000084340
:1008E00004E0802F03D1A06820F0F000A060D8F8C9
:1008F0000010404601F00F01B14216D9016821F005
:100900000F0131430160FFF767FE074607E000BFB4
:10091000FFF762FEC11B514501D903207AE7D8F8E1
:10092000000000F00F00B042F2D12878400705D552
:10093000A068E96820F4E0600843A0602878000718
:1009400006D5A068296920F4605040EAC100A06083
:1009500000F020F8A1680C4AC1F30311515C01F0CA
:100960001F01C8400949086009480068BDE8F04710
:10097000FFF750BE002002400010024000B4C40443
:100980000024F40000127A00BA1200080C000020C3
:1009900000000020184910B58868C0F3810217488C
:1009A000012A0BD08A684310C2F38102022A06D0C2
:1009B0008A68C2F38102032A03D0002010BD1846C2
:1009C00010BDCA6802F00304CA68C2F30312521CC5
:1009D000032C02D0B0FBF2F001E0B3FBF2F0CA68E6
:1009E000C968C2F306225043C1F34161491C490062
:1009F000B0FBF1F010BD0000001002400024F40034
:100A00002DE9F84304007AD02078F84DC00747D08C
:100A1000A868E96800F00C0001F003010C2802D07E
:100A2000082817D001E0032914D06068B0F5803F92
:100A300017D0B0F5A02F286817D020F48030286098
:100A4000286820F4802028606068E0B1FFF7C4FDCA
:100A5000064614E02868800322D560680028D2D0BA
:100A60001EE0286840F48030EDE740F480202860E4
:100A7000F7E700BFFFF7B0FD801B642870D8286837
:100A80008003F7D50CE0FFF7A7FD064605E000BFA1
:100A9000FFF7A2FD801B6428F0D828688003F7D4F4
:100AA000207880074CD5A868E96800F00C0001F0B8
:100AB00003010C2802D004280DD001E002290AD03D
:100AC000E068002828682BD040F480702860FFF789
:100AD00083FD064619E02868400502D5E068002835
:100AE00091D06868217C20F0FE4040EA0160686097
:100AF000BF480068FFF78EFD002800D120E072E1BA
:100B0000FFF76AFD801B0228B8D828684005F7D592
:100B10006868217C20F0FE4040EA016068600FE0D8
:100B200020F480702860FFF757FD064605E000BFFF
:100B3000FFF752FD801B0228A0D828684005F7D493
:100B40002078000729D560690028D5F8940013D0D3
:100B500040F00100C5F89400FFF73EFD064606E0B0
:100B600090E000BFFFF738FD801B022886D8D5F83B
:100B700094008007F6D510E020F00100C5F894003D
:100B8000FFF72AFD064604E0FFF726FD801B02283A
:100B900078D8D5F894008007F6D42078400761D53E
:100BA000A86D0026C00008D4A86D40F08050A8654C
:100BB000A86D012600F0805000908E480168C9059C
:100BC00011D40168804641F480710160FFF704FD93
:100BD000074604E0FFF700FDC01B022852D8D8F8F2
:100BE0000000C005F6D5A068012815D00528D5F865
:100BF000900016D020F00100C5F89000D5F89000C4
:100C000020F00400C5F89000A06841F28838B8B11F
:100C1000FFF7E2FC07460EE0D5F8900040F0010037
:100C2000F0E740F00400C5F89000F5E7FFF7D4FCCA
:100C3000C11B414526D8D5F890008007F6D50CE0B9
:100C4000FFF7CAFC074604E0FFF7C6FCC11B41459D
:100C500018D8D5F890008007F6D41EB1A86D20F002
:100C60008050A8652078800629D5A0690028D5F88D
:100C7000980013D040F00100C5F89800FFF7ACFCD5
:100C8000064606E075E000BFFFF7A6FC801B0228C1
:100C90006FD8D5F898008007F6D510E020F0010055
:100CA000C5F89800FFF798FC064604E0FFF794FCAF
:100CB000801B02285DD8D5F898008007F6D4E0693B
:100CC000F0B3A968C1F3810103295DD00228286827
:100CD00020F08070286003D0FFF77EFC04464BE0D4
:100CE000FFF77AFC064604E0FFF776FC801B02283B
:100CF0003FD828688001F7D4F4E908016FF00F02AB
:100D000002EB01110843218A5204490802EB4151C8
:100D1000A26841EA02210843217D4FF07E42490842
:100D200002EB41610843217B40EAC160E968324A35
:100D300011400843E860286840F08070286000E0B7
:100D40005EE0E86840F08070E860FFF745FC04462C
:100D500005E000BFFFF740FC001B022809D8286807
:100D60008001F7D54CE000BFFFF736FC001B0228DE
:100D700002D90320BDE8F88328688001F4D4E8682C
:100D80001E490840E8603BE00128F3D0E868226A89
:100D900000F00301914226D1616A00F0F0020901DE
:100DA000103991421FD1A26A00F4FE41B1EB022F2B
:100DB00019D194F82C2000F07841B1EBC26F12D118
:100DC000218E00F4C00249084905A1F500119142A5
:100DD00009D194F8341000F0C06049084906A1F127
:100DE000007181420CD00120C4E7000000100240D5
:100DF00000000020007000400C809F01FCFFEEFE10
:100E00000020B7E710B5401EB0F1807F01D301206C
:100E100010BD4FF0E02460610F21601700F023FA4D
:100E20000020A06107202061002010BDFEE7000027
:100E300010B586B014216846FFF73EFA1248C16C1F
:100E400041F02001C164C16C01F020010591C16C29
:100E500041F00101C164C06C4FF0904400F001000A
:100E6000059000221F212046FFF7B0FB1F200090B5
:100E70000120019000200290032003906946204643
:100E8000FFF780FA06B010BD00100240FEE7FEE753
:100E900010B50021074C0A46002004EBC1131A5478
:100EA000401CC0B28028FAD3491CC9B20829F3D328
:100EB00010BD000010000020F0B50B4424E00446F3
:100EC00085181DE07F2C19D8002917DB3F2915DC78
:100ED000CE1701EB56764FEAE60C0D4F26F00706CB
:100EE00007EBCC172744A1EB060E97F800C00126AC
:100EF00006FA0EF62CEA060C87F800C0641C24B231
:100F0000A542DFDC491C09B28B42D8DCF0BD0000F1
:100F10001000002010B500204FF47A720021491C07
:100F20009142FCD3401C9042F8D3002000F01CF901
:100F3000012000F01FF9012000F028F9012000F045
:100F40001FF9BDE81040012000F008B910B5FFF707
:100F5000E1FFAE2000F020F9D52000F01DF980203F
:100F600000F01AF9A82000F017F93F2000F014F95A
:100F7000D32000F011F9002000F00EF9402000F01D
:100F80000BF9A12000F008F9C82000F005F9DA20DB
:100F900000F002F9122000F0FFF8812000F0FCF8C8
:100FA000CF2000F0F9F8D92000F0F6F8F12000F099
:100FB000F3F8DB2000F0F0F8302000F0EDF8A4208A
:100FC00000F0EAF8A62000F0E7F88D2000F0E4F841
:100FD000142000F0E1F8AF2000F0DEF8FFF758FF32
:100FE000BDE8104000F0A6B870B500240646802584
:100FF00025FA04F0304000D0012000F0BBF80120B9
:1010000000F0B2F8002000F0AFF8641CE4B2082C45
:10101000EED370BD10B50C4640F0B00000F0BCF847
:10102000102040EA141000F0B7F804F00F00BDE8FB
:10103000104000F0B1B8000008B5082B0DD0062B09
:101040000AD10A4B02EB420203EB4202C03A009281
:101050000823062200F00EF808BD054B03EB021230
:10106000A2F50072102300920822F3E7BA180008D4
:10107000CA1200082DE9F04F1F4616460C4682465C
:101080000025FFF719FF7F1EF81707EB50700121AD
:10109000DFF89CB001EBE00745E000203FE000BF37
:1010A0000AEB00037F2B38D8E11704EB5171CA100B
:1010B00021F00701611A002C03DA521E083112B226
:1010C00009B202EB0509B9F1070F10D80BEBC91EE5
:1010D0001EF8032015FB06F8DDF824C0844418F838
:1010E0000CC00CFA01FC42EA0C020EF8032009F1D4
:1010F0000102072A11D80BEBC91202EB030898F87A
:10110000803015FB06FC099AC1F1080102441CF865
:101110000220CA40134388F88030401CC0B2B0425D
:10112000BED36D1CEDB2AF42B7DCBDE8F08F00005E
:101130001000002070B5084D002400212046FFF764
:1011400069FF05EBC410802100F036F8641CE4B29E
:10115000082CF2D370BD00001000002002460821C8
:101160004FF09040FFF732BA024601214FF0904015
:10117000FFF72CBA024602214FF09040FFF726BA43
:10118000024604214FF09040FFF720BA024610219A
:101190004FF09040FFF71ABA10B504460020FFF751
:1011A000DDFF0020FFF7ECFF2046FFF71DFFBDE845
:1011B00010400120FFF7D2BF70B506460D46002053
:1011C000FFF7CCFF0120FFF7DBFF002404E0305DD8
:1011D000FFF70AFF641CE4B2AC42F8D3BDE87040EC
:1011E0000120FFF7BBBF70477047FFF7FBB910B591
:1011F00094B038216846FFF75FF814210EA8FFF776
:101200005BF84FF40070FFF771FA012000900004C2
:10121000019002200324CDE907044B21CDE9090107
:101220000B900C900D906846FFF7EAFB08B172B680
:10123000FEE70F20CDE90E040020109011901290CF
:1012400004210EA8FFF7B8FA002801D072B6FEE715
:1012500014B010BD0248016841F47001016070478C
:1012600088ED00E0FEE70907090E002804DB00F125
:10127000E02080F80014704700F00F0000F1E0203B
:1012800080F8141D7047FFF7B5F9FFF7B0FFFFF7BF
:10129000CFFDFFF75BFE0021082341220846FFF740
:1012A000CBFEFFF747FF0823412231210C20F6E750
:1012B0004FF04070E1EE100A70470000000000009F
:1012C00000000102030406070809000000000000F6
:1012D00000000000000000000000000000F8000016
:1012E0000000000000333000000000160E00160E53
:1012F0000000000000000000000040C07840C078FE
:101300004000043F04043F040400007088FC0830DF
:101310000000001820FF211E0000F008F000E01877
:10132000000000211C031E211E0000F00888700030
:1013300000001E21232419272110000000160E0092
:1013400000000000000000000000000000E01804A1
:101350000200000000071820400000020418E0000E
:1013600000000040201807000000404080F080404E
:1013700040000202010F01020200000000F0000024
:1013800000000101011F0101010000000000000038
:10139000000000B07000000000000000000000002D
:1013A0000000000101010101010100000000000036
:1013B00000000030300000000000000000008060ED
:1013C0001804006018060100000000E01008081072
:1013D000E000000F102020100F00001010F8000097
:1013E00000000020203F202000000070080808882E
:1013F00070000030282422213000003008888848FE
:1014000030000018202020110E000000C02010F82D
:10141000000000070424243F240000F808888808FE
:1014200008000019212020110E0000E01088881803
:101430000000000F112020110E0000380808C838E5
:1014400008000000003F00000000007088080888C5
:101450007000001C222121221C0000E0100808104E
:10146000E0000000312222110F00000000C0C00087
:1014700000000000003030000000000000C0C0008C
:101480000000000080B070000000000080402010CC
:101490000800000102040810200040404040404085
:1014A00040000404040404040400000810204080E8
:1014B000000000201008040201000070480808081D
:1014C000F0000000003036010000C030C828E810ED
:1014D000E0000718272423140B000000C038E000A8
:1014E0000000203C23020227382008F888888870F2
:1014F0000000203F202020110E00C03008080808FE
:101500003800071820202010080008F808080810E4
:10151000E000203F202020100F0008F88888E8080D
:101520001000203F20202320180008F88888E808B1
:101530001000203F200003000000C03008080838D9
:10154000000007182020221E020008F808000008EA
:10155000F808203F210101213F20000808F8080871
:1015600000000020203F2020000000000808F808AC
:101570000800C08080807F00000008F888C028181C
:101580000800203F20012638200008F8080000004D
:101590000000203F20202020300008F8F800F8F854
:1015A0000800203F003F003F200008F830C000083E
:1015B000F808203F200007183F00E0100808081036
:1015C000E0000F10202020100F0008F8080808087D
:1015D000F000203F210101010000E0100808081080
:1015E000E0000F18242438504F0008F888888888B5
:1015F0007000203F2000030C30200070880808088D
:1016000038000038202121221C00180808F808089A
:1016100018000000203F2000000008F80800000823
:10162000F808001F202020201F000878880000C82C
:101630003808000007380E010000F80800F800081C
:10164000F800033C0700073C030008186880806826
:10165000180820302C03032C30200838C800C83864
:1016600008000000203F2000000010080808C838CB
:1016700008002038262120201800000000FE020269
:1016800002000000007F40404000000C30C000001D
:101690000000000000010638C00000020202FE0047
:1016A0000000004040407F000000002010080408B7
:1016B00010200000000000000000000000000000FA
:1016C000000080808080808080800002040800000C
:1016D000000000000000000000000000808080800A
:1016E00000000019242222223F2008F800808000F8
:1016F0000000003F112020110E00000000808080BB
:101700000000000E112020201100000000808088C1
:10171000F800000E112020103F2000008080808003
:101720000000001F222222221300008080F08888FF
:1017300088180020203F202000000000808080804A
:101740008000006B94949493600008F8008080807F
:101750000000203F210000203F20008098980000DA
:1017600000000020203F202000000000008098980A
:10177000000000C08080807F000008F800008080AA
:101780008000203F24022D302000000808F80000CF
:1017900000000020203F202000008080808080808A
:1017A0008000203F20003F20003F0080800080809C
:1017B000000000203F2100203F200000808080802A
:1017C0000000001F202020201F008080008080005B
:1017D000000080FFA12020110E000000008080800A
:1017E0008000000E112020A0FF808080800080807B
:1017F000800020203F2120000100000080808080A8
:1018000080000033242424241900008080E080809C
:1018100000000000001F20200000808000000080E9
:101820008000001F202020103F208080800000804A
:10183000808000010E30080601008080008000805A
:1018400080800F300C030C300F00008080008080FF
:1018500080000020312E0E3120008080800000802A
:10186000808080818E7018060100008080808080DA
:1018700080000021302C2221300000000000807CFC
:10188000020200000000003F404000000000FF0096
:10189000000000000000FF0000000002027C800049
:1018A00000000040403F00000000008040408000F9
:1018B00000800000000000010100000000000000A6
:1018C0000000002F000000000700070000147F1434
:1018D0007F1400242A7F2A12002313086462003632
:1018E0004955225000000007000000001C22410062
:1018F000000041221C000014083E08140008083EA5
:101900000808000000A0600000080808080800009F
:1019100060600000002010080402003E5149453E6E
:101920000000427F4000004261514946002141458C
:101930004B31001814127F10002745454539003CF3
:101940004A494930000171090503003649494936C1
:1019500000064949291E00003636000000005636B0
:101960000000000814224100001414141414000094
:1019700041221408000201510906003E4955592E22
:10198000007C1211127C007F49494936003E4141DA
:101990004122007F4141221C007F49494941007F8B
:1019A00009090901003E4149497A007F0808087F7A
:1019B0000000417F4100002040413F01007F0814AA
:1019C0002241007F40404040007F020C027F007FA8
:1019D0000408107F003E4141413E007F090909068D
:1019E000003E4151215E007F0919294600464949C0
:1019F00049310001017F0101003F4040403F001F8D
:101A00002040201F003F4038403F0063140814630B
:101A100000070870080700615149454300007F41F5
:101A20004100000204081020000041417F00000432
:101A30000201020400404040404000000102040056
:101A4000002054545478007F4844443800384444BB
:101A5000442000384444487F003854545418000847
:101A60007E0901020018A4A4A47C007F0804047865
:101A70000000447D4000004080847D00007F1028ED
:101A800044000000417F4000007C04180478007C82
:101A90000804047800384444443800FC2424241802
:101AA0000018242418FC007C08040408004854543E
:101AB000542000043F444020003C4040207C001C57
:101AC0002040201C003C4030403C0044281028446A
:101AD000001CA0A0A07C004464544C440000087F7B
:101AE00041000000007F00000000417F0800000866
:101AF00004081008141B000800000020100000005B
:101B000014020008241B000810000020600A0000D6
:101B1000300200081000000001000000000000007A
:041B20000024F400A9
:04000005080001D915
:00000001FF
