:020000040800F2
:10000000A008002025030008CD420008753C000828
:10001000C9420008F71D00088554000800000000D0
:100020000000000000000000000000007145000812
:100030002D1F000800000000D14200087345000891
:100040003F0300083F0300083F0300083F03000888
:100050003F0300083F0300083F0300083F03000878
:100060003F0300083F0300083F0300083F03000868
:100070003F0300083F0300083F0300083F03000858
:100080003F030008000000003F0300083F03000892
:100090003F0300083F0300083F0300083F03000838
:1000A0003F0300083F0300083F0300083F03000828
:1000B0003F0300083F0300083F0300083F03000818
:1000C0003F0300083F0300083F0300083F03000808
:1000D0003F0300083F030008755400083F03000871
:1000E0003F0300083F0300083F0300083F030008E8
:1000F0003F0300083F0300083F0300080000000022
:10010000000000003F030008000000003F0300085B
:100110003F030008000000003F0300083F03000801
:100120003F0300083F0300083F0300083F030008A7
:100130003F03000800000000000000003F0300082B
:100140003F0300083F03000800000000000000001B
:10015000000000000000000000000000000000009F
:100160000000000000000000000000003F03000845
:100170003F03000800000000000000000000000035
:10018000000000003F030008000000000000000025
:10019000000000000000000000000000000000005F
:1001A00000000000000000003F0300083F030008BB
:1001B0003F0300083F0300083F0300080000000061
:1001C000000000003F0300080000000000000000E5
:1001D0003F0300083F03000800F002F800F092F827
:1001E0000AA090E8000C82448344AAF10107DA4592
:1001F00001D100F087F8AFF2090EBAE80F0013F052
:10020000010F18BFFB1A43F00103184714910000B7
:1002100034910000103A24BF78C878C1FAD8520748
:1002200024BF30C830C144BF04680C607047000070
:100230000023002400250026103A28BF78C1FBD8EF
:10024000520728BF30C148BF0B6070476E2900F0CD
:100250004582702900F08783662905F02883652987
:1002600005F02583672905F02283612905F02183A4
:1002700003681B0A28BF41F08001692900F0F28160
:10028000642900F0EF81752900F0EC816F2900F0FE
:100290001483782900F05383E92900F0AF82E42920
:1002A00000F0AC82F52900F0A982EF2900F011835B
:1002B000F82900F052830368DB0928BF41F0800170
:1002C000632901F06180732901F06680E32901F060
:1002D0007180F32901F07680002070471FB505F08A
:1002E000E1FA01F0B9F804000020002105F0AEFAAF
:1002F000401C60600020002105F0BEFAE0601FBDD8
:1003000010B510BD01F082F81146FFF7E7FF05F0C8
:1003100079FA01F057F903B4FFF7F2FF03BC01F0DB
:100320009BF900000948804709480047FEE7FEE7BF
:10033000FEE7FEE7FEE7FEE7FEE7FEE7FEE7FEE795
:1003400004480549054A064B70470000E54500088A
:10035000D9010008A0020020A0080020A00400206D
:10036000A004002053EA020C00F069802DE9F04B54
:100370004FF00006002B1FBFB3FA83F503FA05F414
:1003800024FA05F65E4012BF1643B2FA82F502FA6D
:1003900005F4C5F120051EBF22FA05FC44EA0C0451
:1003A000203556EA044C4FEA144418BF641C4FF041
:1003B00000084FF00009904271EB030C39D300297B
:1003C00019BFB1FA81F701FA07F6B0FA80F700FA1F
:1003D00007F6C7F120071EBF20FA07FC46EA0C0605
:1003E0002037B6FBF4FCA7EB0507103F07F01F0B07
:1003F000CBF120060CFA0BFB2CFA06F644BFB346F1
:100400000026202FA4BF5E464FF0000B5BEA060CCF
:1004100008BF4FF0010B19EB0B09ABFB027C48EB5B
:100420000608C01B06FB02CC0BFB03CC71EB0C01D6
:10043000C1E70B46024641464846BDE8F08B13B57E
:100440004FF000004FF00001AFF30080BDE81C400A
:10045000704700001CB50C46064B7B446946009073
:10046000204600F054F904460020694600F062F985
:1004700020461CBDD702000010B5431C02E010F856
:10048000011B71B18107FAD14FF0013202C88C1AF9
:100490008C4314EAC211F9D0C01A0A0603D0C01E58
:1004A00010BDC01A10BD0A0401D0801E10BD090283
:1004B000FCD0401E10BD40EA010370B59B072ED151
:1004C0004FF00136042A2AD308C810C99D1B9D434A
:1004D000121F15EAC61517D0D8B2E1B2401A50EA79
:1004E000056110D198B2A1B2401A50EA05410AD173
:1004F00023F07F4024F07F41401A50EA052102D1C9
:10050000180EA0EB146070BDA342DBD018BA21BA5C
:10051000884201D9012070BD4FF0FF3070BD0AB98B
:10052000002070BD10F8013B11F8014B63B1A342EC
:100530000AD1521E08D010F8013B11F8014B1BB133
:10054000A34201D1521EEDD1181B70BD4FF0000225
:1005500000B5134694469646203922BFA0E80C50B9
:10056000A0E80C50B1F12001BFF4F7AF090728BF94
:10057000A0E80C5048BF0CC05DF804EB890028BF10
:1005800040F8042B08BF704748BF20F8022B11F039
:10059000804F18BF00F8012B7047704770477047B5
:1005A00070B5044685690068C10601D5302600E0B3
:1005B0002026C00707D070BDD4E9012130469047FE
:1005C000206A401C20626D1EF6D570BD70B50446D1
:1005D00085690078C00707D170BDD4E901212020CA
:1005E0009047206A401C20626D1EF6D570BD0968D8
:1005F0004A0501D540B27047C905FCD500B2704725
:1006000009684A0501D5C0B27047C905FCD580B25A
:10061000704770B50C460546012A05D0287880063B
:1006200000D5EA69002302E0012305E05B1C934248
:1006300002D2E05C0028F9D1A869E618C01AA861C6
:10064000286A184428622846FFF7AAFF04E0D5E983
:10065000012114F8010B9047B442F8D32846FFF764
:10066000B5FF70BD2DE9F0410646002410687529DC
:10067000314616A510D0FFF7BAFF002802DA404233
:1006800013A507E031688A0701D512A502E04907E2
:1006900004D511A5012401E0FFF7B2FF00210A22D1
:1006A00006F1240709E0B0FBF2FCB0FBF2F302FB19
:1006B0001C00303078541846491C0028F3D12346DA
:1006C0002A463046BDE8F04100F06DBA0000000057
:1006D0002D0000002B0000002000000011680268BF
:1006E000006A530501D508700AE0D30501D50880DA
:1006F00006E0130603D5C217C1E9000200E0086056
:100700000120704701694A1C02610878704700B5F2
:100710008FB0CDE901310021059105497944CDE93A
:1007200003101146684600F029F90FB000BD000023
:10073000E5FFFFFF0A6802F8010B0A60704700003E
:100740002DE9FF5F15468A460446DFF8AC80F84481
:100750000027D8E900103E46CDE9001010E03AF835
:1007600016106A4602A800F031FE411C07D021781D
:10077000890603D5E269391891420DD80744761CE1
:100780002078800602D5E069B84205DDAE42E6DB9E
:100790003AF816000028E2D1A069C01BA0612046EB
:1007A000FFF7FEFED8E90010CDE90010002017E0A9
:1007B0003AF818106A4602A800F008FEB0F1FF3FB0
:1007C00081460BD000250DF1080B05E0D4E901218D
:1007D0001BF8050090476D1C4D45F7D308F101004B
:1007E000B0428046E4DB206A384420622046FFF7AE
:1007F000EDFEBDE8FF9F0000C28A00002DE9F04138
:100800008046D21D22F007020025D2E90002F52918
:1008100015A614D0011E72F1000106DA0023D0EBF8
:10082000030063EB020211A608E0D8F800108B0762
:1008300001D50FA602E0490701D50EA601251146F4
:10084000002408F1240704E000F068F930323A553A
:10085000641C50EA0102F7D12B463246214640463D
:10086000BDE8F04100F09FB9000000002D0000003D
:100870002B0000002000000030B4002100F124040F
:1008800008E002F00705D208303542EA4372DB087F
:100890006554491C52EA0305F3D10468002310A2F1
:1008A000250707D5A40600D421B1C46901230DA2F0
:1008B000641EC46130BC00F076B910B50446214610
:1008C0001068FFF79DFE02462046BDE81040002359
:1008D000D2E7D21D22F00701D1E90023CCE70000C6
:1008E0000000000030000000F0B40D46018809054A
:1008F00002D5214C7C4402E01F4C7C440E34002184
:1009000000F1240608E002F00F071209E75D42EA51
:1009100003721B097754491C52EA0307F3D102788A
:100920000023120704D5702D06D009B1022311341B
:100930002246F0BC00F037B901231034F8E770B557
:1009400004460D4621461068FFF75AFE0246294626
:100950002046BDE870400023C6E7D21D22F0070301
:10096000D3E90023C0E70368126843F02003036063
:100970000823C3610023B7E7248900002DE9F05F55
:10098000894604464FF0000ADFF874B1FB44C0F812
:1009900020A02046E1688847002874D0252806D08A
:1009A000D4E901219047206A401C2062F1E700262B
:1009B0005F462046E16888472028054607DB312D41
:1009C00005D2781910F8200C08B10643F1E7B007FA
:1009D00001D526F00406C4F81CA00027C4F818A00E
:1009E0002A2D09D0284604F083FD38B304EB87088C
:1009F000303DC8F8185019E059F8041B204604EBA4
:100A000087029161E1688847012F054618D1E069A6
:100A1000002820DA26F020061DE0D8F8180000EBA8
:100A2000800005EB40003038C8F818002046E16827
:100A30008847054604F05CFD0028EED1012F0AD05E
:100A40002E2D08D12046E16888477F1C0546022FDD
:100A500046F02006C4DBA069002803DA404246F0D5
:100A60000106A061F00701D026F010066C2D0BD016
:100A7000682D09D04C2D39D06A2D35D0742D35D044
:100A80007A2D33D016E038E0E1682F4620468847BB
:100A9000B842054609D16C2F26D04FF48060E1683A
:100AA000064320468847054604E06C2F1AD04FF4D1
:100AB000807006430DB3A5F14100192802D82035F6
:100AC00046F400664A462946204626604E46FFF711
:100AD000BDFB80B101280BD0F61D26F0070000F108
:100AE000080956E74020E4E78020D8E70020D6E751
:100AF00006F104094DE7284652E7206ABDE8F09F59
:100B0000B4880000004870473C02002010B500F097
:100B1000A3FC001D10BD00BF354D000030B5B0F185
:100B20000A024FEA900E71F100034EEA817EB0EBAB
:100B30000E0061EB91014FEA101E4EEA017E10EBB0
:100B40000E0041EB11114FEA102E4EEA016E10EB30
:100B50000E0041EB11214FEA104E4EEA014E10EB10
:100B60000E0041EB1141401841F100014FEAD00065
:100B700040EA41704FEAD10110EB80054FEA810451
:100B800044EA907444EB01046D1944EB0404521BD5
:100B9000A3414FF0000348BF0A3200D530BD401CCE
:100BA00041F1000130BD2DE9F0470D4699469246CE
:100BB000044600F124080168880604D5E06921F0A4
:100BC0001001216000E00120A84201DD471B00E088
:100BD0000027A1697A1902EB0900081AA0612078A0
:100BE000C00602D42046FFF7DBFC002608E0D4E96B
:100BF00001211AF806009047206A401C761C2062EA
:100C00004E45F4DB2078C0060AD52046FFF7C8FC25
:100C100006E0D4E9012130209047206A401C206280
:100C2000381EA7F10107F4DC07E0D4E9012118F828
:100C300005009047206A401C2062281EA5F101058E
:100C4000F3DC2046FFF7C2FC2078000602D5022024
:100C5000BDE8F0870120FBE770472DE9FF4F0C4608
:100C60001E464FF0FF378BB0D2E90001DDF86080FF
:100C70000A908A46C1F30A5505B93D460021084647
:100C80004FF00000BAF1000F00F4400005DA00EB6D
:100C900080004FF4400101EA50004FEA9059B9F149
:100CA000010F00DDB9460A9850EA4A000ED044F61A
:100CB0001050A5F2FF3545432F14B8F1000F1ED098
:100CC0007542291E1EDDC9F100021CE0B8F1010FBA
:100CD0004FF0000001D0302103E0F24305E0215441
:100CE000401CB042FBDB30460022002121540B990E
:100CF000C1F80880C1E900200FB0BDE8F08FBD1B2E
:100D00006D1CDEE74A4600DA694206A800F0E8FBFF
:100D100006AB93E8070003AB83E8070050460A9947
:100D200000F0A1FC8DE80700A0F500501F380090EE
:100D30000398002D0ADD42F21F014A4608440023B1
:100D400003A90390684600F00AFF09E0A0F50050EF
:100D50004A461F38002303A90390684600F014FF99
:100D60008DE807000004000C03D04FF0FF3041086D
:100D700000E01046B8F1000F03D0002200921546A3
:100D80001EE0751E05D4FFF7C9FE303262556D1E98
:100D9000F9D5B3460122084302D000227F1C04E0AB
:100DA0002078302801D100227F1E002A099784D0A4
:100DB0001DE0112D07DAFFF7B1FE303262556D1CD0
:100DC00050EA0102F5D1084302D00098C8B10EE004
:100DD0000021681E05E0235C625C63542254401EBF
:100DE000491C8142F7DBAB46A81B401E099000203E
:100DF00004F80B000B98099AC0F80880C0E9002B92
:100E00007AE711264FF0000857E72DE9F04F8846A2
:100E10000446D21D22F0070191B0D1E90001CDE9CD
:100E20000A0104F031FB02460B98C00F01D02D20BF
:100E300007E02068810701D52B2002E0202101EA8C
:100E4000C000032A099001D0072A05DB034641466A
:100E5000204600F005FB0BE12078800601D5E06913
:100E600000E00620B8F1650F814606D0B8F1660FA4
:100E700018D0B8F1670F70D131E00020B9F1110F2F
:100E8000009001DB112301E009F101030AAA01A985
:100E90000CA8FFF7E2FEDDE90C70002609F1010560
:100EA000834647E001204B4600904FF000470AAAD6
:100EB00001A90CA8FFF7D1FEDDE90DB00C995D4644
:100EC000002610B909F101000D18B9EB050003D493
:100ED000C0F1FF3609F10105A5EB09002BE0B9F1DE
:100EE000010F01DA4FF001090020B9F1110F009054
:100EF000484601DD112300E003460AAA01A90CA817
:100F0000FFF7ABFEDDE90C704D46002683462078E6
:100F100000070AD4AB4500DA5D4601A8012D04DDC7
:100F2000411911F8011C302907D04F4502DA17F199
:100F3000040F04DA012082460FE06D1EEEE7002F59
:100F400002DCED1B3E4403E0781CA84200DD7D1C62
:100F5000B81B00F1010A4FF000472078000703D4C6
:100F6000AA4501DB4FF0FF3A0021B7F1004F0DF128
:100F700043088DF8431024D002202B23002F01DAE0
:100F80007F422D230A21021EA0F1010000DC5FB187
:100F900097FBF1FC97FBF1F201FB1C7C17460CF16F
:100FA000300C08F801CDEEE7A8F1010003702188AC
:100FB000090501D5452100E06521A0F1010800F8EF
:100FC000011C09980FA9A1EB0807FF1D00B1012022
:100FD000411901EBEA70A1693844081A401EA0616A
:100FE0002078C00602D42046FFF7DAFA099828B123
:100FF000D4E901219047206A401C20622078C00675
:1010000022D52046FFF7CCFA1EE0002E04DBB345C4
:1010100002DD01A8805D00E03020D4E90121904785
:10102000206A401C2062761CAAF101005FEA000AD7
:101030000AD100F011FAC0680168405CD4E90121CE
:101040009047206A401C2062281EA5F10105DCDCC7
:1010500007E0D4E9012118F8010B9047206A401CF1
:101060002062381EA7F10107F3DC2046FFF7AEFA35
:10107000032011B041E600002DE9F04F04460D4673
:10108000D21D22F0070089B0D0E9009748463946C2
:1010900004F0FAF90246F80F01D02D2307E020688A
:1010A000810701D52B2302E0202101EAC0038DF83E
:1010B00020300BB1012000E00020032A824601D03D
:1010C000072A04DB2946204600F0CAF93FE12078D0
:1010D000800601D40D2500E0E569C7F30A560D2D01
:1010E00049DA00214FEA175B08464FF00000002F55
:1010F00000F4400007DA00EB80004FF4400100EB01
:10110000D07001EA60008115012901DD4FF0FF3147
:1011100000224FEA850CBCF1180F06D31346ACF140
:1011200018004FF08052C24003E04FF4801323FABE
:101130000CF30CF10C0CBCF1200F04D3ACF1200C1F
:1011400009FA0CF001E007FA0CF000294FF0004812
:1011500001DD18B90FE00ED140450CD319EB02099F
:101160005F4121B9404502D19F4329EA0209BBEB07
:10117000175F00D0761C2088000502D57B48784494
:1011800002E07A487844193808AA302302F80A3075
:10119000037C0AF10101002E0AF1020A53546A4647
:1011A00002DC4FF0300101E04FF031014FF0010857
:1011B0008DF8001002D0A6F2FF3603E059EA47018D
:1011C00000D06B4E002D02DC2178090704D54FF0CA
:1011D00002082E218DF80110C44600210BE0C7F350
:1011E00003433F01C35C491C6D1E02F8083005290A
:1011F00008F1010801DA002DF1DC00210CE000EB20
:101200001973491C1B786D1E082902F808304FEA33
:10121000091908F1010801DA002DF0DC21688B06BC
:1012200002D516E0A8F10108E04505DD02EB080350
:1012300013F8013C302BF5D0B8F1000F09DD02EBBB
:10124000080313F8013C2E2B03D1090701D4A8F1A0
:101250000108002D05DD3E2102F808106D1E08F181
:101260000108407C002E02F8080008F1010804DAA9
:101270002D20764202F8080002E02B2002F8080038
:101280000A214FF47A70864208F101080BDB96FBC5
:10129000F0F3303302F8083096FBF0F308F1010860
:1012A00000FB136601E0642E0CDB642096FBF0F378
:1012B000303302F8083096FBF0F308F1010800FB28
:1012C000136601E00A2E06DB96FBF1F0303002F8DF
:1012D000080008F1010896FBF1F001FB10603030C6
:1012E00002F80800A16908F1010808EB050202EB09
:1012F0000A00081AA0612078C00602D42046FFF731
:101300004FF9216A08AE01EB0A00206204E0D4E93B
:10131000012116F8010B9047BAF1010AF7D22078A3
:10132000C00602D52046FFF73BF96E4609E016F8E5
:10133000010B3E280FD0D4E901219047206A401CC0
:101340002062B8F10108F2D22046FFF73FF909B058
:101350000320BDE8F08F206A2844206203E0D4E92E
:101360000121302090476D1EEBD3F8E7E6800000A6
:1013700002FCFFFF10B5436913B1AFF3008001E039
:10138000FFF747F9012010BD127800F124010A701F
:1013900000224A700122EDE711684FF0FF32E9E7C1
:1013A00010B5436913B1AFF3008001E0FFF7C8F94E
:1013B000012010BD128800F1240182840022C28421
:1013C0000122EDE711684FF0FF32E9E770B51646EC
:1013D0000C460546FFF79AFB036893F801010128C4
:1013E00006D0FF2C0FD8185D68B101202C7070BD9D
:1013F000D3F807013246214603F207130344284677
:10140000BDE8704018474FF0FF3070BD7546FFF7DC
:1014100079FBAE4605006946534620F00700854635
:1014200018B020B5FEF78CFFBDE820404FF0000655
:101430004FF000074FF000084FF0000B21F00701BC
:10144000AC46ACE8C009ACE8C009ACE8C009ACE8FF
:10145000C0098D4670470000004870475C020020BC
:101460002DE9F0411F46044603260168072A01F4CE
:10147000006004DB08B116A505E016A503E008B17D
:1014800015A500E015A521F010002060A069C01E80
:10149000A0610FB1401EA0612046FFF781F84FB157
:1014A000D4E9012138469047206A401C2062C01CC4
:1014B000206206E0206AFAE7D4E9012115F8010B61
:1014C0009047761EF8D22046FFF780F8BDE8F081FD
:1014D0004E414E006E616E00494E4600696E6600D8
:1014E0002DE9F047814616468AB0354878440DC844
:1014F0008DE80D0032487844801C03AC0DC884E8A8
:101500000D0041F69B300844372190FBF1F290FB2F
:10151000F1F5A5F1800501FB12041B3C02D56442E4
:10152000012000E00020DFF898A080460027FA4460
:10153000AAF1BE0A0EE0E0070AD03246684607EB81
:10154000470101230AEB810100F01EFB8DE8070033
:1015500064107F1C002CEED1194F7F44AE3F19E080
:10156000E80715D007EB04100DF1180A90E80E00FB
:101570008AE80E00C068F04201D1981908903246FE
:10158000012306A903A800F0FFFA03AB83E80700D4
:101590006D10641C002DE3D14FF001033246694603
:1015A000B8F1000F03A802D000F0D9FA01E000F072
:1015B000EBFAC9E90001C9F808200AB0BDE8F087D4
:1015C000087E000010B50446AFF300802046BDE859
:1015D0001040FEF7A0BE00004FF0013C50F8042B75
:1015E00051F8043B9A4221D1A2EB0C03934313EA36
:1015F000CC1317D150F8042B51F8043B9A4215D163
:10160000A2EB0C03934313EACC130BD150F8042B39
:1016100051F8043B9A4209D1A2EB0C03934313EA1D
:10162000CC13DBD04FF00000704700BFD01A01BAD6
:10163000B1FA81F101F0180122FA01F0CB40C1F1B9
:101640002001DBB2C0B2C01A2CFA01F3D11A9143C7
:1016500011EAC311E6D1704701491820ABBEFEE77D
:101660002600020070475FEA400C08BF91F0000FAF
:101670004FEA8C234FEAC12243EA51514FEA1C50F2
:1016800018BF00F5F0404FEA300018BF41F00041AC
:101690005FEA6C5C00F02980BCF1FF3F08BF40F0BE
:1016A00080407047130C06BF12044FF0100C4FF02F
:1016B000000C130E04BF12020CF1080C130F04BF30
:1016C00012010CF1040C930F04BF92000CF1020CF8
:1016D000D30F04BF52000CF1010C11464FF0000271
:1016E000A0F11F00A0EB0C00704711F0004F08BFE5
:1016F000704731F000413FF4D5AF0B0C06BF090431
:101700004FF0100C4FF0000C0B0E04BF09020CF14F
:10171000080C0B0F04BF09010CF1040C8B0F04BF64
:1017200089000CF1020CCB0F04BF49000CF1010C35
:10173000CCF12003A0EB0C0022FA03F302FA0CF226
:1017400041EA030100F10100704720F07F4C80EA7C
:10175000030023F07F47ACEB070303F57C5300F055
:10176000004003F1FF032DE980494FEA154B09B40E
:101770004FEA144325EA0B4E24EA03480FF20426ED
:1017800006EB132749083E785FEA320203FB06673F
:10179000C7F5000707FB06F64FEA54374FEAD6466F
:1017A00006F1020607FB066CCCF1005C4FEA1C4711
:1017B0002CEA074C07FB06F40CFB06F504EB154678
:1017C0004FEA961634BF00204FF000404FEAD13761
:1017D00006FB07FC4FEA1C4C0CFB0BF7D21B03FB70
:1017E0000CF761EB07010CFB0EF7B0EB074072EB57
:1017F00017420CFB08F734BFA2EB0742B2EB0742DB
:1018000061EB17414FEA0C444FEA910706FB07FCD6
:101810004FEA1C4C0CFB0BF7B0EBC74072EB573296
:1018200003FB0CF734BFA2EBC742B2EBC74261EB3C
:1018300057310CFB0EF7B0EBC70072EB57720CFB85
:1018400008F734BFA2EBC702B2EBC70261EB5771D6
:10185000039F4FEA816141EA921104EBCC044FEA05
:10186000D1374FEA826206FB07FC42EA90124FEA48
:1018700080604FEA1C4C0CFB0BF7D21B03FB0CF7F0
:1018800061EB07010CFB0EF7B0EB074072EB174260
:101890000CFB08F734BFA2EB0742B2EB074261EB47
:1018A00017414FEA8C554FEA910704EB9C2406FB45
:1018B00007FC4FEA1C4C0CFB0BF7B0EBC74072EB7C
:1018C000573203FB0CF734BFA2EBC742B2EBC7425F
:1018D00061EB57310CFB0EF7B0EBC70072EB5772A0
:1018E0000CFB08F734BFA2EBC702B2EBC70261EBF7
:1018F000577115EB4C254FEA816141EA92114FEA8D
:1019000082624FEAD13742EA901206FB07FC44F1AB
:1019100000044FEA80604FEA1C4C0CFB0BF7D21B13
:1019200003FB0CF761EB07010CFB0EF7B0EB074074
:1019300072EB17420CFB08F734BFA2EB0742B2EB85
:10194000074261EB174115EB1C154FEA813141EA63
:1019500092414FEA823242EA90424FEA80304FEAA7
:101960000C7644F1000448EA03434EEA0B484FF07A
:10197000000EB2EB080C71EB030724BF6246394638
:101980004EEB0E0E4FF0000B0018524149414BEB4D
:101990000B0BB2EB080C71EB03077BF1000B24BFC0
:1019A000624639464EEB0E0E4FF0000B00185241C6
:1019B00049414BEB0B0BB2EB080C71EB03077BF1CE
:1019C000000B24BF624639464EEB0E0E51EA020769
:1019D00018BF46F0010616EB0E7655F1000254F1E1
:1019E000000103D5BDE88901BDE80088BDE8890193
:1019F000BDE80048B619524141EB0101A3F10103D2
:101A0000704780807F7E7D7C7B7A7978777676756B
:101A10007473727171706F6E6E6D6C6C6B6A6A69E3
:101A20006868676666656464636362616160605F7D
:101A30005F5E5E5D5D5C5C5B5B5A5A5959585857F6
:101A4000575656555555545453535252525151505E
:101A500050504F4F4F4E4E4D4D4D4C4C4C4B4B4BB1
:101A60004A4A4A49494948484847474747464646F7
:101A70004545454444444443434343424242424132
:101A80004141002B9C4630D477002BD01CB54FEA47
:101A9000370703B44FF010004FF01001BAF1000FF8
:101AA00006D0BCF1000FDCBF40F0080040F0080198
:101AB0004FF000000FBCBDE810400BF1010BBBF173
:101AC000010F08BF5FEA170722BF12F1010211F1EF
:101AD00001014FF0004143F1000300F0004043EAF0
:101AE00000007047F9D35708D0E746EA064613F1DD
:101AF000400F4FEA16461FDD13F1200FDFBF1643DC
:101B00000A46002120335B42BED0C3F1200746EADB
:101B1000064602FA07F74FEA164646EA0706C3F1F9
:101B2000200722FA03F201FA07F721FA03F14FF036
:101B3000000342EA0702A7E746EA020646EA06462B
:101B40004FEA164646EA0106BCBF46EA0646360C90
:101B50004FF000034FF000024FF0000194E72DE931
:101B6000804C9A46934670B491E8380007C831EA31
:101B7000400C48BF34EA430C03D5FFF7E6FDFFF7FE
:101B800080FFF0BCBDE8008C2DE9804C9A4693465E
:101B900070B491E8380007C810F0804F08BF13F008
:101BA000804F03D100F005F8FFF76BFFF0BCBDE8F4
:101BB000008C20F07F4780EA030023F07F4C07EB86
:101BC0000C03A3F57C5300F00040A3F1FE0392F058
:101BD000000F00F0B38095F0000F00F077802DE942
:101BE00001494FEA11404FEA144621EA004800FB40
:101BF00006FC24EA064708FB06F607FB08F800FB8C
:101C000007F718EB06484CEB164C4FEA124B18EB53
:101C100007484FEA15464CEB174022EA0B4E0BFBE8
:101C200006FC25EA06470EFB06F607FB0EFE0BFB3D
:101C300007F71EEB064E4CEB164C4FF000061EEB62
:101C4000074E4CEB174B18EB0B0840F1000018EB5C
:101C50000E0B58EB000840F100008F1A4FF0000106
:101C60003CBFC943661B14BFB5EB040C00213CBF4D
:101C7000C943F61B4FEA17444EEA8E0E27EA044585
:101C80004FEA1C4704FB07622CEA074C05FB07F7E9
:101C90000CFB05F604FB0CFC16EB074642EB174267
:101CA00016EB0C4642EB1C421BEB060658EB0202FD
:101CB000414146EA9E0601D5BDE80189B619524167
:101CC00041EB0101A3F10103BDE801894FEA14458D
:101CD0004FEA114724EA054621EA074C05FB07F4C1
:101CE00006FB07F70CFB06F105FB0CFC11EB0741AB
:101CF00044EB17444FEA124711EB0C4144EB1C44F0
:101D000022EA074C05FB07F206FB07F70CFB06F679
:101D100005FB0CFC16EB074642EB174216EB0C4694
:101D200042EB1C456A1854F1000148BF7047B619D0
:101D3000524141EB0101A3F10103704795F0000FFF
:101D400037D04FEA11424FEA144721EA024624EA0B
:101D5000074C02FB07F106FB07F70CFB06F402FB3E
:101D60000CFC14EB074441EB17414FEA154714EB09
:101D70000C4441EB1C4125EA074C02FB07F506FB2E
:101D800007F70CFB06F602FB0CFC16EB074645EBCF
:101D9000174516EB0C4645EB1C42121951F1000198
:101DA00048BF7047B619524141EB0101A3F101034D
:101DB00070474FEA14454FEA114724EA054621EAE5
:101DC000074C05FB07F106FB07F70CFB06F24FF08B
:101DD000000605FB0CFC12EB074241EB174112EB2E
:101DE0000C4251EB1C4148BF7047921841EB010176
:101DF000A3F10103704700BFFEE7000070B50D229C
:101E000041A14548FEF757FB00287CD1002475E02E
:101E1000601CC4B241480068FEF72EFB05463E49EF
:101E200008192A463D490968FEF745FB60BB01E0F9
:101E3000601CC4B23848005D18B13748005D3A28CC
:101E4000F6D13548005D3A281ED1611CCCB2002085
:101E500009E02146621CD4B22F4A535C0146421C61
:101E6000D0B22F4A53542C49095D49B12A49095D22
:101E70000D2905D02849095D0A2901D01328E8D386
:101E80000021274A115400BF26480068FEF7F4FAE3
:101E90000546214908192A4622490968FEF70BFB25
:101EA00060BB01E0601CC4B21B48005D18B11A4859
:101EB000005D3A28F6D11848005D3A281ED1611C11
:101EC000CCB2002009E02146621CD4B2124A535C15
:101ED0000146421CD0B2144A53540F49095D49B11E
:101EE0000D49095D0D2905D00B49095D0A2901D06D
:101EF0001328E8D300210C4A115400BF0648005DA6
:101F0000002885D100BF70BD2B4D5154545355420C
:101F1000524543563A0000004001002010000020C6
:101F200018010020140000202C010020704772B618
:101F300000BFFEE70146002091F82520022A03D0C9
:101F40000422CA63012027E00A68126822F00E0208
:101F50000B681A608A6C126822F480728B6C1A60AB
:101F60000A68126822F001020B681A6091F8442096
:101F700002F01F0301229A400B6C5A60D1E9133220
:101F80005A604A6D42B14A6D126822F480724B6DFC
:101F90001A60D1E916325A60012281F8252000BF6B
:101FA000002281F8242000BF704770B50446002548
:101FB00094F8250002280BD00420E063012084F867
:101FC000250000BF002084F8240000BF012534E074
:101FD0002068006820F00E00216808602068006812
:101FE00020F0010021680860A06C006820F4807077
:101FF000A16C086094F8440000F01F0101208840A3
:10200000216C4860D4E913104860606D40B1606D88
:10201000006820F48070616D0860D4E91610486093
:10202000012084F8250000BF002084F8240000BFB0
:10203000A06B10B12046A16B8847284670BD0000F8
:1020400070B5044600F0FCF806462546681C10B141
:1020500004480068054400BF00F0F2F8801BA84265
:10206000FAD370BD0800002078B502460B46002167
:10207000CAE001268E401D6805EA0604002C73D0D4
:102080001D7905F00305012D04D01D7905F0030528
:10209000022D13D190684E000325B540A8434E0091
:1020A000DD68B54028439060506801258D40A84305
:1020B0001D79C5F300158D40284350601D7905F04A
:1020C0000305032D09D0D0684E000325B540A84371
:1020D0004E009D68B5402843D0601D7905F003058A
:1020E000022D13D1CE0802F1200555F826004D0728
:1020F000EE0E0F25B540A8434E07F60E1D69B540FC
:102100002843CE0802F1200545F8260010684E004D
:102110000325B540A8431D7905F003054E00B540E1
:10212000284310605D6805F44035002D6BD000BF7A
:10213000384D2D6E45F00105364E356635462D6E0F
:1021400005F00105009500BF00BF4FEAB6358E08C7
:1021500055F826008D072E0F0F25B540A843B2F184
:10216000904F02D100251AE04DE02B4DAA4201D13B
:10217000012514E0294DAA4201D102250FE0284D86
:10218000AA4201D103250AE0264DAA4201D1042525
:1021900005E0254DAA4201D1052500E006258E0760
:1021A000360FB5402843214D8E0845F82600204DB6
:1021B0002868A0435D6805F4801505B120431C4DD7
:1021C00028602D1D2868A0435D6805F4001505B141
:1021D0002043174D2D1D2860154D2D1F2868A04345
:1021E0005D6805F4003505B12043114D2D1F2860B1
:1021F0002D1F2868A0435D6805F4803505B1204394
:102200000B4D083D2860491C1D68CD40002D7FF412
:1022100030AF78BD001002400004004800080048BC
:10222000000C00480010004800140048080001405D
:10223000080401400AB1816100E08162704700003A
:102240000148006870470000000000200348006853
:1022500003490968084401490860704700000020EC
:102260000800002010B50024032000F0ADF8002085
:1022700000F008F808B1012401E000F02FF8204632
:1022800010BD000070B50446002511480068D8B1A3
:102290000F4800684FF47A71B1FBF0F00D490968FE
:1022A000B1FBF0F6304601F0DCF858B9102C07D23B
:1022B00000222146501E00F049F80748046004E05F
:1022C000012502E0012500E00125284670BD00003F
:1022D000080000200C0000200400002008B500BF0A
:1022E0000F48006E40F001000D4908660846006E78
:1022F00000F00100009000BF00BF00BF0846806DE5
:1023000040F0805088650846806D00F08050009055
:1023100000BF00BF052000F057F800F0F5F808BD39
:10232000001002400146084600280DDB00BF00BF38
:1023300000F01F0301229A4043099B0003F1E023B0
:10234000C3F8002100BF00BF00BF70472DE9F05F58
:1023500080460D46164603F0AFF8074639462A4632
:10236000334601F00700C0F1070ABAF1040F02D9A1
:102370004FF0040A01E0C0F1070AD14600F1040A57
:10238000BAF1070F02D24FF0000A01E0A0F1030AF0
:10239000D4464FF0010A0AFA09FAAAF1010A0AEA38
:1023A000020A0AFA0CFA4FF0010B0BFA0CFBABF124
:1023B000010B0BEA030B4AEA0B042146404603F0EB
:1023C00083F8BDE8F09F000000BF00F00702064B55
:1023D00019684FF6FF031940044B0B4343EA0221EF
:1023E000014B196000BF70470CED00E00000FA05DA
:1023F00002468ABB4148006800F4C060B0F5806FB7
:102400002BD13E488030006820F480703B4BC3F8ED
:1024100080001846006820F4C06040F40070186026
:102420003748006832235843364BB0FBF3F0411C69
:1024300000E0491E3148406900F48060B0F5806FCB
:1024400001D10029F5D12D48406900F48060B0F534
:10245000806F51D10320704708E028488030006821
:1024600020F48070254BC3F8800045E0B2F5007F72
:102470003AD12248006800F4C060B0F5806F2AD1DC
:102480001E488030006840F480701C4BC3F8800008
:102490001846006820F4C06040F4007018601848C6
:1024A000006832235843174BB0FBF3F0411C00E0A7
:1024B000491E1248406900F48060B0F5806F01D178
:1024C0000029F5D10D48406900F48060B0F5806FB7
:1024D00012D10320BFE709488030006840F48070C3
:1024E000064BC3F8800007E00448006820F4C06091
:1024F00040F48060014B18600020ACE700700040A1
:102500000C00002040420F000348806840F48040E7
:102510000149886070470000007000402DE9F843D1
:1025200004460027B846206800F40020B0F5002FCC
:1025300073D1B946D348806D00F0805078B900BFA0
:10254000D048806D40F08050CE4988650846806D47
:1025500000F08050009000BF00BF4FF00109CA4852
:10256000006840F48070C8490860FFF769FE0646BD
:1025700006E0FFF765FE801B022801D9032705E06E
:10258000C148006800F480700028F2D000BF002F1E
:1025900046D1BC489030006800F44075CDB1206C45
:1025A000A84216D0B7489030006820F44075B5486E
:1025B000D0F8900040F48030B249C1F8900008464D
:1025C000D0F8900020F48030C1F890000846C0F8A0
:1025D000905005F00100A0B1FFF732FE064608E07A
:1025E000FFF72EFE801B41F28831884201D9032774
:1025F00006E0A4489030006800F002000028EFD008
:1026000000BF5FB99F489030006820F44070216C93
:1026100008439C49C1F8900003E00CE0B84600E094
:10262000B846B9F1010F05D19648806D20F0805071
:102630009449886500BF207800F0010048B19148B6
:102640008830006820F00300616808438D49C1F8B4
:102650008800207800F00200022809D189488830DB
:10266000006820F00C00A16808438649C1F8880082
:10267000207800F00400042809D1824888300068DE
:1026800020F03000E16808437E49C1F888002078D6
:1026900000F00800082809D17A488830006820F046
:1026A000C000216908437749C1F88800207800F00C
:1026B0002000202809D173488830006820F4406049
:1026C000616908436F49C1F88800207800F0400034
:1026D000402809D16B488830006820F44050A16937
:1026E00008436849C1F88800207800F080008028FD
:1026F00009D164488830006820F44040E16908430B
:102700006049C1F88800208800F48070B0F5807FAF
:1027100009D15C488830006820F44030216A0843C1
:102720005849C1F88800208800F40070B0F5007F97
:1027300009D154488830006820F44020616A084379
:102740005049C1F88800208800F48060B0F5806F9F
:1027500013D14C488830006820F44010A16A084327
:10276000484988310860A06AB0F5801F05D1454806
:10277000C06840F480104349C860208800F40060BD
:10278000B0F5006F13D13F488830006820F4400056
:10279000E16A08433B4988310860E06AB0F5800F80
:1027A00005D13848C06840F480103649C860208898
:1027B00000F48050B0F5805F13D132488830006853
:1027C00020F04070216B08432E4988310860206B4F
:1027D000B0F1807F05D12B48C06840F480102949B2
:1027E000C860208800F40050B0F5005F13D1254880
:1027F0008830006820F04060616B084321498831CF
:102800000860606BB0F1006F05D11E48C06840F4ED
:1028100080101C49C860208800F48040B0F5804FCB
:1028200013D118488830006820F04060A16B08433D
:10283000144988310860A06BB0F1006F05D11148D0
:10284000C06840F480100F49C860208800F4004040
:10285000B0F5004F13D10B488830006820F040508D
:10286000E16B0843074988310860E06BB0F1805F95
:1028700005D10448C06840F480300249C860404631
:10288000BDE8F88300100240007000402DE9F041DF
:1028900004460D464FF0000814B90120BDE8F08150
:1028A0007D48006800F00F00A8420ED27A48006808
:1028B00020F00F002843784908600846006800F0BF
:1028C0000F00A84201D00120E8E7207800F00100C5
:1028D000002864D06068032823D17048006800F0A5
:1028E000007008B90120D9E701F0F4FC06466C48F5
:1028F000864237D96948806800F0F00030B120780E
:1029000000F0020002282DD1A06858BB63488068FF
:1029100020F0F00040F08000604988604FF08008AF
:1029200020E06068022806D15C48006800F40030AE
:1029300040B90120B2E75948006800F4806008B946
:102940000120ABE700F0DEF806465548864209D97B
:102950005248806820F0F00040F080004F498860C5
:102960004FF080084D48806820F0030061680843FC
:102970004A498860FFF764FC074608E0FFF760FCFF
:10298000C01B41F28831884201D9032086E74348C1
:10299000806800F00C006168B0EB810FEED1207808
:1029A00000F00200022820D1207800F00400042862
:1029B00005D13A48806840F4E06038498860207862
:1029C00000F00800082807D13448806820F46050DF
:1029D00040F4E060314988603048806820F0F000C1
:1029E000A16808432D49886008E0B8F1800F05D13F
:1029F0002A48806820F0F00028498860264800684E
:102A000000F00F00A84219D92348006820F00F00F9
:102A1000284321490860FFF713FC074608E0FFF749
:102A20000FFCC01B41F28831884201D9032035E7F1
:102A30001948006800F00F00A842F0D1207800F09B
:102A40000400042807D11548806820F4E060E1689C
:102A5000084312498860207800F00800082808D14F
:102A60000E48806820F46050216940EAC1000B499B
:102A7000886000F047F809498968C1F30311094AE1
:102A8000515C01F01F01C840074908600748006811
:102A9000FFF7F8FB02E700000020024000100240B0
:102AA00000B4C404DE5800080C000020040000201C
:102AB00001480068704700000C00002000B5FFF7D7
:102AC000F7FF05498968C1F30221044A515C01F00E
:102AD0001F01C84000BD000000100240EE58000871
:102AE00000B5FFF7E5FF05498968C1F3C221044A33
:102AF000515C01F01F01C84000BD00000010024001
:102B0000EE58000870B5224DAD6805F00C05042D97
:102B100001D120483AE01E4DAD6805F00C05082DA6
:102B200001D11D4832E01A4DAD6805F00C050C2DA1
:102B30002BD1174DED6805F00304154DED68C5F375
:102B400003156A1C022C0CD0032C09D1124DB5FBC5
:102B5000F2F50F4EF668C6F3062605FB06F10AE00D
:102B600000BF0C4DB5FBF2F5094EF668C6F306261C
:102B700005FB06F100BF00BF054DED68C5F34165DB
:102B80006D1C6B00B1FBF3F000E0002070BD000095
:102B9000001002400024F40000127A002DE9F843EE
:102BA000044614B90120BDE8F883207800F0010044
:102BB000002865D0FC48806800F00C07FA48C0681F
:102BC00000F003060C2F01D1032E01D0082F0AD1EB
:102BD000F548006800F40030002851D060680028F3
:102BE0004ED10120DFE700BF6068B0F5803F06D11D
:102BF000ED48006840F48030EB4908601AE06068F6
:102C0000B0F5A02F0BD1E848006840F48020E649D9
:102C100008600846006840F4803008600AE0E24836
:102C2000006820F48030E04908600846006820F41D
:102C30008020086000BF606888B1FFF701FB05468F
:102C400006E0FFF7FDFA401B642801D90320AAE73C
:102C5000D548006800F400300028F2D010E0FFF7FB
:102C6000EFFA054606E0FFF7EBFA401B642801D9AE
:102C7000032098E7CC48006800F400300028F2D127
:102C8000207800F00200022860D1C748806800F078
:102C90000C07C548C06800F003060C2F01D1022EB6
:102CA00001D0042F18D1C048006800F4806018B12A
:102CB000E06808B9012076E7BB48406820F0FE4094
:102CC000217C40EA0160B8494860B8480068FFF7D5
:102CD000D9FA18B3012066E7E06800B3B24800688B
:102CE00040F48070B0490860FFF7AAFA054606E094
:102CF000FFF7A6FA401B022801D9032053E7AA4890
:102D0000006800F480600028F2D0A748406820F0F6
:102D1000FE40217C40EA0160A349486016E0A248D9
:102D2000006820F48070A0490860FFF789FA054622
:102D300006E0FFF785FA401B022801D9032032E79D
:102D40009948006800F480600028F2D1207800F0F3
:102D50000800082836D16069D0B1934894300068E3
:102D600040F001009049C1F89400FFF769FA054668
:102D700006E0FFF765FA401B022801D9032012E79D
:102D800089489430006800F002000028F1D019E072
:102D900085489430006820F001008349C1F8940010
:102DA000FFF74EFA054606E0FFF74AFA401B0228F5
:102DB00001D90320F7E67C489430006800F0020057
:102DC0000028F1D1207800F00400042872D14FF0DF
:102DD00000087548806D012121EA107078B100BFAC
:102DE0007148806D40F080506F4988650846806D5D
:102DF00000F08050009000BF00BF4FF001086C4809
:102E0000006800F48070B0B96948006840F48070D0
:102E100067490860FFF714FA054606E0FFF710FA65
:102E2000401B022801D90320BDE66148006800F478
:102E300080700028F2D000BFA068012808D15A484D
:102E40009030006840F001005749C1F8900021E03F
:102E5000A06805280FD154489030006840F0040065
:102E60005149C1F890000846D0F8900040F00100A8
:102E7000C1F890000EE04C489030006820F001004E
:102E80004949C1F890000846D0F8900020F00400AD
:102E9000C1F8900000BFA068A8B1FFF7D1F90546BE
:102EA00009E0FFF7CDF9401B41F28831884202D991
:102EB000032078E625E03C489030006800F00200EE
:102EC0000028EED013E0FFF7BBF9054608E0FFF756
:102ED000B7F9401B41F28831884201D9032062E6EC
:102EE00031489030006800F002000028EFD1B8F1BE
:102EF000010F05D12C48806D20F080502A4988654B
:102F000000BF207800F02000202836D1A069D0B181
:102F100025489830006840F001002349C1F8980026
:102F2000FFF78EF9054606E0FFF78AF9401B0228F5
:102F300001D9032037E61C489830006800F00200F1
:102F40000028F1D019E018489830006820F00100FE
:102F50001549C1F89800FFF773F9054606E0FFF739
:102F60006FF9401B022801D903201CE60E48983057
:102F7000006800F002000028F1D1E069002860D06C
:102F80000948806800F00C000C287AD0E06902281B
:102F900058D10548006820F0807003490860FFF7A9
:102FA0004FF905460DE0000000100240040000202B
:102FB00000700040FFF744F9401B022801D90320AC
:102FC000F1E54A48006800F000700028F2D1D4E929
:102FD0000810401E41EA0011A06A41EA0021208E3B
:102FE0000122C2EB500041EA40513420005DC2EBA7
:102FF000500041EA40612C20005D41EAC0603B493D
:10300000C9683B4A114008433849C860084600680F
:1030100040F0807008600846C06840F08070C8606A
:10302000FFF70EF9054606E0FFF70AF9401B0228F4
:1030300001D90320B7E52D48006800F00070002892
:10304000F2D051E02948006820F0807027490860DC
:10305000FFF7F6F8054606E0FFF7F2F8401B0228F6
:1030600001D903209FE52148006800F00070002886
:10307000F2D11E48C0681F4908401C49C86033E0AF
:10308000FFE7E069012800D18DE51848C66806F021
:103090000301206A814225D106F0F001606A401EDA
:1030A000B1EB001F1ED106F4FE41A06AB1EB002F68
:1030B00018D106F078412C20005DB1EBC06F11D122
:1030C00006F4C001208E0122C2EB5000B1EB405F3C
:1030D00008D106F0C0613420005DC2EB5000B1EBB6
:1030E000406F01D001205EE500205CE50010024049
:1030F0000C809F01FCFFEEFE70B504460CB9012068
:1031000070BD606A38B96068B0F5827F00D105E0B3
:103110000021E16102E00021216161610021A162E1
:1031200094F85D0028B9002084F85C00204600F087
:1031300061F8022084F85D002068006820F04000FB
:1031400021680860E068B0F5E06F01D9002501E072
:103150004FF48055E068B0F5706F05D0E068B0F5C9
:10316000E06F01D00021A162A08800F48270218963
:1031700001F404410843217C01F002010843217D50
:1031800001F001010843218B01F400710843217F04
:1031900001F0380108432021095D01F08001084356
:1031A000218D01F400510843216808600421A069C1
:1031B00001EA104094F8241001F01001084394F83B
:1031C000341001F008010843A18901F4706108433B
:1031D00005F480510843216848602068C06920F4E4
:1031E00000602168C86100202066012084F85D002D
:1031F000002085E710B586B00446142101A8FDF72C
:10320000A5F917492068884228D100BF1548006EEB
:1032100040F48050134908660846006E00F4805060
:10322000009000BF00BF00BF0846C06C40F0010026
:10323000C8640846C06C00F00100009000BF00BFE9
:10324000A02001900220029000200390049005200D
:10325000059001A94FF09040FEF706FF06B010BDA3
:1032600000300140001002402DE9F84304460F46AB
:1032700016461D46FEF7E4FF8046B14694F85D0011
:10328000012802D00220BDE8F88307B10EB9012061
:10329000F9E700BF94F85C00012801D10220F2E7B1
:1032A000012084F85C0000BF032084F85D0000204A
:1032B0002066A763A687E6872064A4F84400A4F8E4
:1032C00046002065E064A068B0F5004F0BD120688F
:1032D000006820F04000216808602068006840F421
:1032E0008040216808602068006800F040004028A5
:1032F00005D02068006840F0400021680860E06860
:10330000B0F5E06F37D9606810B1B9F1010F09D19C
:10331000A06B00882168C860A06B801CA063E08F50
:10332000401EE08723E02068806800F00200022849
:103330000AD1A06B00882168C860A06B801CA063C4
:10334000E08F401EE08712E0FEF77AFFA0EB080056
:10335000A84201D3681C00B94DB9012084F85D0072
:1033600000BF002084F85C0000BF03208BE7E08FE3
:103370000028D8D152E0606810B1B9F1010F17D11F
:10338000E08F01280AD9A06B00882168C860A06B73
:10339000801CA063E08F801EE08709E0A06B0078AE
:1033A00021680873A06B401CA063E08F401EE0877B
:1033B00031E02068806800F00200022818D1E08F18
:1033C00001280AD9A06B00882168C860A06B801C06
:1033D000A063E08F801EE0871DE0A06B007821686D
:1033E0000873A06B401CA063E08F401EE08712E0D2
:1033F000FEF726FFA0EB0800A84201D3681C00B925
:103400004DB9012084F85D0000BF002084F85C0005
:1034100000BF032037E7E08F0028CAD14246294683
:10342000204600F08BFF08B120202066A06850B92C
:1034300000BF002000902068C0680090206880686D
:10344000009000BF00BF012084F85D0000BF002095
:1034500084F85C0000BF206E08B1012013E7002053
:1034600011E770B504462546681EB0F1807F01D390
:1034700001200FE0681E4FF0E02148610F214FF05E
:10348000FF3002F021F800204FF0E0218861072092
:103490000861002070BD014600BF91F8840001283A
:1034A00001D102207047012081F8840000BF242050
:1034B000C1F88800086802680868006820F0010008
:1034C0000B68186022F0005200204866086802600D
:1034D0002020C1F8880000BF002081F8840000BFD0
:1034E00000BFDFE77047704770B504460D4600BF68
:1034F00094F88400012801D1022070BD012084F8D5
:10350000840000BF2420C4F8880020680668206872
:10351000006820F00100216808602068806820F0C1
:103520006060284321688860204601F065F82068C3
:1035300006602020C4F8880000BF002084F88400C2
:1035400000BF00BFD9E770B504460D4600BF94F830
:103550008400012801D1022070BD012084F884007C
:1035600000BF2420C4F8880020680668206800682E
:1035700020F00100216808602068806820F0604029
:10358000284321688860204601F036F820680660EC
:103590002020C4F8880000BF002084F8840000BF09
:1035A00000BFD9E770477047704700002DE9F0472A
:1035B00004462068C569206806682068876840F668
:1035C0000F0005EA0009B9F1000F0FD105F0200046
:1035D00060B106F0200010B907F0805030B1606F84
:1035E00010B12046616F8847BDE8F087B9F1000F40
:1035F0007ED0DF48384018B9DE4830400028F7D088
:1036000005F0010058B106F4807040B10120216836
:103610000862D4F8900040F00100C4F8900005F072
:10362000020058B107F0010040B102202168086291
:10363000D4F8900040F00400C4F8900005F00400B5
:1036400058B107F0010040B1042021680862D4F8A5
:10365000900040F00200C4F8900005F0080070B13E
:1036600006F0200010B9C248384040B10820216857
:103670000862D4F8900040F00800C4F8900005F407
:10368000006060B106F0806048B14FF400602168CE
:103690000862D4F8900040F02000C4F89000D4F8FC
:1036A0009000002852D005F0200050B106F0200014
:1036B00010B907F0805020B1606F10B12046616FE3
:1036C0008847D4F890A02068806800F04000402827
:1036D00002D00AF0280070B3204601F0B5F8206847
:1036E000806800F04000402826D100BF00BF00E005
:1036F0002DE02168083151E8001F21F040002168C9
:10370000083141E80002002AF1D100BFD4F880005E
:1037100068B19948D4F880108863D4F88000FEF727
:1037200044FC98B1D4F88000816B88470EE02046B5
:10373000FFF73AFF0AE003E02046FFF735FF05E018
:103740002046FFF731FF0020C4F890004CE7E06E00
:10375000012865D105F01000002861D006F01000A6
:103760000028FAD01020216808622068806800F0E4
:10377000400040287AD1D4F88000006840681FFAE1
:1037800080F8B8F1000F5CD0B4F85C00404558DD1B
:10379000A4F85E80D4F880000068006800F0200083
:1037A000E8BB00BF00BF216851E8001F21F4807012
:1037B000226842E800010029F5D100BF00BF00BF28
:1037C0002168083151E8001F21F00100216808310B
:1037D00041E80002002AF3D100BF00BF00BF21680A
:1037E000083151E8001F21F040002168083141E80C
:1037F0000002002AF3D100BF2020C4F88C00002072
:10380000E06600BF00BF216851E8001F21F01000F2
:10381000226842E800010029F5D100BF01E004E080
:1038200068E0D4F88000FEF785FB02202067B4F83A
:103830005C00B4F85E20801A81B22046FFF752FE89
:1038400012E0B4F85C0040450ED1D4F88000006866
:10385000006800F02000202806D102202067B4F87C
:103860005C102046FFF73EFEBEE6FFE734F85C0F33
:103870006188401A1FFA80F860885C3CC8B3B8F1D0
:10388000000F36D000BF00BF216851E8001F21F4AF
:103890009070226842E800010029F5D100BF00BF06
:1038A00000BF2168083151E8001F314AD24301EAC4
:1038B00002002168083141E80002002AF1D100BF6E
:1038C0002020C4F88C000020E066606700BF00BFC5
:1038D000216851E8001F21F01000226842E8000131
:1038E0000029F5D100BF0220206741462046FFF79E
:1038F000F9FD79E605F4801050B107F4800038B185
:103900004FF48010216808622046FFF74CFE6BE6FA
:1039100005F0800058B106F0800010B907F40000EF
:1039200028B1A06F10B12046A16F88475CE605F072
:10393000400030B106F0400018B1204600F0BAFF58
:1039400052E605F4000030B106F0804018B1204680
:10395000FFF728FE48E605F0807030B106F0004021
:1039600018B12046FFF7BFFD3EE600BF3CE6000071
:1039700001000010200100043348000810B504467F
:103980000CB9012010BDA06900B100E000BFD4F85F
:10399000880028B9002084F88400204600F02AF826
:1039A0002420C4F888002068006820F00100216805
:1039B0000860A06A10B1204600F04AFE204601F0DF
:1039C00093FA012800D1DDE72068406820F4904098
:1039D000216848602068806820F02A00216888609B
:1039E0002068006840F0010021680860204600F06F
:1039F000ABFEC7E710B598B00446142113A8FCF736
:103A0000A5FD442102A8FCF7A1FD2E4920688842AB
:103A100055D1022002900020049002A8FEF77EFDFE
:103A200008B1FEF784FA00BF2748806D40F40030EB
:103A3000254988650846806D00F40030019000BF7C
:103A400000BF00BF0846C06C40F00100C8640846D3
:103A5000C06C00F00100019000BF00BF00BF08462D
:103A6000C06C40F00200C8640846C06C00F0020060
:103A7000019000BF00BF4FF400401390022014904B
:103A80000020159016900720179013A94FF0904032
:103A9000FEF7EAFA082013900220149000201590F7
:103AA00016900720179013A90848FEF7DDFA0222A6
:103AB00011462620FEF74AFC2620FEF733FC18B0FC
:103AC00010BD000000440040001002400004004807
:103AD00070B504460D461646D4F88C00202821D136
:103AE00005B10EB9012070BD0020E0660E492068C6
:103AF000884211D02068406800F4000060B100BF27
:103B000000BF216851E8001F41F08060226842E850
:103B100000010029F5D100BF32462946204601F0B8
:103B2000A5FBE0E70220DEE70080004010B5044678
:103B30001C48844234D11C480088F92825D21A48F0
:103B40000088401C184908800846008802281FDBAE
:103B500008460088801E1549085C0D2818D11248B7
:103B60000088401E085C0A2812D100210E480088F7
:103B7000801E0E4A11540C480088401E115400202B
:103B800009490880FEF73AF902E00020064908805A
:103B90000648054A1288811801220248FFF798FF5B
:103BA00010BD0000840000201C0000204001002007
:103BB0002DE9F84F04460E4617469946D4F888007A
:103BC000202854D106B117B90120BDE8F88F002094
:103BD0005434E06321206063FEF732FB8246278085
:103BE0006780543CA068B0F5805F04D1206910B9AB
:103BF0000025B04602E035464FF0000820E053466D
:103C0000002280212046CDF8009001F0DDFB20B19C
:103C10002020C4F888000320D7E745B9B8F8000091
:103C2000C0F308002168886208F1020803E02878E0
:103C3000216888626D1CB4F85600401EA4F8560036
:103C4000B4F856000028DAD153460022402120461D
:103C5000CDF8009001F0B8FB20B12020C4F8880016
:103C60000320B2E72020C4F888000020ADE702203E
:103C7000ABE7704700BFFEE72DE9F04107460C4671
:103C800015461E462A2000F057FA384600F036FA4C
:103C9000284600F033FA2B2000F04EFA204600F0C0
:103CA0002DFA304600F02AFA2C2000F045FABDE843
:103CB000F08170B504460D4616462B46224629462D
:103CC0002046FFF7D9FF304600F018FA70BD2DE905
:103CD000F04706460F4614461D46DDF820A0681E34
:103CE00083B2601E82B239463046FFF7C5FFB84640
:103CF0000EE0B14606E0504600F000FA09F101007E
:103D00001FFA80F9A145F6DB08F101001FFA80F8DF
:103D1000A845EEDBBDE8F08710B500BF0022042106
:103D20004FF09040FEF786FA00BF6420FEF788F956
:103D300000BF012204214FF09040FEF77BFA00BF44
:103D40006420FEF77DF900BF012210214FF0904062
:103D5000FEF770FA00BF6420FEF772F9112000F040
:103D6000EBF97820FEF76CF9362000F0E5F9002039
:103D700000F0D6F93A2000F0DFF9052000F0D0F984
:103D8000B22000F0D9F90C2000F0CAF90C2000F0A4
:103D9000C7F9002000F0C4F9332000F0C1F9332046
:103DA00000F0BEF9B72000F0C7F9352000F0B8F9EF
:103DB000BB2000F0C1F9372000F0B2F9C02000F0BC
:103DC000BBF92C2000F0ACF9C22000F0B5F90120BD
:103DD00000F0A6F9C32000F0AFF9122000F0A0F91E
:103DE000C42000F0A9F9202000F09AF9C62000F0C4
:103DF000A3F90F2000F094F9D02000F09DF9A42041
:103E000000F08EF9A12000F08BF9E02000F094F989
:103E1000D02000F085F9042000F082F90D2000F098
:103E20007FF9112000F07CF9132000F079F92B20A4
:103E300000F076F93F2000F073F9542000F070F99B
:103E40004C2000F06DF9182000F06AF90D2000F008
:103E500067F90B2000F064F91F2000F061F92320BE
:103E600000F05EF9E12000F067F9D02000F058F989
:103E7000042000F055F90C2000F052F9112000F058
:103E80004FF9132000F04CF92C2000F049F93F20A5
:103E900000F046F9442000F043F9512000F040F9C9
:103EA0002F2000F03DF91F2000F03AF91F2000F00C
:103EB00037F9202000F034F9232000F031F92120D7
:103EC00000F03AF9292000F037F910BD2DE9FF5F25
:103ED00080468A4617469B460F9D00200290CDF8EB
:103EE0000080284605EBD071C1F347042046E21755
:103EF00004EB5272D2102146E31704EB5373DB102C
:103F0000A4EBC3030BB1012300E000231A446A436E
:103F100092B20192A7F12000C7B20AEB0500401E41
:103F200083B208EB0400401E82B251464046FFF7C0
:103F3000A3FE002669E00C2D07D107EB47003549A9
:103F400001EB8000805D03901BE0102D05D132480D
:103F500000EB0710805D039013E0182D07D107EBED
:103F600047002E4901EB0010805D039009E0202DF1
:103F700005D12B4800EB8710805D039001E0BDE880
:103F8000FF9F4FF000093AE01098C8B9012000FAED
:103F900009F00399084018B1584600F0AFF802E064
:103FA0000E9800F0ABF80298401CC0B20290029844
:103FB00090FBF4F104FB1100E8B90020029021E02D
:103FC000012000FA09F00399084020B15A465146F1
:103FD0004046FFF76EFE08F101001FFA80F80098D6
:103FE000A8EB0000A04206D1DDF800800AF1010034
:103FF0001FFA80FA06E009F1010000F0FF09B9F1AB
:10400000080FC1DB00BF701C86B20198864292DBAC
:1040100000BFB4E7F65800086A5D00085A6300085C
:104020002A7500082DE9FF4F85B0074691461D46C9
:10403000DDE913A600200490304606EBD071C1F3F1
:10404000470B002434E0281B401EC1B20A2001F0B7
:10405000F1FBB9FBF0F00A21B0FBF1F201FB120811
:104060000498A0B9681EA04211DDB8F1000F0CD170
:10407000002004FB0B71CDE900A6029088B220223B
:10408000129B0699FFF722FF10E001200490002008
:1040900008F13001CAB204FB0B71CDE900A6029011
:1040A00088B2129B0699FFF711FF00BF601CC4B2D3
:1040B000AC42C8DB09B0BDE8F08F2DE9FE4F0646E3
:1040C0000F4614469846DDE90D5ADDF8309010E0B1
:1040D000CDE9015ACDF80090227843463946304662
:1040E000FFF7F4FE284605EBD07106EB61018EB2B6
:1040F000641C20780028EBD1BDE8FE8F38B504465B
:1041000020128DF80000E0B28DF801004FF0FF336F
:10411000022269460148FFF7A7F838BD20000020B9
:1041200001B54FF0FF33012269460248FFF79CF8C2
:1041300008BD00002000002001B500BF00220821BA
:104140004FF09040FEF776F800BF4FF0FF330122AA
:1041500069460648FFF788F800BF012208214FF0A2
:104160009040FEF767F800BF08BD00002000002067
:1041700000B587B0142102A8FCF7E8F900BF1D487C
:10418000C06C40F020001B49C8640846C06C00F0B9
:104190002000019000BF00BF00BF0846C06C40F087
:1041A0000100C8640846C06C00F00100019000BF27
:1041B00000BF00BF0846C06C40F00200C86408465B
:1041C000C06C00F00200019000BF00BF01221C2162
:1041D0004FF09040FEF72EF81C2002900120039033
:1041E00004900320059002A94FF09040FDF73CFF9A
:1041F00007B000BD0010024010B51648164908600F
:104200004FF4827048604FF40041134881604FF4CE
:10421000E061C1600021016141614FF40071816181
:104220002021C16100210162416281620721C162D6
:104230000021016308214163FEF75EFF08B1FDF72D
:1042400076FE05480068006840F0400002490968B1
:10425000086010BD003001402000002010B5184853
:10426000184908604FF4E13048600021154881602A
:10427000C16001610C21416100218161C161016264
:10428000416200200F4988620846FFF777FB08B1BA
:10429000FDF74DFE00210B48FFF755F908B1FDF77A
:1042A00046FE00210748FFF71FF908B1FDF73FFE62
:1042B0000448FFF7F0F808B1FDF739FE10BD000023
:1042C000004400408400002000BFFEE700BFFEE77E
:1042D0007047000070B5164DED6805F00304144DED
:1042E000ED68C5F303156B1C022C0CD0032C09D10F
:1042F000104DB5FBF3F50E4EF668C6F3062605FB2A
:1043000006F10AE000BF0C4DB5FBF3F5084EF66868
:10431000C6F3062605FB06F100BF00BF044DED689D
:10432000C5F341656D1C6A00B1FBF2F070BD000081
:104330000010024000127A000024F400F8B5044690
:104340000E461546334600224FF4C05120460095D4
:1043500000F026F828B1206E40F0200020660320EF
:10436000F8BD3346002280212046009500F094F8E5
:1043700028B1206E40F0200020660320F0E733468D
:1043800000224FF4C0612046009500F009F828B1E2
:10439000206E40F0200020660320E1E70020DFE7E8
:1043A0002DE9FC5F04460D4616461F46DDF83090A9
:1043B00000200090FDF744FFA0EB0900A7EB0008E8
:1043C000FDF73EFF8246206800F10C0B3148006883
:1043D000C0EBC00000EB8000000D00FB08F0019076
:1043E00050E0B5F5C06F05D126B99BF800000090EC
:1043F0009DF80000781C002844D0FDF721FFA0EBB9
:104400000A00404502D2B8F1000F34D1206840685C
:1044100020F0E000216848606068B0F5827F0DD12F
:10442000A068B0F5004F03D0A068B0F5806F05D14B
:104430002068006820F0400021680860A06AB0F59C
:10444000005F0DD100BF2068006820F40050216893
:1044500008602068006840F400502168086000BFD0
:10446000012084F85D0000BF002084F85C0000BFDC
:104470000320BDE8FC9F019808B94FF0000801989F
:10448000401E0190206880682840B042A9D10020D9
:10449000EFE700000C0000202DE9F84F04460D4620
:1044A00090461E46DDF82890FDF7CAFEA0EB0900F5
:1044B000371AFDF7C5FE82462C480068C0F3CB30A2
:1044C0007843009045E0701C002842D0FDF7B8FE0C
:1044D000A0EB0A00B84200D2A7BB2068406820F0D9
:1044E000E000216848606068B0F5827F0DD1A06867
:1044F000B0F5004F03D0A068B0F5806F05D12068FB
:10450000006820F0400021680860A06AB0F5005FF4
:104510000DD100BF2068006820F4005021680860B9
:104520002068006840F400502168086000BF012046
:1045300084F85D0000BF002084F85C0000BF032009
:10454000BDE8F88FFFE7009800B900270098401EEB
:104550000090206880682840A84201D1012000E036
:1045600000204045AFD10020EAE700000C00002009
:10457000704710B5FDF76AFE10BD00B593B0382145
:1045800005A8FBF7E3FF14216846FBF7DFFF0020D7
:10459000FDF72EFF012005900004069002200C90EC
:1045A00003210D9102210E9155210F9102211091AD
:1045B0001191129105A8FEF7F1FA08B1FDF7B7FCC9
:1045C0000F2000900320019000200290039004909F
:1045D00004216846FEF75AF908B1FDF7A8FC13B0AC
:1045E00000BD00000348006840F470000149086005
:1045F0007047000088ED00E070B5456E2DB90125CB
:10460000A0F86A50A0F868501CE008230824056848
:10461000AD68C5F342610568AD686A0F0A4DAD5CCF
:1046200015FB04F5094EB65C95FBF6F5A0F86A504B
:10463000054D6D5C15FB03F5044E765C95FBF6F5B8
:10464000A0F8685070BD0000CE580008D658000889
:1046500090F8281001F00801082907D1016849687D
:1046600021F40041826B11430268516090F82810D8
:1046700001F0010139B10168496821F40031C26AD1
:1046800011430268516090F8281001F002010229DC
:1046900007D10168496821F48031026B1143026837
:1046A000516090F8281001F00401042907D1016835
:1046B000496821F48021426B11430268516090F8EF
:1046C000281001F01001102907D10168896821F430
:1046D0008051C26B11430268916090F8281001F07C
:1046E0002001202907D10168896821F40051026C5A
:1046F00011430268916090F8281001F040014029B0
:1047000013D10168496821F48011426C1143026899
:104710005160416CB1F5801F07D10168496821F4EF
:10472000C001826C11430268516090F8281001F0BA
:104730008001802907D10168496821F40021C26CF9
:10474000114302685160704738B504460020C4F830
:104750009000FDF775FD05462068006800F0080030
:10476000082821D16FF07E402B4600224FF4001123
:104770000090204600F028FEB0B100BF00BF2168C5
:1047800051E8001F21F08000226842E80001002962
:10479000F5D100BF2020C4F8880000BF002084F8B5
:1047A000840000BF032038BD2068006800F00400CA
:1047B000042830D16FF07E402B4600224FF4800158
:1047C0000090204600F000FE28B300BF00BF216823
:1047D00051E8001F21F49070226842E8000100298E
:1047E000F5D100BF00BF00BF2168083151E8001FAC
:1047F00021F001002168083141E80002002AF3D1CC
:1048000000BF2020C4F88C0000BF002084F8840082
:1048100000BF0320C7E72020C4F88800C4F88C003C
:104820000020E066206700BF84F8840000BF00BF5E
:10483000B9E770B50446A56A0020A5F85E002846D1
:10484000FEF7B2FE70BD000000BF00BF026852E874
:10485000002F22F49071036843E80012002AF5D17A
:1048600000BF00BF00BF0268083252E8002F104BA3
:1048700002EA03010268083242E80013002BF2D179
:1048800000BFC16E01290CD100BF00BF026852E811
:10489000002F22F01001036843E80012002AF5D12E
:1048A00000BF2021C0F88C100021C166416770470D
:1048B000FEFFFFEF10B5044600BF00BF216851E8BE
:1048C000001F21F04000226842E800010029F5D1D4
:1048D00000BF2020C4F888000020A0672046FFF712
:1048E000C8F910BD2DE9F0410446B4F86070D4F861
:1048F0008C0022286ED12068406A86B2A56D06EA37
:1049000007002880A06D801CA065B4F85E00401EE2
:10491000A4F85E00B4F85E00002861D100BF00BFBB
:10492000216851E8001F21F49070226842E80001DC
:104930000029F5D100BF00BF00BF2168083151E850
:10494000001F21F001002168083141E80002002A1F
:10495000F3D100BF2020C4F88C00002060672067DE
:1049600020492068884211D02068406800F4000087
:1049700060B100BF00BF216851E8001F21F08060D6
:10498000226842E800010029F5D100BFE06E01284D
:104990001CD10020E06600BF00BF216851E8001F65
:1049A00021F01000226842E800010029F5D100BF83
:1049B0002068C069C0F3001010B11020216808629F
:1049C000B4F85C102046FEF78DFD09E02046FFF7A5
:1049D000ADF805E02068806940F008002168886132
:1049E000BDE8F081008000402DE9F84F0446B4F89E
:1049F00060B02068C5692068006800902068D0F821
:104A000008A0D4F88C0022287ED1B4F86890AEE0DB
:104A10002068406A1FFA80F8A76D08EA0B0038800A
:104A2000A06D801CA065B4F85E00401EA4F85E0076
:104A30002068C56905F00700B0B305F0010060B15A
:104A4000009800F4807040B1012021680862D4F819
:104A5000900040F00100C4F8900005F0020058B149
:104A60000AF0010040B1022021680862D4F89000E9
:104A700040F00400C4F8900005F0040058B10AF0BA
:104A8000010040B1042021680862D4F8900040F091
:104A90000200C4F89000D4F8900028B12046FEF738
:104AA00083FD0020C4F89000B4F85E0000285ED1B9
:104AB00000BF00BF216851E8001F21F48070226808
:104AC00042E800010029F5D100BF00BF00BF216806
:104AD000083151E8001F414A01EA0200216808310B
:104AE00041E80002002AF2D100BF2020C4F88C0067
:104AF0000020606720673A492068884213D0206808
:104B0000406800F4000000E05FE060B100BF00BF5B
:104B1000216851E8001F21F08060226842E800010E
:104B20000029F5D100BFE06E01281CD10020E0660D
:104B300000BF00BF216851E8001F21F0100022686B
:104B400042E800010029F5D100BF2068C069C0F328
:104B5000001010B1102021680862B4F85C102046E3
:104B6000FEF7C0FC02E02046FEF7E0FF07E0B9F1E7
:104B7000000F04D005F0200000287FF449AF00BFEB
:104B8000B4F85E6006B3B4F86800B04223DD00BF3D
:104B900000BF2168083151E8001F21F080502168D2
:104BA000083141E80002002AF3D100BF0D486067D8
:104BB00000BF00BF216851E8001F41F020002268BB
:104BC00042E800010029F5D105E02068806940F045
:104BD000080021688861BDE8F88F0000FEFFFFEF44
:104BE00000800040E548000870B50446B4F86060F5
:104BF000D4F88C0022286FD12068406A85B2F0B2C8
:104C00002840A16D0870A06D401CA065B4F85E003E
:104C1000401EA4F85E00B4F85E00002862D100BF18
:104C200000BF216851E8001F21F49070226842E81B
:104C300000010029F5D100BF00BF00BF2168083185
:104C400051E8001F21F001002168083141E800020D
:104C5000002AF3D100BF2020C4F88C000020606738
:104C6000206721492068884211D02068406800F4FC
:104C7000000060B100BF00BF216851E8001F21F0B3
:104C80008060226842E800010029F5D100BFE06E93
:104C900001281CD10020E06600BF00BF216851E858
:104CA000001F21F01000226842E800010029F5D120
:104CB00000BF2068C069C0F3001010B11020216847
:104CC0000862B4F85C102046FEF70CFC0AE02046AF
:104CD000FEF72CFF06E0FFE72068806940F008003F
:104CE0002168886170BD0000008000402DE9F05F00
:104CF0000446B4F860A02068C5692068D0F800B008
:104D00002068D0F80890D4F88C0022287ED1B4F81E
:104D10006880ADE02068406A87B20AF0FF00384042
:104D2000A16D0870A06D401CA065B4F85E00401E27
:104D3000A4F85E002068C56905F00700A8B305F077
:104D4000010058B10BF4807040B101202168086265
:104D5000D4F8900040F00100C4F8900005F0020083
:104D600058B109F0010040B1022021680862D4F86E
:104D7000900040F00400C4F8900005F0040058B121
:104D800009F0010040B1042021680862D4F89000C5
:104D900040F00200C4F89000D4F8900028B12046FA
:104DA000FEF702FC0020C4F89000B4F85E00002872
:104DB0005ED100BF00BF216851E8001F21F4807060
:104DC000226842E800010029F5D100BF00BF00BF02
:104DD0002168083151E8001F404A01EA02002168B9
:104DE000083141E80002002AF2D100BF2020C4F8B7
:104DF0008C0000206067206739492068884213D002
:104E00002068406800F4000070B100E05EE000BF80
:104E100000BF216851E8001F21F08060226842E84D
:104E200000010029F5D100BFE06E01281CD100204F
:104E3000E06600BF00BF216851E8001F21F01000AC
:104E4000226842E800010029F5D100BF2068C0694E
:104E5000C0F3001010B1102021680862B4F85C1093
:104E60002046FEF73FFB02E02046FEF75FFE07E02C
:104E7000B8F1000F04D005F0200000287FF44AAFFD
:104E800000BFB4F85E6006B3B4F86800B04223DD3A
:104E900000BF00BF2168083151E8001F21F0805099
:104EA0002168083141E80002002AF3D100BF0D4813
:104EB000606700BF00BF216851E8001F41F020007B
:104EC000226842E800010029F5D105E020688069E8
:104ED00040F0080021688861BDE8F09FFEFFFFEF09
:104EE00000800040E94B00082DE9FE4F04460020F9
:104EF0000290D4492068884200D100E000BF2169B7
:104F0000A068084361690843E16940EA0108206834
:104F10000068CD49084040EA080021680860206820
:104F2000406820F44050E168084321684860D4F8A4
:104F30001880C4492068884202D0206A40EA0808E4
:104F400020688068C149084040EA080021688860FC
:104F50002068C06A20F00F00616A08432168C862B7
:104F600000BFBB492068884216D1BA48006800F0EB
:104F7000030030B1012808D0022804D0032808D14A
:104F800005E0012507E0022505E0042503E00825EA
:104F900001E0102500BF6FE0AF492068884216D1BC
:104FA000AC48006800F00C0030B1042808D0082894
:104FB00004D00C2808D105E0002507E0022505E013
:104FC000042503E0082501E0102500BF54E0A349B3
:104FD0002068884216D19F48006800F0300030B148
:104FE000102808D0202804D0302808D105E000255A
:104FF00007E0022505E0042503E0082501E010256F
:1050000000BF39E096492068884216D1914800686F
:1050100000F0C00030B1402808D0802804D0C0285B
:1050200008D105E0002507E0022505E0042503E09E
:10503000082501E0102500BF1EE082492068884253
:1050400019D18448006800F4406048B1B0F5806F21
:105050000AD0B0F5006F05D0B0F5406F08D105E07B
:10506000002507E0022505E0042503E0082501E00E
:10507000102500BF00E0102500BF7249206888425B
:1050800059D135B1022D08D0042D08D0082D0DD1ED
:1050900009E0FDF713FD06460CE0724E0AE0FDF74D
:1050A00031FD064606E04FF4004603E000260120ED
:1050B000029000BF00BF002E10D06B49606A31F82B
:1050C0001000B6FBF0F9606800EB4000484503D8DB
:1050D00060680003484502D201200290A6E06249C0
:1050E000606A31F810C06246002330461946FBF76B
:1050F00039F94FF4807C0022A0FB0C3B01FB0CB182
:1051000000FB02116068400818185141CDE9000108
:10511000D4F804C062460023FBF724F90746B7F52C
:10512000407F05D3B7F5801F02D22068C7607DE0BD
:10513000012002907AE0E069B0F5004F3FD1092DDF
:1051400017D2DFE805F005090D160F161616130025
:10515000FDF7B4FC064610E0FDF7C2FC06460CE085
:10516000404E0AE0FDF7CEFC064606E04FF400464E
:1051700003E000260120029000BF00BF86B33A4939
:10518000606A31F81000B6FBF0F04000616800EB97
:105190005100B0FBF1F7102F0ED3B7F5803F0BD2C3
:1051A0004FF6F07007EA000AC7F342004AEA000A25
:1051B0002068C0F80CA039E00120029036E0092DEB
:1051C00018D2DFE805F005090E171017171714009D
:1051D000FDF774FC064611E0FDF782FC06460DE083
:1051E00024E0204E0AE0FDF78DFC064606E04FF471
:1051F000004603E000260120029000BF00BFAEB1D0
:105200001949606A31F81000B6FBF0F0616800EBF4
:105210005100B0FBF1F7102F06D3B7F5803F03D252
:10522000B8B22168C86001E0012002900120A4F812
:105230006A00A4F8680000206067A0670298BDE8D3
:10524000FE8F000000800040F369FFCFFFF4FF11E4
:1052500000380140881002400044004000480040EF
:10526000004C00400024F400B658000830B5034656
:105270009965A3F85C20A3F85E200020586700BF62
:105280009868B0F5805F0AD1186920B940F2FF1024
:10529000A3F8600020E0FF20A3F860001CE09868FD
:1052A00048B9186918B9FF20A3F8600014E07F20FE
:1052B000A3F8600010E09868B0F1805F09D1186928
:1052C00018B97F20A3F8600006E03F20A3F8600033
:1052D00002E00020A3F8600000BF0020C3F89000A7
:1052E0002220C3F88C0000BF00BF1C68083454E8BB
:1052F000004F44F001001C68083444E80005002D0C
:10530000F3D100BF586EB0F1005F2CD1B3F8680044
:10531000904228DC9868B0F5805F04D1186910B914
:105320002548586701E025485867186960B100BFF3
:1053300000BF1C6854E8004F44F480701D6845E8C5
:105340000004002CF5D100BF00BF00BF1C6808346A
:1053500054E8004F44F080501C68083444E80005CD
:10536000002DF3D126E09868B0F5805F04D118696C
:1053700010B91348586701E012485867186960B1BE
:1053800000BF00BF1C6854E8004F44F490701D68D3
:1053900045E80004002CF5D10CE000BF00BF1C68FC
:1053A00054E8004F44F020001D6845E80004002C3C
:1053B000F5D100BF002030BDE9490008ED4C0008E0
:1053C000E5480008E94B00082DE9F04104460D4688
:1053D00017469846069E41E0701C00283ED0FCF718
:1053E0002FFFA0EB0800B04200D816B90320BDE89B
:1053F000F0812068006800F0040070B3802D2DD08B
:10540000402D2BD02068C069C0F3C00078B10820BF
:10541000216808622046FFF717FA0820C4F89000B8
:1054200000BF002084F8840000BF0120DFE720686F
:10543000C069C0F3C02080B14FF4006021680862E9
:105440002046FFF701FA2020C4F8900000BF00209A
:1054500084F8840000BF0320C9E7FFE72068C06923
:105460002840A84201D1012000E00020B842B3D07A
:105470000020BCE710B50248FEF798F810BD000008
:105480008400002000BFFEE703B4019841000098AB
:1054900050EAC12018BF04204A0D18BF40F0010097
:1054A00040F2FF72B2EB515F08BF40F002000128EA
:1054B00008BF052002B0704702480068C0F3022010
:1054C000704700000CED00E010B5002804DB0A076F
:1054D000130E054A135406E00A07140E034A00F09F
:1054E0000F031B1FD45410BD00E400E018ED00E0D2
:1054F00030380A2801D201207047002070470FB4CD
:1055000030B5A1B00446802101A8FBF71FF826A8FA
:10551000009001A8009A2599FAF79CFF00200090BE
:1055200001A8FAF7A9FF85B264232A4601A92046FB
:10553000FEF73EFB21B030BC5DF814FB0EB5012236
:105540005D495E48FEF7C4FA00201021CDE9000154
:105550004FF6FF735AA201460290FEF7AEFD5BA123
:105560005648FFF7CCFF4FF4FA60FCF769FD5AA1EB
:105570005248FFF7C4FF4FF4FA70FCF761FD58A1E1
:105580004E48FFF7BCFF00201021CDE900014FF489
:10559000FC6357A20290FEF790FD4FF47A70FCF77F
:1055A0004FFD55A14548FFF7AAFF00201021CDE986
:1055B00000014FF6FF7358A220210290FEF77DFDF7
:1055C00041F65830FCF73CFD55A057A358A259A10D
:1055D00000903A48FFF793FF00201021CDE9000129
:1055E0004FF6FF735EA230210290FEF766FD4FF486
:1055F000FA60FCF725FD40F25B735CA25FA12F48C7
:10560000FFF77DFF00201021CDE900014FF6FF7369
:1056100061A240210290FEF750FD4FF47A60FCF742
:105620000FFD61A261A12548FFF769FF002010214D
:10563000CDE900014FF6FF7362A250210290FEF700
:105640003CFD4FF4FA60FCF7FBFC00201021CDE993
:1056500000014FF4FC635DA260210290FEF72DFD76
:105660000025002426E05C480068401BB0F57A7FE6
:1056700020D359480568641C23464BA257A10F4804
:10568000FFF73DFF00201021CDE900014FF6FF7329
:105690005AA270210290FEF710FD102000214FF455
:1056A000FC62CDE900210290A2B2042370213220D5
:1056B000FEF7B8FCD7E7000040010020840000207E
:1056C00045535020496E69740000000041542B522C
:1056D00053540D0A00000000415445300D0A0000EB
:1056E00041542B43574D4F44453D310D0A000000B6
:1056F0004D6F64653D31000041542B43574A415082
:105700003D224C4451222C226C64713131323233AF
:10571000333434220D0A0000576946692E2E2E00BC
:1057200032323232000000006573703131313100A5
:105730003636360041542B4D51545455534552433F
:1057400046473D302C312C222573222C22257322F2
:105750002C222573222C302C302C22220D0A000002
:105760004D51545420434647000000003131312E42
:105770003233312E3131362E3138000041542B4D29
:10578000515454434F4E4E3D302C222573222C252C
:10579000642C310D0A0000004D51545420436F6EAB
:1057A0006E2E2E2E000000004C44510041542B4D13
:1057B0005154545355423D302C222573222C310D27
:1057C0000A000000537562204F4B00004D515454A5
:1057D00020526561647900000000002041542B4D87
:1057E0005154545055423D302C222573222C2225F1
:1057F0006C75222C302C300D0A0000005055423AB6
:105800000000000008B5FCF72DFDFEF7B6FEFEF720
:10581000AFFCFEF7F1FCFEF721FDFEF77DFA00205C
:10582000F0231A4601460090FEF751FA01E0FFF717
:1058300085FEFCE710B50246012000E050430B1E38
:10584000A1F10104E1B2F9D110BD000010B50029A9
:105850000AD00878002807D005487844FBF7BCFE3A
:10586000002801D0002010BD0248784410BD00007F
:10587000E63A0000DE3A000010B500290AD00878A8
:10588000002807D005487844FBF7A6FE002801D081
:10589000002010BD0248784410BD0000CA3B000043
:1058A000C23B00004FF04070E1EE100A7047FBF77A
:1058B000ACBAFBF7E1BB01000200040006000800DF
:1058C0000A000C00100020004000800000010101CF
:1058D000010307010000080402040801010100009F
:1058E0000000000000000102030406070809000090
:1058F000000001020304000000000000000000009E
:105900000000000004040404040000040000141457
:105910000A00000000000000000000000A0A1F0A40
:105920000A1F0A0A000000040E1505060C14150EC5
:105930000400000012150D152E2C2A120000000084
:10594000040A0A361515291600000202010000009B
:105950000000000000001008080404040404080803
:1059600010000204040808080808040402000000EB
:105970000004150E0E150400000000000008083E8B
:105980000808000000000000000000000000020203
:10599000010000000000003F0000000000000000C7
:1059A00000000000000000020000002010100808A5
:1059B00004040202010000000E1111111111110E58
:1059C00000000000040604040404040E00000000AB
:1059D0000E1111080402011F000000000E11100C2E
:1059E0001010110E00000000080C0C0A091F081C02
:1059F000000000001F01010F1110110E0000000037
:105A00000C12010D1311110E000000001E100808E9
:105A100004040404000000000E11110E1111110EF7
:105A2000000000000E1111191610090600000000F8
:105A3000000004000000000400000000000000045A
:105A40000000000404000000100804020204081012
:105A50000000000000003F003F00000000000000C8
:105A60000204081010080402000000000E111108C2
:105A700004040004000000001C22292D2D1D221CFE
:105A80000000000004040C0A0A1E1233000000008B
:105A90000F12120E1212120F000000001E1101014F
:105AA0000101110E000000000F1212121212120F4B
:105AB000000000001F120A0E0A02121F0000000060
:105AC0001F120A0E0A020207000000001C12010148
:105AD0003911120C000000003312121E1212123380
