:020000042002D8
:1000000000200420F51D02206D1F02203D1E02204D
:100010003F1E02203F1E02203F1E02203F1E0220E4
:100020000000000000000000000000003F1E022051
:100030003F1E0220000000003F1E02203F1E022043
:100040003F1E02203F1E02203F1E02203F1E0220B4
:100050003F1E02203F1E02203F1E02203F1E0220A4
:100060003F1E02203F1E02203F1E02203F1E022094
:100070003F1E02203F1E02203F1E02203F1E022084
:100080003F1E02203F1E02203F1E02203F1E022074
:100090003F1E02203F1E02203F1E02203F1E022064
:1000A0003F1E02203F1E02203F1E02203F1E022054
:1000B0003F1E02203F1E02203F1E02203F1E022044
:1000C0003F1E02203F1E02203F1E02203F1E022034
:1000D0003F1E02203F1E02203F1E02203F1E022024
:1000E0003F1E02203F1E02203F1E02203F1E022014
:1000F0003F1E02203F1E02203F1E02203F1E022004
:100100003F1E02203F1E02203F1E02203F1E0220F3
:100110003F1E02203F1E02203F1E02203F1E0220E3
:100120003F1E02203F1E02203F1E02203F1E0220D3
:100130003F1E02203F1E02203F1E02203F1E0220C3
:100140003F1E02203F1E02203F1E02203F1E0220B3
:100150003F1E02203F1E02203F1E02203F1E0220A3
:100160003F1E02203F1E02203F1E02203F1E022093
:100170003F1E02203F1E02203F1E02203F1E022083
:100180003F1E02203F1E02203F1E02203F1E022073
:100190003F1E02203F1E02203F1E02203F1E022063
:1001A0003F1E02203F1E02203F1E02203F1E022053
:1001B0003F1E02203F1E02203F1E02203F1E022043
:1001C0003F1E02203F1E02203F1E022000000000B2
:1001D000000000000000000000000000000000001F
:1001E000000000000000000000000000000000000F
:1001F00000000000000000000000000000000000FF
:0402000000000000FA
:100208000348044B834202D0034B03B1184770479D
:10021800604904206049042000000000064B07499B
:10022800C91A891048BF0131491003D0044B0BB1DA
:1002380001481847704700BF6049042060490420FE
:100248000000000010B5064C237843B9FFF7D8FF2B
:10025800044B13B10448AFF300800123237010BD91
:100268006049042000000000F4C2022008B5054BD4
:100278001BB105490548AFF30080BDE80840FFF70A
:10028800CDBF00BF0000000064490420F4C2022072
:10029800002310B5934200DB10BDC4692406FCD5C9
:1002A800CC5C01338462F5E707B501228DF80700BD
:1002B8000DF107010E48FFF7EBFF0E4BD3F888202E
:1002C80002F00302032A02F101010FD0D3F88820BB
:1002D80022F00302C3F88820D3F888200A43C3F821
:1002E80088200CF02FF803B05DF804FBFEE700BF90
:1002F8000040085000A00C503422014BDA607047CF
:10030800004009507047704710B5012300220321AF
:10031800022004F021FC0123002219460A2004F0DF
:100328001BFC012310220921082004F015FC0123DD
:1003380010220A21032004F00FFCBDE8104001231D
:1003480000220C210B2004F007BC10B50446012143
:10035800052004F045FD0121062004F041FD01219E
:10036800072004F03DFD0121092004F039FD012199
:100378000C2004F035FD01210D2004F031FD012190
:1003880054B1084604F02CFD012330220B2104202F
:10039800BDE8104004F0E0BB042004F021FD012377
:1003A80030220B211846F3E708B500220123032168
:1003B800052004F0D1FB0123002219460A2004F08D
:1003C800CBFB0123102209210C2004F0C5FB0123DB
:1003D80010220A21032004F0BFFB012330220B2145
:1003E800184604F0B9FB012330220C21092004F03F
:1003F800B3FB0121022004F0F3FC0121042004F0E6
:10040800EFFC0121062004F0EBFC0121072004F099
:10041800E7FC0121082004F0E3FC01210B2004F093
:10042800DFFCBDE8084001210D2004F0D9BC10B55F
:100438000123002219211E2004F08EFB0123002233
:100448001B211A2004F088FB0123102221211D20E2
:1004580004F082FB0123102222211B2004F07CFBE4
:100468000123302223211C2004F076FBBDE8104034
:100478000123302224211F2004F06EBB10B5012374
:1004880030224FF4DA711D2004F066FB142001F0CD
:1004980046FD012300224FF4D9711C2004F05CFBB7
:1004A8000123302240F2B5111E2004F055FB012330
:1004B80030224FF4DB711F2004F04EFB0123302261
:1004C80040F2B7111A2004F047FBBDE810400123A1
:1004D80030224FF4DC711B2004F03EBB10B50D4BED
:1004E8005B68C3F30223072B0CD1002401340121DC
:1004F800204604F075FC0D2CF8D10020BDE8104012
:1005080002F0F2BA1BB1012BF7D1022010BD012075
:10051800FCE700BF00B00050704708B51022012367
:100528000921022004F018FB012310220A210320CC
:1005380004F012FB012310220B21042004F00CFB11
:10054800012310220C21052004F006FB01231022B0
:100558000D21062004F000FB012310220E210720A4
:1005680004F0FAFA012310220F21082004F0F4FA0B
:10057800102201231146092004F0EEFA012310226B
:1005880006210A2004F0E8FA0123002219460B206C
:1005980004F0E2FA0123002203210C2004F0DCFA23
:1005A8000121084604F01CFCBDE8084001210D208B
:1005B80004F016BC10B501230446102209210220BC
:1005C80004F0CAFA012310220A21032004F0C4FA15
:1005D800012310220B21042004F0BEFA012310226B
:1005E8000C21052004F0B8FA012310220D2109205E
:1005F80004F0B2FA012310220E210A2004F0ACFA0A
:10060800012310220F210B2004F0A6FA1022012347
:1006180011460C2004F0A0FA0123002219460820F4
:1006280004F09AFA012300220321062004F094FA28
:10063800022C13D0042C25D0012C2CD106212346C2
:1006480010220D2004F088FA2146204604F0C8FB49
:10065800BDE810400121072004F0C2BB012310228D
:100668000421184604F078FA0123102205210D20F0
:1006780004F072FA2146BDE8104001230022072049
:1006880004F06ABA0621012300220D2004F064FA5E
:1006980001210846DAE710BD08B5012300221946F2
:1006A8000A2004F059FA012300220321092004F04A
:1006B80053FA012310220921062004F04DFA0123E0
:1006C80010220A21082004F047FA012330220B21C6
:1006D800072004F041FA012330220C210B2004F0FA
:1006E8003BFA0121084604F07BFB0121022004F0BB
:1006F80077FB0121032004F073FB0121042004F09F
:100708006FFB0121052004F06BFB01210C2004F094
:1007180067FBBDE8084001210D2004F061BB022100
:10072800042004F08FBC00002DE9F04100248AB0B9
:1007380005463022214663480AF094F8624BA81E09
:1007480005934FF0805307930323069409930428D5
:1007580004D8DFE800F06462045D6000FEE705236A
:1007680009930423099D0893032D62D101F0F8FA37
:1007780005A90246534803F093FF2A460821514829
:1007880003F080FE4F4803F08BFB504B984248D94A
:1007980003F1A46303F58343984244D903F1377303
:1007A80003F5D843984240D9494B98423FD9494B21
:1007B800984298BF0724002607254FF003086700D2
:1007C800FFB27A1E334652B229463E48CDE9025559
:1007D800CDE9006802F0F8F931463A4802F0E9F943
:1007E800621E334652B229463648CDE90255CDE954
:1007F800006802F012FA8021324802F002FA234619
:100808003A4601212F4803F061FE0AB0BDE8F081A5
:1008180002230993A6E7062309930823A2E71023D6
:10082800A0E72C46C7E70424C5E70524C3E7062448
:10083800C1E7052D0DD101F093FA05A9024621481B
:1008480003F0A6FF1F4803F0B3FE1E4803F0CBFEDB
:10085800DBE7062D0DD101F083FA05A902461948F8
:1008680004F05EF8174804F095F8164804F0A4F868
:10087800CBE701F075FA002503240127022602467A
:1008880005A9104803F0A8FD2B4606222146CDE90C
:100898000247CDE900560B4802F096F9EB210948CA
:1008A80002F087F921462B462A46CDE90247CDE9D1
:1008B8000056044802F0B1F93821024802F0A1F9C3
:1008C800A3E700BF7C490420001004500129DE077B
:1008D80001EBC9130184D71710B5154B5C68C4F335
:1008E8000224A31E042B21D8DFE803F01D1B1503E7
:1008F8001900FFF7D1FE0122002011460BF0F8FC89
:100908000120FFF70CFF022001F036FA2046BDE86F
:100918001040FFF709BF0220FFF74CFEEBE7042069
:10092800FAE70120F8E7FFF7F8FDE4E710BD00BF9C
:1009380000B00050154B70B503F14406B0F1905F5C
:1009480038BF1E4633690C46834201D9012070BD69
:1009580072691A448242F9D3C01AC0F30B037BB9F7
:10096800C1F30B037BB94518291B0CB92046EEE7E8
:10097800304603F049FA0028E8D1A4F58054F3E79B
:100988004FF0FF30E3E76FF00100E0E7CC6E0420A2
:100998002DE9F843204B0F4603F14408B0F1905F6E
:1009A80038BF9846D8F810501646854202D900201C
:1009B800BDE8F883D8F814202A448242F7D3451BAF
:1009C80015F0FF0412D0C4F58074B44228BF344631
:1009D8000A4623462946404603F031F98442E6D1C7
:1009E80025442744341B1CB93046E1E73446FAE76E
:1009F800B4F5807FA14628BF4FF480793A464B462C
:100A08002946404603F01BF98145D0D14D444F4457
:100A1800A4EB0904E7E700BFCC6E04200B4610B531
:100A280014460146184609F037FF204610BD00005D
:100A38002DE9F04F00260F461546B046194BDFF852
:100A480068A01B68DFF864B01B690446834285B060
:100A580098BFC41A1DB9304605B0BDE8F08FDAF862
:100A68000010DBF80000A942B0FBF1FC894601F157
:100A7800FF3228BFA946B4FBF1F10CF1FF3CB4FBEF
:100A8800F0F0CDE90188CDF80090BB1922400CEABE
:100A9800010104F0EDFE4845DDD106442D1A044459
:100AA800D8E700BFB46C0420042C0420002C0420D8
:100AB8002DE9F84300F11E460D4614461746B04688
:100AC80002EB0109B7F5007FA9EB070118D2C4F3BF
:100AD800080797B124F4FF7020F001004FF400726A
:100AE8000C49304401F020F824F4FF7020F0010094
:100AF8003A460849284409F0CFFE2046BDE8F88365
:100B080040464FF4007201F00FF8A7F5007708F59A
:100B18000078D7E7B06A04202DE9F84300F11E46B3
:100B28000D4614461746B04602EB0109B7F5007F9B
:100B3800A9EB070118D2C4F3080797B124F4FF7092
:100B480020F001004FF400720C49304400F0D6FD4B
:100B580024F4FF7020F001003A460849284409F0BF
:100B68009BFE2046BDE8F88340464FF4007200F033
:100B7800C5FDA7F5007708F50078D7E7B06A042027
:100B88002DE9F04F1546DFF8E8900E46D9F80070C9
:100B98001A46DDE9093CE9188F42DDF82CE000D25D
:100BA800FEE73049002B096815DD02F01F041C44DC
:100BB800BFF34F8F9046DFF8BCA01444CAF85C829C
:100BC80008F12008A4EB080BBBF1000FF6DCBFF31B
:100BD8004F8FBFF36F8FD9F8004004F18009B9F146
:100BE800000F15DD204C646D04F01F08C844BFF3E6
:100BF8004F8FDFF880A0A044CAF85C422034A8EBED
:100C08000409B9F1000FF7DCBFF34F8FBFF36F8F03
:100C1800C4071BD5144C94F86B80B8F1000F15D09D
:100C2800646D04F5805804F01F0404F50864BFF3EC
:100C38004F8FDFF84090203C002CC9F85C8208F107
:100C48002008F8DCBFF34F8FBFF36F8F07FB065503
:100C5800CDE909CE01FB0051BDE8F04F034802F091
:100C6800CDBE00BF002C0420CC6E0420106F0420E1
:100C7800042C042000ED00E010B41C4B0146186859
:100C88008030002812DD1A4B5B6D03F01F0202440E
:100C9800BFF34F8F174C1A44C4F85C322033D01A74
:100CA8000028F9DCBFF34F8FBFF36F8FCB0718D540
:100CB8000F4B93F86B20A2B15B6D03F5805203F0E4
:100CC8001F0303F50863BFF34F8F0A48203B002B2F
:100CD800C0F85C2202F12002F8DCBFF34F8FBFF3AB
:100CE8006F8F05485DF8044B02F088BF042C042080
:100CF800CC6E042000ED00E0106F04202DE9F047D1
:100D08008CB001F021FF0121002004F09BF90121A2
:100D18000C2004F097F9012004F092F8974F9020E6
:100D280004F0F2FA002001F0FAF83B68944D013B18
:100D3800052B00F21381DFE813F0060006007800A7
:100D48007800EE0002018F4804F044F98E4C06202A
:100D580001F012F807AE0221042004F073F90FCC59
:100D68000FC654F8043B336003AE94E80F0086E8DE
:100D78000F000123854C84F83530002308933B6825
:100D8800012B4DD1FFF7C0FA00F0EAFF334600907F
:100D98007F4A7E4807A903F009F93E68012E0DD164
:100DA800206B7C4BC31A58425841FFF7CEFA3146A4
:100DB800764802F034FB022384F82030764B774AD9
:100DC8002B60774B1A60774B774A1A60774BA26B88
:100DD8001A60774B1C600524DFF8D881734EDFF862
:100DE80008922B6842F61042724930689847D8F842
:100DF80000304B4540F0B6803B68042B40F08580BE
:100E0800D8F8A4305A1E03327FD86B4A6949136058
:100E180042F610422B6830680CB0BDE8F04718471E
:100E2800FFF7C2FA02230893AEE7564804F0D2F857
:100E3800624C062000F0A6FF07AE0221062004F04F
:100E480001F90FCC0FC654F8043BD7F80080336083
:100E580003AE94E80F00B8F1030986E80F0018BF45
:100E68004FF00109FFF7E3FA0223B8F1030F474CEB
:100E780008934DD0524B2B60099B03F1A043099373
:100E880001230B934F4B23664FF0010A002001F01A
:100E980046F884F879A084F8789000F067FF334624
:100EA8000090494A494807A903F080F8474E18BB03
:100EB800B8F1030F20D0304602F094FDDFF8F89027
:100EC800DFF82881C9F80000304602F08BFE514651
:100ED800C8F80000304684F86AA002F060FCD9F82F
:100EE800000004F0ADFFD8F8000004F0AFFF384967
:100EF800D4F8800004F046FE2C4BE26F1A602C4BAD
:100F08001E602B68002B7FF466AF0CB0BDE8F0873D
:100F1800214B2B60B8E71B4804F05CF8FFF7AEFAEA
:100F280000F0D6FC012801D0FFF7BEF9294B2A4A68
:100F38002B601E4B1A6000221D4B1A604BE71148AC
:100F480004F048F8FFF79AFA00F0B2FA234B186059
:100F580010B1C0B2FFF7A8F9214BE8E75320FFF71B
:100F6800A3F9CEE71F4800F0DAFF013C7FF439AF60
:100F780043200CB0BDE8F047FFF796B9D09E042097
:100F8800C06C042000882A1170A90220CC6E0420AD
:100F9800C46C042085601700250A022099090220E4
:100FA800BC6C0420B86C04203D090220B06C0420FD
:100FB800B46C0420C0720420042C042094A90220DC
:100FC800390A0220305A04202C6D0420106F0420A6
:100FD800B0490420B90A022000100062AC4904207C
:100FE800210B022040420F0046434553002C0420A9
:100FF800032808B50CD800022022074900F47F40D6
:1010080001F066FC00280CBF6FF00100002008BD4D
:101018004FF0FF30FBE700BF4072042013B50138E2
:101028000C4603281ED8DFE800F0020C0910102235
:10103800002002B0BDE8104001F04ABC0822802020
:10104800F7E720224FF44070F3E70422C0200DEBAD
:10105800020101F03DFC042804D10120019B23700A
:1010680002B010BD0020FBE738B505460F4C102232
:10107800E3680F4943F00103E3600120FFF7CEFF67
:10108800202200210B4809F0EDFB02232021084A09
:10109800002000F0BDFF202329460020054A00F06B
:1010A800FBFFE36823F00103E36038BD00B00050A4
:1010B800707204202072042038B504460D461022B0
:1010C80008490120FFF7AAFF02232021054A002032
:1010D80000F09EFF20232A462146002000F0DCFF76
:1010E800002038BD7072042038B50A4D0446082225
:1010F80029460320FFF792FF0023C5E902330F2397
:1011080024092CB1EC54013B0B2B4FEA1424F8D1E1
:10111800004838BD607204202DE9F04780468946B2
:10112800924600214FF4007214481E46089F00247E
:1011380009F098FBA64202D82046BDE8F087351B87
:10114800B5F5007F28BF4FF4007509EB04012A4666
:101158000A4809F0A1FBE019FFF7C6FF0123024680
:101168002021404600F054FF0AEB04022B460020E1
:10117800024900F091FF2C44DCE700BF20700420F6
:10118800054B82B09B6B0193019B13B1019B02B08D
:10119800184702B0704700BF00000C50094B0246C8
:1011A8001B6863B193F8230048B91969914207D8BD
:1011B8005B691944914294BF0020012070470020C8
:1011C800704700BFB46C04202DE9F04F5E4F841EB9
:1011D80007EB001307EB4020D3F80480DD68B0F874
:1011E800063C85B0DB0740F195804FF4937107F515
:1011F800827000F04EFD10B1012000F097FD072C21
:1012080000F393800320FFF7F3FE624202F003022B
:1012180004F0030358BF5342022B00F2868028468D
:10122800FFF7BCFF41F2080382464FEA4429DFF882
:101238002CC107EB09061E440FCEACE80F0096E858
:101248000F008CE80F00BAF1000F4BD004F108062C
:10125800ACF110007602FFF707FFBA59DFF8F0A0EB
:101268002A440020DAF800B00392FFF73DFF294630
:101278000346039A584602F040FA2946DAF8000075
:10128800BA59A8EB050302F027FA0121DAF80000A1
:1012980002F04BFA04F1080309F581505B020830AB
:1012A8002A46FB582949384400F00BFD10B10220AA
:1012B80000F03CFDD5F800D0D5F804F02846FFF73B
:1012C8006DFF002834D022480834640229463A5970
:1012D8000068A8EB050302F0FFF9D5F800D0D5F8AF
:1012E80004F022E0ACF1100020221A49FFF7E4FED6
:1012F80004F10806184B76022946BA5940461B687D
:101308009847CDF800A02A462946BB591148FFF74F
:1013180003FFBFE7072C08DC624202F0030204F077
:10132800030358BF5342022BC8D905B0BDE8F08F5C
:10133800A845D2D0084B08346402294640461B68A9
:101348003A599847C9E700BFC0720420C473042003
:10135800B46C042080720420C06C0420A0720420A5
:10136800F0B5214B214C1B6885B0A3423AD100232C
:101378001F4F08226946CDE90233009301931D48A7
:101388003B6802AE98473B68082231461A4898479E
:10139800009BA34206D1029BA34204BFD6E90001E9
:1013A800CDE90001052001F09FFB0228134B06D070
:1013B800009AA24206D19DF805207F2A02D1104A40
:1013C800C3F8082CD3F8083C5A1C0BD00D4A1468F3
:1013D8001C1BA4F58054640A0234FFF77DFA2046EA
:1013E800FFF7F2FE05B0F0BDC07204204643455336
:1013F800C06C04200000786200005262C092042091
:1014080000100062B06C042008B50E4B5B68DBB2BC
:10141800062B0AD80C4A936A23F07F0343F006038D
:101428009362536843F080035360002000F077FD17
:10143800064B074A00205A60FFF7DAFDBDE808406E
:10144800FFF79EBE00B0005000A00C5000C0005036
:101458008FD00200144C08B5002000F060FD6368CE
:10146800124DDBB2062B0FD9FFF756F8FEF744FFF3
:10147800FFF734F82860E36823F00103E360FFF71F
:101488003DFCFFF76DFFFEE7FFF728F82860FFF740
:1014980043F8FEF731FFE36823F00103E360FFF749
:1014A8002DFCFFF75DFFEEE700B00050D09E042052
:1014B80070B58CB000F068F98D4C8E4B0025236315
:1014C800236B4FF4FA7043F0020323634FF0007369
:1014D800E562236200F023FD2946284600F086F9DC
:1014E8000123E365E36D9D07FCD5E36B43F020031F
:1014F800E3638149012007AD00F078F906AB05AA3E
:1015080004A90DF10F00009500F0AEF9142000F0C9
:1015180006FD049B002BECDA142000F000FD0021EE
:10152800022000F063F9012800F0818002287ED0B3
:1015380008AB0AAA0BA900930DF10F0009AB00F044
:1015480093F9142000F0EBFC4FF48031032000F0F5
:101558004DF9012800F0AB80022800F0AA8006AB04
:10156800009505AA04A90DF10F0000F07DF99DF87A
:101578000F30032B40F09F805D4C1420E36B23F069
:101588002003E36300F0CBFC4FF48031092000F026
:101598002DF9012800F09180022800F0908005AA1A
:1015A80004A906AB0DF10F00009500F05DF94FF4AA
:1015B800B8532363236B142043F0020323634FF0D3
:1015C800007323620223E36300F0A9FC4FF4803127
:1015D800072000F00BF9012873D0022873D006AB5E
:1015E800009505AA04A90DF10F0000F03DF99DF83A
:1015F8000F30072B69D14FF0FF3301210020236002
:1016080000F042F90021082000F0F0F801285ED02F
:1016180002285ED006AB009505AA04A90DF10F00BB
:1016280000F022F99DF80F30082B02D00D200CB0E5
:1016380070BD2023E36200F037F923681806F5D45B
:101648002368590647D48026013ED4F80032FBD1DE
:101658000121304600F018F9142000F060FC4FF02A
:10166800FF3331461120236000F0C0F8012834D040
:10167800022834D006AB009505AA04A90DF10F0085
:1016880000F0F2F89DF80F30112B2AD12023E362E5
:1016980000F00AF923681A0625D423685B0624D4C7
:1016A8008020134B0138D3F80022FBD1BFE7032079
:1016B800BDE70420BBE70520B9E70620B7E7072008
:1016C800B5E70820B3E70920B1E70A20AFE70B2008
:1016D800ADE70C20ABE70E20A9E71120A7E7122001
:1016E800A5E71320A3E71420A1E715209FE700BF73
:1016F8000050045000670100800000402DE9F041CF
:1017080007464FF0FF3888B000200D461D4E0121D6
:10171800144600F0B9F8142000F001FC1120C6F8B6
:101728000080790A00F062F84044C0B2012803D86A
:10173800002008B0BDE8F08107AB009305AA06AB0E
:1017480004A90DF10F0000F08FF89DF80F30112B50
:10175800EED12023C6F80080F36200F0A5F83368C4
:101768001A06E5D433685B06E2D424F003032B445D
:101778009D4201D12046DCE7D6F8002245F8042B2B
:10178800F6E700BF0050045010B54FF0A044E368DE
:10179800642023F01003E36000F0C1FBE368074A0C
:1017A80043F01003E360136943F0020313614FF43D
:1017B8008072034B1A630022DA6310BD00B0005038
:1017C80000500450084B1A6812F00A0FFBD002228E
:1017D8001A601A6812075FBF1868C0F380004000DB
:1017E800C0B248BF01207047005004500E4B0F286C
:1017F80099604FEA804313D8012248F211018240D0
:101808000A4205D140F204610A4209D043F4403348
:10181800054A43F4807343F001035360FFF7D2BFD6
:1018280043F48033F4E700BF00500450F8B5054690
:101838000F4637201104FFF7D9FF044668B9084B53
:10184800084E43EA8543B7607360FFF7BBFF022881
:1018580004D1292D02D1042333602046F8BD00BFEE
:10186800010101000050045030B5064CE5680570D0
:101878002069086061691160A2691A60E269039BC6
:101888001A6030BD005004504FF0FF33044A03EB98
:1018980041239362034B43EAC0235362704700BF5E
:1018A800005004500103FF01084B1A6812F0E00FC2
:1018B800FBD020221A601A6812065FBF1868C0F3AE
:1018C80080104000C0B248BF01207047005004504B
:1018D800F0B58DB0FFF758FF8F4C904B0025236370
:1018E800236B4FF4FA7043F0020323634FF4801321
:1018F800E562236200F013FB29462846FFF776FFCE
:101908000123E365E36D9A07FCD5142000F007FB7B
:101918004FF4D5710820FFF769FF0138C0B20128DC
:1019280002D838200DB0F0BD07AC06AB009405AA6C
:1019380004A90DF10F00FFF797FF9DF80F30082B52
:10194800EFD1049BB3F5D57FEBD1142000F0E7FA73
:10195800002229207249FFF769FF012800F0D08092
:1019680006AB009405AA04A90DF10F00FFF77CFF50
:10197800049B002B03DB022000F0D1FAE5E71420DA
:1019880000F0CDFA00210220FFF730FF0138C0B285
:10199800012840F2B78008AB0AAA0BA900930DF101
:1019A8000F0009ABFFF760FF142000F0B8FA002120
:1019B8000320FFF71BFF0138C0B2012801D83320EC
:1019C800B0E706AB009405AA04A90DF10F00FFF7D4
:1019D8004BFF9DF80F30032BF1D1049E1420350CDA
:1019E8002D0400F09CFA29460920FFF7FFFE013874
:1019F800C0B2012840F28880009406AB05AA04A969
:101A08000DF10F00FFF730FFDDE90420069C079970
:101A1800230E43EA0123010E41EA04210591110E28
:101A2800049341EA002112029B0F069107921ED0EF
:101A3800012B6BD100233B4A374C13704FF4A06342
:101A48002363236B022743F0020323634FF00073E1
:101A580014202362E76300F062FA29460720FFF7A3
:101A6800C5FE0138C0B2012803D837205AE7012340
:101A7800E1E707AD06AB009505AA04A90DF10F0033
:101A8800FFF7F2FE9DF80F30072BEED1142000F07F
:101A980046FA39460620320CFFF7C8FE0138C0B2B4
:101AA800012835D901210846FFF7EEFE142000F081
:101AB80036FA00211120FFF799FE0138C0B201283B
:101AC80001D852202EE706AB009505AA04A90DF10E
:101AD8000F00FFF7C9FE9DF80F30112BF1D14FF021
:101AE800FF3323602023E362FFF7DEFE23681B0633
:101AF80010D4236813F0400F14BF4420012011E7CD
:101B080034200FE732200DE739200BE7542009E78E
:101B1800362007E74F2005E7005004500067010012
:101B28000080FF40082C042070B50D46012188B0C4
:101B3800064608461446FFF7A7FE142000F0EFF902
:101B48001A4B1B7803B9760A31461120FFF74EFE6F
:101B58000138C0B2012802D8002008B070BD07AB18
:101B6800009305AA06AB04A90DF10F00FFF77CFE50
:101B78009DF80F30112BEFD14FF0FF330C4E33602F
:101B88002023F362FFF790FE33681A06E4D4336823
:101B98005B06E1D424F003032B449D4201D1204687
:101BA800DBE7D6F8002245F8042BF6E7082C0420DA
:101BB800005004502DE9F0470C46154699468046DA
:101BC80000283FD000293DD0002A3BD0032B39D82C
:101BD80000F0B8FA00224946104600F0BBFAB4F506
:101BE800807F29D90026374606F58076A64234BF7D
:101BF8004FF0000A4FF0010A4FB100F0A3FAA642D5
:101C08002CBF3A4600224946284600F0A3FAA642CD
:101C180034BF4FF48071E11B524608EB070000F017
:101C280073FA284600F0C4FAA642DCD3284600F02E
:101C3800BFFA0020BDE8F08701222146404600F0A7
:101C480063FAF3E74FF0FF30F4E7F0B5054689B0E3
:101C58000F4614460021202268461E4608F002FE60
:101C68001DB94FF0FF3009B0F0BD002CF9D00223A8
:101C78006A4639462846FFF79DFF0028F1D13246CB
:101C88002146684608F0DEFD003818BF01204042B2
:101C9800E9E7002337B504460D46082269460320C4
:101CA800CDE90033FFF7BAF90828034606D16A469A
:101CB80029462046FFF7C9FF03B030BD4FF0FF307B
:101CC800FAE7F0B51F4616468DB0202204460D46A9
:101CD80004A8002108F0C6FD02233946304604AAAC
:101CE800FFF768FF18B14FF0FF300DB0F0BD02A844
:101CF80007F02CFB29464FF4937202A807F032FC38
:101D080001460028EFD10622039807F0D2FC4FF4D1
:101D180080730621CDE9004304AA202302A807F016
:101D280049FB003818BF01204042DEE7012808B50A
:101D380004D0022809D01322054901E017220549D9
:101D48000548FEF7A5FAFEE708BD19220349F7E79B
:101D5800EAA90220B8A9022000400850D0A9022010
:101D6800014B1888704700BF0C2C0420014B1888C1
:101D7800704700BF0A2C0420014B1880704700BF31
:101D88000C2C0420014B1880704700BF0A2C04203B
:101D98007047704708B5104A104B9A60D3F88820EE
:101DA80042F03F02C3F88820D3F8882042F470023A
:101DB800C3F88820FFF728FBFEF7A4FA084B1B6836
:101DC800DB0701D4FFF7E4FFFEF79DFAFFF7E1FF19
:101DD800044B054A1A6008BD0000022000ED00E02F
:101DE80000B00050102C042040787D01DFF848D066
:101DF800124880F30A88FFF7CDFF114C114DAC4211
:101E080009DA21686268A368043BA2BFC858D050A9
:101E1800FAE70C34F3E70C4B0C4CA34208DA1968C8
:101E28005A680020043AA4BF8850FBE70833F4E757
:101E3800FFF710FBFEE7FEE7002004200000042067
:101E480008C4022014C4022014C402201CC40220A6
:101E580000207047014B1868704700BFD89E0420C7
:101E680013B50190019B1A4C33B1236823B1019B30
:101E7800B3F1807F0CD9FEE7002003F0C7F8154BBB
:101E8800B0FBF3F0019B2060002BF0D102B010BD35
:101E9800019B002BFAD0104A136813F001030DD1EF
:101EA8000E48D0F8FC1041F08071C0F8FC10536067
:101EB800136843F4003343F001031360019B226865
:101EC8000549534348684A68121A9A42FBD3DDE72A
:101ED800D49E042040420F00001000E000ED00E016
:101EE80037B501904FF0E0204FF47A724469019BB6
:101EF8006343B3FBF2F301930023816982698A4249
:101F0800FCD025BFA51A5B195B185B18019938BF6F
:101F18009B1A994201D803B030BD1146EEE703463B
:101F280070B5B8B142F210754FF0E026AB4284BFED
:101F3800A3F51C5442F21073326998BF0024184666
:101F480088BF103CD30708D4FFF78AFF2346002C2C
:101F5800ECD101E0FFF784FF70BDFFF7C1FFF5E7A3
:101F68007047704708B5054B1B6A5B0002D5FFF741
:101F7800F8FF08BDFFF7F4FFFBE700BF00B0005013
:101F880010B501F17044B4F1805F0E4C38BF01F117
:101F9800A041616102F17041B1F1805F03F10F036B
:101FA8004FEA231338BF02F1A042A261E36123691B
:101FB80008B143EAC013034A2361136843F00103DD
:101FC800136010BD00D0005000F1704310B5B3F19C
:101FD800805F094C38BF00F1A0406065A1651AB167
:101FE800236D43F008032365216D044800F079FD53
:101FF8000423236010BD00BF00D00050FEA90220BA
:1020080002220020014B1A601860704700D000506F
:10201800F8B51F461E4B04465B681646DB0701D51C
:10202800FFF7EEFFB4FA84F018294FEA50104FEA90
:1020380040151CD020291CD0102925D1002364B1BB
:102048002046144A21F003012144121B141850F8A9
:1020580004CB8142C4F800C0F8D147EA050040EA41
:10206800C3000B4B186107B12EB90020F8BD01233E
:10207800E5E70223E3E732681A6272685A62B268D7
:102088009A62F268DA62F0E74FF0FF30EEE700BFDD
:1020980000D0005030D00050F8B50827174E14462D
:1020A8001D46C6F88870BFF34F8FBFF36F8F0027A8
:1020B800134EF760FFF764FF7368DB07FCD4B06862
:1020C80000F00600003818BF0120B4F1C04F13D348
:1020D800002D11DD04F01F032B44BFF34F8F224660
:1020E800084C1344C4F85C222032991A0029F9DC00
:1020F800BFF34F8FBFF36F8FF8BD00BF00E100E063
:1021080000D0005000ED00E010B508240B4BC3F8D8
:102118008840BFF34F8FBFF36F8FFFF755FF084B12
:102128005A685207FCD49A6802F038029A60986894
:1021380000F03000003818BF012010BD00E100E0B9
:1021480000D0005008220020014B1A601860704728
:1021580000D00050930670B506460C4615461CD1B3
:1021680003291AD8FFF7EEFF3EB10D4B0D485A5C14
:10217800314608F091FB44F020040B4B44F08001F9
:1021880019651DB1C3F89C5044F4C07107482A462C
:10219800196500F0A6FC002070BD4FF0FF30FBE78A
:1021A80094B802205CD0005000D0005011AA022040
:1021B80010B5084C084A236D04F17C0103F00703AD
:1021C800D25C08F069FBD4F8A4100448BDE81040BC
:1021D80000F087BC00D0005094B8022045AA022025
:1021E8000F2A30B500D9FEE70F2900D9FEE7154BB5
:1021F800DC68C4F30224C4F10703E51C032B28BFE1
:102208000323062D4FF0FF3594BF0024043C05FA44
:1022180003F321EA0303A54022EA0502A3400028AC
:1022280043EA0203ACBF00F16040074A4FEA431398
:10223800DBB2ABBF00F5614000F00F0080F800335F
:10224800135430BD00ED00E014ED00E0002800DA82
:10225800FEE701234109034A00F01F00834042F8CA
:102268002130704700E100E0002800DAFEE7012293
:102278000649430900F01F008240203341F823201B
:10228800BFF34F8FBFF36F8F704700BF00E100E0CF
:10229800022330B5426A80F82D3003681A61D0E90C
:1022A8000234234304690168234344690A682343C9
:1022B80084696FF30E122343C4692343046A2343DA
:1022C80013430B608368B3F5804F18D0C16C826CE0
:1022D800C1F38703C9061BD43F2403F00703D2F8D0
:1022E800A810DB009C4021EA0401C2F8A810816C08
:1022F8004268D1F8A8409A402243C1F8A8208269D0
:10230800B2F5806F18D0B2F5006F1FD0AAB1FEE702
:102318003F2403F00303D2F8AC10DB009C4021EA11
:102328000401C2F8AC10816C4268D1F8AC409A4004
:102338002243C1F8AC20E2E701224369B3F5807F6C
:1023480006D0B3F5007F2BD01BB1FEE70222F4E7DD
:1023580001230169A1F1800461426141C468A4F1CB
:1023680040056C426C418568102D1FBF80F86510D0
:10237800194613460A4680F8673080F866204FF001
:1023880000034FF00102436406BF80F8654080F8FF
:10239800641080F8644080F82D2080F82C3030BD1F
:1023A8000223D6E7F8B52C4B02681344A02B04D9B6
:1023B8002A4B1344A02B0FD9FEE73226DFF8A8C01A
:1023C800274BEFF31087012282F31088C56C1F2D6D
:1023D8004FEA950405D9FEE70226DFF890C0214BA5
:1023E800EFE703EBC40595F804E0BEF1000F2ED02B
:1023F80053F83420824203D187F310880220F8BDB5
:1024080000221C791D46E4B901232B71142303FB18
:1024180002C31644920074B20360C26487F3108842
:1024280021B12B68834201D0FFF732FF00222860D8
:1024380011462046FFF7D4FE2046FFF707FF00208D
:10244800DDE70132082A03F10803DAD1D4E734447E
:102458002A7164B2E2E700BFF8EFF7AFF8EFFFBF09
:102468001C9F0420DC9E042008100850081000401F
:1024780038B5134A836C934203D0124A934208D06A
:10248800FEE73221104AC46C1F2C4FEA940303D98B
:10249800FEE702210D4AF6E7EFF31084012585F3E4
:1024A800108802EBC30552F83320904205D1581822
:1024B80040B2FFF7D9FE00232B7184F3108838BD92
:1024C80000100850001000401C9F0420DC9E0420CF
:1024D80038B50446002853D0836833F0100203D07F
:1024E800B3F5804F00D0FEE7E36833F0400300D037
:1024F800FEE7236933F0800300D0FEE7636933F415
:10250800807203D0B3F5007F00D0FEE7A36933F4EF
:10251800806203D0B3F5006F00D0FEE7E36933F0C3
:10252800200300D0FEE7236A33F4405300D0FEE7CF
:1025380063683F2B00D9FEE72268134B13448C2BAA
:1025480013D81422B3FBF2F39B00E3640F4BA3648C
:1025580000212046FFF726FF054698B92046FFF7D9
:1025680097FEFFF785FF284638BD094B13448C2B8F
:10257800EED81422B3FBF2F39B00E364054BE6E7C5
:102588000125F0E70225EEE7F8EFF7AF0010085055
:10259800F8EFFFBF0010004010B50446002851D0E6
:1025A8000268136823F0010313600268264B134482
:1025B8008C2B2FD81421B3FBF1F39B00C364234B5E
:1025C800A36400231360D4E9121303F01C0201234F
:1025D80093404B60E36CA16C0F2B4FEA930224D815
:1025E8003F205B00D1F8A82003F0380300FA03F37A
:1025F80022EA0303C1F8A8302046FFF739FF00207C
:10260800C4E90D00C4E90F00606484F82C0084F864
:102618002D0010BD0E4B13448C2BD2D81421B3FBC4
:10262800F1F39B00C3640B4BCAE702F003033F229C
:10263800D1F8AC00DB0002FA03F320EA0303C1F887
:10264800AC30D9E70120E4E7F8EFF7AF0010085005
:10265800F8EFFFBF001000402DE9F84F90F82D303B
:102668001746022B04468846DAB205D00423436491
:10267800002384F82C3006E003681B68990605D50A
:102688004FF4807343640120BDE8F88FC56C05F0F2
:102698001C05B8F1000F23D102FA05F5FFF7DAFBA4
:1026A8004FF0080A8146D4E9126303F01C030AFAC2
:1026B80003F1326812EA050B16D0B8F1000F36D1D3
:1026C800022202FA03F37360236D2BB92046FFF749
:1026D800CFFE012384F82D30002084F82C00D3E7A6
:1026E800042303FA05F5D9E7326811420CD0012515
:1026F80005FA03F3736020466564FFF7B9FE84F8B2
:102708002D5084F82CB0BEE77A1CD2D0FFF7A2FB7C
:10271800A0EB0900B84201D8002FC4D120232046DD
:102728006364FFF7A5FE012384F82D30A0E7042297
:1027380002FA03F37360CFE730B5154B846C9C4203
:102748001BD18368102B02D0B3F5804F08D10B68DA
:10275800104C03F16045A54298BF03F120630B605C
:10276800836833F4804308D113680A4803F160444E
:10277800844298BF03F1206313600B6803F1704231
:10278800B2F1805F3CBF03F1A0430B6030BD00BFD6
:1027980000100040FEFF07002DE9F3414FF6FF75DA
:1027A800036D02689D4228BF1D465B1B0365856556
:1027B800136890F8667023F0010390F8678013603F
:1027C800D0E917230E46CDE90023D0E9122303F000
:1027D8001C01012304468B405360036869465D6011
:1027E80001AAFFF7A9FFDDE90003A1682268102903
:1027F8000BBF93609060236822680CBFD860D360D9
:1028080094F8643023B1E36D05FA07F73B44E365B8
:1028180094F8653023B1236E05FA08F52B44236636
:1028280036B1A26B23685AB11A6842F00E021A60D8
:102838002268136843F00103136002B0BDE8F08119
:102848001A6822F004021A602268136843F00A0327
:102858001360EDE7F8B51D46C3690446202B0F4603
:10286800164605D14FF6FE736A1E9A4200D9FEE756
:1028780094F82C30012B0ED0012384F82C3094F8D6
:102888002D30012BD9B203D12046FFF78BFD20B1A3
:10289800002384F82C300220F8BD0223C4E9145523
:1028A800C4E9177684F82D306064206D0028F3D0D1
:1028B80000212046FFF770FF236D002BF5D04FF461
:1028C8007A7200212046FFF7C7FE0028EDD0E3E723
:1028D800202A2DE9F84306460C46154630DCC0F39D
:1028E800C40808EB0203202B2ADC970728D110F034
:1028F8001F0925D1254A1420D2F89470360AFB1CEA
:102908000E2B38BF0E230F2B28BF0F23C2F894308D
:10291800FFF705FB1E4AB300136013681D4943F017
:10292800010313604B4669439068C0070CD5906853
:102938008B4240F0010090600AD3144BC3F89470A6
:1029480000252846BDE8F8838B42F0D20133EBE737
:10295800114A08F01C0000EB461025F00301024460
:1029680021448C4203D1094BC3F89470E9E752F82B
:10297800043B0434180A04F8043C04F8030C180C4B
:102988001B0E04F8020C04F8013CEAE700A00C5006
:1029980000C0005000DC050030C0005030B50125F3
:1029A800046865600468E36001F17043B3F1805F17
:1029B800036838BF01F1A041196102F17043B3F116
:1029C800805F036838BF02F1A0425A61037B03B1FC
:1029D800FEE730BD10B5C0B102230D4A4376026050
:1029E800D0E9013194680B430A4921400B4343F471
:1029F80020639360037B03B1FEE702681362012240
:102A0800C36203764276184610BD0120FCE700BF7A
:102A18000010005020F0F0FFB3F5801FF8B504D384
:102A28004FF40073C3620120F8BD057E012D18D054
:102A380001250576457E012D4FF0000510D10226AF
:102A480007684676C562BE6826F00106BE60FFF7D5
:102A5800A5FF02682846936843F001039360E3E703
:102A680005760220E0E72DE9F041437E0446022B7B
:102A78000E46154606D00423C362012000232376A0
:102A8800BDE8F081002914BF4FF004084FF0020898
:102A9800FFF7E0F9074623681A6812EA080F06D01C
:102AA800E6B902225A60012363760020E6E71A6835
:102AB80012F0180F04D001225A60E2626276DCE755
:102AC8006A1CE9D0FFF7C6F9C01BA84201D8002D3F
:102AD800E1D12023E36201236376CEE704225A6022
:102AE800E3E70FB404B07047014B53F82000704778
:102AF80030B00C50022810B520D1114CE620E36A02
:102B080043F00103E362FFF70AFAE36A9A06FCD589
:102B18001E20FFF704FAE36A9B06FCD5EFF3108149
:102B2800012383F31088074A1378132B00D9FEE793
:102B38000133137081F31088002010BD0120FCE7D9
:102B480000000C505C9F0420044B1A6942F00202FA
:102B58001A611A69002AFCDA704700BF00000C509D
:102B6800024A136923F002031361704700000C50F6
:102B780010B5E0B1D9B100230122436080F82220CA
:102B88000C6804604A6880F820208A680261CA6874
:102B980012054261FF22C4F884204FF050240168D6
:102BA8008C6701680A62016818464A6410BD0120F2
:102BB800FCE738B102680020136C23F0FF031943C7
:102BC800116470470120704770B5C8B105689DF958
:102BD80018609DF91C00AC6C40EAC60040EAC323AB
:102BE8009DF910006FF3140443EA00239DF91400C3
:102BF80043EA801343EA423242EA81412143A9640D
:102C080070BD40B102680020136C23F47F4343EA8F
:102C18000121116470470120704770B5C8B105687B
:102C28009DF918609DF91C002C6D40EAC60040EA29
:102C3800C3239DF910006FF3140443EA00239DF9A0
:102C4800140043EA801343EA423242EA81412143B5
:102C5800296570BD18B103680020596070470120CC
:102C6800704730B103680139C1F31301002059627C
:102C780070470120704730B103680139C1F313016F
:102C88000020996370470120704708B103681962F2
:102C9800704718B10368186900F00100704720B147
:102CA8000268536943F001035361704738B50D4614
:102CB8000446A8B10368DA61C36A0BB101209847DA
:102CC80023689D612046FFF7E4FF0028FAD02046DC
:102CD800FFF7E5FFE36A0BB100209847002038BDF5
:102CE8000120FCE718B10268536919435161704724
:102CF80018B103681869C0F3C000704728B10368A9
:102D08005868C04300F0010070470120704708B1BF
:102D180003685868704720B10268536D61F38E23C9
:102D28005365704708B10368D960704710B10368EC
:102D3800D868C0B2704770B5E8B105689DF91C60E5
:102D48009DF92000AC6A40EAC6009DF910606FF357
:102D5800150440EAC6209DF9146040EA06209DF952
:102D6800186040EA861040EA433343EA824242EA66
:102D780041512143A96270BD70B5E8B105689DF95C
:102D88001C609DF92000EC6B40EAC6009DF91060BC
:102D98006FF3150440EAC6209DF9146040EA062046
:102DA8009DF9186040EA861040EA433343EA8242BC
:102DB80042EA41512143E96370BD000010B558B1A2
:102DC800064B046802F2FF320A441940E1661A40D1
:102DD800036800201A6710BD0120FCE700FCFFFF14
:102DE80028B103686FF30901002059677047012073
:102DF8007047000010B550B1064B04681940E165F2
:102E08000168002002F2FF321A400A6610BD012054
:102E1800FCE700BF00FCFFFF50B149B10B68026836
:102E28001BBA53664B6802681BBA0020936670474A
:102E38000120704758B1036801291A6804D142F08B
:102E4800800200201A60704722F08002F9E7012012
:102E5800704750B103681A6821B142F0400200205F
:102E68001A60704722F04002F9E70120704750B11C
:102E780003681A6821B142F0010200201A60704705
:102E880022F00102F9E70120704750B103681A687F
:102E980021B142F4001200201A60704722F4001297
:102EA800F9E70120704750B103689A6821B142F0F0
:102EB800100200209A60704722F01002F9E7012002
:102EC800704750B103681A6821B142F4803200207B
:102ED8001A60704722F48032F9E70120704750B138
:102EE80003681A6821B142F4802200201A607047F2
:102EF80022F48022F9E70120704730B580B10568D7
:102F0800BDF80C00AC68800640EA8353002043EA11
:102F180081416FF39E1441EA82122243AA6030BDB8
:102F28000120FCE730B102680020936861F30203D6
:102F3800936070470120704750B103689A6821B1C7
:102F480042F0200200209A60704722F02002F9E740
:102F58000120704750B103681A6821B142F08072AD
:102F680000201A60704722F08072F9E7012070474C
:102F780050B103689A6821B142F0004200209A607B
:102F8800704722F00042F9E70120704750B103680A
:102F98009A6821B142F0080200209A60704722F036
:102FA8000802F9E70120704740B102680020936DDC
:102FB80023F47F0343EA014191657047012070477C
:102FC80060B100685206836D42EA012123F0007364
:102FD80023F47F431943816500207047012070471F
:102FE80010B5F0B10468A06DB1B1022A84BF023AED
:102FF800D2B213026FF30F0003F4FE430343120629
:1030080054BF43F0806343F0A06343F00A0323F006
:1030180000730020A36510BD034B034043F0007309
:10302800F7E70120F7E700BF0000FFFA30B10268B8
:10303800936C23F4783343EA41319164704730B19B
:103048000268136D23F4783343EA41311165704700
:103058007FB5054600283DD0C46801B394F86A30AE
:10306800002B37D094F9726094F96E3094F96C1093
:1030780094F96D20039694F97160029694F9706042
:10308800019694F96F400094FFF79EFDEB6893F862
:103098006A102846FFF78DFD002004B070BD94F833
:1030A8004630BBB194F94E6094F94A3094F948100F
:1030B80094F94920039694F94D60029694F94C606E
:1030C800019694F94B400094FFF77EFDEB6893F866
:1030D8004610DEE70120E0E77FB50546002836D038
:1030E800C468E1B194F96E6194F96A3194F9681190
:1030F80094F96921039694F96D61029694F96C61CB
:10310800019694F96B410094FFF75EFDEB6893F824
:1031180066112846FFF74DFD002004B070BD94F9F4
:103128005C6194F9583194F9561194F95721039632
:1031380094F95B61029694F95A61019694F95941A0
:103148000094FFF741FDEB6893F85411E1E7012083
:10315800E3E730B5C46887B004B338291ED801EB5B
:10316800C1010C44237CCBB194F9185094F9133065
:1031780094F9122094F91110049594F917500395B5
:1031880094F91650029594F91550019594F9144044
:103198000094FFF7D0FD002007B030BD0120FBE709
:1031A800F0B5C4680646174687B054B3382928D8FE
:1031B80001EBC1052C44237C1BB394F918C094F986
:1031C800133094F9122094F91110CDF810C094F925
:1031D80017C0CDF80CC094F916C0CDF808C094F902
:1031E80015C0CDF804C094F914400094FFF7A3FD6E
:1031F800F3683A462B443046197CFFF757FD07B071
:10320800F0BD0120FBE72DE9F0419046C268044675
:1032180086B0002A72D0382970D801EBC107D619B8
:10322800317C00296AD0382B68D803EBC3052A44BF
:10323800137C002B62D096F918C096F9133096F9D2
:10324800122096F91110CDF810C096F917C0CDF8D4
:103258000CC096F916C0CDF808C096F915C0CDF87F
:1032680004C096F914600096FFF765FDE0682844ED
:1032780090F9186090F9133090F9122090F9111014
:10328800049690F91760039690F91660029690F9E3
:103298001560019690F9140000902046FFF76CFD28
:1032A800002223680121DA67E36822682B441B7C2B
:1032B8002046D36223680C9AC3F88020FFF701FEEA
:1032C8002046FFF70CFE2368C3F81C80E3682268D9
:1032D8003B441B7C93612046FFF70AFD0028FAD087
:1032E80009212046FFF7FEFC0021FFF7EAFD2046F2
:1032F800FFF7F5FD084606B0BDE8F0810120FAE7C2
:1033080070B50446E0B3C368D3B3C9B393F8935117
:103318000121B5B3FFF7A5FC002214212046FFF7D1
:103328003FFF2046FFF7F3FC10F0010500D0FEE751
:103338002A4615212046FFF733FF064620B12A46C4
:1033480029462046FFF72CFF02212046FFF782FC82
:1033580001212046FFF785FC00222B212046FFF79C
:103368001FFF6EB101212046FFF77BFC00220221DE
:103378002046FFF715FF2046FFF7C0FC0028F5D0D0
:1033880070BDFFF76EFC2A4602212046FFF708FFB2
:103398002046FFF7BCFC2A4614212046FFF700FF11
:1033A80010B92046FFF7B3FCE3681B7AABB30121E1
:1033B80003F00F051B0901FA03F3DBB20DB11D463B
:1033C800002300221521204643EA0525FFF7E8FEE1
:1033D800064620B1002220461146FFF7E1FE2946A5
:1033E8002046FFF737FC02212046FFF73AFC00226F
:1033F80003212046FFF7D4FE002EC1D0012120462C
:10340800FFF72FFC002202212046FFF7C9FE2046C5
:10341800FFF774FC0028F5D0B2E70225D1E738B5EC
:1034280004460D46FFF76CFF29462046BDE83840A4
:10343800FFF70EBE38B504460D46FFF761FF294673
:103448002046BDE83840FFF747BE10B5044640B1F6
:103458000268936A6FF3150343F4802343F0010372
:10346800936203212046FFF7FCFB00229F212046A0
:10347800FFF71CFC2046FFF74AFC20F07F4010BDF8
:1034880070B5044600283ED0C368012193F89351D3
:10349800002D3BD0FFF7E5FB002202212046FFF775
:1034A8007FFE88BB2046FFF732FCC0B2E368DD79B7
:1034B8000DB120EA0505002215212046FFF770FE10
:1034C800064620B1002220461146FFF769FE29462C
:1034D8002046FFF7BFFB01212046FFF7C2FB002271
:1034E80003212046FFF75CFE6EB101212046FFF75D
:1034F800B8FB002202212046FFF752FE2046FFF7C4
:10350800FDFB0028F5D070BD0020CFE7FFF7A9FB31
:103518002A4602212046FFF743FE00283ED12046D6
:10352800FFF7F5FBC6B2002214212046FFF738FE4C
:1035380018B92046FFF7EBFBC5B2E368D97909B1A2
:1035480026EA01010022204641EA05251521FFF758
:1035580027FE064620B1002220461146FFF720FE2E
:1035680029462046FFF776FB02212046FFF779FB24
:10357800002203212046FFF713FE002EC3D00121AD
:103588002046FFF76EFB002202212046FFF708FEC7
:103598002046FFF7B3FB0028F5D0B4E72E46C2E774
:1035A80060B1006850B1836D090623F0807301F0A3
:1035B800807123F0FF03114319438165704738B5C3
:1035C8000446D0B10368AB211D6815F0010502BFA0
:1035D8001A6842F001021A600268936A6FF31503D1
:1035E80043F0010393620022FFF760FB25B92268CC
:1035F800136823F00103136038BD0120FCE718B1FC
:10360800C068003818BF01207047002070472DE9B6
:10361800F047884699460446002845D08368002B21
:1036280042D0B9F1000F3FD001680F6832B31022C1
:103638009A60002382684E4653618268936182686B
:10364800D360802283681A6105680435A068FEF794
:10365800A3FF50BBA068FEF73BFF30BB236847F0D1
:1036680020071F60226809F1FF3353624146334641
:103678002A46A068BDE8F047FFF7ECB84FF40071A0
:103688009A60836809F1030659614FF40061836801
:10369800454699618368B608DA60802283681A61B2
:1036A800036803F10408D1E70120BDE8F08710B5ED
:1036B8000A46044670B1806860B1E16A11B14FF002
:1036C800FF320021FEF7C8FF2268136823F02003A9
:1036D800136010BD0120FCE738B51D46044658B1FB
:1036E80003698B4298BFC91AFFF768FB2946204631
:1036F800BDE83840FFF774BB38BD70B50C461546B9
:103708001946064680B17BB1FFF786FB3369304620
:10371800A34298BFE41AAB4298BFED1A2A46214645
:10372800BDE87040FFF766BB70BD10B5044648B1F0
:1037380001B10121FFF77EFB2046BDE810400121C1
:10374800FFF787BB10BD10B50B46044686B020B303
:1037580008294FF000014FF0010283BF0B46CDE965
:103768000212CDE90011CDE902118EBF1946CDE94B
:1037780000115BB20492FFF7DEFA03212046FFF73F
:1037880070FA00229F212046FFF790FA2046FFF7A3
:10379800BEFA20F07F4006B010BDFF20FBE738B529
:1037A8000D46044698B3C3688BB39A7992B39B7A53
:1037B80083B30121FFF755FAE36802219A7920467D
:1037C800FFF7EEFC2046FFF7A2FAE3689B7ADDB12B
:1037D80043EA00012046FFF73DFA01212046FFF7A2
:1037E80040FAE36803219A792046FFF7D9FCE36899
:1037F80084F8255002219A792046FFF7D1FC20460B
:10380800FFF785FA002038BD20EA0301E2E74FF010
:10381800FF30F8E76FF00100F5E710B5044620B374
:10382800C2681AB313791BB3D3790BB30121FFF71D
:1038380018FAE36802211A792046FFF7B1FC2046FE
:10384800FFF765FA94F824203F2A4FEA121304D8A8
:10385800012B08D800F0300007E0043B012BF9D811
:1038680000F0F00001E000F0700010BD1046FCE729
:103878001846FAE70346081172B1062B0CD8DFE8A0
:1038880003F0040D182E353F470028B101281368AE
:103898000AD143F0010313600020704720F00203AF
:1038A800012B03D0D0B11368034316E01368034318
:1038B800F1E70528F7D801A353F820F0A138022032
:1038C800B5380220DD380220B5380220AF38022092
:1038D800B5380220136843F00203136070470028CC
:1038E800DAD0431E052B1368E1D9DDE7C30700F0E2
:1038F800030102D40029CFD0D5E713680B43CAE7E8
:103908000028C9D01368082843EA0003E5DCC2E7A9
:103918000028C1D0431E012BE5E700BF10B590F881
:103928002530044683B1FFF778FF014660B122468F
:10393800636843F4004342F8043F94F82400BDE868
:1039480010400009FFF796BF002010BD38B50D469E
:10395800044648B3C3683BB39A790AB11B7A0BB9DA
:10396800002038BD0121FFF77CF9E36802219A792C
:103978002046FFF715FC2046FFF7C9F9E3681B7AD4
:103988007DB143EA00012046FFF764F90121204692
:10399800FFF767F9E368032120469A79FFF700FCEF
:1039A800DEE720EA0301EEE74FF0FF30D9E710B574
:1039B80004460121FFF755F902212046FFF74AF98D
:1039C800E36803215A792046FFF7EAFB00212046E5
:1039D800FFF740F9E368032120465A79FFF7E0FB37
:1039E800002010BD40B190F8243013F0010F14BF2F
:1039F8004FF480504FF40060704700002DE9F04FFD
:103A080091B00E4692461D4604461B9F28B1C368D6
:103A18001BB1C3690BB1802F05D901236360002056
:103A280011B0BDE8F08FFFF7DDFF00F1FF3909EABB
:103A3800010909EB05038342804601D90223EDE71A
:103A48000023636023694FF0000B8B4298BFCE1AA6
:103A5800B6FBF0F204212046FFF7A2FB1420FEF784
:103A6800FFF901212046FFF7FCF80520FEF7F8F9D9
:103A7800E36802211A792046FFF792FB2046FFF7F8
:103A880046F9C307F1D4BBF1000F02D14FF0010B87
:103A9800EBE72046FFF742FF18B140F400406060B2
:103AA800BDE794F82020E368002A40D193F8461037
:103AB8002046FFF77EF8E06890F94EC090F94A304A
:103AC80090F9492090F94810CDF80CC090F94DC0F4
:103AD800CDF808C090F94CC0CDF804C090F94B005F
:103AE80000902046FFF770F8B003D4F810B004D562
:103AF80094F827300BB14BF4805B4AEA050343EA9C
:103B0800090313F0030302D16A1EFE2A2AD82A46A3
:103B180050460BEB090106F0BFFE1A9B2BB13A4643
:103B280018460BEB080106F0B7FE781978E793F80A
:103B38006A102046FFF73DF8E06890F972C090F9E6
:103B48006E3090F96D2090F96C10CDF80CC090F99A
:103B580071C0CDF808C090F970C0CDF804C090F9D4
:103B68006F00BDE7BAF1000FD7D01C491C4A04A862
:103B7800CDE905128DF81C30FEF72CFF50B10F99D6
:103B88009DF8293040EA014141EA032141F0004112
:103B9800616044E70BEB09015246AB0804A8FEF745
:103BA8003BFF014680B94FF47A7204A8FEF75BFF29
:103BB8000028B2D00F999DF8293040EA014141EA26
:103BC800032141F06041E3E70F9A9DF8293040EA6C
:103BD800024141EA032141F04041D9E780000C004D
:103BE8004000030008B50246FFF7FCFE28B192F832
:103BF80024309B074CBFC001800108BD1FB5044697
:103C080010B9002004B010BDC369002BF9D0FFF72C
:103C1800E9FF0423019303AB0093002341431A46B1
:103C28002046FFF7EBFE40B19DF80C30FF2BE8D0A3
:103C38000398002808BF0120E4E70120E2E72DE906
:103C4800F04F99B004460E469146FFF7D8FC18B3DA
:103C5800002B00F0D780B3F5807F28BF4FF4807326
:103C6800A1681D46626994F8203000293BD0B2F162
:103C7800807F14D9022B14BF2727282739462046CE
:103C8800FFF767FA49462B4601222046FFF7BFFC9B
:103C9800014648B10025284619B0BDE8F08F022B2F
:103CA80014BF16271727E9E732462046FFF778FAA8
:103CB80001212046FEF7DFFF0123324600933946F3
:103CC80002232046FFF79FFA0028E3D14FF47A71C8
:103CD8002046FFF7ECFC0028DCD12268136823F0AB
:103CE80020031360D7E7B2F1807F40F28280022B75
:103CF80014BF272328232F464FF0000803934FF6BD
:103D0800FC7A402FD4BF0AEA070A0AF0400ABAF13F
:103D1800000F3FD0002220461146FFF741FA09EB79
:103D280008030DF1200C03F1400E6246186859682B
:103D3800083303C273459446F7D14FF0000B4FEA9E
:103D4800AA0208AB53F8041B204605920493FEF719
:103D580081FF059A0BF1010B9345049BF2D1514663
:103D68002046FEF77EFF2046039906EB0802FFF780
:103D780017FA01212046FEF774FF0022022120468F
:103D8800FFF70EFA2046FEF7B9FF0028F1D0A7EB9F
:103D98000A07D0447B1E022B30D82369464433439C
:103DA8001B683A4609EB080107A8079306F074FD5B
:103DB800002220461146FFF7F3F907992046FEF73F
:103DC80049FF04212046FEF74CFF3246204603995E
:103DD800FFF7E6F901212046FEF743FF0022022102
:103DE8002046FFF7DDF92046FEF788FF0028F1D0CE
:103DF80051E7022B14BF162317237CE7002F3FF748
:103E08007EAF48E7184647E773B504460D46FFF707
:103E1800F6FBE8B163690A46B3F1807F4FF0000111
:103E2800204694BF1B262926FFF7BAF90121204610
:103E3800FEF721FF01232A4600933146022320463C
:103E4800FFF7E1F9003818BF0120404202B070BD09
:103E58004FF0FF30FAE7000008B5E8B103680F4AF1
:103E680093420CD002F58052934215D1062001F0FE
:103E780021F8022805D1BDE8084001F050B8042017
:103E8800F5E7032803D1BDE8084001F04BB801204D
:103E9800BDE8084001F0AAB8002008BD0010045091
:103EA80038B5054608B9002038BDFEF73FFF04467F
:103EB8000028F8D02846FFF7CFFFB0FBF4F0F3E76F
:103EC80038B190F8233013B10021FFF73CBCFFF75D
:103ED800BCBAFF2070477FB504460A4651B3C5688F
:103EE80095F8FF31002B3BD090F82030C3B395F9FB
:103EF800076295F9022295F9033295F901120396A2
:103F080095F90662029695F90562019695F90452AB
:103F18000095FEF759FEE368204693F8FF11FEF777
:103F280048FE0121204694F82520FFF759F8002083
:103F380004B070BDFFF754F8636994F82010B3F12A
:103F4800807F06D919B92046FFF7C6F8EFE70121A7
:103F5800F9E719B92046FFF77BF8E8E70121F9E707
:103F68000120E5E710B50446F0B102681420D2F844
:103F7800943043F00043C2F89430FDF7D0FF236833
:103F8800D3F89420D205FBD5D3F89400D3F8942025
:103F9800C0B222F00042C3F8942094F8253023F0F0
:103FA8007F03034384F8253010BD00002DE9F0435A
:103FB8000E4690461F46044687B0002800F0E5806C
:103FC800002900F0E280FEF7D3FD2068FFF71DFB13
:103FD8003369002184F83430B3680546A363F36875
:103FE80084F824101B05E363022384F83630336910
:103FF800C4F808805A1E5342534184F82330B8F15C
:10400800000F58D0002F56D03B68C8F80030A3687E
:10401800FA685A601022A3689A608022A368D9605F
:10402800A3681A614FF48052A3685961A368996123
:10403800A368D961A3681A62A3685962C0B16FF016
:104048007F43984214D0012694F82330002B3DD1A9
:10405800002E5AD12046FFF7B2FA3046FDF75FFF2F
:104068003220FDF75CFF2046FFF72AFF05464CE0AB
:1040780001212046FEF74FFEA74BA26920469A422F
:104088004FF000028CBF01211146FFF789FA204644
:104098009DF83810FEF746FE94F835302BB1012B09
:1040A80010D100212046FEF755FF01212046FEF7DA
:1040B800DEFE0026C8E7002DDED06FF07F439D426C
:1040C800C1D1D9E7022BF0D10121EBE72268002703
:1040D8009368394643F07073936001233A4620464B
:1040E800CDE90373CDE901773B460097FEF723FE40
:1040F8003A46FF212046FEF7D9FD3846FDF70FFF67
:10410800C820FDF70CFF002EADD094F82330EFB295
:10411800C5F307282563C5F30745424629463846AF
:10412800ABB301F06BF9E060A0BB94F823302BB37C
:1041380008212046FFF707FBC0F30728C0F307450F
:10414800C7B2206342462946384601F057F9E06075
:1041580000BB0F212046FFF7F6FAC0F30728C0F38B
:104168000745C7B2206342462946384601F046F95A
:10417800E06078B901F058F9E06058B900212046AC
:10418800FEF775FE0023C4E90E3301204CE001F070
:10419800EDF8C8E794F82330424629463846002B04
:1041A80045D001F04FF9424629468146384601F08C
:1041B80053F94246294684F82700384601F055F954
:1041C800424684F824002946384601F057F994F805
:1041D800243043EA001384F82430B9F1000F03D0E7
:1041E800C4F83C90C4F8149094F82330002B73D191
:1041F800002E6ED12046FFF743F96369B3F1807F43
:1042080038D9324621212046FEF7CAFF94F82030DB
:104218008BB93146204684F82660FFF70BF9072151
:104228002046FEF77FFE002007B0BDE8F08301F0CE
:10423800B1F88146D1E701212046FFF7FBF894F851
:104248002690B9F1010FEAD142462946384601F0D5
:10425800ABF838B12046FFF785FE49462046FFF700
:104268003AFEDCE7324631462046FEF7B9FE84F8CE
:104278002660D4E794F8203033B93146204684F8D4
:104288002660FFF7CCF8CEE701212046FFF7C7F8F4
:1042980094F82690B9F1010F15D1424629463846BF
:1042A80001F082F838B12046FFF75CFE4946204607
:1042B800FFF711FEB7E7324631462046FEF790FE7B
:1042C80084F82660AFE7324631462046FEF788FE7E
:1042D800A9E784F82630A6E701212046FEF7C1FCAD
:1042E800E36802211A792046FEF75AFF2046FEF7B6
:1042F8000EFD05460A20FDF712FEEB07ECD420461A
:10430800FFF755FB94F82030022B8CD10121204671
:10431800FFF71CFB87E700BF00E1F5051FB501901B
:10432800019B114C0BB1206840B9002000F06EFED3
:104338000E4BB0FBF3F0019B20609BB1302882BF8D
:10434800019B03F1FF330193019B5BB10522019BA4
:10435800013B4343B3FBF2F30393039B5A1E0392BF
:10436800002BFAD104B010BD609F042040420F001A
:1043780070B50E461546044658B302220368DA6043
:104388000268936D23F00073936502680020D2F8E9
:10439800943043F00043C2F89430FFF7BFFF142075
:1043A800FFF7BCFF2068D0F89430DB05FBD5D0F8C8
:1043B8009430D0F89420DBB222F00042C0F8942068
:1043C8005A1E327001220020043B2B702368DA60E9
:1043D80070BD0120FCE7000037B5144605460028EB
:1043E80043D0002941D0FEF7C3FB2846E1B2FEF7CF
:1043F80099FC2846FFF754FD1D4B984230D91D4BB8
:1044080098422FD91C4B984222D940F2B63440F238
:1044180074431A4A904288BF1C460022012128464C
:10442800FFF7BEF800212246022328460091FEF736
:1044380064FD044648B906212846FEF773FD044684
:1044480018B901212846FEF712FD204603B030BDF9
:104458000B4B4FF43E749842DFD800221146DEE73A
:10446800B424FAE74FF4BE74F7E70124EDE700BF80
:1044780000366E01006CDC0200D8B805000E270774
:1044880000879303F0B50E461746054687B0D8B1A6
:10449800072200240323CDE903220121CDE90143AA
:1044A80000942346FEF747FC02212846FEF7D9FB75
:1044B80039462846FEF7CEFB3246C0212846FEF78D
:1044C800F5FB204607B0F0BD0120FBE72DE9FF41D1
:1044D8000C4616461F460546002840D06B46214A22
:1044E8001068516803C39068D16803C32846E1B2D5
:1044F800FEF73EFD07F110036B4413F8088C4FEAF2
:1045080048185FFA88F80CB304AB03EB560313F8AA
:10451800104CA40044F0210464B204F0FD02002110
:104528002846FFF7AFFF711E284649B2FEF77EFD09
:10453800424604212846FFF7A5FF791E284649B2BE
:10454800FEF77DFD002004B0BDE8F08106F1100300
:104558006B4413F8104CA40044F00104DCE701207C
:10456800F1E700BF98B80220F0B50E461746054699
:1045780087B0D8B1072200240223CDE90322012104
:10458800CDE9014300942346FEF7D5FB04212846D4
:10459800FEF767FB39462846FEF75CFB3246C0212A
:1045A8002846FEF783FB204607B0F0BD0120FBE755
:1045B80030B5054685B0A0B100240721022390F844
:1045C8002520CDE902115200CDE9004352B223461D
:1045D800FEF7FAFA21462846FEF7EBFA204605B020
:1045E80030BD0120FBE730B5054685B090B1072105
:1045F80000240223CDE90211CDE90043234690F9B6
:104608002620FEF70AFB80212846FEF7FAFA204604
:1046180005B030BD0120FBE7F0B5044687B000289F
:104628003BD090F82330052B34D0033B012B2ED8F8
:10463800012603270023072576B27FB21A460121F7
:104648002046CDE90355CDE901570096FEF773FBE7
:104658000022FF212046FEF729FB94F82330052B82
:104668000FD1002301211A462046CDE90355CDE993
:1046780001570096FEF75FFB0022FF212046FEF758
:1046880015FB0020FDF74BFC0320FDF748FC00203C
:1046980007B0F0BD03260227CCE70120F8E70000A9
:1046A80030B5044685B000286CD000296AD0FEF7E2
:1046B8005FFA23680DF10E020DF10F0120461D6807
:1046C800FFF756FE01212046FEF72CFB2046FFF798
:1046D800E7FB2D4B05F0010598423ED903F13763FE
:1046E80003F5D83398423DD903F1377303F5D8431E
:1046F80098423DD907211420082340F2325284F809
:10470800251084F82610062100902046FEF7F5FBB8
:1047180007212046FEF706FC01212046FEF736FC5D
:104728009DF80E102046FEF73FFC00229DF80F1062
:104738002046FEF745FC01212046FEF798FB0121A3
:104748002046FEF7A2FB2DB9104B1B6803F00303AC
:10475800032B13D1002005B030BD032100230846E8
:10476800B422CCE705210E20032340F2B632C6E777
:1047780006211120052340F27442C0E72046FFF7C6
:104788004BFFE7E70120E6E7016CDC0200000C5074
:10479800F0B5044685B0002800F09180002900F0AB
:1047A8008E80FEF7E5F923680DF10E020DF10F0179
:1047B80020461E68FFF7DCFD01212046FEF7B2FA0D
:1047C8002046FFF76DFB3F4B054698423E4F06F0EB
:1047D800010657D9B84259D93C4B98425BD903F1E5
:1047E800377303F5D84398425AD81421082340F266
:1047F8003252009120460621FEF77FFB0721204612
:10480800FEF790FB01212046FEF7C0FB9DF80E1035
:104818002046FEF7C9FB00229DF80F102046FEF740
:10482800CFFB01212046FEF787FB01212046FEF73A
:104838001EFB01212046FEF728FB2EB994F82730ED
:1048480013B92046FFF7E8FEBD422ED91F4B9D4203
:1048580030D90622022388253B2684F826300121F8
:1048680084F825202046FEF783FB324600212046A7
:10487800FFF77AFE2A4604212046FFF775FE00203E
:1048880005B0F0BD03210023B422B2E70E210323B3
:1048980040F2B632ADE71121052340F27442A8E791
:1048A800172109234FF4BE62A3E704220023082539
:1048B8003326D2E70522002308253726CDE7012035
:1048C800DEE700BF016CDC02011C4E0E01882A11D4
:1048D80070B50E461546044686B0F8B10722032384
:1048E800CDE901230023CDE9032200930121FEF73E
:1048F80022FA31462046FEF7C8F902212046FEF783
:10490800B0F929462046FEF7A5F94FF48032602118
:10491800204606B0BDE87040FEF7C8B906B070BDC5
:1049280038B504460122FFF7BBFE2046FFF7B8FA68
:10493800154B98421FD9154B98421FD903F1F473B0
:1049480003F5904398421CD942F28F7541F28F7358
:104958000F4A904298BF1D4601212046FEF7A3FA50
:104968002A4620460021FFF7B3FF01212046FEF723
:10497800FFFA002038BD4EF28F75EDE74FF28F75C4
:10498800EAE740F28F75E7E781FE210A01D4650C5A
:1049980001882A111FB560B10721032390F825204B
:1049A800CDE90013013A0023CDE9021152B2FEF716
:1049B8000BF905B05DF804FB1FB560B107210323AF
:1049C80090F82620CDE90013013A0023CDE9021121
:1049D80052B2FEF722F905B05DF804FB8B10A3F183
:1049E8004802F0B5D6B2042E49D8022E10D8254D6B
:1049F8000E2405EB820540F2B222A1EB86039BB29E
:104A0800A3F59073032B3AD8DFE803F0091A27209F
:104A18001D4D9B003D2440F221321D44EDE70E2C34
:104A28004FF0080620D14FF47C512F68031BB34088
:104A38007B400B4010447B40001B2B6080B2F0BDD4
:104A48000E2C4FF0000612D13F21EEE70E2C4FF04E
:104A580010060ED14FF47C11E7E70E2C4FF0180624
:104A68000AD14FF07C51E0E74FF4E061DDE7072120
:104A7800DBE74FF4E021D8E74FF0E061D5E700200D
:104A8800DDE700BF58B000500CEF0040002A31D0DD
:104A98002F2816DD3A282DDC0123174A2A388340AF
:104AA800106F11F0200F14BF184398431067124A73
:104AB80011F0100FD16E14BF0B4321EA0303D36624
:104AC80070472638032815D80C4B11F0200F53F8DF
:104AD800202014BF42F0100222F0100243F82020D8
:104AE80053F82020C9064CBF42F0080222F0080201
:104AF80043F82020704700BF00B00C505CB00C5049
:104B080038B14FF0A0429368064843F0040393601D
:104B180070474FF080425368034843F008035360DE
:104B2800704700BF00300050003000403B28C8BF2D
:104B38003C38430152B1064A0020134433F8102090
:104B48008A4202D001301028F8D17047014AF3E7B1
:104B580034B1022094B002202DE9F84315460446EA
:104B680018B94FF0FF30BDE8F8833A28CDBF0027C9
:104B780001270646A0F13C063846FFF7C1FF8046EC
:104B8800002F00F0FE80A1F590739BB20B2B2ED85E
:104B98002046FFF723FF01463A462046FFF7C6FFA7
:104BA8000F288146DDDC3A4629462046FFF76EFF8E
:104BB800002F40F0EF80402C40F3EC807F4AE8065D
:104BC80052F824304FEA093923F4E04323F018035C
:104BD80048BF43F00803A90648BF43F0100309F48F
:104BE800E04949EA030342F824300020BBE7A1F575
:104BF8009C739BB2072B26D84A109C3AA1EB420122
:104C080089B2B1F59C7F19D040F23913994240F02E
:104C1800BF804FF0080E4FF47C5C6949A4F10E0385
:104C280051F8220003FA0EF3434003EA0C03434011
:104C380041F8223004F5297189B2ADE74FF0000E32
:104C48004FF03F0CE9E7A1F5EC739AB2092A36D880
:104C58000522B3FBF2F3C3EB8332C3EB82020A44AF
:104C680092B2A2F5EC7188B2032814D84FF03F0E27
:104C78005448C90050F823C0A4F10E028A4082EAC1
:104C88000C020EFA01F10A4082EA0C0240F82320D5
:104C980004F25521D0E7B2F5EE7F79D13F214A4899
:104CA800DA00D0F86CC0A4F10E03934083EA0C0339
:104CB80001FA02F2134083EA0C03C366E8E76FF4D3
:104CC800017901EB090293B2052B27D80323B2FB24
:104CD800F3F26FF4017EC2EB823302EB83030B44E1
:104CE8009BB203EB0E0C1FFA8CFCBCF1020F4FD8E1
:104CF800DB00A3F581533549A4F10E0E083B0EFAEB
:104D080003F3DFF8D8E051F822005EF82CC04340E6
:104D180003EA0C03434041F82230B9E76FF4F87C0A
:104D280001EB0C039AB2092A3FF636AFB1F5FC7FC6
:104D380016D2590813F0010F254B4FF03F00254AB2
:104D480018BF1A46C9008840D2F800C0A4F10E0363
:104D58008B4083EA0C03034083EA0C03136097E754
:104D680007D040F2F913994207D100213F201A4A8F
:104D7800EAE710214FF47C10F9E708214FF47C5042
:104D8800F5E7A1F596739BB2072B3FF605AFFFE653
:104D9800002101E706F18046013E58F8263005F06B
:104DA800300509F00F0945EA090523F03F031D43C3
:104DB80045F0400548F8265017E700BF58AF0C509B
:104DC80048B0005064B0005000B0005070B00050BF
:104DD8007CB0005078B0005080B00050A8B80220D5
:104DE8003A2838B5044625DD402816DC0025A0F110
:104DF8003C012846FFF784FE01F18043013B50F84F
:104E080023102A4621F05F0141F00F0140F82310DA
:104E180000212046FFF73AFE0AE0084A52F82030FF
:104E280023F4E04323F00E0343F4E04342F8203038
:104E3800002038BD01460125DBE700BF58AF0C5004
:104E4800054B9A6E20B142F0200200209A66704706
:104E580022F02002F9E700BF00A00C5007B5134A62
:104E6800134902EBC002D1F89C309278022862F311
:104E78000303C1F89C300DF1070011D107F0A0FA27
:104E880010B10B238DF80730094A9DF80710D2F8A6
:104E9800943061F30303C2F8943003B05DF804FB67
:104EA80007F09AFA0028EFD00D23EBE7C4B80220E8
:104EB80000A00C504FF0A0430D281A6A0DD842F6F6
:104EC800F173C34013F0010F0CBF01230323834088
:104ED800134023FA00F0C0B270470123F7E700003F
:104EE800012803D002280ED0002070474FF0A043BD
:104EF800DB6A63B113F001000AD00648C3F38303E9
:104F080003FB000070474FF0A0431B6BF1E7184606
:104F1800704700BF00366E010120FFF7E1BF022095
:104F2800FFF7DEBF00207047234BA1F1B771A1F551
:104F38005851994210B53CD8012802D0022836D0E1
:104F4800FEE71E4C1E4BD3F89420900758BFD3F8A9
:104F580094204FF000005CBF42F00202C3F8942096
:104F6800D3F89420D2075EBFD3F8942042F0010210
:104F7800C3F89420134A2368B1FBF2F123F001032C
:104F88002360236823F4005323F03C0343EA81039E
:104F980043F4805343F001032360FCF7C0FF0A2069
:104FA800FCF7BDFF2368002BFCDA002010BD064C7F
:104FB800C8E70120FAE700BF002A75152C00005049
:104FC80000B0005000366E0130000050014601204C
:104FD800FFF7AABF01460220FFF7A6BF4FF0A04285
:104FE800D36A002023F00103D3627047012808D157
:104FF8004FF0A0431B6A03F00303032B01D1FFF713
:105008008BBF0148704700BF006CDC02021E08BF5E
:10501800012208B51046FFF7E9FF012A02D0022A4B
:105028000AD0FEE74FF0A0435B6ADBB2012BB8BFA2
:105038000123B0FBF3F008BD4FF080435B6903F038
:105048003F03F3E74FF0A04310B50D281B6A18D8AB
:1050580042F6F172C24012F0010F0CBF0122032286
:1050680002FA00F411404FF0A04223EA0403814001
:105078000B43136220B90120FFF7C8FF024B1860E9
:1050880010BD0122ECE700BF102C04200028D8BF77
:10509800002008B5CCBFFF230346002912DB002AF5
:1050A80043F4E06340EA01200EDA4FF0A0414A6A77
:1050B80022EA030303434B620120FFF7A7FF074BD4
:1050C800186008BD002A04DB43F4E04340EA0230DC
:1050D800EBE7002BF0D0FF23E7E700BF102C0420FC
:1050E80070B50C46194D0646FFF7B8FE2B69FA2035
:1050F80023F004032B61FCF712FF302C0DD800219C
:105108000846FFF79FFF302004220021B0FBF4F08F
:10511800FFF7BCFF0024204670BDFDF715FD0C48C5
:1051280000EBC60043680B48EB616043FFF74EFF96
:1051380004460028EFD1012106220846FFF7A6FF02
:1051480003212046FFF77EFFE4E700BF00B00050D0
:10515800C4B8022040420F002DE9F3411D4C1E4FF8
:1051680004EBC0023B6B9278054662F317534FEA93
:10517800C0083B630DF107000E4607F021F910B196
:105188000B238DF807309DF8071014F93520FB6CB8
:105198000A44002162F385030846FB64FFF752FFC7
:1051A800302E00D9FEE7302004220021B0FBF6F0B3
:1051B800FFF76CFFFFF712FFFDF7D2FC4444074BE3
:1051C8006268DA611A6942F004021A6102B0BDE845
:1051D800F08100BFC4B8022000A00C5000B00050FD
:1051E80070B5314E054633780C46012B43D9023B46
:1051F800012B02D90125284670BD2C4B53F82120DC
:10520800FFF78DFE9042F5D8012905D8294620469A
:10521800FFF7A2FF002535E000210846FFF712FF3F
:105228002046FFF71BFEFA20FCF779FEFFF7D6FEB3
:10523800302D0DD8FDF794FC00210846FFF702FF3A
:10524800042200213020B0FBF5F0FFF71FFFE1E753
:10525800FDF77AFC16486843FFF7B8FE05460028B4
:10526800C8D1012106220846FFF710FF032128466E
:10527800FFF7E8FECEE7012909D901462046FFF7E6
:105288002FFF054600203470FCF749FEB3E78B4238
:1052980003D14FF0FF321146D4E790210220FFF7E7
:1052A8001FFF0028A6D1B1E7142C0420B4B80220AF
:1052B80040420F00134A1368590721D41168002887
:1052C8000CBF01234FF0FF3341F0040111604FF090
:1052D800804243F48013136011680029FCD0094A06
:1052E800116CC80606D5116C41F002011164116CED
:1052F800C906FCD44FF080410A6822EA03030B6018
:10530800704700BF00000440F0280DD8902807D847
:10531800302807D8182894BF00210121FFF760BF63
:105328000321FBE70221F9E701207047F0B50546A4
:105338000138C0B2FD2808D800240B4F57F8040BD9
:10534800067826B90134062CF8D100200BE0AE42CD
:1053580005D14678964202D186788E4201D008302F
:10536800EEE703B11C70F0BD182C042007B50DF151
:105378000703FFF7DBFF064B40B14FF405719DF8BB
:10538800072001FB023003B05DF804FB1846FAE77A
:10539800302E042008B50023FFF7C8FF08B1406885
:1053A80008BD4FF40020FBE708B50023FFF7BEFF58
:1053B80010B1C07800F0010008BD0000F0B5054646
:1053C8000138C0B2FD2808D800240B4F57F8040B49
:1053D800067826B90134062CF8D100200BE0AE423D
:1053E80005D14678964202D186788E4201D008309F
:1053F800EEE703B11C70F0BDA83A042007B50DF123
:105408000703FFF7DBFF30B14FF405729DF8073053
:10541800024802FB030003B05DF804FB883C04204B
:105428004FF0FF307047000008B5FFF7F9FF031E83
:10543800A5BF4FF405720248002002FB030008BD17
:10544800883C042008B50023FFF7B8FF08B140687E
:1054580008BD4FF08060FBE708B50023FFF7AEFFFB
:1054680010B1C078C0F3400008BD08B50023FFF7AD
:10547800A5FF10B1C078C0F3810008BD08B50023AE
:10548800FFF79CFF08B1C078000908BDF7B5214BAC
:1054980006461D68204B043D1F68002300F11A0EC4
:1054A800AB4202DB002003B0F0BD318B21B3728B1D
:1054B8003AB3B94201D2974205D9184B1B680BB1D0
:1054C80017489847FEE701331C46AC4201DB043617
:1054D800E6E73EF824C0BCF1000FF8D0624509D1D8
:1054E8000E4B1D682DB1063430F824300D4800925B
:1054F800A847FEE70134E8E700EB8302528B002A55
:10550800D0D0064A146824B100EB83035A8B0648AE
:10551800A047FEE7849F0420889F0420749F0420EE
:1055280054AA022071AA0220BEAA02204FF0FF321C
:1055380010B5074C0144884201D1D04310BD10F882
:10554800013B5340DBB254F8233083EA1222F2E7DE
:10555800E4B80220F8B5144B01461E68B0421ED2CA
:1055680038B1124B00221C68114B043C1D46944272
:1055780000DCF8BD1F8B8F420AD105EB82056A8BD0
:1055880096420FDD0B4B1B680BB10B489847FEE7A3
:1055980017B95F8B002FECD001320433E7E74FF0E7
:1055A800FF30E6E71046E4E7889F0420849F042044
:1055B8008C9F0420749F0420DCAA02202DE9F04F60
:1055C8000746884687B000294BD10025284607B0F2
:1055D800BDE8F08F0022CDE90122264E0091384621
:1055E80021463368FBF7CCFA002832DD32681368AD
:1055F8005B4523D15668C6F31E06AE4215DD10463C
:1056080010210592FFF792FF059A1369834213D17F
:10561800C8F8004035460134DAF80010D9F80030EF
:10562800B3FBF1F3A342D5D8D0E7134B1B681BB1EA
:1056380032462946114898472E46EBE75A1CC5D0F2
:105648000D4A1568002DC0D0224639460C48A84797
:10565800BBE7094B1B68002BEED0224639460948A8
:10566800E9E70024DFF820A02546DFF82090DFF8DE
:1056780020B0D1E7789F0420749F0420FBAA022061
:1056880028AB022059AB0220004904200449042019
:105698004D4266532DE9F04F01280746DFF85CB10B
:1056A80087B00ADDDBF800301BB9002007B0BDE881
:1056B800F08F014647489847F7E7DFF8448100280C
:1056C80063D1B8F80060B8F80250002E62D03046B6
:1056D80004A9FFF773FF8146002D5DD0284605A970
:1056E800FFF76CFF0446DBF800A0BAF1000F05D005
:1056F80023463246494638480095D047A145D4D07C
:105708004FF0000298BF2E4607F1080394BF28F80F
:10571800135028F81360CDE90122304B88BFDDF81B
:1057280010A01B6898BFDDF814A0DFF8D88000939C
:1057380051463046D8F8003088BF4C46FBF720FA6F
:105748000028DBF8005038DDD8F80080244BD8F862
:1057580000209A422BD110214046FFF7E7FED8F8E7
:105768001020014682421ED1D8F80410C1F31E0150
:10577800A14213D14FF402721A48414602FB0700B6
:1057880005F08AF80DBB204690E7B8F80460B8F831
:1057980006509AE7B1469FE72C46A4E715B1224682
:1057A8001148A847FEE70DB11048A847FEE71DB10C
:1057B800524631460E48A847FEE7002D3FF475AF24
:1057C800524631460B48A8476FE721460A48A84782
:1057D800D9E700BF77AB02208BAB02200049042039
:1057E8004D4266538C9F0420B1AB0220FBAB0220D4
:1057F8000DAC022042AC02206EAC0220749F042043
:105808009CA30420789F04202DE9F043054600243A
:10581800134F144EDFF8508085B039683368B3FBF6
:10582800F1F3A34202D84FF0FF3415E00022CDE98E
:105838000122DFF83890009128462146D9F8003037
:10584800FBF79EF920B1D9F800301B68434501D118
:105858000134E2E70133FBD1204605B0BDE8F0830F
:1058680000490420044904204D426653789F0420CF
:10587800F0B5044685B080B21F460D461646FFF7C0
:1058880069FE431C08D10A4B1B6813B1214609481D
:105898009847002005B0F0BD0C9B324602930B9B45
:1058A800294601930A9B00933B46FBF769F9F1E708
:1058B800749F042081AC0220014B1868704700BF18
:1058C80000490420F7B5044608460E46FFF79CFF3A
:1058D800051E25DB134B1A68134B1B68B3FBF2F349
:1058E8009D421DDA114FFF21386804F0BBFF644266
:1058F8000F4904F402744FF402723868214404F02A
:10590800CBFF386860B102680A4B9A4208D1FFF7AA
:10591800BDFD00230093294630463A68FFF7CCFFC7
:1059280003B0F0BD0049042004490420789F0420F6
:105938008C9F04204D426653002070472DE9F04F9C
:105948007D4C7E4B226885B09A4200F0EF80D4F8F7
:1059580008229A4200F0EA80236001236360002352
:10596800DFF810922381D9F80030754F043BDFF837
:1059780008A263813B68DAF80050013B714EA381AD
:10598800E5813B689D4210DB0025A846DFF8B4B1ED
:10599800DAF80060B54220DB6389002B4DD1694BF2
:1059A8001B680BB168489847FEE72846FBF764F97F
:1059B80068B92846FFF7C0FF38B1336813B12946E4
:1059C800624898476389013B63810135D9E73368A9
:1059D800002BF7D029465E48F3E72846FBF74CF939
:1059E80048B3DBF8003013B129465A489847A089D4
:1059F800FBF742F9A3890646013BA3816389013B72
:105A08009BB2638108B1002BF1D1DBF800301BB1E8
:105A1800424629465048984746B9A28908F10603E4
:105A280024F82350013204EB83035A80238908F1B8
:105A38000108013323810135AAE710213E48FFF709
:105A480075FDD9F800102061043989004348FFF733
:105A58006DFD4FF4027238496061881804F01CFF2C
:105A680094F80F32102143F0800384F80F323C4839
:105A7800FFF75CFDC4F818020024DFF80091DFF896
:105A880000813B689E4208DB032C30DC2D4B1B68F1
:105A980013B1214633489847FEE73046FBF7ECF848
:105AA800054610BBD9F800A0FF215246D8F80000DF
:105AB80004F0D8FECDE90155CDF800A0D8F80030A3
:105AC8002A4629463046FBF75BF8D9F80030984259
