:020000041000EA
:10000000002000209533001051340010DD33001023
:10001000DF330010DF330010DF330010DF33001058
:10002000000000000000000000000000DF330010AE
:10003000DF33001000000000DF330010DD4500104A
:10004000DF330010DF330010DF330010DF33001028
:10005000DF330010DF330010DF330010DF33001018
:10006000DF330010DF330010DF330010DF33001008
:10007000DF330010DF330010DF330010DF330010F8
:10008000DF330010DF330010DF330010DF330010E8
:10009000DF330010DF330010DF330010DF330010D8
:1000A000DF330010DF330010DF330010DF330010C8
:1000B000DF330010DF330010DF330010DF330010B8
:1000C000DF330010DF330010DF330010DF330010A8
:1000D000DF330010DF330010DF330010DF33001098
:1000E000DF330010DF330010DF330010DF33001088
:1000F000DF330010DF330010DF330010DF33001078
:10010000DF330010DF330010DF330010DF33001067
:10011000DF330010DF330010DF330010DF33001057
:10012000DF330010DF330010DF330010DF33001047
:10013000DF330010DF330010DF330010DF33001037
:10014000DF330010DF330010DF330010DF33001027
:10015000DF330010DF330010DF330010DF33001017
:10016000DF330010DF330010DF330010DF33001007
:10017000DF330010DF330010DF330010DF330010F7
:10018000DF330010DF330010DF330010DF330010E7
:10019000DF330010DF330010DF330010DF330010D7
:1001A000DF330010DF330010DF330010DF330010C7
:1001B000DF330010DF330010DF330010DF330010B7
:1001C000DF330010DF330010DF33001000000000C9
:1001D000000000000000000000000000000000001F
:1001E000000000000000000000000000000000000F
:1001F00000000000000000000000000000000000FF
:0402000000000000FA
:1002040001F0FCBB38B560B1114C6368DBB2072B5D
:100214001AD06368DBB20F2B16D0082801D010283F
:1002240014D100294FF021040CBF20210121094DD4
:100234008440EB6D814023EA04030B43EB651AB160
:1002440041F2883001F082FF002038BD0120FCE734
:1002540000B0005000A00C50044B1A7822B118B121
:10026400DB7803700020704701207047715900202B
:10027400044B1A7822B118B15B7B037000207047DD
:10028400012070477159002010B5E0B1D9B10023A5
:100294000122436080F822200C6804604A6880F8D8
:1002A40020208A680261CA6812054261FF22C4F8EC
:1002B40084204FF0502401688C6701680A62016849
:1002C40018464A6410BD0120FCE738B102680020DA
:1002D400136C23F0FF031943116470470120704726
:1002E40070B5C8B105689DF918609DF91C00AC6C27
:1002F40040EAC60040EAC3239DF910006FF31404DA
:1003040043EA00239DF9140043EA801343EA42328E
:1003140042EA81412143A96470BD40B102680020D2
:10032400136C23F47F4343EA0121116470470120D5
:10033400704770B5C8B105689DF918609DF91C0037
:100344002C6D40EAC60040EAC3239DF910006FF308
:10035400140443EA00239DF9140043EA801343EA9A
:10036400423242EA81412143296570BD18B10368D4
:100374000020596070470120704730B1036801398B
:10038400C1F313010020596270470120704708B17E
:1003940003681962704718B10368186900F0010016
:1003A400704720B10268536943F0010353617047F9
:1003B40038B50D460446A8B10368DA61C36A0BB1C7
:1003C4000120984723689D612046FFF7E4FF002839
:1003D400FAD02046FFF7E5FFE36A0BB10020984707
:1003E400002038BD0120FCE708B10368D9607047DC
:1003F40010B10368D868C0B2704770B5E8B1056839
:100404009DF91C609DF92000AC6A40EAC6009DF984
:1004140010606FF3150440EAC6209DF9146040EAA9
:1004240006209DF9186040EA861040EA433343EA07
:10043400824242EA41512143A96270BD50B103682E
:100444001A6821B142F0010200201A60704722F0BC
:100454000102F9E70120704750B103681A6821B11D
:1004640042F4001200201A60704722F40012F9E7E7
:100474000120704750B103689A6821B142F010021C
:1004840000209A60704722F01002F9E701207047BB
:1004940030B580B10568BDF80C00AC68800640EA50
:1004A4008353002043EA81416FF39E1441EA821290
:1004B4002243AA6030BD0120FCE730B1026800206D
:1004C400936861F30203936070470120704750B151
:1004D40003689A6821B142F0200200209A607047B4
:1004E40022F02002F9E70120704750B103681A682E
:1004F40021B142F4000200201A60704722F4000285
:10050400F9E70120704750B103689A6821B142F0BD
:10051400004200209A60704722F00042F9E701206F
:10052400704750B103689A6821B142F00802002074
:100534009A60704722F00802F9E70120704740B141
:1005440002680020936D23F47F0343EA014191651F
:1005540070470120704760B100685206836D42EA1B
:10056400012123F0007323F47F43194381650020A4
:1005740070470120704730B10268936C23F47833DC
:1005840043EA41319164704730B10268136D23F43A
:10059400783343EA41311165704748B10368D3F8B1
:1005A400882009B141F480310020C3F888107047D5
:1005B4000120704760B1006850B1836D090623F0D3
:1005C400807301F0807123F0FF03114319438165A7
:1005D4007047000008B5E8B103680F4A93420CD095
:1005E40002F58052934215D1062000F0BBFD02288B
:1005F40005D1BDE8084000F0EABD0420F5E7032872
:1006040003D1BDE8084000F0E5BD0120BDE8084085
:1006140000F044BE002008BD0010045038B5054663
:1006240008B9002038BDFFF7E3FE04460028F8D0DF
:100634002846FFF7CFFFB0FBF4F0F3E71FB50190B6
:10064400019B114C0BB1206840B9002000F036FE2C
:100654000E4BB0FBF3F0019B20609BB1302882BFAE
:10066400019B03F1FF330193019B5BB10522019BC5
:10067400013B4343B3FBF2F30393039B5A1E0392E0
:10068400002BFAD104B010BD5C5A002040420F0088
:1006940070B50E461546044658B302220368DA6064
:1006A4000268936D23F00073936502680020D2F80A
:1006B400943043F00043C2F89430FFF7BFFF142096
:1006C400FFF7BCFF2068D0F89430DB05FBD5D0F8E9
:1006D4009430D0F89420DBB222F00042C0F8942089
:1006E4005A1E327001220020043B2B702368DA600A
:1006F40070BD0120FCE7000037B51446054600280C
:1007040043D0002941D0FFF7BFFD2846E1B2FFF7EF
:100714006BFE2846FFF782FF1D4B984230D91D4BD4
:1007240098422FD91C4B984222D940F2B63440F259
:1007340074431A4A904288BF1C460022012128466D
:10074400FFF738FF00212246022328460091FFF7D5
:100754009FFE044648B906212846FFF7AEFE04462C
:1007640018B901212846FFF769FE204603B030BDC1
:100774000B4B4FF43E749842DFD800221146DEE75B
:10078400B424FAE74FF4BE74F7E70124EDE700BFA1
:1007940000366E01006CDC0200D8B805000E270795
:1007A40000879303F0B50E461746054687B0D8B1C7
:1007B400072200240323CDE903220121CDE90143CB
:1007C40000942346FFF719FE02212846FFF7D5FDC2
:1007D40039462846FFF7CAFD3246C0212846FFF7AE
:1007E400E7FD204607B0F0BD0120FBE72DE9FF41FE
:1007F4000C4616461F460546002840D06B46214A43
:100804001068516803C39068D16803C32846E1B2F5
:10081400FFF779FE07F110036B4413F8088C4FEAD5
:1008240048185FFA88F80CB304AB03EB560313F8CB
:10083400104CA40044F0210464B204F0FD02002131
:100844002846FFF7AFFF711E284649B2FFF793FE13
:10085400424604212846FFF7A5FF791E284649B2DF
:10086400FFF792FE002004B0BDE8F08106F110030A
:100874006B4413F8104CA40044F00104DCE701209D
:10088400F1E700BF74380020F0B50E461746054660
:1008940087B0D8B1072200240223CDE90322012125
:1008A400CDE9014300942346FFF7A7FD0421284620
:1008B400FFF763FD39462846FFF758FD3246C0214D
:1008C4002846FFF775FD204607B0F0BD0120FBE781
:1008D40030B5054685B0A0B100240721022390F865
:1008E4002520CDE902115200CDE9004352B223463E
:1008F400FFF7F6FC21462846FFF7E7FC204605B043
:1009040030BD0120FBE730B5054685B090B1072125
:1009140000240223CDE90211CDE90043234690F9D6
:100924002620FFF706FD80212846FFF7F6FC204627
:1009340005B030BD0120FBE7F0B5044687B00028C0
:100944003BD090F82330052B34D0033B012B2ED819
:10095400012603270023072576B27FB21A46012118
:100964002046CDE90355CDE901570096FFF745FD33
:100974000022FF212046FFF71BFD94F82330052BAE
:100984000FD1002301211A462046CDE90355CDE9B4
:1009940001570096FFF731FD0022FF212046FFF7A3
:1009A40007FD002001F0D2FB032001F0CFFB002063
:1009B40007B0F0BD03260227CCE70120F8E70000CA
:1009C40030B5044685B000286CD000296AD0FFF702
:1009D4005BFC23680DF10E020DF10F0120461D682A
:1009E400FFF756FE01212046FFF7FEFC2046FFF7E5
:1009F40015FE2D4B05F0010598423ED903F13763EE
:100A040003F5D83398423DD903F1377303F5D8433E
:100A140098423DD907211420082340F2325284F829
:100A2400251084F82610062100902046FFF730FD9B
:100A340007212046FFF741FD01212046FFF771FD04
:100A44009DF80E102046FFF77AFD00229DF80F1046
:100A54002046FFF780FD01212046FFF7EFFC01212E
:100A64002046FFF7F9FC2DB9104B1B6803F0030374
:100A7400032B13D1002005B030BD03210023084609
:100A8400B422CCE705210E20032340F2B632C6E798
:100A940006211120052340F27442C0E72046FFF7E7
:100AA4004BFFE7E70120E6E7016CDC0200000C5095
:100AB400F0B5044685B0002800F09180002900F0CC
:100AC4008E80FFF7E1FB23680DF10E020DF10F019B
:100AD40020461E68FFF7DCFD01212046FFF784FC59
:100AE4002046FFF79BFD3F4B054698423E4F06F0DC
:100AF400010657D9B84259D93C4B98425BD903F106
:100B0400377303F5D84398425AD81421082340F286
:100B14003252009120460621FFF7BAFC07212046F5
:100B2400FFF7CBFC01212046FFF7FBFC9DF80E10DC
:100B34002046FFF704FD00229DF80F102046FFF722
:100B44000AFD01212046FFF7C2FC01212046FFF7E0
:100B540075FC01212046FFF77FFC2EB994F827305D
:100B640013B92046FFF7E8FEBD422ED91F4B9D4224
:100B740030D90622022388253B2684F82630012119
:100B840084F825202046FFF7BEFC3246002120468B
:100B9400FFF77AFE2A4604212046FFF775FE00205F
:100BA40005B0F0BD03210023B422B2E70E210323D4
:100BB40040F2B632ADE71121052340F27442A8E7B2
:100BC400172109234FF4BE62A3E70422002308255A
:100BD4003326D2E70522002308253726CDE7012056
:100BE400DEE700BF016CDC02011C4E0E01882A11F5
:100BF40070B50E461546044686B0F8B107220323A5
:100C0400CDE901230023CDE9032200930121FFF75D
:100C1400F4FB31462046FFF7BAFB02212046FFF7DA
:100C2400ACFB29462046FFF7A1FB4FF4803260213C
:100C3400204606B0BDE87040FFF7BABB06B070BDF1
:100C440038B504460122FFF7BBFE2046FFF7E6FC59
:100C5400154B98421FD9154B98421FD903F1F473D1
:100C640003F5904398421CD942F28F7541F28F7379
:100C74000F4A904298BF1D4601212046FFF7FAFB18
:100C84002A4620460021FFF7B3FF01212046FFF743
:100C94003AFC002038BD4EF28F75EDE74FF28F75A8
:100CA400EAE740F28F75E7E781FE210A01D4650C7B
:100CB40001882A111FB560B10721032390F825206C
:100CC400CDE90013013A0023CDE9021152B2FFF736
:100CD40007FB05B05DF804FB1FB560B107210323D2
:100CE40090F82620CDE90013013A0023CDE9021142
:100CF40052B2FFF71EFB05B05DF804FB2DE9FF4778
:100D04000B69044680F823300B69033B032B00F284
:100D14008580DFE803F0026358792046FFF750FE30
:100D24000322064608212046FFF73CFD2046FFF734
:100D340075FC4D4B98425FD903F1A46303F58343DB
:100D440098425BD903F1377303F5D843984257D9D6
:100D5400464B984256D9464B984294BF07250025E6
:100D64004FF0000807274FF0030A4FEA45094346AE
:100D740009F1FF3239462046CDE90277CDE9008AF0
:100D8400FFF7AEFA41462046FFF79FFA43466A1E34
:100D940039462046CDE90277CDE9008AFFF7C9FA42
:100DA40080212046FFF7B9FA2B464A460121204606
:100DB400FFF71CFD4FF6FF712046FFF7EEFB3046B0
:100DC40004B0BDE8F0872046FFF772FE2046FFF727
:100DD4007FFD2046FFF797FD0026EBE72046FFF74F
:100DE400EFFD4322064608212046FFF7DBFC0121E4
:100DF4002046FFF77AFB99E70325B1E70425AFE71F
:100E04000525ADE70625ABE72046FFF719FF204689
:100E1400FFF750FF2046FFF75FFFDDE700260325BD
:100E24004FF0010802272046FFF766FC33460622EE
:100E340029462046CDE90067CDE90258FFF750FA6C
:100E4400EB212046FFF741FA334632462946204635
:100E5400CDE90067CDE90258FFF76BFA3821204647
:100E6400FFF75BFA0646A5E70129DE0701EBC91384
:100E74000184D717000000000102030400000000F1
:100E84000402060103460244934200D1704703F86A
:100E9400011BF9E710B586B000F006FD30220021F1
:100EA40004461748FFF7EEFF142201A8FFF7EAFFF4
:100EB400144B0193A3F558335B68C3F30223023B3D
:100EC400042B1AD8104AD35C8B4208BF0623102285
:100ED40005934FF08053CDE9033200F0E3FC034661
:100EE400591E4B4206484B41224601A980F827303F
:100EF400FFF704FF002006B010BD0623E7E700BF9C
:100F04000C5A0020001004500C3900200303050281
:100F14000600034610B51046002A46D0002900F00A
:100F2400F280612B32D8DFE803F03AD431B5D141F5
:100F3400CE3144A5C8C53147314A4D3150313154C1
:100F4400C1585C6064686C3131317074BDB9787CAF
:100F540031318031318431888C9FAD31313131313F
:100F64003190E794E396993131319B319D313131A0
:100F7400A131313131313131A7A7AB31313131AF09
:100F84003131B3CBD7DBDF3231B7EBA7FEE7012436
:100F94004FF400130C6003604FF0804005E0002321
:100FA40001240B6004604FF0A04010BD0023042412
:100FB400F7E700231024F4E700232024F1E70023BB
:100FC4004024EEE700238024EBE700234FF48074F1
:100FD400E7E700234FF48064E3E700234FF4006461
:100FE400DFE700234FF48054DBE700234FF4005481
:100FF400D7E700234FF48044D3E700234FF40044A1
:10100400CFE700234FF48034CBE700234FF40034C0
:10101400C7E700234FF48024C3E700234FF4801470
:10102400BFE700234FF40014BBE700234FF4800410
:10103400B7E700234FF00074B3E700234FF00064D8
:10104400AFE700234FF08054ABE700234FF0004498
:10105400A7E70123A4E701230224A2E70123A6E7CB
:101064000123A7E70123ABE70123AFE701234FF4F3
:10107400007496E70123B5E701234FF4002490E7B9
:101084000123CBE70123D5E701234FF4000488E7CC
:101094000123CBE70023DFE70023F6E700244FF426
:1010A400806377E700244FF4007373E700244FF460
:1010B40000436FE7002440236CE70024202369E702
:1010C4000024102366E70024082363E70024042394
:1010D40060E7002402235DE700244FF4801359E7FE
:1010E40000244FF4002355E700244FF4802351E7F4
:1010F40000244FF480334DE700244FF4807349E714
:101104000024802346E708464FE7000007B5134A4A
:10111400134902EBC002D1F89C309278022862F3A2
:101124000303C1F89C300DF1070011D1FFF794F8C7
:1011340010B10B238DF80730094A9DF80710D2F837
:10114400943061F30303C2F8943003B05DF804FBF8
:10115400FFF78EF80028EFD00D23EBE78442002040
:1011640000A00C504FF0A0430D281A6A0DD842F687
:10117400F173C34013F0010F0CBF01230323834019
:10118400134023FA00F0C0B270470123F7E70000D0
:10119400012803D002280ED0002070474FF0A0434E
:1011A400DB6A63B113F001000AD00648C3F383037A
:1011B40003FB000070474FF0A0431B6BF1E7184698
:1011C400704700BF00366E010120FFF7E1BF022027
:1011D400FFF7DEBF00207047234BA1F1B771A1F5E3
:1011E4005851994210B53CD8012802D0022836D073
:1011F400FEE71E4C1E4BD3F89420900758BFD3F83B
:1012040094204FF000005CBF42F00202C3F8942027
:10121400D3F89420D2075EBFD3F8942042F00102A1
:10122400C3F89420134A2368B1FBF2F123F00103BD
:101234002360236823F4005323F03C0343EA81032F
:1012440043F4805343F00103236000F07FFF0A203E
:1012540000F07CFF2368002BFCDA002010BD064C54
:10126400C8E70120FAE700BF002A75152C000050DA
:1012740000B0005000366E013000005001460120DD
:10128400FFF7AABF01460220FFF7A6BF4FF0A04216
:10129400D36A002023F00103D3627047012808D1E8
:1012A4004FF0A0431B6A03F00303032B01D1FFF7A4
:1012B4008BBF0148704700BF006CDC02021E08BFF0
:1012C400012208B51046FFF7E9FF012A02D0022ADD
:1012D4000AD0FEE74FF0A0435B6ADBB2012BB8BF34
:1012E4000123B0FBF3F008BD4FF080435B6903F0CA
:1012F4003F03F3E74FF0A04310B50D281B6A18D83D
:1013040042F6F172C24012F0010F0CBF0122032217
:1013140002FA00F411404FF0A04223EA0403814092
:101324000B43136220B90120FFF7C8FF024B18607A
:1013340010BD0122ECE700BF845900200028D8BF6B
:10134400002008B5CCBFFF230346002912DB002A86
:1013540043F4E06340EA01200EDA4FF0A0414A6A08
:1013640022EA030303434B620120FFF7A7FF074B65
:10137400186008BD002A04DB43F4E04340EA02306D
:10138400EBE7002BF0D0FF23E7E700BF84590020F0
:1013940070B50C46194D0646FFF7B8FE2B69FA20C6
:1013A40023F004032B6100F0D1FE302C0DD8002172
:1013B4000846FFF79FFF302004220021B0FBF4F021
:1013C400FFF7BCFF0024204670BD00F053FE0C481C
:1013D40000EBC60043680B48EB616043FFF74EFF28
:1013E40004460028EFD1012106220846FFF7A6FF94
:1013F40003212046FFF77EFFE4E700BF00B0005062
:101404008442002040420F002DE9F3411D4C1E4F41
:1014140004EBC0023B6B9278054662F317534FEA24
:10142400C0083B630DF107000E46FEF715FF10B12F
:101434000B238DF807309DF8071014F93520FB6C49
:101444000A44002162F385030846FB64FFF752FF58
:10145400302E00D9FEE7302004220021B0FBF6F044
:10146400FFF76CFFFFF712FF00F010FE4444074B38
:101474006268DA611A6942F004021A6102B0BDE8D6
:10148400F08100BF8442002000A00C5000B0005046
:1014940070B5314E054633780C46012B43D9023BD7
:1014A400012B02D90125284670BD2C4B53F821206D
:1014B400FFF78DFE9042F5D8012905D8294620462C
:1014C400FFF7A2FF002535E000210846FFF712FFD1
:1014D4002046FFF71BFEFA2000F038FEFFF7D6FE89
:1014E400302D0DD800F0D2FD00210846FFF702FF91
:1014F400042200213020B0FBF5F0FFF71FFFE1E7E5
:1015040000F0B8FD16486843FFF7B8FE054600280A
:10151400C8D1012106220846FFF710FF03212846FF
:10152400FFF7E8FECEE7012909D901462046FFF777
:101534002FFF05460020347000F008FEB3E78B420D
:1015440003D14FF0FF321146D4E790210220FFF778
:101554001FFF0028A6D1B1E788590020744200205B
:1015640040420F00002808B511DD002926DB0128C0
:1015740000D139B13F2343F4E06340EA0120002A5B
:101584000BDA0EE00146F5E700200346F3E70029F5
:10159400FADA002A0CDB0020034643F4E04340EA75
:1015A40002304FF080414A6922EA030303434B614E
:1015B4000220FFF783FE024B186008BD3F23DEE7DD
:1015C4008459002010B5041E08BF01242046FFF7EB
:1015D40075FE012C02D0022C08D0FEE74FF0A04388
:1015E4005B6A39B1C3F30223D84010BD4FF0804386
:1015F4005B69F6E7C3F30233F6E70000134A1368A6
:10160400590721D4116800280CBF01234FF0FF3380
:1016140041F0040111604FF0804243F480131360E1
:1016240011680029FCD0094A116CC80606D5116C52
:1016340041F002011164116CC906FCD44FF08041E1
:101644000A6822EA03030B60704700BF00000440ED
:1016540007B56A4601A9FFF75CFCB0F1A04F04D1BD
:10166400019B53B1012B17D0FEE7B0F1804FFBD1A2
:10167400019B002BF8D1094B00E0094BEFF31081DB
:10168400012282F310881A68009802431A6081F3D9
:10169400108803B05DF804FB024BEFE70400004040
:1016A400080000500C00005007B56A4601A9FFF776
:1016B40030FCB0F1A04F04D1019B53B1012B18D0E1
:1016C400FEE7B0F1804FFBD1019B002BF8D10A4B10
:1016D40000E00A4BEFF31081012282F310881A68AC
:1016E400009822EA00021A6081F3108803B05DF8C2
:1016F40004FB034BEEE700BF040000400800005069
:101704000C0000502DE9F8432A4B1B69002B4EDADC
:101714004FF0A0456B6B4FF00B096FF30F036FEAAB
:1017240093336FEA83334FF400744FF48078224E7E
:101734006B63736F214F43F4C0037367736F43F09C
:101744004063736747F6E073726F03EA44133A40E9
:1017540013437367032000F0F9FC6B6B43F0804381
:101764006B636B6B002BFCDAA96BAA6B6B6B90B28F
:1017740023F08043B0EB114F6B634FEA114335BF45
:101784001B1AC01A4444A4EB080435BF98B280B2B3
:10179400A4B2A4B23F2804D9B9F101094FEA580808
:1017A400D0D1A02894BF00200120BDE8F8830120F7
:1017B400FBE700BF00000C5000A00C501F80FFFF8F
:1017C40070470028D6BF0020FF230346002910DB02
:1017D400090201F4E061002A43F4E06340EA0100F5
:1017E40009DA4FF0A0414A6C22EA030303434B6435
:1017F4007047002A06DB120302F4E04243F4E0439C
:101804001043EEE7002BF3D0FF23EAE74FF0A043A9
:101814005A6C22F480225A645A6C61F311425A645D
:10182400704708B50F20FFF73FFF0D20FFF73CFF7F
:1018340000210120FFF7EAFF0A460C20FFF7C1FF51
:1018440000210C20FFF756FDFFF7BAFF08BDF02872
:101854000DD8902807D8302807D8182894BF00211D
:101864000121FFF715BE0321FBE70221F9E701205F
:1018740070470000000000000000000000882A11EA
:1018840000882A11FB06090030031000FD080A0035
:1018940031031100000B0D0013021300020D0F00A1
:1018A4001302130000207047014B1888704700BFD3
:1018B4008259002038B50020FFF754FC044628B9AB
:1018C40000F0D8FB01212046FFF714FD01210C2074
:1018D400FFF710FDFFF7E6FF01285BD0022000F0C0
:1018E4009FFB0120FFF78AFE01F00EFB00F0E4FBF2
:1018F400012001F025FB022001F02AFB364B374A78
:101904000120C3F8902001F0F3FA01F01DFB01F06F
:101914000BFB00B1FEE7324C3248A36843F00103ED
:10192400A36001F0FDFA4FF08042136943F0100305
:101934001361EFF31081012383F310882A4A13788B
:1019440003B9FEE7013BDBB2137023B9274AD36A1C
:1019540023F00103D36281F31088A46814F0010416
:1019640018D101F0E9FA64222146C82001F0D4FA22
:1019740001F0F6FA4FF41652B0FBF2F04FF47A721B
:10198400B2FBF0F2144901320B6F23F47C7343EA87
:1019940002130B6702240425F020FFF758FF1448B4
:1019A400FFF770FC002000F0D1FB124B1C80124B9F
:1019B4001D80FEF725FC21462846FFF79BFC0122EB
:1019C40000201146FEF71EFCFFF764FA2146BDE82D
:1019D40038400620FFF78EBC00A00C5000E2040043
:1019E40000B00C5000B000407059002000000C50B2
:1019F40000882A11825900208059002008B500F07F
:101A0400CDF8BDE80840012000F029BA10B5012343
:101A1400044610220921022000F0E6FC01231022D2
:101A24000A21032000F0E0FC012310220B210420F2
:101A340000F0DAFC012310220C21052000F0D4FC74
:101A4400012310220D21092000F0CEFC01231022D5
:101A54000E210A2000F0C8FC012310220F210B20C4
:101A640000F0C2FC1022012311460C2000F0BCFC43
:101A7400012300221946082000F0B6FC01230022AD
:101A84000321062000F0B0FC022C4FF0010310D01B
:101A9400042C21D0102206210D2000F0A5FC0121E8
:101AA400084600F0E5FDBDE810400121072000F0E4
:101AB400DFBD10220421184600F096FC01231022F9
:101AC40005210D2000F090FC2146BDE810400123C3
:101AD4000022072000F088BC0022DCE710B50123B7
:101AE40000225B21172000F07FFC012300225C21EF
:101AF400182000F079FC012330224FF49C7122203D
:101B040000F072FCBDE810400123302240F239118C
:101B1400192000F069BC08B50022012352210E20CF
:101B240000F062FC0123002253210F2000F05CFC32
:101B34000123002240F25511102000F055FC01232E
:101B440000224FF4A771112000F04EFC0123002263
:101B540040F24F11122000F047FC012300224FF401
:101B6400A871132000F040FC0123002240F251111F
:101B7400142000F039FC012300224FF4A971152030
:101B840000F032FC0123002240F25311162000F031
:101B94002BFCBDE80840FFF7A1BF000010B59E4B29
:101BA4005B6813F4E06FC3F3022422D101232246BD
:101BB4000321022000F018FC0123224619460A20C2
:101BC40000F012FC012310220921082000F00CFC73
:101BD400012310220A21032000F006FC01232246DF
:101BE4000C210B2000F000FCFFF75CFE012842D121
:101BF400FEE7012C75D1234600220321052000F0C5
:101C0400F3FB2346002221460A2000F0EDFB234685
:101C1400102209210C2000F0E7FB234610220A21A0
:101C2400032000F0E1FB234630220B21204600F084
:101C3400DBFB234630220C21092000F0D5FB214692
:101C4400022000F015FD2146042000F011FD21467C
:101C5400062000F00DFD2146072000F009FD214675
:101C6400082000F005FD21460B2000F001FD0121B4
:101C74000D2000F0FDFC0123002219211E2000F09C
:101C8400B3FB012300221B211A2000F0ADFB01232A
:101C9400102221211D2000F0A7FB01231022222164
:101CA4001B2000F0A1FB0123302223211C2000F083
:101CB4009BFB0123302224211F2000F095FB0123EC
:101CC400302240F22111212000F08EFB012330222A
:101CD4004FF49071202000F087FBBDE81040FFF71F
:101CE4001ABF023C042C00F28D80DFE804F0464465
:101CF4003E0342000123002219460A2000F074FB2F
:101D0400012300220321092000F06EFB012310228D
:101D14000921062000F068FB012310220A21082073
:101D240000F062FB012330220B21072000F05CFB52
:101D3400012330220C210B2000F056FB0121084620
:101D440000F096FC0121022000F092FC0121032006
:101D540000F08EFC0121042000F08AFC0121052002
:101D640000F086FC01210C207FE70220FFF74EFEE5
:101D740081E70420FAE70120F8E701231022092172
:101D8400022000F031FB012310220A21032000F07D
:101D94002BFB012310220B21042000F025FB01233F
:101DA40010220C21052000F01FFB012310220D211D
:101DB400062000F019FB012310220E21072000F059
:101DC40013FB012310220F21082000F00DFB102229
:101DD40001231146092000F007FB012310220621EC
:101DE4000A2000F001FB0123002219460B2000F019
:101DF400FBFA0321012300220C2000F0F5FA012153
:101E0400084632E7002401340121204600F030FC6A
:101E14000D2CF8D12FE700BF00B000507FB50B4B5D
:101E24000B4C0546002A18BF1C4601230E46CDE97B
:101E340001030023204601A9039300F027F820465C
:101E4400F2B2A9B200F0BAF804B070BD00000A50B2
:101E54000000084001220B201146FFF7DFBF08B540
:101E6400FFF7F8FF08BD0000074B984214BF40235A
:101E740060238B4200D8FEE701F01F034909138059
:101E840000EBC110704700BF00000A5073B50D4647
:101E9400064600B9FEE74C68012C11D9112C0FD06D
:101EA400404B24F400129A420AD003F580139C425A
:101EB40006D024F4801203F500139A4200D0FEE702
:101EC400AB68022B00D9FEE7304629880DF10602E3
:101ED400FFF7CAFF034688B10122BDF80600012CB2
:101EE40002FA00F20CD1596A11435962996D1143F7
:101EF4009965DA64DA65DA639A645A6102B070BD8E
:101F0400112C0CD1596A11435962996D1143996589
:101F1400DA64DA65DA601A639A635A64EEE75CB9E4
:101F2400596A11435962996D11439965DA64DA6506
:101F3400DA639A649A61E1E79A616968194CA1428B
:101F440011D1D96A1143D9629A639A64012216495C
:101F540082408E420BBF196A596D0A430A430CBF73
:101F64001A625A65CAE7114CA14204D1D96A1143D5
:101F7400D962DA6306E00E4CA14205D1D96A114355
:101F8400D9629A635A64E1E70A4CA14203D1196BFE
:101F940011431963D8E7084CA142D7D1196B1143F7
:101FA4001963E6E70000111000000A500000211038
:101FB40000003110000041100000511037B51446E4
:101FC40000B9FEE7012A00D9FEE70DF10602FFF78A
:101FD4004BFFD0B10123BDF8061042688B40CA40C4
:101FE400D50718D4826ACA40D20714D4416B01EAD7
:101FF400030233EA01010ED1056C05EA0201AA438A
:1020040009D124B943690B43436103B030BD8369EB
:102014000B438361F9E70CB18360F6E7C360F4E72F
:10202400022810B520D1114CE620E36A43F00103E5
:10203400E36200F08BF8E36A9A06FCD51E2000F0F8
:1020440085F8E36A9B06FCD5EFF31081012383F343
:102054001088074A1378132B00D9FEE70133137055
:1020640081F31088002010BD0120FCE700000C5013
:1020740070590020044B1A6942F002021A611A696D
:10208400002AFCDA704700BF00000C50024A1369B2
:1020940023F002031361704700000C50054B5B6B87
:1020A400834238BF03F1FF33181A88422CBF032040
:1020B4000020704700000C50094BDA6A92060CD5D8
:1020C400084900204A6842F000424A605A6842F0D7
:1020D40000425A6001225A6370470120704700BFD2
:1020E40000000C500000044010B5FFF7E3FBFFF7BD
:1020F400D9FB012803D0FFF705FB00B1FEE700F090
:1021040017FFFFF78EFBFFF7CDFB012801D000F08E
:10211400FFFEFFF7C7FB013818BF012000F01CFFCA
:10212400032000F0EDFE002000F0E6FE044640B976
:10213400054AD36823F00103D36000F015FF20465D
:1021440010BD0124FBE700BF00B00050034670B58A
:10215400B8B142F210754FF0E026AB4284BFA3F54C
:102164001C5442F21073326998BF0024184688BF89
:10217400103CD30708D400F00BF82346002CECD114
:1021840001E000F005F870BD00F042F8F5E700004A
:1021940013B50190019B1A4C33B1236823B1019B01
:1021A400B3F1807F0CD9FEE70020FFF787F8154BC9
:1021B400B0FBF3F0019B2060002BF0D102B010BD06
:1021C400019B002BFAD0104A136813F001030DD1C0
:1021D4000E48D0F8FC1041F08071C0F8FC10536038
:1021E400136843F4003343F001031360019B226836
:1021F4000549534348684A68121A9A42FBD3DDE7FB
:102204003C5A002040420F00001000E000ED00E0C6
:1022140037B501904FF0E0204FF47A724469019B86
:102224006343B3FBF2F301930023816982698A4219
:10223400FCD025BFA51A5B195B185B18019938BF40
:102244009B1A994201D803B030BD1146EEE707B599
:102254000190019B13B903B05DF804FB4FF47A704D
:10226400FFF774FF019B013B0193F2E78B10A3F18D
:102274004802F0B5D6B2042E49D8022E10D8254D06
:102284000E2405EB820540F2B222A1EB86039BB239
:10229400A3F59073032B3AD8DFE803F0091A27203B
:1022A4001D4D9B003D2440F221321D44EDE70E2CD0
:1022B4004FF0080620D14FF47C512F68031BB34024
:1022C4007B400B4010447B40001B2B6080B2F0BD70
:1022D4000E2C4FF0000612D13F21EEE70E2C4FF0EA
:1022E40010060ED14FF47C11E7E70E2C4FF01806C0
:1022F4000AD14FF07C51E0E74FF4E061DDE70721BC
:10230400DBE74FF4E021D8E74FF0E061D5E70020A8
:10231400DDE700BF58B000500CEF0040002A31D078
:102324002F2816DD3A282DDC0123174A2A3883404A
:10233400106F11F0200F14BF184398431067124A0E
:1023440011F0100FD16E14BF0B4321EA0303D366BF
:1023540070472638032815D80C4B11F0200F53F87A
:10236400202014BF42F0100222F0100243F8202073
:1023740053F82020C9064CBF42F0080222F008029C
:1023840043F82020704700BF00B00C505CB00C50E4
:1023940038B14FF0A0429368064843F004039360B9
:1023A40070474FF080425368034843F0080353607A
:1023B400704700BF00300050003000403B28C8BFC9
:1023C4003C38430152B1064A0020134433F810202C
:1023D4008A4202D001301028F8D17047014AF3E74D
:1023E4007C510020DC5000202DE9F84315460446BA
:1023F40018B94FF0FF30BDE8F8833A28CDBF002765
:1024040001270646A0F13C063846FFF7C1FF804687
:10241400002F00F0FE80A1F590739BB20B2B2ED8F9
:102424002046FFF723FF01463A462046FFF7C6FF42
:102434000F288146DDDC3A4629462046FFF76EFF29
:10244400002F40F0EF80402C40F3EC807F4AE806F8
:1024540052F824304FEA093923F4E04323F01803F7
:1024640048BF43F00803A90648BF43F0100309F42A
:10247400E04949EA030342F824300020BBE7A1F510
:102484009C739BB2072B26D84A109C3AA1EB4201BD
:1024940089B2B1F59C7F19D040F23913994240F0CA
:1024A400BF804FF0080E4FF47C5C6949A4F10E0321
:1024B40051F8220003FA0EF3434003EA0C034340AD
:1024C40041F8223004F5297189B2ADE74FF0000ECE
:1024D4004FF03F0CE9E7A1F5EC739AB2092A36D81C
:1024E4000522B3FBF2F3C3EB8332C3EB82020A444B
:1024F40092B2A2F5EC7188B2032814D84FF03F0EC3
:102504005448C90050F823C0A4F10E028A4082EA5C
:102514000C020EFA01F10A4082EA0C0240F8232070
:1025240004F25521D0E7B2F5EE7F79D13F214A4834
:10253400DA00D0F86CC0A4F10E03934083EA0C03D4
:1025440001FA02F2134083EA0C03C366E8E76FF46E
:10255400017901EB090293B2052B27D80323B2FBBF
:10256400F3F26FF4017EC2EB823302EB83030B447C
:102574009BB203EB0E0C1FFA8CFCBCF1020F4FD87C
:10258400DB00A3F581533549A4F10E0E083B0EFA86
:1025940003F3DFF8D8E051F822005EF82CC0434082
:1025A40003EA0C03434041F82230B9E76FF4F87CA6
:1025B40001EB0C039AB2092A3FF636AFB1F5FC7F62
:1025C40016D2590813F0010F254B4FF03F00254A4E
:1025D40018BF1A46C9008840D2F800C0A4F10E03FF
:1025E4008B4083EA0C03034083EA0C03136097E7F0
:1025F40007D040F2F913994207D100213F201A4A2B
:10260400EAE710214FF47C10F9E708214FF47C50DD
:10261400F5E7A1F596739BB2072B3FF605AFFFE6EE
:10262400002101E706F18046013E58F8263005F006
:10263400300509F00F0945EA090523F03F031D435E
:1026440045F0400548F8265017E700BF58AF0C5036
:1026540048B0005064B0005000B0005070B000505A
:102664007CB0005078B0005080B00050D0500020B2
:102674003A2838B5044625DD402816DC0025A0F1AB
:102684003C012846FFF784FE01F18043013B50F8EA
:1026940023102A4621F05F0141F00F0140F8231076
:1026A40000212046FFF73AFE0AE0084A52F820309B
:1026B40023F4E04323F00E0343F4E04342F82030D4
:1026C400002038BD01460125DBE700BF58AF0C50A0
:1026D4003F000000003F000000003F000000000039
:1026E40000000000000000000000000000000000E6
:1026F400000000000000000000000000B200210300
:1027040001030000000000003B024B0237020000FE
:10271400000000000000000000000000B3002203DD
:1027240002030000000000003C024B0238020000DB
:10273400000000000000000000000000B4002303BB
:1027440003030000000000003D024B023A020000B7
:10275400000000000000000000000000B500240399
:1027640004030000000000003E024B023902000096
:102774000000000000000000000000000000000055
:102784000000000000000000000000000000000045
:10279400000000000000000000000000F20004003F
:1027A4000000000000000B0000000000000000001A
:1027B400000000000000000000000000F300090019
:1027C4000000000000000300000000000000000002
:1027D400000000000000000000000000F4000A00F7
:1027E4000000000000000A000000000000000000DB
:1027F400000000000000000000000000F5000B00D5
:102804000000000000000B000000000000000000B9
:10281400000000000000000000000000F6000C00B2
:1028240000000000000003000000000000000000A1
:10283400000000000000000000000000F70003009A
:1028440000000D000900000000000000000000006E
:10285400000000000000000000000000F80002007A
:1028640000000E000B00000000000000000000004B
:10287400000000000000000000000000F90001005A
:1028840000000F000A000900000000000000000022
:10289400000000000000000000000000FA000D002D
:1028A4000000100003000C00000000000000000005
:1028B400000000000000000000000000FB000E000B
:1028C40000000600010001000000000000000000FC
:1028D400000000000000000000000000FC000F00E9
:1028E400000001000C000C000000000000000000CB
:1028F400000000000000000000000000FD001000C7
:1029040000000300000009000000000000000000B7
:10291400000000000000000000000000FE000500B0
:10292400060000000000000000000000000000009D
:1029340000000000000000000000000052005401EC
:1029440000000000B202630200006A0100000000FF
:102954000000000000000000000000005300000020
:1029640000000000B3026402000000000000000048
:1029740000000000000000000000000054005501A9
:102984000000C601B40265029A016B0100003B021B
:1029940000002702000000000000000055004E0166
:1029A4000000C801B502660299015F0100003C0203
:1029B40000002802000000000000000056004F0143
:1029C4000000C701B602670297015E0100003D02E4
:1029D4000000290200000000000000005700500120
:1029E4000000C401B70268029501680100003E02BC
:1029F40000002A02000000000000000058005101FD
:102A04000000C501B80269029401690100003F0297
:102A140000002B02000000000000000059005201D9
:102A24000000D401B9026A02920160010000400270
:102A340000002C0200000000000000005A005301B6
:102A44000000D501BA026B0291016101000041024C
:102A54003A02000000000000000000005B000000DB
:102A640000000000BB026C020000000000004202F3
:102A74003902000000000000000000005C000000BB
:102A840000000000BC026D02000000000000000015
:102A94000000000000000000000000005D000000D5
:102AA40000000000BD026E02000000000000D3011F
:102AB4003702210200000000000000005E001B003D
:102AC400B7010000BE026F02000000000000000019
:102AD4003802220200000000000000005F00220013
:102AE400B8010000BF0270020000000000000000F6
:102AF400000023020000000000000000600023002A
:102B0400B2010000C00271020000000000000000D9
:102B14000000240200000000000000006100210009
:102B2400B4010000C10272020000000000000000B5
:102B340000002502000000000000000062001900EF
:102B4400B5010000C2027302000000000000000092
:102B540000002602000000000000000063002400C2
:102B6400B6010000C302740200000000000000006F
:102B740000000000000000000000000064000000ED
:102B84001A020000C40275020000000000000000E8
:102B940000000000000000000000000065000000CC
:102BA40019020000C50276020000000000000000C7
:102BB40000000000000000000000000066000000AB
:102BC40000000000C60277020000000000004B0273
:102BD400000000000000000000000000670000008A
:102BE40000000000C702780200000000000000009E
:102BF4000000000000000000000000006800000069
:102C04000000D401C80279020000000000000000A6
:102C14000000000000000000000000006900000047
:102C24000000D501C9027A02000000000000000083
:102C34000000000000000000000000006A00000026
:102C44004901C601CA027B02000000000000000026
:102C54000000000000000000000000006B00000005
:102C64004801C801CB027C02000000000000000003
:102C74000000000000000000000000006C000000E4
:102C840000000000CC027D020000000000000000F3
:102C94000000000000000000000000006D000000C3
:102CA40000000000CD027E020000000000000000D1
:102CB4000000000000000000000000006E000000A2
:102CC4004601C701CE027F020000000000000000A0
:102CD4000000000000000000000000006F00000081
:102CE4004701C401CF028002000000000000000080
:102CF4000000000000000000000000007000000060
:102D04000000C501D00281020000000000000000A4
:102D1400000000000000000000000000710000003E
:102D240000000000D1028202000000000000430203
:102D3400000000000000000000000000720000001D
:102D440000000000D2028302000000000000000026
:102D540000000000000000000000000073000000FC
:102D640000000000D3028402000000000000000004
:102D740000000000000000000000000074000000DB
:102D840000000000D40285020000000000000000E2
:102D940000000000000000000000000075000000BA
:102DA40000000000D50286020000000000000000C0
:102DB4000000000000000000000000007600000099
:102DC40000000000D602870200000000000000009E
:102DD4000000000000000000000000007700000078
:102DE4004D010000D7028802000062010000440285
:102DF4000000000000000000000000007800000057
:102E04004C010000D802890200000000000000000C
:102E14000000000000000000000000007900000035
:102E24004A010000D9028A029001630100004502B0
:102E340000002F0200000000000000007A000000E3
:102E44004B010000DA028B028F016401000046028C
:102E54000000300200000000000000007B000000C1
:102E640000000000DB028C029301650100004702B0
:102E74000000310200000000000000007C0000009F
:102E840000000000DC028D02960166010000480289
:102E94000000320200000000000000007D0000007D
:102EA40000000000DD028E02980167010000490263
:102EB4000000330200000000000000007E0000005B
:102EC40000000000DE028F020000000000004A0241
:102ED4000000340200000000000000000244034629
:102EE400934200D1704703F8011BF9E7000000008A
:102EF4005FF800F0193D00105FF800F00134001095
:102F04005FF800F07D3400105FF800F041430010DA
:102F14005FF800F01D3E00105FF800F00539001066
:102F24005FF800F0ED3D00105FF800F0353D001053
:102F34005FF800F0FD3300105FF800F0C53C0010AE
:102F44005FF800F0693D00105FF800F0E53C001008
:102F54005FF800F0BD3D00105FF800F06D34001024
:102F64005FF800F0F53800105FF800F03935001014
:102F78000348044B834202D0034B03B11847704700
:102F8800F0590020F059002000000000064B0749C6
:102F9800C91A891048BF0131491003D0044B0BB13D
:102FA80001481847704700BFF0590020F059002029
:102FB8000000000010B5064C237843B9FFF7D8FF8E
:102FC800044B13B10448AFF300800123237010BDF4
:102FD800F059002000000000B05B001008B5054B58
:102FE8001BB105490548AFF30080BDE80840FFF76D
:102FF800CDBF00BF00000000F4590020B05B0010F6
:103008007047704700236C4970B5C1F88430BFF32E
:103018004F8F43F6E074D1F88030C3F3C900C3F38F
:103028004E335B01024603EA040646EA8275013A1A
:10303800C1F86052F9D2203B13F1200FF2D1BFF34F
:103048004F8FBFF36F8FBFF34F8FBFF36F8F002288
:10305800C1F85022BFF34F8FBFF36F8FBFF35F8F5D
:103068004B6A23F480334B62D1F8943023F0010388
:10307800C1F89430BFF34F8FBFF36F8F11461046DE
:103088004D4BC3F8982001320C2AC3F8A000F8D1A0
:10309800D3F8C020494822F0FF0242F02202C3F8C8
:1030A800C020D3F8C02022F47F4242F48842C3F8FB
:1030B800C020D3F8C02022F47F02C3F8C020D3F880
:1030C800C02022F07F4242F0EE42C3F8C020D3F87D
:1030D800C42022F0FF0242F03302C3F8C420C3F830
:1030E80098104FF6E1720721C3F89C10C3F8A0208E
:1030F8000122C3F8982002F10112C3F89C20304A3B
:10310800C3F8A0200222C3F898202E4AC3F89C20B6
:103118002D4AC3F8A0200322C3F89820C3F89C00C6
:103128002A48C3F8A0000420C3F898002848C3F828
:103138009C002848C3F8A0000520C3F8980026483A
:10314800C3F89C002548C3F8A0000620C3F89800DF
:103158002348C3F89C002348C3F8A000C3F898107C
:103168002149C3F89C1001F5432101F6E171C3F828
:10317800A0100821C3F898101C49C3F89C1001F549
:103188007F2101F6DF71C3F8A0100921C3F8981058
:103198001749C3F89C101749C3F8A010BFF35F8FF5
:1031A800C3F894205A6A42F480325A62BFF34F8FB0
:1031B800BFF36F8F70BD00BF00ED00E0020000207C
:1031C800E3FF020006000010E1FFFF1FE3FF2720D6
:1031D80003000040E5FFFF5F02000060E9FFFF61B8
:1031E80002C03F20E3FF4F2002C0BF200200802022
:1031F80006000062E3FFFF6F70B5204B5A6912F4B6
:10320800003211D1BFF34F8FBFF36F8FC3F8502235
:10321800BFF34F8FBFF36F8F5A6942F400325A6180
:10322800BFF34F8FBFF36F8F144A536913F4803382
:1032380023D1C2F88430BFF34F8F43F6E074D2F83D
:103248008030C3F3C900C3F34E335B01014603EA80
:10325800040646EA81750139C2F86052F9D2203B6A
:1032680013F1200FF2D1BFF34F8F536943F480332A
:103278005361BFF34F8FBFF36F8F70BD00ED00E058
:103288007047000008B5104A104B9A60D3F88820A0
:1032980042F03F02C3F88820D3F8882042F4700235
:1032A800C3F88820FFF7ADFEFFF7ACFE084B1B689C
:1032B800DB0701D4FFF7A4FEFFF79EFFFFF7E0FF4F
:1032C800044B054A1A6008BD0000001000ED00E03C
:1032D80000B000508459002040787D0130B5024686
:1032E8000024104B1D781846954202D19D888D42C6
:1032F80017D00134092C03F10603F3D10A4B5B689C
:10330800DBB2062B0CD90624084B1D7818469542CB
:1033180002D19D888D4204D0013C03F10603F4D10B
:10332800002030BDD859001000B00050B45900102A
:1033380038B50446084619461546FFF7CFFF38B199
:10334800438882882946E01801F097FE002038BD9E
:103358000120FCE738B50546084619881446FFF7EA
:10336800BDFF38B1418882882944204601F085FE96
:10337800002038BD0120FCE7034B5B68DBB2062B5D
:103388008CBFCC204020704700B00050DFF848D0F8
:10339800124880F30A88FFF775FF114C114DAC42B3
:1033A80009DA21686268A368043BA2BFC858D050F4
:1033B800FAE70C34F3E70C4B0C4CA34208DA196813
:1033C8005A680020043AA4BF8850FBE70833F4E7A2
:1033D80001F052F9FEE7FEE700200020000000207F
:1033E800C45B0010E85B0010E85B0010F85B00109D
:1033F800002070477047000038B50A4B054618682A
:103408004FF47A73B0FBF3F000F07EF8044638B955
:10341800024629464FF0FF3000F040F8204638BDFC
:103428000120FCE784590020024A13680133136025
:10343800704700BF405A0020014B1868704700BF12
:10344800405A00207047704708B5054B1B6A5B005F
:1034580002D5FFF7F8FF08BDFFF7F4FFFBE700BF51
:1034680000B00050024B9A6B22F400729A637047C6
:1034780000700850C31E042B00D9FEE7064AD36823
:1034880023F4E0631B041B0C43EA002040F0BF60F8
:1034980040F40030D060704700ED00E00F2A30B5EE
:1034A80000D9FEE70F2900D9FEE7154BDC68C4F305
:1034B8000224C4F10703E51C032B28BF0323062DB0
:1034C8004FF0FF3594BF0024043C05FA03F321EACA
:1034D8000303A54022EA0502A340002843EA0203A9
:1034E800ACBF00F16040074A4FEA4313DBB2ABBF01
:1034F80000F5614000F00F0080F80033135430BD30
:1035080000ED00E014ED00E00138B0F1807F0BD24F
:103518004FF0E023E021054A586182F8231000208B
:10352800072298611A6170470120704700ED00E09A
:103538000121F8B5084602F033FB254B04469842B2
:1035480040D821A3D3E900231420A4FB000101F0F3
:10355800C3F80A250021461C1E480023E4FB050188
:103568001D4A01F0B9F8074605461C4800232246C3
:10357800A7FB000101F0B0F842F6F82398424FEAA1
:10358800C61619D97D1E4FF4FA700FA3D3E900238C
:10359800A4FB000101F0A0F8AD0225F07F4525F459
:1035A8006005013025F47F750D4B304325F0030588
:1035B800284358600020F8BD42F22733984298BF4C
:1035C8007D1CE0E70120F6E700CA9A3B00000000F6
:1035D800000E270720A1070040420F0000CA9A3BAF
:1035E80000C00050202A2DE9F84306460C4615462F
:1035F80030DCC0F3C40808EB0203202B2ADC970751
:1036080028D110F01F0925D1254A1420D2F894702A
:10361800360AFB1C0E2B38BF0E230F2B28BF0F2397
:10362800C2F8943002F098FA1E4AB3001360136887
:103638001D4943F0010313604B4669439068C00776
:103648000CD590688B4240F0010090600AD3144B6F
:10365800C3F8947000252846BDE8F8838B42F0D261
:103668000133EBE7114A08F01C0000EB461025F087
:103678000301024421448C4203D1094BC3F89470DE
:10368800E9E752F8043B0434180A04F8043C04F847
:10369800030C180C1B0E04F8020C04F8013CEAE7B2
:1036A80000A00C5000C0005000DC050030C00050E5
:1036B8000FB404B070470000014B43F82010704766
:1036C80030B00C50014B53F82000704730B00C500C
:1036D80010B50A4B0A495A680A4BD2B2062A88BF63
:1036E8000B46094C2360FFF747FE2368024600217A
:1036F800184602F04DFA054A026010BD00B00050AD
:10370800002A4020C0FD4020445A002078784545D2
:1037180008B513460A46014603480068FFF708FE45
:10372800003818BF012008BD445A002008B51346C8
:103738000A46014603480068FFF70CFE003818BF28
:10374800012008BD445A002070B5044616460D46AF
:1037580019B3FD2821D8022002F016FA104B1B6875
:103768000BB9FFF7B5FF324629462046FFF7D0FFD1
:10377800EFF31081012383F310880A4A137803B901
:10378800FEE7013BDBB2137023B9074AD36A23F083
:103798000103D36281F3108870BD0120FCE700BFEC
:1037A800445A00207059002000000C50F8B5054616
:1037B80017460E4619B312B3FD2820D81D4C022017
:1037C80002F0E2F923680BB9FFF782FF23681A4C6D
:1037D8001A681A4B9A4214D0EFF31081012383F32D
:1037E8001088237803B9FEE7013BDBB2237023B9C5
:1037F800134AD36A23F00103D36281F310880120AE
:10380800F8BD3A4631462846FFF790FFEFF310819E
:10381800012383F31088237803B9FEE7013BDBB269
:10382800237023B9064AD36A23F00103D36281F3D4
:103838001088E5E7445A00207059002078784545FB
:1038480000000C5007B5022002F09EF9002102206A
:1038580000F0F8F90021019001A800F009FAEFF34F
:103868001081012383F310880A4A137803B9FEE70D
:10387800013BDBB2137023B9074AD36A23F0010373
:10388800D36281F31088003818BF0120404203B08A
:103898005DF804FB7059002000000C5007B50220A9
:1038A80002F072F90021022000F0CCF90021019009
:1038B80001A800F0F2F9EFF31081012383F31088D7
:1038C800084A137803B9FEE7013BDBB2137023B94A
:1038D800054AD36A23F00103D36281F3108803B049
:1038E8005DF804FB7059002000000C500320FFF71E
:1038F800E9BE01460420FFF7DFBE000000232DE9E2
:10390800F04F89B00693BE4B02929E680D4616F0A2
:10391800010640F06F81FFF795FF002840F06D81A8
:10392800022002F031F9EFF31080012181F31088B1
:10393800B44B1A6942F002021A61B34A117080F35B
:1039480010881A69002AFCDA4FF08042136923F0C4
:10395800030343F001031361D2F814A0CAF3023B36
:10396800BBF1070F05D04FF0FF310722084602F0E0
:10397800EBF800229146A54F0392D7F814110120C5
:103988006FF3DC4141F40021C7F81411D7F8141182
:1039980041F00051C7F81411D7F8141121F48031FF
:1039A800C7F81411D7F81411C7F81411D7F814115F
:1039B8006FF30F01C7F81411D7F8141141F0C801BB
:1039C800C7F81411D7F8141141F40031C7F81411CD
:1039D80002F0E2F8039AD7F818110029FBDADFF8A9
:1039E8005882D7F81841D8F8001024F0004481B163
:1039F8000420FFF767FE41F28731A04234BF221A44
:103A0800021B8A42069004D909F10109B9F10A0F8B
:103A1800B2D1002321467E48FFF74AFEB9F10A0FCA
:103A280026D17C4A13780133DBB2042B13701BD0E8
:103A38000023BBF1070F08D05A46CAF302210AF047
:103A48003F00039302F080F8039B4FF000096E4A91
:103A5800714F82F80090012213BBEFF3108182F3BB
:103A680010883B7853B9FEE70023C8F80030DFE739
:103A780021460320FFF720FE0123DAE7013BDBB2F2
:103A88003B7023B9654AD36A23F00103D36281F3FB
:103A98001088FFF703FF6FF0010009B0BDE8F08F51
:103AA800C82300921946FA225D48FFF701FE15B1B6
:103AB8000225C8F80090D8F80010029BDFF87CA116
:103AC80099423CBF0131C8F800100129DAF80030EA
:103AD800DFF86C917DD90229D9F8002056D101264A
:103AE8000132224452084FF0000BC9F80020214649
:103AF8004C48CDE9006BFFF7DBFDD9F80000CAF8A8
:103B080000400690FFF7F5FE99ED007ADFED466A72
:103B1800B8EE477AC6EE877A9FED447A012367EEBE
:103B2800877A07200DF116020DF11501ADF8163050
:103B3800CDED077A8DF815B0FFF738FE9DF81530F2
:103B48003BB93B48FFF7B4FD0422022006A9FFF762
:103B5800FBFD07A904220120FFF7F6FD0320FFF76C
:103B6800B1FD04460420FFF7ADFD00230093024693
:103B78002146D8F800302F48FFF79AFDEFF310815F
:103B8800012383F310883B782BBBFEE7A24210D2B7
:103B9800A11AFA2916D9934214D9991AFA2911D9CE
:103BA8000D2102EB4202083201FB0422032612090E
:103BB80099E707D9111BC82904D9934202D2D11A0F
:103BC800C829ECE7C2EBC202043222440226D2081A
:103BD80089E7224687E7013BDBB23B7023B90F4AEE
:103BE800D36A23F00103D36281F31088FFF756FEEE
:103BF800284652E74FF0FF304FE76FF002004CE7DE
:103C080000B00C5000000440585A00200000094041
:103C18000E5A0010505A00207059002000000C5015
:103C2800305A0010595A0010001B374C0000484306
:103C38009D5A0010A55A0010545A0020485A0020D6
:103C48004C5A002001280BD103290BD8064803E061
:103C5800022800D0FEE70548182303FB010070473F
:103C68000129F5D9002070470020085000200040A5
:103C780018B1016849B9042070470329FBD81823F3
:103C8800594301F1A04101F502214869002802DBEE
:103C980000F00F0070470020704710B1016841B96B
:103CA8007047032909D81823594301F1A04101F5A8
:103CB80002214B6943F000434B61704708B5064A3F
:103CC8000120936923F4E77343F4A773936101F028
:103CD80063FF002008BD00BF00A00C5008200A4A5E
:103CE800136A116A23F4804321F00301116223F05F
:103CF8003C03064943F0CB03C1F88C00C1F890009F
:103D080000201362704700BF00A00C500030005024
:103D1800054B9A6E20B142F0200200209A66704747
:103D280022F02002F9E700BF00A00C5038B50B4C78
:103D38000020236A002B0FDB01F012FF4FF47A7585
:103D4800236A002B05DB4FF47A7001F009FF013D6F
:103D5800F6D1206AC043C00F38BD00BF00A00C5088
:103D6800054BDA6920B142F001020020DA617047A0
:103D780022F00102F9E700BF00A00C5038B50B4C47
:103D8800E369002B0FDB0A4B5D6BE369002B06DB55
:103D980042F21071284601F0F3FE0028F5D0E069E0
:103DA800C043C00F38BD0020FCE700BF00A00C5086
:103DB80000000C5008B530B9094A136823F0010314
:103DC8001360002008BD022804D1FFF7D7FF01289F
:103DD80000D1FEE7024A136843F00103F0E700BF91
:103DE80000A00C50084B984205D1084A536843F08C
:103DF800020353607047064B9842FBD1034A53684D
:103E080043F00403F5E700BF0040095000A00C5040
:103E180000B00040214B5A6922F03C0242F00402F3
:103E28005A611A6B42F00F021A631A6B6FF30F1282
:103E380042F4EE4242F070021A631A6B22F070628A
:103E480042F0C0621A639A6A22F07F0242F00602C8
:103E58009A625A6842F080025A60DA6C22F47C4214
:103E680042F48062DA641A6D22F47C4242F4806281
:103E78001A655A6D22F0700242F030025A659A6D46
:103E880022F0700242F030029A651A6F42F47C7296
:103E98001A674FF00112C3F88C20704700A00C502D
:103EA80038B5304C0E222146062000F067FA00286B
:103EB80053DD01232C4A04F8013C20786378D56A45
:103EC8009B07400600F0606003F08043034325F041
:103ED8009C400343D362D2F89830E078234D60F3D6
:103EE8000303C2F8983053692079611E60F38D236B
:103EF80053616B686079DBB24000072B00F01E004D
:103F08002CD06B68DBB20F2B28D0CB79D46D5B0239
:103F180003F4F053034324F01E1020F4F05003433D
:103F2800087A400400F4F0100343D3650F4A53683D
:103F3800DBB2072B11D05368DBB20F2B0DD00A4828
:103F48004B7A426A03F0070322F0270213438A7A66
:103F5800520102F020021343436238BDD36D23F0AF
:103F68001E03E1E77259002000A00C5000B0005079
:103F780070470000F0B5274A41680346914200D9CE
:103F8800FEE7826832F0C05100D0FEE7C16831F424
:103F9800405100D0FEE7016A31F4006100D0FEE72D
:103FA800056935F4806103D0B5F5C06F00D0FEE730
:103FB8005C6934F00C0100D104B9FEE7996931F469
:103FC800407100D0FEE7D96931F4804000D0FEE7A7
:103FD8001E682A43224337680A430F4939400A4377
:103FE80032601968DC684A6822F4405222434A6009
:103FF8001C689A69A1681D6A21F430612A430A4342
:10400800A2601968CA6A22F0F002CA62C3E91800FD
:10401800F0BD00BF80969800F3B9FFE7436AFF2B15
:1040280000D9FEE7DA070AD5816A31F4003300D0F7
:10403800FEE70268536823F400330B435360436A76
:104048009B070AD5C16A31F4803300D0FEE70268C5
:10405800536823F480330B435360436A59070AD5E6
:10406800016B31F4802300D0FEE70268536823F423
:1040780080230B435360436A1A070AD5416B31F416
:10408800004300D0FEE70268536823F400430B4363
:104098005360436ADB060AD5816B31F4805300D044
:1040A800FEE70268936823F480530B439360436AE6
:1040B80099060AD5C16B31F4005300D0FEE70268B7
:1040C800936823F400530B439360436A5A0615D54B
:1040D800016C31F4801300D0FEE70268536823F4C2
:1040E80080130B435360036CB3F5801F06D102683D
:1040F800416C536823F4C0030B435360436A1B06A7
:104108000AD5816C31F4002300D0FEE702685368B9
:1041180023F400230B4353607047000010B5044696
:10412800002870D00268394B9A4202D1082001F069
:1041380023FD2268364B9A4202D1092001F01CFD6A
:104148002268344B9A4202D10A2001F015FD2268F8
:10415800314B9A4202D10B2001F00EFD94F87130D8
:1041680003F0FF0223B9204684F87020FFF700FF10
:104178002423226884F871301368204623F0010351
:104188001360FFF7F7FE636A13B12046FFF746FF97
:104198002268536823F4904353602268936823F09D
:1041A8002A0393602268136843F00103136061686F
:1041B8001A4B2268B3FBF1F30F2B19D8184BB3FB3A
:1041C800F1F3116841F4804111602168CA6A22F054
:1041D8000F0242F00202CA6222680020D360202344
:1041E800606784F8700084F8713084F8723010BD0C
:1041F800116821F4804111602168CA6A22F00F0217
:1042080042F00602E7E70120F1E700BF005008503E
:10421800006008500050004000600040006CDC0264
:1042280000D8B8052DE9F04104460E4615461F464C
:10423800DDF818802268D36936EA03030CBF01232E
:104248000023AB4201D0002018E0B8F1FF3FF2D0C4
:10425800B8F1000F14D122680320136823F4D07337
:1042680013602268936823F001039360202384F885
:10427800713084F87230002384F87030BDE8F08122
:10428800FFF7DAF8C01B4045D4D9E4E72DE9F3413C
:104298001F4690F871300446202B0D46164649D12A
:1042A800002945D0002A43D090F87030012B41D026
:1042B800012380F8703000234367212380F8713090
:1042C800FFF7BAF88046A4F85060A4F85260B4F832
:1042D8005220434692B2009752B940212046FFF738
:1042E800A1FF58B9202384F8700084F8713006E0E3
:1042F800002280212046FFF795FF18B1032002B065
:10430800BDE8F081A3682268B3F1C05F0DD12369CD
:104318005BB935F8023BC3F308039362B4F8522043
:10432800013A92B2A4F85220D1E715F8013BF4E71C
:104338000120E4E70220E2E710B5FFF7F9F80446A8
:10434800A8B901F009FC0A2001F006FC2022214648
:10435800094801F01DFC20224FF480700649FFF740
:1043680041F9202805D1FFF79BFD204610BD01200B
:10437800FCE70220FAE700BF605A00202DE9F0416F
:1043880004461046914A566811B90020BDE8F081EC
:104398000028FADD8E4B1D78002DF6D0042C79D13B
:1043A8000D28F2DD546893F804C0E4B2072C874C5A
:1043B80018BF52686268DFF81482D2B2072A18BFA1
:1043C80062685A79120202F470624CEA020CA1F88F
:1043D80000C09D795A792D0105F0100545EA12159E
:1043E8008D80DF799A79FF0107F4786747EA5207E9
:1043F8004F801C7ADA79E40004F0180444EA521475
:10440800CC805A7A1E7A920102F47C6242EA9602C1
:104418000A819E7A93F809E0B60006F03C0646EA5F
:104428009E1605EB850504EB840406EB860605EB72
:10443800850504EB840406EB8606AD00A400B600EF
:104448008D80CC804E81D8F804E05FFA8EFEBEF1F4
:10445800070F06D0D8F804E05FFA8EFEBEF10F0F02
:1044680008D193F811E0CEF3C00E81F80CE05B7C24
:104478001B094B73BCF1000F87D0002D85D0002F8E
:1044880083D0002C81D0002A3FF47FAF002E3FF468
:104498007CAF7BE7062C79D10D287FF776AF54687F
:1044A800E4B2072C494C18BF52686268D2B2072A96
:1044B80003D06268D2B20F2A03D1C6F30722042AB6
:1044C8001CD0424C6268D2B2072A00D0626805F05C
:1044D80007050D701A78C2F3C0044C705C78120995
:1044E80004F00F0524098A70CD700C715C7B2409D7
:1044F8000C739C7B04F00F044C7315E01A7D02F0DA
:1045080007020A701A7DC2F3C0024A701A7D1209A6
:104518008A705C7D04F00F04CC705C7D24090C71FA
:104528001C7FC4F3C3040C73284D6C68E4B2072CD9
:104538000FD06C68E4B20F2C0BD09C7824098C71D6
:10454800DC7804F00F05CD71C4F30215E4090D728F
:104558004C721E4C6568EDB2072D03D06568EDB24C
:104568000F2D07D16568EDB2072D03D06468E4B25A
:104578000F2C03D19B7803F00F034B71002A3FF4F3
:1045880004AF0B7B002B3FF400AFFFE6152C7FF444
:10459800FCAE07287FF7F9AE9A7A12090A70DA7A20
:1045A80002F03F024A701A7BDC7A920002F01C0289
:1045B80042EA94128A701A7BD208CA70DA7B9B7B13
:1045C8001B0943EA02130B71E0E600BF00B000507C
:1045D800605A0020FEF728BF7FB5044601236028F3
:1045E800C8BFA0F160040E46CDE901434FF00003B7
:1045F800CCBF074D074D01A92846039301F0B4FA33
:104608002846F2B2A1B201F0A3FA04B070BD00BF0F
:104618000000084000000A50022810B5144607DCC4
:104628004FF6FF73044892B2FFF730FE204610BDE4
:104638004FF0FF34FAE700BF805A002008B501F0B8
:1046480097FA0A490A4B0B4A0B604FF08053C1E9AD
:10465800012300230C220846C1E903338B614A6118
:10466800CB61FFF75BFD00B1FEE708BD805A002073
:104678000040085040420F0038B5FFF7DFFF1248EE
:1046880000F0C4FB00211F20FFF7A6FF0021202017
:10469800FFF7A2FF0D4900240D4684F001040C48E1
:1046A80000F04CFB21461F20FFF796FF21462020F3
:1046B800FFF792FF4FF47A7001F06EFA0549002C6B
:1046C80008BF2946E9E700BFD45A0010D05A0010A5
:1046D800E95A0010CD5A001053B94AB9002908BF49
:1046E80000281CBF4FF0FF314FF0FF3000F0B2B987
:1046F800ADF1080C6DE904CE00F006F8DDF804E031
:10470800DDE9022304B070472DE9F04F8C46099E7D
:1047180004460F46002B48D18A4215465ED9B2FAA4
:1047280082F33BB1C3F120029F409D409C4020FA98
:1047380002F217434FEA154E1FFA85FC220CB7FB0D
:10474800FEF10EFB117701FB0CF042EA07429042A2
:1047580007D9AA1801F1FF3702D2904200F2588116
:104768003946121AA4B2B2FBFEF00EFB102200FB6F
:104778000CFC44EA0244A4450BD92C1900F1FF3281
:104788002CBF01270027A44502D9002F00F0438140
:10479800104640EA0140A4EB0C0400211EB1DC40A5
:1047A8000023C6E90043BDE8F08F8B4206D90EB15D
:1047B800C6E9000100210846BDE8F08FB3FA83F18D
:1047C800002951D16345C0F01681824240F213811D
:1047D8000846002EE7D0C6E90047E4E7002A00F0C3
:1047E800AF80B2FA82F3002B40F0C2808A1A4FEAF7
:1047F800154EAFB20121200CB2FBFEFC0EFB1C22B1
:1048080040EA024207FB0CF090420ED9AA180CF1BC
:10481800FF382CBF4FF001094FF00009904203D92F
:10482800B9F1000F00F0F080C446121AA4B2B2FB2E
:10483800FEF00EFB102200FB07F744EA0244A742F1
:104848000ED92C1900F1FF322CBF4FF0010E4FF09A
:10485800000EA74203D9BEF1000F00F0D280104627
:10486800E41B40EA0C4099E7C1F120058B400CFAA3
:1048780001F400FA01F922FA05F72CFA05FC8A403E
:104888001F4320FA05F3380C23431FFA87FE1C0C3C
:10489800BCFBF0F800FB18CC44EA0C4408FB0EFC07
:1048A800A4450ED93C1908F1FF3A2CBF4FF0010B73
:1048B8004FF0000BA44503D9BBF1000F00F0B880FE
:1048C800D046A4EB0C041FFA83FCB4FBF0F300FB06
:1048D800134403FB0EFE4CEA0444A6450ED93C19CA
:1048E80003F1FF302CBF4FF0010C4FF0000CA64530
:1048F80003D9BCF1000F00F09F80034643EA08404B
:10490800A4EB0E04A0FB02EC64457346E04602D318
:1049180007D1F14505D2BEEB02036CEB070C013859
:10492800E0465EB1B9EB030264EB080404FA05F54E
:1049380022FA01F3CC401D43C6E90054002132E7B6
:1049480042082F464B08AC4642EAC172AE46C4073D
:10495800110C92B241EA034142EA0142B1FBF5F17E
:10496800B3FBF5F01F23A2EB0C0241EA004142E73A
:104978009D40C3F1200299409C402CFA02FC4FEA6A
:10498800154E20FA02F2AFB2BCFBFEF80A430EFB4A
:1049980018CC110C41EA0C4108FB07FC8C4550D996
:1049A800691808F1FF302CBF4FF001094FF00009DA
:1049B8008C4502D9B9F1000F30D0A1EB0C01B1FB45
:1049C800FEF808FB07FC0EFB181192B242EA0142FE
:1049D800624534D2AA1808F1FF312CBF4FF0010903
:1049E8004FF000096245BED2B9F1000FBBD1A8F162
:1049F80002012A44B7E7841A6CEB03020120174628
:104A0800E7E62C4402382BE7ACF1020C2A440CE709
:104A180002392A44A5E62C440238BAE6A5EB0C0C68
:104A2800A8F102006144B1FBFEF808FB07FCCAE7E5
:104A3800A8F102083C4444E7023B3C445EE7414697
:104A480091E7A1EB0C014046B1FBFEF808FB07FC1F
:104A5800B9E700BF704700BF70B50F4E0C4605465A
:104A6800316811B900F0E4FA30602146284600F0B8
:104A7800DFFA431C03D14FF0FF34204670BDC41C3D
:104A880024F00304A042F8D0211A284600F0D0FAF6
:104A98000130F2D1EFE700BFF85A00202DE9F843C2
:104AA800CD1C064625F0030508350C2D38BF0C250E
:104AB800002D01DBA94204D90C2333600020BDE896
:104AC800F883DFF8D48000F069F8D8F800301C4685
:104AD80044BB29463046FFF7BFFF431C044658D164
:104AE800D8F800402746002F43D1002C4BD023682C
:104AF8003946304604EB030900F09AFA814542D161
:104B0800216830466D1A2946FFF7A6FF01303AD0D2
:104B180023682B442360D8F800305A6862BBC8F871
:104B280000700FE02268521B20D40B2A17D9611994
:104B3800A342256018BF5960636808BFC8F8001011
:104B480062514B60304600F02FF804F10B00231D32
:104B580020F00700C21A1CBF1B1AA350AFE76268F7
:104B6800A3420CBFC8F800205A60EBE723466468EC
:104B7800AEE73C467F68B6E71A465B68A342FBD1BE
:104B880000235360DEE70C233046336000F00CF856
:104B980094E70560D6E700BFFC5A0020014800F002
:104BA8006ABA00BF405C0020014800F065BA00BF47
:104BB800405C0020002310B50446836081811946BB
:104BC8004366C28108228361C0E90033C0E9043327
:104BD8005C3000F0DDFF0D4B246263620C4BA36276
:104BE8000C4BE3620C4B23630C4B9C4206D003F145
:104BF8006802944202D0D0339C4205D104F1580097
:104C0800BDE8104000F036BA10BD00BF254E0010B8
:104C1800474E00107F4E0010A54E0010005B00208C
:104C2800024A0349034800F06BB800BF8C590020C2
:104C3800D95700109C59002041680C4B994210B577
:104C4800044601D000F0C4FDA168094B994202D086
:104C5800204600F0BDFDE168064B994204D020468D
:104C6800BDE8104000F0B4BD10BD00BF005B0020DF
:104C7800685B0020D05B00200C4B04210C4A0D48D7
:104C880010B51A600022FFF795FF0A4B012209218F
:104C98001C4603F16800FFF78DFF022204F1D000E3
:104CA8001221BDE81040FFF785BF00BF385C002027
:104CB800294C0010005B0020014800F0DCB900BF5F
:104CC800415C0020014800F0D7B900BF415C0020DA
:104CD80010B50446FFF7F0FF236A1BB1BDE810408A
:104CE800FFF7F0BF044B2362044B1B68002BF5D180
:104CF800FFF7C2FFF2E700BF414C0010385C00200C
:104D08002DE9F8430746884614460026D4E901955C
:104D1800B9F1010905D52468002CF7D13046BDE862
:104D2800F883AB89012B07D9B5F90E30013303D0CD
:104D380029463846C04706436835E9E70FB407B542
:104D4800064904AB086853F8042B8168019300F006
:104D580015FA03B05DF804EB04B0704798590020C9
:104D6800036A70B505460E4684680BB9FFF7B0FFB5
:104D7800636EDB0705D4A389980502D4A06D00F003
:104D88007AF9A389190702D52369002B35D1214661
:104D9800284600F0C5F880B34FF0FF35636EDA0798
:104DA80005D4A3899B0502D4A06D00F065F92846B7
:104DB80070BD002B04DAA269934217DB0A2915D0CB
:104DC80023685A1C22601970A36816F8011F013B5A
:104DD800A3600029EDD1002B11DA22460A212846CA
:104DE80000F060F80130D7D00A25D7E722462846D8
:104DF80000F058F80130E7D1CEE7013EE4E7236838
:104E08005A1C22600A221A70EEE70000024B014683
:104E18001868FFF7A5BF00BF9859002010B50C46C9
:104E2800B1F90E1000F0F2F80028ABBF636DA3894A
:104E38001B1823F48053ACBF6365A38110BD2DE913
:104E4800F0411F468B8905460C46DB05164605D5FD
:104E580002230022B1F90E1000F0C6F8A3893246E9
:104E6800B4F90E10284623F48053A3813B46BDE8CD
:104E7800F04100F0EDB810B50C46B1F90E1000F095
:104E8800B3F8421CB4F90C3015BF606523F48053A5
:104E980043F48053A38118BFA38110BDB1F90E104C
:104EA80000F092B8F8B50E461446054618B1036AE4
:104EB8000BB9FFF70DFFA369A360A3891A0701D5F2
:104EC800236943B92146284600F02AF818B14FF063
:104ED800FF373846F8BD2368F6B222693746981A74
:104EE8006369834205DC2146284600F071FC0028EE
:104EF800EDD1A368013BA36023685A1C22601E7091
:104F0800431C62699A4204D0A389DB07E1D50A2EC3
:104F1800DFD12146284600F05BFC0028D9D0D6E72F
:104F280038B5284B05460C46186818B1036A0BB902
:104F3800FFF7CEFEB4F90C301A0721D4D80607D4EF
:104F480009222A6043F040034FF0FF30A38130E08C
:104F5800590712D5616B41B104F14403994202D05B
:104F6800284600F097F8002363630022B4F90C3058
:104F7800626023F024032269226043F00803A381BE
:104F880022693AB99A0501D5180603D5214628465B
:104F980000F06AFCB4F90C3013F001020AD00022C8
:104FA800A26062695242A261226942B913F080008C
:104FB800C8D138BD990758BF6269A260F4E70020DC
:104FC800F7E700BF9859002038B50023054D04467F
:104FD80008462B6000F0B2FC431C02D12B6803B1D9
:104FE800236038BD3C5C002038B50446064D0846B1
:104FF800114600222A601A4600F0B8FC431C02D170
:105008002B6803B1236038BD3C5C002038B50446EA
:10501800064D0846114600222A601A4600F0AEFCEA
:10502800431C02D12B6803B1236038BD3C5C0020CF
:1050380038B50023054D044608462B6000F0A6FC51
:10504800431C02D12B6803B1236038BD3C5C0020AF
:1050580038B50446064D0846114600222A601A460D
:10506800FFF7DAFA431C02D12B6803B1236038BD7D
:105078003C5C00207047704770470A44431E9142C9
:1050880000D1704710B511F8014B914203F8014F58
:10509800F9D110BD38B50546002941D051F8043C76
:1050A8000C1F002BB8BFE418FFF778FD1D4A1368E2
:1050B80033B9636014602846BDE83840FFF774BD13
:1050C800A34208D9206821188B4201BF19685B6880
:1050D80009182160EDE71A465B680BB1A342FAD9BB
:1050E80011685018A0420BD1206801445018116073
:1050F8008342E0D118685B68084453601060DAE7BF
:1051080002D90C232B60D6E7206821188B4202BFF6
:1051180019685B680918636008BF21605460CAE7B2
:1051280038BD00BFFC5A00209368013B002B10B427
:10513800936008DA9469A34201DB0A2903D15DF878
:10514800044BFFF7AFBE1368581C1060084619706F
:105158005DF8044B7047F8B506460F461446D51857
:10516800AC4201D1002007E03A4614F8011B304652
:10517800FFF7DAFF431CF3D1F8BD00002DE9F04F2B
:105188000D469DB014469846064618B1036A0BB9F9
:10519800FFF79EFD6B6ED90705D4AB899A0502D43B
:1051A800A86DFFF768FFAB891B0701D52B699BB971
:1051B80029463046FFF7B4FE70B16B6EDC0704D5A4
:1051C8004FF0FF301DB0BDE8F08FAB899805F7D4DC
:1051D800A86DFFF751FFF3E70023CDF80C804FF0DF
:1051E8000109DFF8B481099320238DF82930302391
:1051F8008DF82A3023469A4613F8012B0AB1252A3E
:10520800F9D1BAEB040B0BD05B462246294630464F
:10521800FFF7A1FF013000F0A780099A5A440992CC
:105228009AF80030002B00F09F8000234FF0FF32E7
:105238000AF1010A049307938DF853301A93CDE9C4
:10524800052354460522544814F8011B00F068FB56
:10525800049AD8B9D10644BF20238DF853301307D8
:1052680044BF2B238DF853309AF800302A2B15D0E1
:10527800079A544600204FF00A0C214611F8013BCA
:10528800303B092B4BD9B0B1079214E0A0EB0803CF
:10529800A24609FA03F313430493D2E7039B191DAB
:1052A8001B68002B0391BBBF5B4242F002020793CD
:1052B8000793B8BF049223782E2B0AD163782A2B40
:1052C80032D1039B02341A1D1B6843EAE37303922D
:1052D8000593DFF8D4A003222178504600F020FB84
:1052E80038B1A0EB0A004022049B013482401343EA
:1052F800049314F8011B062228488DF8281000F0A2
:105308000FFB00283FD0264B1BBB039B073323F022
:10531800070308330393099B3B4409936AE70CFB93
:1053280002320C460120A8E7002301344FF00A0C92
:1053380019460593204610F8012B303A092A03D95B
:10534800002BC6D00591C4E70CFB012104460123BC
:10535800F0E703AB2A4604A930460093114BAFF39C
:1053680000800746781CD6D16B6ED90705D4AB8967
:105378009A0502D4A86DFFF77FFEAB895B063FF55F
:105388001FAF09981EE703AB2A4604A930460093CD
:10539800044B00F07DF8E4E7FE5A0010085B0010AB
:1053A800000000005F510010045B00102DE9F04779
:1053B800164698468A6807460B690C46DDF8209021
:1053C8009342B8BF1346336091F843200AB10133C2
:1053D80033602368990642BF336802333360256817
:1053E80015F0060506D104F1190AE36832689B1A1C
:1053F800AB422BDC94F843302268003B18BF0123F2
:10540800920630D404F1430241463846C847013079
:1054180023D023681A3454F80A2C03F00603042B0B
:105428000ABF54F80E5C002533684FF0000608BF29
:10543800ED1A54F8123C08BF25EAE5759342C4BF3B
:105448009B1AED18B5421AD1002008E001235246F4
:1054580041463846C847013003D14FF0FF30BDE818
:10546800F0870135C1E7E1185A1C30200233224485
:1054780081F8430094F8451082F84310C2E70123ED
:10548800224641463846C8470130E6D00136D9E7BA
:105498002DE9FF470F7E914680460C46782F9A46A5
:1054A8000C9E01F1430207D8622F0AD8002F00F0A2
:1054B800D280582F00F0B78004F1420684F8427079
:1054C8003AE0A7F16303152BF6D801A151F823F0B0
:1054D8003155001045550010C1540010C15400103A
:1054E800C1540010C154001045550010C15400109B
:1054F800C1540010C1540010C1540010455600108A
:105508006F550010FB550010C1540010C154001015
:1055180067560010C15400106F550010C154001098
:10552800C15400100356001033681A1D1B683260FE
:1055380004F1420684F8423001239DE03368206874
:10554800191D3160060601D51D6803E04506FBD527
:10555800B3F90050002D03DA2D236D4284F843304F
:1055680059480A2310E021683368080653F8045B99
:1055780002D4490648BFADB26F2F5348336059D1A2
:105588000823002184F843106668002EA66005DB16
:1055980021682E4321F0040121604DD01646B5FB49
:1055A800F3F103FB1157C75D06F8017D2F460D4641
:1055B800BB42F4D9082B0BD12368DF0708D5236930
:1055C80061689942DEBF302306F8013C06F1FF36D8
:1055D800921B22614B4603AA21464046CDF800A003
:1055E800FFF7E4FE01304CD14FF0FF3004B0BDE8C6
:1055F800F087236843F02003236078273348236823
:1056080084F845701F06316851F8045B02D45F06C0
:1056180048BFADB23160D90744BF43F020032360CF
:105628001DB11023ADE72848E9E7236823F02003DC
:105638002360F6E70A23A4E71646BBE73368256824
:10564800181D616930602E061B6801D5196002E0DB
:105658006806FBD51980002316462361BAE733682C
:1056680000211A1D32601E686268304600F058F941
:1056780008B1801B606063682361002384F84330AD
:10568800A8E72369324649464046D0470130ABD0A7
:1056980023689B0713D4E068039B9842B8BF184659
:1056A800A4E70123324649464046D04701309BD003
:1056B8000135E36803995B1AAB42F2DCEBE700259E
:1056C80004F11906F5E700BF0F5B0010205B00101E
:1056D800B1F90C202DE9F041160705460C4651D4C6
:1056E8004B68002B02DC0B6C002B49DDE66A002EB0
:1056F80046D0002312F480522F682B6031D0626D9F
:10570800A389590705D56368D21A636B0BB1236C5B
:10571800D21A0023E66A216A2846B047421CB4F927
:105728000C3006D129681D2945D8284ACA40D60711
:1057380041D50022D90462602269226004D5421C46
:1057480001D12B6803B96065616B2F60C1B104F1A9
:105758004403994202D02846FFF79CFC0023636368
:105768000EE00123216A2846B0470246501CC7D1E3
:105778002B68002BC4D01D2B01D0162B19D12F60FC
:1057880000201DE00F69002FFAD093070E680F6004
:105798000CBF4B690023A6EB07088B60B8F1000F1C
:1057A800EEDD43463A46216A2846A66AB0470028F5
:1057B80008DCB4F90C3043F040034FF0FF30A3810C
:1057C800BDE8F0810744A8EB0008E7E701004020A6
:1057D80038B50B6905460C4613B90025284638BD6F
:1057E80018B1036A0BB9FFF773FAB4F90C30002B40
:1057F800F3D0626ED00704D4990502D4A06DFFF7E8
:105808003AFC28462146FFF763FF636E0546DA0730
:10581800E4D4A3899B05E1D4A06DFFF72DFCDDE757
:1058280070B50C46B1F90E1096B0154600291E4603
:105838000ADAA18911F0800113D14FF480620020A7
:1058480031602A6016B070BD6A4600F047F800283B
:10585800EFDB019901F47041A1F500535942594118
:10586800EBE700214022EAE78B8973B59E070546DE
:105878000C4607D504F147032360236101236361C4
:1058880002B070BD01AB6A46FFF7CAFF009E28460A
:105898003146FFF703F9B4F90C3038B99A05EFD45B
:1058A80023F0030343F00203A381E3E743F08003FB
:1058B8002060A381019BC4E90406002BE0D0B4F961
:1058C8000E10284600F01CF80028D9D0A38923F030
:1058D800030343F00103A381D2E7000038B5002396
:1058E800064D0446084611462B6000F02FF8431C6D
:1058F80002D12B6803B1236038BD00BF3C5C002097
:1059080038B50023054D044608462B6000F026F8FC
:10591800431C02D12B6803B1236038BD3C5C0020D6
:10592800C9B20346024410B59342184601D100207B
:1059380003E0047801338C42F6D110BD024B5822A3
:105948004FF0FF301A6070473C5C0020024B582231
:105958004FF0FF301A6070473C5C0020024B582221
:1059680000201A60704700BF3C5C0020024B5822A0
:105978004FF0FF301A6070473C5C0020024B582201
:105988004FF0FF301A6070473C5C0020054A034620
:10599800106810B103441360704703480344136050
:1059A800704700BF445C0020002000200900200050
:1059B80052000A0074000C000B00AC0018000C0028
:1059C80080002C000D00C40004000E00C800040074
:1059D80000001A0001000100040004000200080091
:1059E800040003000C00040004001000040005007B
:1059F8001800020006001400040007001B00010044
:105A080008001C0004004C504379636C65733A200D
:105A18006375723D25642064656C74613D25642C52
:105A2800746D703D25640A004C50206379636C6581
:105A3800732025642C20746864302025642C20741D
:105A48006864312025642C207363616C65202564AB
:105A58000041637475616C20506172613A2063750E
:105A6800723D25642C206176653D25642C20637584
:105A7800725F6261636B75702025642C20616C70A5
:105A880068612025642C20746D70282A3130293DE6
:105A980025640D0A0073657420617665004C5043D7
:105AA80079636C65733A2025642C206176653D2501
:105AB800642C20636F756E743D256420746D703D91
:105AC80025640D0A004F4E004F464600537461721C
