:020000040800F2
:100000003813002079020008C324000827200008C4
:10001000C1240008C50300080B2D000800000000E3
:10002000000000000000000000000000252700087C
:1000300077040008000000009D250008272700081D
:10004000930200089302000893020008930200083C
:10005000930200089302000893020008930200082C
:10006000930200089302000893020008C9030008E5
:10007000930200089302000893020008930200080C
:100080009302000800000000930200089302000899
:1000900093020008930200089302000893020008EC
:1000A00093020008930200089302000893020008DC
:1000B00093020008930200089302000893020008CC
:1000C00093020008930200089302000893020008BC
:1000D00093020008930200089302000893020008AC
:1000E000930200089302000893020008930200089C
:1000F0009302000893020008930200080000000029
:1001000000000000930200080000000093020008B5
:100110009302000800000000A527000893020008D1
:10012000930200089302000893020008930200085B
:100130009302000800000000000000009302000885
:100140009302000893020008000000000000000075
:10015000000000000000000000000000000000009F
:1001600000000000000000000000000093020008F2
:1001700093020008000000000000000000000000E2
:1001800000000000930200080000000000000000D2
:10019000000000000000000000000000000000005F
:1001A0000000000000000000930200089302000815
:1001B0009302000893020008930200080000000068
:1001C0000000000093020008000000000000000092
:1001D000930200089302000800F002F800F03CF8D7
:1001E0000AA090E8000C82448344AAF10107DA4592
:1001F00001D100F031F8AFF2090EBAE80F0013F0A8
:10020000010F18BFFB1A43F001031847C82B000069
:10021000E82B0000103A24BF78C878C1FAD85207FA
:1002200024BF30C830C144BF04680C607047000070
:100230000023002400250026103A28BF78C1FBD8EF
:10024000520728BF30C148BF0B6070471FB502F08E
:100250009DFD1FBD10B510BD00F07FF81146FFF7E2
:10026000F5FF02F063FD00F09DF803B4FFF7F2FF25
:1002700003BC00F0A1F80000094880470948004786
:10028000FEE7FEE7FEE7FEE7FEE7FEE7FEE7FEE746
:10029000FEE7FEE704480549054A064B70470000A3
:1002A00095270008D9010008380D002038130020D8
:1002B000380F0020380F00204FF000020429C0F052
:1002C000128010F0030C00F01B80CCF1040CBCF188
:1002D000020F18BF00F8012BA8BF20F8022BA1EBDA
:1002E0000C0100F00DB85FEAC17C24BF00F8012BBF
:1002F00000F8012B48BF00F8012B70474FF00002B7
:1003000000B5134694469646203922BFA0E80C500B
:10031000A0E80C50B1F12001BFF4F7AF090728BFE6
:10032000A0E80C5048BF0CC05DF804EB890028BF62
:1003300040F8042B08BF704748BF20F8022B11F08B
:10034000804F18BF00F8012B704770477047704707
:1003500000487047D40C002070477546FFF7F8FF3F
:10036000AE4605006946534620F00700854618B0A2
:1003700020B5FFF78FFFBDE820404FF000064FF09B
:1003800000074FF000084FF0000B21F00701AC46CA
:10039000ACE8C009ACE8C009ACE8C009ACE8C009E9
:1003A0008D46704710B50446AFF300802046BDE887
:1003B0001040FFF75ABF000001491820ABBEFEE70E
:1003C00026000200FEE70000014800F057B80000D8
:1003D000040100200D4902688A4201D20C4901E063
:1003E0000B492031D2B21423083AB2FBF3F2436C2A
:1003F00002F01F0223F00303194481640449803191
:10040000C164012191400165704700000804024069
:10041000000802400179074A02EB81024265054A61
:100420004432491E826501F01F0201219140C165DD
:1004300070470000FC08024030B5D0E91345656004
:10044000446D14B1D0E91645656090F8444004F05D
:100450001F050124AC40056C6C6004686360836810
:10046000102B036803D099600068C26030BD9A60A9
:100470000068C16030BD704772B6FEE7F0B4016C31
:100480000C6801680D6890F8442002F01F060422F1
:1004900002FA06F3234211D06B070FD50B689B06B7
:1004A00003D40B6823F004030B6090F8441001F0B0
:1004B0001F018A40016C4A60016B1DE0022303FAB0
:1004C00006F727424FF0000C4FF0010218D0AF079B
:1004D00016D50C68A40605D40C6824F00A040C6038
:1004E00080F8252090F8441001F01F018B40016C2A
:1004F0004B6080F824C0C16A00291AD0F0BC0847BC
:100500000823B340234214D02B0712D50B6823F0E5
:100510000E030B6090F84410036C01F01F0102FA07
:1005200001F15960C26380F8252080F824C0416B36
:10053000E2E7F0BC7047000070B504000CD02B4A15
:1005400021681420914209D2294A0A44B2FBF0F0F2
:100550008000606427480AE0012070BD234A5242AF
:100560000A44B2FBF0F08000606420480838206440
:10057000022084F825000A6847F6F0708243D4E927
:1005800002031843D4E904352B431843A3691843E5
:10059000E3691843236A1843104308602046FFF7B5
:1005A00019FFA0680025B0F5804F00D16560A16CEF
:1005B00020790860D4E9130141606068401E032877
:1005C00008D82046FFF726FF606D0560D4E91601C4
:1005D000416002E06565A565E565E563012084F895
:1005E000250084F82450002070BD0000080402405B
:1005F000F8FFFDBF0000024070B5044690F82400EB
:10060000002501280CD0012084F8240094F82560EE
:100610000020012E06D084F824000225284670BD53
:10062000022070BD022684F82560E0632068066819
:1006300026F0010606602046FFF7FEFE206B00282C
:100640002068016802D041F00E0106E021F00401AB
:1006500001602068016841F00A010160A06C016836
:10066000C90303D5016841F480710160606D18B160
:10067000016841F4807101602068016841F0010166
:100680000160CBE770B5044600F032F90546601C06
:1006900002D004484068044400F02AF9401BA042FC
:1006A000FAD370BD080000202DE9F04FDFF820924A
:1006B000002301260324A9F1040B85B00F2709F1BB
:1006C000040AABF1040EFAE006FA03F52A407CD0E6
:1006D00091F804C00CF0030CBCF1010F02D0BCF186
:1006E000020F26D1D0F808C0CDF800C04FEA430C65
:1006F00004FA0CF8CDF810C0DDF800C02CEA080CA4
:10070000CDF800C0D1F80C80DDF810C008FA0CF864
:10071000DDF800C048EA0C08C0F80880D0F804C032
:100720002CEA050C0D79C5F300159D4045EA0C0532
:1007300045600D79ED43AD070ED0C5684FEA43081B
:1007400004FA08FC25EA0C05D1F808C00CFA08FCEC
:100750004CEA050CC0F80CC00D7905F00305022D1C
:1007600016D1DD0800EB850CCDF808C0DCF8208040
:100770005D074FEAD56C07FA0CF528EA05080D6904
:1007800005FA0CF5DDF808C045EA0805CCF820505C
:1007900005684FEA430CCDF808C004FA0CFC25EAC2
:1007A0000C0591F804C00CF00308DDF808C008FA45
:1007B0000CF848EA0508C0F800804D6815F4403F81
:1007C0007CD0444DD5F860C000E077E04CF0010CDF
:1007D000C5F860C02D6E23F0030C05F001050095EF
:1007E0003D4D65440295AD684FEA837C4FEA1C7825
:1007F00007FA08FC25EA0C05B0F1904F06D0DFF8A7
:10080000DCC0604505D14FF0010C20E04FF0000C3A
:100810001DE0DFF8CCC0604502D14FF0020C16E0BD
:10082000DFF8C0C0604502D14FF0030C0FE0DFF8E5
:10083000B8C0604502D14FF0040C08E0DFF8ACC04E
:10084000604502D14FF0050C01E04FF0060C0CFAA8
:1008500008FC4CEA050C029DC5F808C0D9F8005008
:10086000CC46D1F8048095435FEAC82800D51543EB
:10087000CCF80050DAF80050D446D1F80480954303
:100880005FEA882800D51543CCF80050DBF800500B
:10089000DC46D1F8048095435FEA883800D51543DB
:1008A000CCF80050DEF80050F446D1F804809543AF
:1008B0005FEAC83800D51543CCF800505B1C0A68C5
:1008C00032FA03F57FF400AF05B0BDE8F08F000009
:1008D00008040140001002400000014000040048EC
:1008E00000080048000C00480010004800140048B0
:1008F00001488068704700000800002090F84120FF
:10090000202A24D190F84020012A20D0012280F80A
:100910004020242280F841200268136823F001035C
:1009200013600268136823F480531360026813682D
:100930000B43136001680A6842F001020A6020213B
:1009400080F84110002180F84010084670470220CE
:10095000704790F84120202A22D190F84020012AA7
:100960001ED0012280F84020242280F84120026815
:10097000136823F0010313600268136823F47063A3
:1009800043EA0121116001680A6842F001020A602D
:10099000202180F84110002180F84010084670475F
:1009A0000220704770B5040004D094F8410000257F
:1009B00010B106E0012070BD84F84050204600F0E0
:1009C000F5F8242084F841002068016821F0010135
:1009D00001606068216820F07060086120688168AB
:1009E00021F400418160E0680128A06830D040F423
:1009F000044021688860E0680228206841682AD0A5
:100A000021F40061416020684168144A114341604B
:100A10002068C16821F40041C160D4E904010843A1
:100A2000A16940EA01202168C860D4E907010843B0
:100A3000216808602068016841F001010160656477
:100A4000202084F84100256384F84250002070BDC6
:100A500040F40040CDE741F40061D3E7008000029C
:100A60002DE9FF4F81B0044690F84100DDF838B021
:100A70001F46904620287BD194F84000012877D06B
:100A8000012084F84000FFF733FF06460122009062
:100A90001923D103204601F077FB002853D12120F0
:100AA00084F84100102084F8420000256564C4F8F1
:100AB000248067856563608D3A49FF274FF0807910
:100AC0004FF0007AFF2802D927854B4605E0608D5C
:100AD000208500045346000C10D0226898F80000CE
:100AE0009062606A401C6062608D401E6085208D4F
:100AF000401E2085401CC2B2009101E000220091FE
:100B00002046029901F028FB14E000BF01F0A4FB8D
:100B1000C8B9606A216800788862606A401C6062B7
:100B2000608D401E6085208D401E80B22085618DC5
:100B300001B160B1608D3246002859462046E5D1AA
:100B400001F05FFBE0B1012005B0BDE8F08F5B462E
:100B5000002280212046009601F016FB0028F2D1E9
:100B6000608DFF2805D927853A464B460095C7E793
:100B700016E0608D2085009594F828205346BFE745
:100B800021682020C86121684A68074B1A404A60E2
:100B900084F8410084F8425084F840500020D3E7A4
:100BA0000220D1E70020008000E800FEF0B597B0F9
:100BB0000446142111A8FFF7A1FB44216846FFF762
:100BC0009DFB20492068884239D1402000250090B3
:100BD0000695684600F038F908B1FFF74DFC1A4C4D
:100BE000E06C40F00100E064E06C00F00100169061
:100BF000E06C40F00200E064E06C122600F00200BD
:100C0000169004274FF40040CDE91265CDE9145742
:100C1000119011A9B006FFF747FD8020CDE91265BC
:100C2000CDE91457119011A90848FFF73DFDA06DBB
:100C300040F40010A065A06D00F40010169017B0ED
:100C4000F0BD0000005400400010024000040048C5
:100C500002488168426811448160704708000020A2
:100C600010B50024032000F077F8002000F008F809
:100C700008B1012401E000F025F8204610BD000075
:100C800070B50E4E05460024706898B14FF47A7125
:100C9000B1FBF0F00A490968B1FBF0F000F03EFD4D
:100CA00040B9102D06D200222946501E00F034F81B
:100CB000356000E00124204670BD000008000020DF
:100CC000140000200C4808B5016E41F001010166D6
:100CD000016E01F001010091816D41F0805181654B
:100CE000806D00F080500090052000F035F8BDE8E0
:100CF000084000F0A1B8000000100240002809DB05
:100D000000F01F02012191404009800000F1E02025
:100D1000C0F8001170470000F0B40E4B1B680C4681
:100D2000C3F30223C3F10705042D00D90425191DBF
:100D3000072901D2002300E0DB1E012606FA05F197
:100D4000491E214099409E40761E16403143F0BC1A
:100D500001F0DCBF0CED00E0064900F00702086876
:100D60004FF6FF03184040EA0220034A1043086090
:100D7000704700000CED00E00000FA052B492C4BF9
:100D80000A6832214A432B4940B1B0F5007F086818
:100D900029D020F4C06040F480602CE00868C0F3E3
:100DA0004120022804D051F8800F20F4807022E006
:100DB000D1F8800020F48070C1F88000086820F429
:100DC000C06040F400700860B2FBF3F0401C00E02B
:100DD000401E4A69520501D50028F9D148694005ED
:100DE0000AD503207047C0F34120022806D051F8ED
:100DF000800F40F48070086000207047D1F88000B8
:100E000040F48070C1F88000086820F4C06040F4AD
:100E100000700860B2FBF3F0401C00E0401E4A691D
:100E20005205DBD50028F9D1D8E7000014000020D6
:100E300040420F00007000400248816841F4804148
:100E400081607047007000402DE9F8430446006857
:100E500000269D4D00035ED5A86D0027C00008D474
:100E6000A86D40F08050A865A86D012700F0805063
:100E70000090DFF85892D9F8001041F48071C9F859
:100E80000010FFF735FD804606E000BFFFF730FD9C
:100E9000A0EB080002282BD8D9F80000C005F5D532
:100EA000D5F8900010F4407014D0216C814211D01C
:100EB000D5F89000D5F8901020F4407041F48031BE
:100EC000C5F89010D5F8901021F48031C5F8901035
:100ED000C5F89000C00711D0FFF70AFD804641F227
:100EE000883907E0FFF704FDA0EB0801494501D967
:100EF00003260BE0D5F890008007F3D5D5F89000D5
:100F0000216C20F440700843C5F890001FB1A86D13
:100F100020F08050A8652078C00707D0D5F8880059
:100F2000616820F003000843C5F888002078800736
:100F300007D5D5F88800A16820F00C000843C5F853
:100F400088002078400707D5D5F88800E16820F0B0
:100F500030000843C5F888002078000707D5D5F889
:100F60008800216920F0C0000843C5F88800207877
:100F7000800607D5D5F88800616920F440600843F1
:100F8000C5F888002078400607D5D5F88800A16903
:100F900020F440500843C5F888002078000607D5A3
:100FA000D5F88800E16920F440400843C5F888007E
:100FB0002088C00507D5D5F88800216A20F4403084
:100FC0000843C5F888002088800507D5D5F8880033
:100FD000616A20F440200843C5F888002088400555
:100FE0000FD5D5F88800A16A20F440100843C5F851
:100FF0008800A06AB0F5801F03D1E86840F4801033
:10100000E860208800050FD5D5F88800E16A20F453
:1010100040000843C5F88800E06AB0F5800F03D1AE
:10102000E86840F48010E8602088C0040FD5D5F847
:101030008800216B20F040700843C5F88800206BC1
:10104000B0F1807F03D1E86840F48010E860208828
:101050004FF0006180040ED5D5F88800626B20F057
:1010600040601043C5F88800606B884203D1E8688F
:1010700040F48010E860208840040ED5D5F8880040
:10108000A26B20F040601043C5F88800A06B884236
:1010900003D1E86840F48010E860208800040FD590
:1010A000D5F88800E16B20F040500843C5F888006F
:1010B000E06BB0F1805F03D1E86840F48030E86015
:1010C0003046BDE8F8830000001002400070004088
:1010D0002DE9F0470E4605004FF0000725D0DFF858
:1010E000AC81D8F8000000F00F00B0420CD2D8F864
:1010F000001021F00F013143C8F80010D8F80000AB
:1011000000F00F00B04210D12968614CC80741F2CD
:10111000883A5AD06868DFF87C91032808D0022802
:1011200020682DD0400500282CDB0120BDE8F08789
:1011300020688001F9D5E06800F00302E068C0F3A0
:101140000310401C032A19D0534A00BFB2FBF0F031
:10115000E268C2F306225043E268C2F34162521CC5
:101160005200B0FBF2F0484517D9A06810F0F00F1C
:101170000CD0880711D5A86840B10EE0474AE5E7D2
:101180008003D0E700F092F8484506D9A06820F027
:10119000F00040F08000A0608027A068696820F01F
:1011A00003000843A060FFF7A3FB814606E000BFF1
:1011B000FFF79EFBA0EB090151453AD8A06869688A
:1011C00000F00C00B0EB810FF2D12868810714D534
:1011D000400703D5A06840F4E060A06028780007CD
:1011E00005D5A06820F4605040F4E060A060A068DD
:1011F000A96820F0F000084304E0802F03D1A06824
:1012000020F0F000A060D8F80010404601F00F0177
:10121000B14216D9016821F00F0131430160FFF797
:1012200067FB074607E000BFFFF762FBC11B5145A4
:1012300001D903207AE7D8F8000000F00F00B0428F
:10124000F2D12878400705D5A068E96820F4E0606D
:101250000843A0602878000706D5A068296920F413
:10126000605040EAC100A06000F020F8A1680C4A7C
:10127000C1F30311515C01F01F01C8400949086026
:1012800009480068BDE8F047FFF7FABC00200240BB
:101290000010024000B4C4040024F40000127A00DC
:1012A000962D00081400002008000020184910B5F1
:1012B0008868C0F381021748012A0BD08A6843105E
:1012C000C2F38102022A06D08A68C2F38102032A8D
:1012D00003D0002010BD184610BDCA6802F00304F8
:1012E000CA68C2F30312521C032C02D0B0FBF2F006
:1012F00001E0B3FBF2F0CA68C968C2F306225043AA
:10130000C1F34161491C4900B0FBF1F010BD000080
:10131000001002400024F4002DE9F84304007AD0C4
:101320002078F84DC00747D0A868E96800F00C00A5
:1013300001F003010C2802D0082817D001E003298E
:1013400014D06068B0F5803F17D0B0F5A02F2868A2
:1013500017D020F480302860286820F4802028608E
:101360006068E0B1FFF7C4FA064614E0286880031D
:1013700022D560680028D2D01EE0286840F4803072
:10138000EDE740F480202860F7E700BFFFF7B0FAF0
:10139000801B642870D828688003F7D50CE0FFF71D
:1013A000A7FA064605E000BFFFF7A2FA801B6428F3
:1013B000F0D828688003F7D4207880074CD5A86837
:1013C000E96800F00C0001F003010C2802D00428A9
:1013D0000DD001E002290AD0E068002828682BD04F
:1013E00040F480702860FFF783FA064619E0286809
:1013F000400502D5E068002891D06868217C20F083
:10140000FE4040EA01606860BF480068FFF738FCB2
:10141000002800D120E072E1FFF76AFA801B022861
:10142000B8D828684005F7D56868217C20F0FE40D0
:1014300040EA016068600FE020F480702860FFF7E8
:1014400057FA064605E000BFFFF752FA801B022854
:10145000A0D828684005F7D42078000729D560690E
:101460000028D5F8940013D040F00100C5F894008E
:10147000FFF73EFA064606E090E000BFFFF738FAB5
:10148000801B022886D8D5F894008007F6D510E096
:1014900020F00100C5F89400FFF72AFA064604E0A0
:1014A000FFF726FA801B022878D8D5F89400800729
:1014B000F6D42078400761D5A86D0026C00008D476
:1014C000A86D40F08050A865A86D012600F08050FE
:1014D00000908E480168C90511D40168804641F426
:1014E00080710160FFF704FA074604E0FFF700FA95
:1014F000C01B022852D8D8F80000C005F6D5A06855
:10150000012815D00528D5F8900016D020F001004C
:10151000C5F89000D5F8900020F00400C5F89000C0
:10152000A06841F28838B8B1FFF7E2F907460EE04B
:10153000D5F8900040F00100F0E740F00400C5F855
:101540009000F5E7FFF7D4F9C11B414526D8D5F83F
:1015500090008007F6D50CE0FFF7CAF9074604E0D3
:10156000FFF7C6F9C11B414518D8D5F89000800790
:10157000F6D41EB1A86D20F08050A86520788006B2
:1015800029D5A0690028D5F8980013D040F00100B3
:10159000C5F89800FFF7ACF9064606E075E000BF15
:1015A000FFF7A6F9801B02286FD8D5F898008007AE
:1015B000F6D510E020F00100C5F89800FFF798F983
:1015C000064604E0FFF794F9801B02285DD8D5F8A1
:1015D00098008007F6D4E069F0B3A968C1F38101EF
:1015E00003295DD00228286820F08070286003D08D
:1015F000FFF77EF904464BE0FFF77AF9064604E070
:10160000FFF776F9801B02283FD828688001F7D4BD
:10161000F4E908016FF00F0202EB01110843218A7F
:101620005204490802EB4151A26841EA02210843F1
:10163000217D4FF07E42490802EB41610843217B46
:1016400040EAC160E968324A11400843E86028680E
:1016500040F08070286000E05EE0E86840F0807054
:10166000E860FFF745F9044605E000BFFFF740F9E1
:10167000001B022809D828688001F7D54CE000BF7C
:10168000FFF736F9001B022802D90320BDE8F883D2
:1016900028688001F4D4E8681E490840E8603BE00F
:1016A0000128F3D0E868226A00F00301914226D1B4
:1016B000616A00F0F0020901103991421FD1A26A5B
:1016C00000F4FE41B1EB022F19D194F82C2000F068
:1016D0007841B1EBC26F12D1218E00F4C0024908EB
:1016E0004905A1F50011914209D194F8341000F098
:1016F000C06049084906A1F1007181420CD0012067
:10170000C4E7000000100240080000200070004004
:101710000C809F01FCFFEEFE0020B7E710B5401ED5
:10172000B0F1807F01D3012010BD4FF0E024606153
:101730000F21601701F0EAFA0020A0610720206164
:10174000002010BD70477047704770477047704762
:10175000F0B590F83C20012A3AD0012580F83C50A1
:10176000022280F83D2003685A689C68194E1A4F7F
:10177000B34201D0BB4204D122F4700C4A6842EA61
:101780000C02DFF858C002EA0C02D1F800C04CEAA3
:10179000020CC3F804C00268B2420DD0B2F1804F0F
:1017A0000AD00F4B9A4207D00E4B9A4204D0BA424D
:1017B00002D00D4B9A4204D1896824F0800319436A
:1017C000916080F83D50002180F83C100846F0BD43
:1017D0000220F0BD002C0140003401408FFFFFFDCE
:1017E000000400400008004000400140704710B570
:1017F000040003D094F83D0010B107E0012010BDB3
:10180000002084F83C00204600F022F8022084F8F2
:101810003D00211D206800F0CBFF012084F8480026
:1018200084F83E0084F83F0084F8400084F84100CA
:1018300084F8420084F8430084F8440084F84500AA
:1018400084F8460084F8470084F83D00002010BD6D
:1018500038B5054600681E4A1E49904222D1886D5F
:1018600040F002008865886D1C4C00F0020000907A
:10187000194820603D2060601020A0600020802179
:10188000C4E90301490061618900C4E906108800C8
:1018900020622046FEF750FE08B1FEF7EDFD6C62B7
:1018A000A56238BD0E4A9042FBD1886D40F0100011
:1018B0008865886D022200F01000009011463620E5
:1018C000FFF72AFABDE838403620FFF717BA0000C4
:1018D0000004004000100240080002400401002003
:1018E0000010004090F83D10012901D00120704700
:1018F000022180F83D100168CA6842F00102CA6006
:101900000068104988420ED0B0F1804F0BD00E49CC
:10191000884208D00D49884205D00D49884202D03E
:101920000C49884207D181680B4A1140062906D02C
:10193000B1F5803F03D0016841F001010160002052
:1019400070470000002C01400004004000080040E7
:1019500000340140004001400700010070B504461A
:1019600090F83C000025012814D0012684F83C6042
:10197000022084F83D0022689068364B184020F41D
:101980007F409060086870282ED010DC10F00F0F98
:1019900003D021E04FF0020070BD4FEA2012072A69
:1019A0001AD2DFE802F0525252524A3840002A4B13
:1019B000C21A984249D009DCB0F5805F0DD0B0F56D
:1019C000005F1CD0B0F1101F06D13EE0102A3CD0C1
:1019D000202A3AD0502A38D0012584F83D600020D2
:1019E00084F83C00284670BDCB68D1E9012120680D
:1019F00000F0BEFF2068816841F0770109E0CB6804
:101A0000D1E90121206800F0B3FF2068816841F42A
:101A100080418160E1E7CA684968206801F052F9B5
:101A20005021206806E0CA684968206801F05BF927
:101A30006021206800F0A6FFCFE7CA6849682068E7
:101A400001F040F940212068F4E722680146104681
:101A5000F0E7000088FFCEFF2000100070477047BD
:101A60002DE9F04104460068C66805694FF000079B
:101A7000A90713D5B10711D5F91E016101202077FF
:101A8000206880698007204602D0FFF7E8FF04E065
:101A900000F0E0F8204600F0A2F92777680716D595
:101AA000700714D521686FF00400086102202077C8
:101AB0002068806910F4407F204602D0FFF7CFFFF6
:101AC00004E000F0C7F8204600F089F927772807DE
:101AD00015D5300713D521686FF008000861042080
:101AE00020772068C0698007204602D0FFF7B7FF43
:101AF00004E000F0AFF8204600F071F92777E8061F
:101B000016D5F00614D521686FF010000861082082
:101B100020772068C06910F4407F204602D0FFF78C
:101B20009EFF04E000F096F8204600F058F9277771
:101B3000E80708D0F00706D021686FF001000861BF
:101B4000204600F04DFA280601D4A80408D5300636
:101B500006D521686FF4025008612046FFF7F3FDB7
:101B6000E80508D5300606D521686FF48070086155
:101B70002046FFF7E7FD680608D5700606D5216800
:101B80006FF040000861204600F04CFAA80608D526
:101B9000B00606D521686FF0200008612046FFF7E7
:101BA000D3FDE80208D5F00206D521686FF4801055
:101BB00008612046FFF7CAFDA80208D5B00206D585
:101BC00021686FF4001008612046FFF7BEFD68022F
:101BD00008D5700206D521686FF4800008612046A0
:101BE000FFF7B5FD28020AD5300208D521686FF449
:101BF000000008612046BDE8F041FFF7F7BDBDE8F1
:101C0000F081000010B586B0044614216846FEF746
:101C100075FB0E492068884215D10D48C16C41F012
:101C20000101C164C06C002100F00100059040205A
:101C300000900220CDE90101CDE9031069464FF083
:101C40009040FEF731FD06B010BD000000040040DA
:101C500000100240704770B5044690F83C00002622
:101C60000D4601280BD0012084F83C000C2A4AD0F4
:101C700007DC82B1042A20D0082A06D131E00220F4
:101C800070BD102A53D0142A63D00126002084F896
:101C90003C00304670BD206800F07EFE20688169FF
:101CA00041F0080181612068816921F004018161AE
:101CB000206881692A69114311E0206800F0BAFEAA
:101CC0002068816941F4006181612068816921F4A3
:101CD00080618161206881692A6941EA022181610C
:101CE000D4E7206800F0EEFE2068C16941F00801E9
:101CF000C1612068C16921F00401C1612068C16926
:101D00002A69114311E0206800F024FF2068C169AE
:101D100041F40061C1612068C16921F48061C16141
:101D20002068C1692A6941EA0221C161AEE72068E1
:101D300000F058FF2068016D41F00801016520683E
:101D4000016D21F0040101652068016D2A691143CC
:101D500011E0206800F07EFF2068016D41F4006111
:101D600001652068016D21F4806101652068016DC5
:101D70002A6941EA0221016588E710B5040003D011
:101D800094F83D0010B107E0012010BD002084F858
:101D90003C00204600F022F8022084F83D00211D7E
:101DA000206800F005FD012084F8480084F83E001A
:101DB00084F83F0084F8400084F8410084F8420031
:101DC00084F8430084F8440084F8450084F8460011
:101DD00084F8470084F83D00002010BD704770472C
:101DE000704700002DE9F04117460D0004464FF002
:101DF000000610D0042D15D0082D1AD00C2D1FD0A0
:101E0000102D24D094F84300022827D094F84300E2
:101E1000012826D07CE094F83E0002281ED094F8D9
:101E20003E00F5E794F83F00022817D094F83F00F1
:101E3000EEE794F84000022810D094F84000E7E75D
:101E400094F84100022809D094F84100E0E794F8A2
:101E50004200022802D094F84200D9E70220BDE8EF
:101E6000F0819FB393B35349534ADFF850C1022026
:101E700055B1042D19D0082D29D00C2D38D0102D96
:101E800048D084F8430047E084F83E00606AC162AD
:101E9000606A39460263606AC0F834C02268606ACA
:101EA0003432FEF7A9FB88B938E084F83F00A06A15
:101EB000C162A06A39460263A06AC0F834C02268D1
:101EC000A06A3832FEF798FB00B92CE020E084F8D5
:101ED0004000E06AC162E06A39460263E06AC0F825
:101EE00034C02268E06A3C32FEF786FB80B91FE00E
:101EF00084F84100206BC162206B39460263206B7D
:101F0000C0F834C02268206B4032FEF775FBA0B1E8
:101F10000120A4E784F84200012648E02068C16857
:101F200041F400710DE02068C16841F4806108E06F
:101F30002068C16841F4006103E02068C16841F491
:101F40008051C16001222946206800F08FFC1C49A5
:101F500020681C4A1C4B884209D0904207D0984206
:101F600005D01A4DA84202D0194DA84203D1456CA4
:101F700045F400454564206888420CD0B0F1804F9C
:101F800009D01449884206D01349884203D09042B0
:101F900001D0984207D18168104A1140062906D025
:101FA000B1F5803F03D0016841F001010160304686
:101FB00055E7000087280008E52800081D290008CB
:101FC000002C014000340140004001400044014029
:101FD00000480140000400400008004007000100E4
:101FE00010B500680D49884216D10D494878401C4B
:101FF0004870081D0288521C93B200220380142BE3
:1020000000D3028043885B1C9BB243804C88A34270
:1020100002D342800120087010BD00000010004073
:10202000000000207047FEE701688A69D2439207EA
:1020300001D400228A6200688169C943C90703D0BC
:10204000816941F001018161704700002DE9F0478D
:102050000446006889460026816935461746C90648
:102060004FF0200841D51021C1612FE0B9F1FF3FA9
:102070002CD0FEF73DFCC11B494502D8B9F1000F39
:1020800024D12068416894F8422001F4804183699A
:10209000DB431B0415D4B1F5804F12D0202A10D099
:1020A000416841F480414160FEF722FC074608E0A8
:1020B000FEF71EFCC01B192803D945F02005012698
:1020C00004E020688069C0438006F1D420688069FC
:1020D000C043800602D5002EC8D003E016B921689F
:1020E000C1F81C8045F00405012621688869C205F5
:1020F00005D54FF4807245F00105CA6101264105FE
:1021000009D522684FF4806145F00805D1610126A8
:10211000800502D40AE0800507D521684FF40070DD
:1021200045F00205C861012600E086B12046FFF7B0
:102130007BFF54F8240B4168064A11404160206A35
:102140002843206284F81D800020A0772077304645
:10215000BDE8F08700E800FE10B5C1F3090141EACF
:1021600002410268029C19432143506821F000415A
:102170004FF4806303EA5453024C234398430843CB
:10218000506010BDFF63FF032DE9F0411D46174667
:102190000E460446DDF8188027E0424629462046D0
:1021A000FFF754FF10B10120BDE8F081681C1CD07E
:1021B000FEF79EFBA0EB0800A84200D8ADB920684E
:1021C000806936EA00000ED00020B8420DD154F8E4
:1021D000440F40F0200044F80409202060700020E3
:1021E000A0702070DFE70120EFE72068806936EA01
:1021F000000004D00020B842CFD00020D4E7012056
:10220000F9E770B516460D4604461EE032462946EB
:102210002046FFF71BFF08B1012070BDFEF768FBE9
:10222000801BA84200D885B920688069C043800619
:102230000BD554F8440F40F0200044F80409202046
:1022400060700020A0702070E6E720688069C043BD
:102250008006DBD4002070BD70B516460D460446DE
:1022600020E0324629462046FFF7F0FE08B1012063
:1022700070BD681C16D0FEF73BFB801BA84200D83F
:1022800085B920688069C04380070BD554F8440F96
:1022900040F0200044F80409202060700020A07065
:1022A0002070E4E720688069C0438007D9D400200B
:1022B00070BD00000D4808B5816C41F004018164D7
:1022C000816C01F004010091816C41F00101816495
:1022D000806C002200F00100009011460B20FEF7F8
:1022E0001BFDBDE808400B20FEF708BD00100240B2
:1022F00030B587B014216846FEF700F81D48C16C60
:1023000041F00401C164C16C01F004010591C16C8C
:1023100041F02001C164C16C01F020010591C16C44
:1023200041F00101C164C16C01F001010591C16C72
:1023300041F00201C164C06C002400F0020005906D
:102340004FF4005001258DE8310069460A48FEF738
:10235000ABF920208DE8310069464FF09040FEF740
:10236000A3F928028DE8310069460448FEF79CF97C
:1023700007B030BD001002400008004800040048CB
:10238000144810B51249016013494160002101222F
:10239000C0E90212016141618161C1610162FEF720
:1023A00001FB08B1FEF768F84FF480510948FEF7C9
:1023B000A5FA08B1FEF760F800210648FEF7C9FA51
:1023C000002803D0BDE81040FEF756B810BD00004D
:1023D0000054004018000020FF72E00010B58EB0DD
:1023E00000240794089409940A940B940C941C21DB
:1023F00068460D94FDF782FF1D481C49C0E9001492
:10240000BB21C0E9024104618461FFF7F0F908B122
:10241000FEF732F84FF48050079007A91448FFF7F1
:102420009DFA08B1FEF728F81148FFF7A6FC08B19D
:10243000FEF722F80B940BA90D480D94FFF788F9CD
:1024400008B1FEF719F86020CDE9000402940022DB
:10245000694607480494FFF7FEFB08B1FEF70CF845
:102460000348FFF7CFFB0EB010BD00000004004092
:102470006C0000203EB500241048009401940E49E1
:10248000029401609521C0E9011440F2E731C16076
:1024900080218161FFF7ABF908B1FDF7EDFF0094F2
:1024A000694606480294FFF753F908B1FDF7E4FFC7
:1024B0000248FFF717FA3EBD00100040B8000020A8
:1024C000FEE7FEE710B56420FEF7DCF8AE2000F072
:1024D00053F8202000F050F8102000F04DF8B02004
:1024E00000F04AF8C82000F047F8002000F044F857
:1024F000102000F041F8402000F03EF8812000F06C
:102500003BF87F2000F038F8A12000F035F8A62035
:1025100000F032F8A82000F02FF83F2000F02CF84F
:10252000A42000F029F8D32000F026F8002000F0C5
:1025300023F8D52000F020F8F02000F01DF8D92075
:1025400000F01AF8222000F017F8DA2000F014F852
:10255000122000F011F8DB2000F00EF8202000F02F
:102560000BF88D2000F008F8142000F005F8BDE805
:102570001040AF20AFF300801CB500218DF804108F
:102580008DF80500481E0090022301AA7821024818
:10259000FEF766FA1CBD000018000020704710B559
:1025A00000F046F800F0B8F8BDE81040AFF3008046
:1025B0004FF4B763024A00210248FFF713BC000042
:1025C000640100206C000020F0B53C282CD8C1F339
:1025D0000724CBB2C1F307461449002200EB4000A8
:1025E000012501EB001100BFC2F1070705FA07F052
:1025F000044201D07D2700E0332721F81270034206
:1026000002D04FF07D0C01E04FF0330C01EB42079C
:102610000642A7F810C001D07D2000E03320521CF4
:10262000D2B23884082ADFD3F0BD00006401002054
:1026300018B4384B0F2967D2DFE801F0080A252AC1
:1026400030353B6640454B51545A6000198851E083
:10265000B3F80310ADF8001093F805108DF80210D0
:102660009DF80010D1408DF800109DF80110D14068
:102670008DF801109DF80210D1408DF802100099DC
:1026800018BCFFF7A1BFD988ADF80010197AE5E7AB
:10269000B3F80910ADF80010D97ADFE79989ADF8E1
:1026A0000010997BDAE7B3F80F10ADF80010597CF1
:1026B000D4E7598AADF80010197DCFE7198BADF832
:1026C0000010997ECAE7B3F81B10ADF80010597FCF
:1026D000C4E7D98BADF8001093F82010BEE733F8AB
:1026E000211F07E0998CADF8001093F82610B5E78C
:1026F00033F8271FADF800109978AFE7598DADF882
:10270000001093F82C10A9E7B3F81510ADF80010DD
:10271000D97DA3E7A62D000830210148FDF7CCBDE7
:10272000A40C00207047FEF793BA00B593B038218F
:102730006846FDF7E3FD14210EA8FDF7DFFD4FF419
:102740000070FEF71BFB0220C101039140210491A0
:102750000421CDE9080100904B21CDE90A10079032
:102760000C900D906846FEF7D7FD08B172B6FEE7F3
:102770000F200E9003200F900020109011901290C7
:1027800004210EA8FEF7A4FC002801D072B6FEE7D3
:1027900013B000BD0248016841F470010160704748
:1027A00088ED00E00148FFF75BB90000B8000020A9
:1027B0002DE9F0430268264B264D274E274C4FF05B
:1027C0008049984207D0484505D0A84203D0B0427E
:1027D00001D0A04203D122F070074A683A43204F4B
:1027E000DFF880C0DFF8808098420DD048450BD0DC
:1027F000A84209D0B04207D0A04205D0B84203D0C9
:10280000604501D0404503D122F44075CA682A438F
:102810004D6922F080022A4302608A68C2620A6817
:102820008262984207D0A04205D0B84203D06045EA
:1028300001D0404501D1096901630121416101696C
:10284000C90703D0016921F001010161BDE8F083EE
:10285000002C01400004004000080040003401400A
:1028600000400140004401400048014010B501F023
:102870001F030121046A99408C430462016A9A4053
:102880001143016210BD10B5846A0121626A82425F
:1028900005D12177C069F8B984F83E101CE0A26A1E
:1028A000824206D102222277C069A8B984F83F107B
:1028B00012E0E26A824206D104222277C06958B946
:1028C00084F8401008E0226B824205D1082222776A
:1028D000C06908B984F841102046FFF780FA00204B
:1028E000207710BD10B5846A616A814201D1012050
:1028F0000DE0A16A814201D1022008E0E16A814233
:1029000001D1042003E0216B814201D1082020770E
:102910002046FFF765FA0020207710BD10B5846AC5
:102920000121626A824203D1217784F83E1019E0C6
:10293000A26A824204D10220207784F83F1011E07D
:10294000E26A824204D10420207784F8401009E032
:10295000226B824204D10820207784F8411001E0E4
:1029600084F83D102046FFF779F80020207710BD4D
:1029700010B5846842EA032224F47F440A432243C8
:10298000826010BD8268034B1A400A4342F007017F
:10299000816070478FFFCFFF2DE9F043056A026A1F
:1029A00022F001020262436882691C4C25F0020594
:1029B00022400C6822F0030214438A68194E2A430D
:1029C000174D194FDFF864C0DFF86490A84207D0B4
:1029D000B04205D0B84203D0604501D0484506D189
:1029E00022F00808CA6842EA080222F00402A8425B
:1029F00007D0B04205D0B84203D0604501D0484569
:102A000005D14D6923F440731D438B692B4343600B
:102A10008461496841630262BDE8F0838FFFFEFF75
:102A2000002C0140003401400040014000440140BE
:102A300000480140F0B5056A026A22F01002026205
:102A400042688369194C1B4E23400C6823F4407381
:102A500043EA042425F020038D6843EA0513144D4E
:102A6000A84201D0B04206D1CF6823F0800343EAE8
:102A7000071323F04003A8420AD0B04208D00E4DFD
:102A8000A84205D00D4DA84202D00D4DA84207D155
:102A90004D6922F4406242EA85028D6942EA85026C
:102AA00042608461496881630362F0BDFF8FFFFE6D
:102AB000002C01400034014000400140004401402E
:102AC00000480140F0B5056A026A22F48072026291
:102AD0004368C269194C1B4E22400C6822F0030265
:102AE000144325F400728D6842EA0522144DA84271
:102AF00001D0B04206D1CF6822F4006242EA072238
:102B000022F48062A8420AD0B04208D00E4DA842FA
:102B100005D00E4DA84202D00D4DA84207D14D69F7
:102B200023F4405343EA05138D6943EA05134360D8
:102B3000C4614968C1630262F0BD00008FFFFEFFFF
:102B4000002C01400034014000400140004401409D
:102B500000480140F0B5056A026A22F48052026220
:102B60004268C369194C1B4E23400C6823F4407320
:102B700043EA042425F400538D6843EA0533144DD9
:102B8000A84201D0B04206D1CF6823F4004343EA03
:102B9000073323F48043A8420AD0B04208D00E4D38
:102BA000A84205D00D4DA84202D00D4DA84207D134
:102BB0004D6922F4404242EA85128D6942EA85124B
:102BC0004260C461496801640362F0BDFF8FFFFE8B
:102BD000002C01400034014000400140004401400D
:102BE0000048014030B5056A026A22F48032026270
:102BF0004268036D114C23400C681C4325F40033DC
:102C00000D8943EA05430E4DA8420BD00D4DA84255
:102C100008D00D4DA84205D00C4DA84202D00C4D55
:102C2000A84204D14D6922F4803242EA0522426072
:102C3000046549688164036230BD00008FFFFEFFB8
:102C4000002C01400034014000400140004401409C
:102C50000048014030B5046A026A22F48012026220
:102C60004268036D114D24F400142B400D6843EAB3
:102C700005230D8944EA05540D4DA8420BD00D4D96
:102C8000A84208D00C4DA84205D00C4DA84202D055
:102C90000B4DA84204D14D6922F4802242EA8522DC
:102CA000426003654968C164046230BDFF8FFFFE66
:102CB000002C01400034014000400140004401402C
:102CC0000048014010B5036A046A24F0010404625C
:102CD000846924F0F00444EA021423F00A020A434F
:102CE0008461026210BD10B5036A046A24F0100406
:102CF0000462846923F0A00324F4704444EA02329D
:102D000043EA01118261016210BDFEE70907090E65
:102D1000002804DB00F1E02080F80014704700F088
:102D20000F0000F1E02080F8141D70471CB500254D
:102D30008DF804508DF80050FDF792FFFFF7F5FC79
:102D4000FFF7D6FAFFF7B6FAFFF71AFBFFF792FB89
:102D5000FFF744FBFFF7B6FB4FF47A769DF80000CF
:102D6000411C8DF800100D2801D98DF80050002469
:102D70009DF8001003222046FFF711FC641CE4B20A
:102D80003C2CF5D33046FDF77DFCE7E74FF0407073
:102D9000E1EE100A70470000000000000000010290
:102DA000030406070809FF000000FF000000FF0001
:102DB000FFFFFF00DC7FD8007F6A00000000FFFFFC
:102DC000FF800080A52A2A808080FFC0CBFFD7002B
:102DD000C0C0C000F42D0008000000201800000052
:102DE000140200080C2E0008180000202013000018
:102DF0003002000800000000000000001000000089
:0C2E000001000000000000000024F400AD
:04000005080001D915
:00000001FF
