:020000041000EA
:100000000020002065960010E5960010795F002022
:10001000BB5F0020AF960010AF960010AF960010A7
:10002000000000000000000000000000AF9600107B
:10003000AF960010000000009D5E0020C902021073
:10004000AF960010AF960010F56201100763011023
:10005000196301102B6301103D6301104F63011000
:100060006163011073630110AF9600106196001078
:10007000AF960010AF960010AF960010AF9600102C
:10008000AF960010AF960010AF960010AF9600101C
:10009000C96F0110AF960010AF960010AF96001018
:1000A000AF960010AF960010AF960010AF960010FC
:1000B000AF960010AF960010AF960010AF960010EC
:1000C000AF960010AF960010AF960010AF960010DC
:1000D000AF960010AF960010AF960010AF960010CC
:1000E000AF960010AF960010AF960010AF960010BC
:1000F000AF960010AF960010D57B0110AF960010A0
:10010000AF960010F98D0110656201107762011041
:10011000896201109B620110AD620110BF62011083
:10012000D1620110E3620110AF960010AD760110AC
:10013000AF960010E5870110E9F7011065BD0110C9
:10014000AF960010AF960010AF9600104D0202104F
:10015000AF960010AF960010AF960010AF9600104B
:10016000BD7B0110AF960010AF960010AF96001047
:10017000EB870110ED950110F1870110AF9600108B
:10018000AF960010AF960010AF960010AF9600101B
:1001900055710110AF960010AF960010AF96001089
:1001A000AF96001001F80110AF960010AF96001046
:1001B000AF960010AF960010AF960010AF960010EB
:1001C000AF960010AF960010AF9600100000000030
:1001D000000000000000000000000000000000001F
:1001E000000000000000000000000000000000000F
:1001F00000000000000000000000000000000000FF
:0402000000000000FA
:1002040004F05EB9024A936E60F31D53936670471F
:1002140000A00C5038B560B1114C6368DBB2072BF9
:100224001AD06368DBB20F2B16D0082801D010282F
:1002340014D100294FF021040CBF20210121094DC4
:100244008440EB6D814023EA04030B43EB651AB150
:1002540041F2883004F016FF002038BD0120FCE78D
:1002640000B0005000A00C5008B5EFF31083012536
:1002740085F31088022004F023FE284603F022FEB2
:100284002A4600210820FFF7C5FF4FF4FA5004F076
:100294001BFF002003F098FB044628B904F080FEFD
:1002A4002946204603F066FC45F25002094C0A4BED
:1002B40063670A4B1A6323685B0706D523680848FB
:1002C40023F00403236004F0DDFE236843F00403F9
:1002D4002360FEE700A00C5015C0500A00B00C507B
:1002E400A0860100044B1A7822B118B1DB780370A0
:1002F4000020704701207047898B0020044B1A7836
:1003040022B118B15B7B0370002070470120704755
:10031400898B002003280ED8084A52F8203029B1CE
:1003240043F0060342F820300020704723F0060310
:1003340043F00403F6E70120704700BF5CB00C50A3
:1003440003289DBF034B53F82000C0F340204FF017
:10035400FF3070475CB00C5003280CD8074B53F89F
:100364002020920707D553F8202061F3000243F8B8
:100374002020002070470120704700BF5CB00C5063
:1003840059B1032809D8064B53F82030002013F044
:10039400020318BF01230B7070470120704700BF90
:1003A4005CB00C5002F0B0BF08B502F07FFF0A4BFE
:1003B4001B787BB100280DDB084B03EB401005F0E4
:1003C4009FFE38B1BDE8084040F2012204490548C7
:1003D40005F03ABE08BD00BF00A10020B0B7002060
:1003E400822E0020516D002008B502F08DFF18B157
:1003F400BDE8084002F0F8B808BD0000034B1B78C4
:1004040043FA00F000F00100704700BFACB70020D1
:10041400F7B5154D2C781CBB144B6F469A88186899
:100424009B79ADF804208DF80630009002F0B0FFFF
:1004340001220F4B0F4E28701A70E2B21046FFF7DC
:10044400DDFF40B131328DF8052000230122394609
:10045400304605F045FE0134052C06F12006ECD1AA
:10046400287803B0F0BD00BFACB700205D6D00205C
:1004740000A10020B0B7002008B5FFF7C9FF002095
:1004840008BD72745F666C6173685F756E6C6F63D0
:100494006B000000F0B505460138C0B2FD2808D84D
:1004A40000240B4F57F8040B067826B90134062CA8
:1004B400F8D100200BE0AE4205D14678964202D135
:1004C40086788E4201D00830EEE703B11C70F0BD8F
:1004D400242F002007B50DF10703FFF7DBFF064BC0
:1004E40040B14FF405719DF8072001FB023003B0C1
:1004F4005DF804FB1846FAE73C31002008B50023F8
:10050400FFF7C8FF08B1406808BD4FF40020FBE7BF
:1005140008B50023FFF7BEFF10B1C07800F001005A
:1005240008BD000084300020EC2F0020B42F0020F0
:10053400942F0020642F00203C2F0020C225390076
:1005440000000002C225370000008000C22019010B
:1005540000000002257018000000000100000000E7
:100564000000000020411900000000022040190092
:100574000000000220431900000000028520190138
:100584000000000285201A010000000400000000A1
:1005940000000000C8601900000000020B401900B0
:1005A40000000002C8401900000000020000000022
:1005B40000000000EF60190000000002EF70190154
:1005C40000000002E542190000000002EF4019009B
:1005D4000000000268491900000000025E40190092
:1005E4000000000200000000000000008560160109
:1005F400000040008560170100008000856018013C
:1006040000000001856518010000000185631801E0
:1006140000000001852017010000800085201801DA
:10062400000000012570160000004000EF60180073
:1006340000000001EF401800000000010B601800EA
:10064400000000015E50180000000001A1281800FD
:1006540000000001C843180100000001C840180050
:1006640000000001C840170000008000204017016E
:1006740000008000CD6018000000000100000000B0
:100684000000000085601501000020008560140151
:10069400000010008560130000000800C86014000A
:1006A40000001000C860150000002000C86016009B
:1006B40000004000C860170000008000C8601800F7
:1006C400000000010B40170000008000F8421800F1
:1006D400000000015E701700000080005E401800FA
:1006E40000000001EF6016000000400020401801E7
:1006F40000000001204118000000000120501800F3
:1007040000000001EB60130000001000EB60140017
:10071400000010001C401800000000016840170091
:100724000000800068401800000000010B40180021
:1007340000000001000000000000000000856015BA
:10074400000003000000000100100000060000008B
:10075400000000000104000000000000000105008A
:10076400010000000000010101010000000000017F
:10077400000000000000000000030001000000026F
:1007840001010B00010800000201013B0002080006
:10079400000201016B0003080000020101BB00021A
:1007A400000002020201EB00030400030203019FA4
:1007B4000001000000000001000000000000000033
:1007C4000000000000000000000000000000000025
:1007D4000000000000000000000000000000000015
:1007E400000000000000000000000000000099006C
:1007F400000000000000016600000000000000018D
:10080400350001000000000001500000000000005D
:100814000001020101000000020101320103000095
:1008240000020101000000000000000000000000C0
:10083400000000000000810000000000020101200F
:10084400000000000002010152000000000002014B
:1008540001D8000000000002010160000000000057
:100864000000010000000000000000000000000083
:100874000000000000000000000000000000000074
:100884000000000000000000000000000000000064
:100894000000000000000000000000000000000054
:1008A4000000000000000000000000000000000044
:1008B4000000000000000000000000000000000034
:1008C4000000000000000000000000000000000024
:1008D4000000000000000000000000000000000014
:1008E4000000000000000000000000000000000004
:1008F40000000000000000000000000000000000F4
:1009040000000000004B0001080000020101480043
:10091400010800000201014201010000000201017E
:10092400440000000000020101B9000000000000C2
:100934000001AB0000000000000001ED000707000B
:10094400070207015A00010800000201010000002B
:100954000085601600000300000000010010000084
:100964000600000000000000010400000000000078
:100974000001050001000000000001010101000068
:10098400000000010000000000000000000300015E
:100994000000000201010B00010800000201013BFC
:1009A40000020800000201016B00030800000201BC
:1009B40001BB0002000002020201EB000304000379
:1009C4000203019F0001000000000001000000007C
:1009D4000000000000000000000000000000000013
:1009E4000000000000000000000000000000000003
:1009F40000000000000000000000000000000000F3
:100A040000009900000000000000016600000000E2
:100A1400000000013500010000000000015000004A
:100A24000000000000010201010000000201013287
:100A340001030000000201010000000000000000AA
:100A44000000000000000000000081000000000021
:100A54000201012000000000000201015200000018
:100A64000000020101D80000000000020101600042
:100A74000000000000000100000000000000000071
:100A84000000000000000000000000000000000062
:100A94000000000000000000000000000000000052
:100AA4000000000000000000000000000000000042
:100AB4000000000000000000000000000000000032
:100AC4000000000000000000000000000000000022
:100AD4000000000000000000000000000000000012
:100AE40000000031010100000000000100000000CE
:100AF40000000000000000000000000000000000F2
:100B040000000000000000000000000000000000E1
:100B14000000000000000000004B0001080000027B
:100B24000101480001080000020101420101000026
:100B340000020101440000000000020101B90000AC
:100B4400000000000001AB0000000000000001ED07
:100B540000070700070207015A000108000002010C
:100B64000100000000EF6019000003000000000114
:100B74000010000006000000000000000104000056
:100B84000000000000010500010000000000010158
:100B9400010100000000000100000000000000004E
:100BA400000300010000000201010B000108000025
:100BB4000201013B00020800000201016B0003086E
:100BC4000000020101BB0002000002020201EB006E
:100BD400030400030203019F000100000000000160
:100BE4000000000000000000000000000000000001
:100BF40000000000000000000000000000000000F1
:100C040000000000000000000000000000000000E0
:100C140000000000000099000000000000000166D0
:100C24000000000000000001350001000000000089
:100C3400015000000000000000010201010000005A
:100C4400020101320103000000020101C800010099
:100C54000000000001C50101000000000001810046
:100C64000000000002010120000000000002010158
:100C7400520000000000020101D800000000000240
:100C840001016000000000000000011500010000E7
:100C940000000001110101000000000001B7000084
:100CA400000000000001E900000000000000011342
:100CB40000010000000301010C0001080000030111
:100CC400016C0003080000030101EC0003040003AD
:100CD40003030112010100000003010134010300B8
:100CE4000000030101210000000000030101DC00F9
:100CF40000000000030101000000000000000000EB
:100D040000000000000000000000000000000000DF
:100D140000000000000000000000000000000000CF
:100D2400000000000000000000000000004B000173
:100D3400080000030101480001080000030101420A
:100D44000101000000030101440000000000030150
:100D540001B90000000000000001AB000000000029
:100D6400000001ED00070700070307015A0001080E
:100D7400000002010100000000C860190000030027
:100D84000000000100100000060000000000000048
:100D94000104000000000000000105000100000043
:100DA400000001010101000000000001000000003A
:100DB40000000000000300010000000201010B001C
:100DC400010800000201013B0002080000020101C9
:100DD4006B0003080000020101BB000200000202D4
:100DE4000201EB00030400030203019F0001000061
:100DF40000000001000000000000000000000000EE
:100E040000000000000000000000000000000000DE
:100E140000000000000000000000000000000000CE
:100E24000000000000000000000099000000000025
:100E34000000016600000000000000013500010010
:100E44000000000001500000000000000001020149
:100E5400010000000201013201030000000201014F
:100E6400C80001000000000001C5010100000000ED
:100E740000018100000000000201012000000000C8
:100E840000020101520000000000020101D800002C
:100E940000000002010160000000000000000115D4
:100EA4000001000000000001110101000000000029
:100EB40001B70000000000000001E900000000008C
:100EC4000000010300010000000301010B00010800
:100ED40000000301016B0003080000030101EB00A3
:100EE40003040003030301020101000000030101E4
:100EF4003201030000000301012000000000000390
:100F04000101D800000000000301010000000000FE
:100F140000000000000000000000000000000000CD
:100F240000000000000000000000000000000000BD
:100F340000000000000000000000000000000000AD
:100F4400004B0001080000030101480001080000F3
:100F540003010142010100000003010144000000FB
:100F64000000030101B90000000000000001AB0013
:100F7400000000000000010000000000000000006C
:100F84005A0001080000020101000000002041197C
:100F94000000030000000001001000000600000033
:100FA4000000000001040000000000000001050032
:100FB4000100000000000101010100000000000127
:100FC4000000000000000000000300010000000217
:100FD40001010B00010800000201013B00020800AE
:100FE400000201016B0003080000020101BB0002C2
:100FF400000002020201EB00030400030203019F4C
:1010040000010000000000010000000000000000DA
:1010140000000000000000000000000000000000CC
:1010240000000000000000000000000000000000BC
:101034000000000000000000000000000000990013
:101044000000000000000166000000000000000134
:101054003500010000000000015000000000000005
:10106400000102010100000002010132010300003D
:1010740000020101C80001000000000001C50101D7
:1010840000000000000181000000000002010120B6
:1010940000000000000201015200000000000201F3
:1010A40001D80000000000020101600000000000FF
:1010B4000000011500010000000000011101010001
:1010C4000000000001B70000000000000001E9007A
:1010D40000000000000001130001000000030101F2
:1010E4000C00010800000301016C00030800000368
:1010F4000101EC00030400030303011201010000D9
:101104000003010134010300000003010121000078
:10111400000000030101DC000000000003010131B4
:1011240001010000000000010000000000000000B8
:1011340000000000000000000000000000000000AB
:10114400000000000000000000000000000000009B
:1011540000000000004B00010800000301014800EA
:101164000108000003010142010100000003010124
:10117400440000000000030101B900000000000069
:101184000001AB00000000000000010000000000AE
:10119400000000005A0001080000020101000000E4
:1011A40000C225390000003C60000000001000006F
:1011B4000600000000000000010400000000000020
:1011C4000001050001000000000001010101000010
:1011D4000000000100000000000000000003000106
:1011E4000000000201010B00010800000201013BA4
:1011F40000020800000201016B0003080000020164
:1012040001BB0002000002020201EB000304000320
:101214000203019F00010000000000010000000023
:1012240000000000000000000000000000000000BA
:1012340000000000000000000000000000000000AA
:10124400000000000000000000000000000000009A
:10125400000099000000000000000166000000008A
:101264000000000100000000000000000000000079
:101274000000000000000201010000000201013230
:101284000103000000020101C80001000000000089
:1012940001C5010100000000000181000000000000
:1012A40002010120000000000002010152000000C0
:1012B4000000020101D800000000000201016000EA
:1012C4000000000000000115000100000000000102
:1012D400110101000000000001B70000000000003F
:1012E4000001E9000000000000000103000100000B
:1012F400000301010B00010800000301016B00035E
:10130400080000030101EB000304000303030102CE
:101314000101000000030101320103000000030188
:1013240001200000000000030101D80000000000BB
:1013340003010100000000000000000000000000A4
:101344000000000000000000000000000000000099
:101354000000000000000000000000000000000089
:101364000000000000000000004B00010800000223
:101374000101000000000000000000000000000067
:1013840000000000000000000000000000B90000A0
:10139400000000000001AB0000000000000001009C
:1013A40000000000000000005A00010800000201D3
:1013B4000100000010B5E0B1D9B10023012243605F
:1013C40080F822200C6804604A6880F820208A682B
:1013D4000261CA6812054261FF22C4F884204FF0FA
:1013E400502401688C6701680A62016818464A64DF
:1013F40010BD0120FCE738B102680020136C23F013
:10140400FF031943116470470120704770B5C8B1D8
:1014140005689DF918609DF91C00AC6C40EAC60093
:1014240040EAC3239DF910006FF3140443EA002338
:101434009DF9140043EA801343EA423242EA8141AF
:101444002143A96470BD40B102680020136C23F4E9
:101454007F4343EA0121116470470120704770B54E
:10146400C8B105689DF918609DF91C002C6D40EA0F
:10147400C60040EAC3239DF910006FF3140443EA45
:1014840000239DF9140043EA801343EA423242EAFE
:1014940081412143296570BD18B10368002059605A
:1014A40070470120704730B103680139C1F313015B
:1014B4000020596270470120704708B1036819621F
:1014C400704718B10368186900F00100704720B133
:1014D4000268536943F001035361704738B50D4600
:1014E4000446A8B10368DA61C36A0BB101209847C6
:1014F40023689D612046FFF7E4FF0028FAD02046C8
:10150400FFF7E5FFE36A0BB100209847002038BDE0
:101514000120FCE728B103685868C04300F00100CB
:1015240070470120704708B103685868704720B1BC
:101534000268536D61F38E235365704708B10368E5
:10154400D960704710B10368D868C0B2704770B5ED
:10155400E8B105689DF91C609DF92000AC6A40EA79
:10156400C6009DF910606FF3150440EAC6209DF98A
:10157400146040EA06209DF9186040EA861040EAAB
:10158400433343EA824242EA41512143A96270BD96
:1015940050B103681A6821B142F0010200201A60B8
:1015A400704722F00102F9E70120704750B1036847
:1015B4001A6821B142F4001200201A60704722F424
:1015C4000012F9E70120704750B103689A6821B10D
:1015D40042F0100200209A60704722F01002F9E7EE
:1015E4000120704730B580B10568BDF80C00AC68C7
:1015F400800640EA8353002043EA81416FF39E143E
:1016040041EA82122243AA6030BD0120FCE730B1D6
:1016140002680020936861F302039360704701201D
:10162400704750B103689A6821B142F0200200204B
:101634009A60704722F02002F9E70120704750B108
:1016440003681A6821B142F0807200201A60704762
:1016540022F08072F9E70120704750B103681A68DC
:1016640021B142F4000200201A60704722F4000203
:10167400F9E70120704750B103689A6821B142F03C
:10168400004200209A60704722F00042F9E70120EE
:10169400704750B103689A6821B142F008020020F3
:1016A4009A60704722F00802F9E70120704740B1C0
:1016B40002680020936D23F47F0343EA014191659E
:1016C40070470120704760B100685206836D42EA9A
:1016D400012123F0007323F47F4319438165002023
:1016E400704701207047000010B5F0B10468A06D88
:1016F400B1B1022A84BF023AD2B213026FF30F00CF
:1017040003F4FE430343120654BF43F0806343F0E3
:10171400A06343F00A0323F000730020A36510BD07
:10172400034B034043F00073F7E70120F7E700BFE2
:101734000000FFFA30B10268936C23F4783343EA73
:1017440041319164704730B10268136D23F47833EA
:1017540043EA41311165704748B10368D3F88820E2
:1017640009B141F480310020C3F88810704701208A
:1017740070477FB5054600283DD0C46801B394F88E
:101784006A30002B37D094F9726094F96E3094F972
:101794006C1094F96D20039694F97160029694F993
:1017A4007060019694F96F400094FFF72FFEEB6888
:1017B40093F86A102846FFF71EFE002004B070BD9F
:1017C40094F84630BBB194F94E6094F94A3094F9D8
:1017D400481094F94920039694F94D60029694F9BF
:1017E4004C60019694F94B400094FFF70FFEEB68B0
:1017F40093F84610DEE70120E0E77FB505460028B0
:1018040036D0C468E1B194F96E6194F96A3194F9FF
:10181400681194F96921039694F96D61029694F91B
:101824006C61019694F96B410094FFF7EFFDEB684E
:1018340093F866112846FFF7DEFD002004B070BD62
:1018440094F95C6194F9583194F9561194F957213B
:10185400039694F95B61029694F95A61019694F99E
:1018640059410094FFF7D2FDEB6893F85411E1E776
:101874000120E3E7F0B5C4680646174687B054B3C1
:10188400382928D801EBC1052C44237C1BB394F9D7
:1018940018C094F9133094F9122094F91110CDF86A
:1018A40010C094F917C0CDF80CC094F916C0CDF847
:1018B40008C094F915C0CDF804C094F914400094FC
:1018C400FFF745FEF3683A462B443046197CFFF790
:1018D40005FE07B0F0BD0120FBE7000070B504462B
:1018E400002841D0C368002B3ED000293CD093F897
:1018F40093510121CDB3FFF7D6FD002214212046D8
:10190400FFF7B8FF2046FFF70EFEC30704D540F2E9
:1019140067413D4804F0B8FB002215212046FFF73B
:10192400A9FF054620B1002220461146FFF7A2FF79
:1019340002212046FFF7B0FD01212046FFF7B3FD49
:1019440000222B212046FFF795FF6DB1012120468F
:10195400FFF7A9FD002202212046FFF78BFF204656
:10196400FFF7D8FD0028F5D070BDFFF79CFD2A468F
:1019740002212046FFF77EFF2046FFF7D4FD2A46CA
:1019840014212046FFF776FF10B92046FFF7CBFD60
:10199400E3681B7AABB3012103F00F051B0901FABD
:1019A40003F3DBB20DB11D460023002215212046AE
:1019B40043EA0525FFF75EFF064620B100222046D4
:1019C4001146FFF757FF29462046FFF765FD022120
:1019D4002046FFF768FD002203212046FFF74AFF57
:1019E400002EC1D001212046FFF75DFD0022022117
:1019F4002046FFF73FFF2046FFF78CFD0028F5D077
:101A0400B2E70225D1E700BFEF6C002038B50446E9
:101A14000D46FFF763FF29462046BDE83840FFF72F
:101A2400A8BE38B504460D46FFF758FF29462046A0
:101A3400BDE83840FFF7E1BE10B5044640B1026886
:101A4400936A6FF3150343F4802343F00103936215
:101A540003212046FFF727FD00229F212046FFF7A0
:101A64003DFD2046FFF75FFD20F07F4010BD70B5BF
:101A7400044600283ED0C368012193F89351002DF9
:101A84003BD0FFF710FD002202212046FFF7F2FEB3
:101A940088BB2046FFF747FDC0B2E368DD790DB18E
:101AA40020EA0505002215212046FFF7E3FE06463D
:101AB40020B1002220461146FFF7DCFE29462046CD
:101AC400FFF7EAFC01212046FFF7EDFC0022032189
:101AD4002046FFF7CFFE6EB101212046FFF7E3FC5D
:101AE400002202212046FFF7C5FE2046FFF712FD23
:101AF4000028F5D070BD0020CFE7FFF7D4FC2A46BC
:101B040002212046FFF7B6FE00283ED12046FFF70B
:101B14000AFDC6B2002214212046FFF7ABFE18B915
:101B24002046FFF700FDC5B2E368D97909B126EA7A
:101B340001010022204641EA05251521FFF79AFEFE
:101B4400064620B1002220461146FFF793FE29469F
:101B54002046FFF7A1FC02212046FFF7A4FC002247
:101B640003212046FFF786FE002EC3D00121204624
:101B7400FFF799FC002202212046FFF77BFE204656
:101B8400FFF7C8FC0028F5D0B4E72E46C2E760B1E1
:101B9400006850B1836D090623F0807301F08071F1
:101BA40023F0FF03114319438165704738B5044698
:101BB400D0B10368AB211D6815F0010502BF1A6896
:101BC40042F001021A600268936A6FF3150343F04E
:101BD400010393620022FFF781FC25B92268136890
:101BE40023F00103136038BD0120FCE70020704797
:101BF4002DE9F047884699460446002845D0836875
:101C0400002B42D0B9F1000F3FD001680F6832B306
:101C140010229A60002382684E4653618268936161
:101C24008268D360802283681A6105680435A068DD
:101C340004F06AFA50BBA06804F056FA30BB23687B
:101C440047F020071F60226809F1FF3353624146C1
:101C540033462A46A068BDE8F04704F049BA4FF479
:101C640000719A60836809F1030659614FF40061B9
:101C74008368454699618368B608DA608022836880
:101C84001A61036803F10408D1E70120BDE8F08775
:101C940010B50A46044670B1806860B1E16A11B1BA
:101CA4004FF0FF32002104F05BFA2268136823F03E
:101CB4002003136010BD0120FCE710B50B46044659
:101CC40086B020B308294FF000014FF0010283BF12
:101CD4000B46CDE90212CDE90011CDE902118EBF08
:101CE4001946CDE900115BB20492FFF730FC0321E1
:101CF4002046FFF7D8FB00229F212046FFF7EEFB8A
:101D04002046FFF710FC20F07F4006B010BDFF20F6
:101D1400FBE738B50D46044698B3C3688BB39A798C
:101D240092B39B7A83B30121FFF7BDFBE3680221E1
:101D34009A792046FFF79EFD2046FFF7F4FBE368FF
:101D44009B7ADDB143EA00012046FFF7A5FB0121A0
:101D54002046FFF7A8FBE36803219A792046FFF7A2
:101D640089FDE36884F8255002219A792046FFF71B
:101D740081FD2046FFF7D7FB002038BD20EA030190
:101D8400E2E74FF0FF30F8E76FF00100F5E710B538
:101D9400044620B3C2681AB313791BB3D3790BB3C7
:101DA4000121FFF780FBE36802211A792046FFF73F
:101DB40061FD2046FFF7B7FB94F824203F2A4FEA41
:101DC400121304D8012B08D800F0300007E0043BBC
:101DD400012BF9D800F0F00001E000F0700010BD14
:101DE4001046FCE71846FAE70346081172B1062BC1
:101DF4000CD8DFE803F0040D182E353F470028B156
:101E0400012813680AD143F00103136000207047CE
:101E140020F00203012B03D0D0B11368034316E072
:101E240013680343F1E70528F7D801A353F820F01A
:101E34000D48002021480020494800202148002066
:101E44001B48002021480020136843F0020313605C
:101E540070470028DAD0431E052B1368E1D9DDE76B
:101E6400C30700F0030102D40029CFD0D5E71368DB
:101E74000B43CAE70028C9D01368082843EA0003C3
:101E8400E5DCC2E70028C1D0431E012BE5E700BF13
:101E940010B590F82530044683B1FFF778FF01466A
:101EA40060B12246636843F4004342F8043F94F867
:101EB4002400BDE810400009FFF796BF002010BDC4
:101EC40038B50D46044650B3C36843B39A794AB350
:101ED4005B7A3BB30121FFF7E6FAE36802219A79C2
:101EE4002046FFF7C7FC2046FFF71DFBE3685B7A3B
:101EF40095B143EA00012046FFF7CEFA01212046BE
:101F0400FFF7D1FAE368032120469A79FFF7B2FC80
:101F1400002084F8265038BD20EA0301EBE74FF097
:101F2400FF30F8E76FF00100F5E738B50D460446D9
:101F340048B3C3683BB39A790AB11B7A0BB9002042
:101F440038BD0121FFF7AFFAE36802219A792046F0
:101F5400FFF790FC2046FFF7E6FAE3681B7A7DB1B1
:101F640043EA00012046FFF797FA01212046FFF7D4
:101F74009AFAE368032120469A79FFF77BFCDEE7AF
:101F840020EA0301EEE74FF0FF30D9E710B504462D
:101F94000121FFF788FA02212046FFF77DFAE36862
:101FA40003215A792046FFF765FC00212046FFF7FC
:101FB40073FAE368032120465A79FFF75BFC00209B
:101FC40010BD40B190F8243013F0010F14BF4FF44A
:101FD40080504FF4006070472DE9F04F91B00E46E9
:101FE40092461D4604461B9F28B1C3681BB1C369B2
:101FF4000BB1802F05D901236360002011B0BDE827
:10200400F08FFFF7DEFF00F1FF3909EA010909EB60
:1020140005038342804601D90223EDE70023636070
:1020240023694FF0000B8B4298BFCE1AB6FBF0F237
:1020340004212046FFF71EFC142003F045F801217B
:102044002046FFF730FA052003F03EF8E36802214A
:102054001A792046FFF70EFC2046FFF764FAC307FF
:10206400F1D4BBF1000F02D14FF0010BEBE7204696
:10207400FFF70EFF18B140F400406060BDE794F82C
:102084002020E368002A40D193F846102046FFF749
:10209400B2F9E06890F94EC090F94A3090F94920BD
:1020A40090F94810CDF80CC090F94DC0CDF808C097
:1020B40090F94CC0CDF804C090F94B000090204634
:1020C400FFF7A4F9B003D4F810B004D594F827307E
:1020D4000BB14BF4805B4AEA050343EA090313F0AE
:1020E400030302D16A1EFE2A2AD82A4650460BEB65
:1020F400090104F011F81A9B2BB13A4618460BEB70
:10210400080104F009F8781978E793F86A10204672
:10211400FFF771F9E06890F972C090F96E3090F9A8
:102124006D2090F96C10CDF80CC090F971C0CDF809
:1021340008C090F970C0CDF804C090F96F00BDE7F5
:10214400BAF1000FD7D01C491C4A04A8CDE90512E6
:102154008DF81C3003F0DCFF50B10F999DF8293045
:1021640040EA014141EA032141F00041616044E752
:102174000BEB09015246AB0804A803F0E9FF014642
:1021840080B94FF47A7204A803F0CAFF0028B2D0D1
:102194000F999DF8293040EA014141EA032141F0B9
:1021A4006041E3E70F9A9DF8293040EA024141EA91
:1021B400032141F04041D9E780000C0040000300B6
:1021C4002DE9F74F8B46DDE90C1715461E460446EC
:1021D40030B1C36823B1D0F81C90B9F1000F05D118
:1021E40001236360002003B0BDE8F08F12B909B980
:1021F4000223F6E72046FFF7E4FEB042824601D30D
:10220400802F01D90323ECE70023636023695B4536
:1022140098BFABEB030B01B137BB15F003080AD031
:1022240011BB4FF0000832462946E06903F074FF01
:10223400E5690AEB07061BF4003F04D094F8273045
:102244000BB148F48058731E2B446B40B3F5801FC8
:10225400009553D20122334629462046FFF7C8FC95
:10226400024670B10423BCE73A4609EB0A0003F0C6
:1022740053FFE369002DD4D1D0463E4603EB0A0553
:10228400D9E701462046FFF7F5FA94F82030424694
:1022940083BB0C212046FFF7EDFA4FF47A712046F8
:1022A400FFF7F6FC40BB002220461146FFF7E2FA96
:1022B400BBFBFAF210212046FFF7DCFA962002F06D
:1022C400E1FE142002F0DEFE01212046FFF7EBF8C8
:1022D400E36802211A792046FFF7CCFA2046FFF77B
:1022E40022F9C207EDD403074ABF606030464FF0BD
:1022F400FF3078E70D21CDE7052372E70022204661
:102304001146FFF7B7FA00287FF46CAF402EB146B0
:10231400A8BF4FF0400929F00307EB199D4234D1BF
:1023240049462046FFF7BFF894F820304246A3BB45
:102334000C212046FFF79EFA00287FF453AF009B40
:10234400A6EB09053B441F46002DC144ABDD00222A
:10235400402DA846A8BF4FF0400811462046FFF77D
:1023640089FA28F003033B449F4218D14146204692
:10237400FFF799F894F820304A46C3B90E21204655
:10238400FFF778FAA5EB0805DEE7204655F8041BAD
:102394000193FFF781F8019BC0E70D21C9E72046AF
:1023A40057F8041B0093FFF777F8009BDCE70F2135
:1023B400E5E770B50D46044608B1C36823B90123A7
:1023C4004FF0FF30636070BD002343600369002257
:1023D4008B4298BFCD1AFFF7F4FD064611462046FE
:1023E400FFF748FAB5FBF6F211212046FFF742FA4F
:1023F4004FF4FA7002F046FE282002F043FE012159
:102404002046FFF750F8E36802211A792046FFF7C7
:1024140031FA2046FFF787F8C307EDD410F0040320
:1024240016BF606018466FF00100CCE730B51D465A
:10243400044687B010B9012007B030BDC368002B33
:10244400F9D05B7A002BF6D003698B4298BFC91A86
:10245400002A6CD0FFF7B5FDB1FBF0F20421204651
:1024640092B2FFF707FA01212046FFF71CF8E36850
:1024740002211A792046FFF7FDF92046FFF753F8A9
:1024840010F00101EFD12046FFF71AFD226829461A
:102494001368204643F480131360FFF704F894F89C
:1024A4002030E06813B390F8C031002BC3D090F90A
:1024B400C85190F9C33190F9C22190F9C111049522
:1024C40090F9C751039590F9C651029590F9C551F9
:1024D400019590F9C40100902046FFF738F8E268AE
:1024E400236892F8C0219A610020A5E790F8B731DB
:1024F400002BA0D090F9BF5190F9BA3190F9B921CD
:1025040090F9B811049590F9BE51039590F9BD5115
:10251400029590F9BC51019590F9BB0100902046B9
:10252400FFF715F8E268236892F8B721DBE7026841
:10253400136823F480131360FEF7C9FF01212046BA
:10254400FFF7BEFCD0E708B50246FFF73AFD28B115
:1025540092F824309B074CBFC001800108BD1FB511
:10256400044610B9002004B010BDC369002BF9D093
:10257400FFF7E9FF0423019303AB009300234143D6
:102584001A462046FFF728FD40B19DF80C30FF2B7A
:10259400E8D00398002808BF0120E4E70120E2E71F
:1025A40008B5E8B103680F4A93420CD002F5805293
:1025B400934215D1062001F007FA022805D1BDE89F
:1025C400084001F036BA0420F5E7032803D1BDE83A
:1025D400084001F031BA0120BDE8084001F094BA86
:1025E400002008BD0010045038B5054608B9002085
:1025F40038BDFEF7A7FF04460028F8D02846FFF7A9
:10260400CFFFB0FBF4F0F3E738B190F8233013B107
:102614000021FFF752BBFFF70FBAFF2070477FB5C9
:1026240004460A4651B3C56895F8FF31002B3BD0E8
:1026340090F82030C3B395F9076295F9022295F911
:10264400033295F90112039695F90662029695F9FB
:102654000562019695F904520095FEF7D7FEE368EA
:10266400204693F8FF11FEF7C6FE0121204694F898
:102674002520FFF739F8002004B070BDFFF734F8C7
:10268400636994F82010B3F1807F06D919B9204604
:10269400FFF7B3F8EFE70121F9E719B92046FFF78F
:1026A40068F8E8E70121F9E70120E5E710B50446F9
:1026B400F0B102681420D2F8943043F00043C2F819
:1026C400943002F0DFFC2368D3F89420D205FBD5C4
:1026D400D3F89400D3F89420C0B222F00042C3F897
:1026E400942094F8253023F07F03034384F82530A5
:1026F40010BD00002DE9F0430E4690461F460446E7
:1027040087B0002800F0E580002900F0E280FEF7A1
:1027140051FE2068FFF76AFA3369002184F83430E7
:10272400B3680546A363F36884F824101B05E363C8
:10273400022384F836303369C4F808805A1E5342A1
:10274400534184F82330B8F1000F58D0002F56D0ED
:102754003B68C8F80030A368FA685A601022A3687E
:102764009A608022A368D960A3681A614FF48052EA
:10277400A3685961A3689961A368D961A3681A62BF
:10278400A3685962C0B16FF07F43984214D0012608
:1027940094F82330002B3DD1002E5AD12046FFF768
:1027A40005FA304602F06EFC322002F06BFC204643
:1027B400FFF72AFF05464CE001212046FEF7B7FE4D
:1027C400A74BA26920469A424FF000028CBF012118
:1027D4001146FFF7DCF920469DF83810FEF7AEFEEF
:1027E40094F835302BB1012B10D100212046FEF78F
:1027F40026FF01212046FEF7CBFE0026C8E7002D68
:10280400DED06FF07F439D42C1D1D9E7022BF0D1D6
:102814000121EBE7226800279368394643F070737F
:10282400936001233A462046CDE90373CDE901774D
:102834003B460097FEF78BFE3A46FF212046FEF703
:102844004DFE384602F01EFCC82002F01BFC002E90
:10285400ADD094F82330EFB2C5F307282563C5F350
:102864000745424629463846ABB303F015FCE06001
:10287400A0BB94F823302BB308212046FFF71DFAA0
:10288400C0F30728C0F30745C7B220634246294670
:10289400384603F001FCE06000BB0F212046FFF73F
:1028A4000CFAC0F30728C0F30745C7B220634246B9
:1028B4002946384603F0F0FBE06078B903F0DCFB0E
:1028C400E06058B900212046FEF762FE0023C4E907
:1028D4000E3301204CE0FDF7FDFDC8E794F82330EA
:1028E400424629463846002B45D003F0BDFB4246FC
:1028F40029468146384603F01BFC4246294684F8A3
:102904002700384603F0E4FB424684F824002946B5
:10291400384603F0ADFB94F8243043EA001384F8FE
:102924002430B9F1000F03D0C4F83C90C4F81490DB
:1029340094F82330002B73D1002E6ED12046FFF77C
:1029440096F86369B3F1807F38D932462121204655
:10295400FEF790FF94F820308BB93146204684F876
:102964002660FFF75EF807212046FEF750FE0020A0
:1029740007B0BDE8F083FDF7C1FD8146D1E7012131
:102984002046FFF74EF894F82690B9F1010FEAD1EA
:10299400424629463846FDF7BBFD38B12046FFF7CD
:1029A40085FE49462046FFF73AFEDCE732463146CB
:1029B4002046FEF799FE84F82660D4E794F8203088
:1029C40033B93146204684F82660FFF71FF8CEE776
:1029D40001212046FFF71AF894F82690B9F1010F67
:1029E40015D1424629463846FDF792FD38B12046B6
:1029F400FFF75CFE49462046FFF711FEB7E7324673
:102A040031462046FEF770FE84F82660AFE7324672
:102A140031462046FEF768FEA9E784F82630A6E78B
:102A240001212046FEF73FFDE36802211A79204682
:102A3400FEF720FF2046FEF776FD05460A2002F049
:102A440021FBEB07ECD42046FFF7A0FA94F82030E2
:102A5400022B8CD101212046FFF767FA87E700BFDC
:102A640000E1F5051FB50190019B114C0BB12068E5
:102A740040B9002001F058F80E4BB0FBF3F0019B75
:102A840020609BB1302882BF019B03F1FF33019387
:102A9400019B5BB10522019B013B4343B3FBF2F372
:102AA4000393039B5A1E0392002BFAD104B010BD6A
:102AB40020AB002040420F0070B50E461546044678
:102AC40058B302220368DA600268936D23F000733E
:102AD400936502680020D2F8943043F00043C2F8B2
:102AE4009430FFF7BFFF1420FFF7BCFF2068D0F835
:102AF4009430DB05FBD5D0F89430D0F89420DBB2C9
:102B040022F00042C0F894205A1E327001220020A4
:102B1400043B2B702368DA6070BD0120FCE70000E1
:102B240037B514460546002843D0002941D0FEF7A6
:102B340041FC2846E1B2FEF701FD2846FFF754FDAB
:102B44001D4B984230D91D4B98422FD91C4B9842AB
:102B540022D940F2B63440F274431A4A904288BFF4
:102B64001C46002201212846FFF711F800212246C5
:102B7400022328460091FEF735FD044648B9062194
:102B84002846FEF744FD044618B901212846FEF7FD
:102B9400FFFC204603B030BD0B4B4FF43E7498420B
:102BA400DFD800221146DEE7B424FAE74FF4BE74FE
:102BB400F7E70124EDE700BF00366E01006CDC028C
:102BC40000D8B805000E270700879303F0B50E461A
:102BD4001746054687B0D8B1072200240323CDE960
:102BE40003220121CDE9014300942346FEF7AFFC03
:102BF40002212846FEF757FC39462846FEF74CFCCE
:102C04003246C0212846FEF769FC204607B0F0BDD5
:102C14000120FBE72DE9FF410C4616461F460546F9
:102C2400002840D06B46214A1068516803C390685D
:102C3400D16803C32846E1B2FEF71DFD07F1100376
:102C44006B4413F8088C4FEA48185FFA88F80CB301
:102C540004AB03EB560313F8104CA40044F0210416
:102C640064B204F0FD0200212846FFF7AFFF711E95
:102C7400284649B2FEF75EFD424604212846FFF786
:102C8400A5FF791E284649B2FEF75DFD002004B079
:102C9400BDE8F08106F110036B4413F8104CA40056
:102CA40044F00104DCE70120F1E700BF9C5C002054
:102CB400F0B50E461746054687B0D8B10722002462
:102CC4000223CDE903220121CDE9014300942346E7
:102CD400FEF73DFC04212846FEF7E5FB394628466D
:102CE400FEF7DAFB3246C0212846FEF7F7FB204602
:102CF40007B0F0BD0120FBE730B5054685B0A0B1B3
:102D040000240721022390F82520CDE90211520066
:102D1400CDE9004352B22346FEF778FB214628460C
:102D2400FEF769FB204605B030BD0120FBE730B556
:102D3400054685B090B1072100240223CDE9021194
:102D4400CDE90043234690F92620FEF788FB802135
:102D54002846FEF778FB204605B030BD0120FBE78E
:102D6400F0B5044687B000283BD090F82330052BFB
:102D740034D0033B012B2ED801260327002307253B
:102D840076B27FB21A4601212046CDE90355CDE93A
:102D940001570096FEF7DBFB0022FF212046FEF7D9
:102DA4009DFB94F82330052B0FD1002301211A46F3
:102DB4002046CDE90355CDE901570096FEF7C7FB40
:102DC4000022FF212046FEF789FB002002F05AF979
:102DD400032002F057F9002007B0F0BD03260227B4
:102DE400CCE70120F8E7000030B5044685B00028A0
:102DF4006CD000296AD0FEF7DDFA23680DF10E02CB
:102E04000DF10F0120461D68FFF756FE01212046F3
:102E1400FEF794FB2046FFF7E7FB2D4B05F0010579
:102E240098423ED903F1376303F5D83398423DD92C
:102E340003F1377303F5D84398423DD90721142091
:102E4400082340F2325284F8251084F82610062113
:102E540000902046FEF7C6FB07212046FEF7D7FB6D
:102E640001212046FEF715FC9DF80E102046FEF7C2
:102E74001EFC00229DF80F102046FEF724FC0121C1
:102E84002046FEF785FB01212046FEF78FFB2DB976
:102E9400104B1B6803F00303032B13D1002005B070
:102EA40030BD032100230846B422CCE705210E20BF
:102EB400032340F2B632C6E706211120052340F26F
:102EC4007442C0E72046FFF74BFFE7E70120E6E73F
:102ED400016CDC0200000C50F0B5044685B00028FB
:102EE40000F09180002900F08E80FEF763FA2368D9
:102EF4000DF10E020DF10F0120461E68FFF7DCFDF7
:102F040001212046FEF71AFB2046FFF76DFB3F4BDD
:102F1400054698423E4F06F0010657D9B84259D9A2
:102F24003C4B98425BD903F1377303F5D84398427D
:102F34005AD81421082340F2325200912046062127
:102F4400FEF750FB07212046FEF761FB01212046D6
:102F5400FEF79FFB9DF80E102046FEF7A8FB00220B
:102F64009DF80F102046FEF7AEFB01212046FEF728
:102F740058FB01212046FEF70BFB01212046FEF7FA
:102F840015FB2EB994F8273013B92046FFF7E8FE55
:102F9400BD422ED91F4B9D4230D9062202238825DB
:102FA4003B2684F82630012184F825202046FEF7AC
:102FB40062FB324600212046FFF77AFE2A460421AE
:102FC4002046FFF775FE002005B0F0BD0321002365
:102FD400B422B2E70E21032340F2B632ADE7112149
:102FE400052340F27442A8E7172109234FF4BE6277
:102FF400A3E70422002308253326D2E70522002371
:1030040008253726CDE70120DEE700BF016CDC028E
:10301400011C4E0E01882A1170B50E461546044651
:1030240086B0F8B107220323CDE901230023CDE9BB
:10303400032200930121FEF78AFA31462046FEF767
:103044003CFA02212046FEF72EFA29462046FEF7D6
:1030540023FA4FF480326021204606B0BDE8704068
:10306400FEF73CBA06B070BD38B504460122FFF73E
:10307400BBFE2046FFF7B8FA154B98421FD9154BF3
:1030840098421FD903F1F47303F5904398421CD975
:1030940042F28F7541F28F730F4A904298BF1D46DA
:1030A40001212046FEF790FA2A4620460021FFF728
:1030B400B3FF01212046FEF7DEFA002038BD4EF2B0
:1030C4008F75EDE74FF28F75EAE740F28F75E7E70A
:1030D40081FE210A01D4650C01882A111FB560B153
:1030E4000721032390F82520CDE90013013A00239A
:1030F400CDE9021152B2FEF789F905B05DF804FB7F
:103104001FB560B10721032390F82620CDE90013F1
:10311400013A0023CDE9021152B2FEF7A0F905B03D
:103124005DF804FB2DE9FF470B69044680F8233062
:103134000B69033B032B00F28580DFE803F0026395
:1031440058792046FFF750FE032206460821204600
:10315400FFF73CFD2046FFF747FA4D4B98425FD9F5
:1031640003F1A46303F5834398425BD903F13773F6
:1031740003F5D843984257D9464B984256D9464B03
:10318400984294BF072500254FF0000807274FF009
:10319400030A4FEA4509434609F1FF3239462046FE
:1031A400CDE90277CDE9008AFEF730F941462046A1
:1031B400FEF721F943466A1E39462046CDE90277D7
:1031C400CDE9008AFEF74BF980212046FEF73BF952
:1031D4002B464A4601212046FFF71CFD4FF6FF719E
:1031E4002046FEF7B9FA304604B0BDE8F087204621
:1031F400FFF772FE2046FFF77FFD2046FFF797FD9D
:103204000026EBE72046FFF7EFFD432206460821A0
:103214002046FFF7DBFC01212046FEF71EFA99E762
:103224000325B1E70425AFE70525ADE70625ABE7A0
:103234002046FFF719FF2046FFF750FF2046FFF70F
:103244005FFFDDE7002603254FF001080227204633
:10325400FFF766FC3346062229462046CDE900677F
:10326400CDE90258FEF7D2F8EB212046FEF7C3F869
:103274003346324629462046CDE90067CDE9025857
:10328400FEF7EDF838212046FEF7DDF80646A5E7FF
:103294000129DE0701EBC9130184D71700000000E0
:1032A400010203040000000004020601002310B51B
:1032B400084A916B814205D8D46B2144814201D9DB
:1032C40058B210BD0133052B02F14402F1D14FF085
:1032D400FF30F6E74CA80020064A936B834206D8D9
:1032E400D26B1344834294BF002001207047002016
:1032F400704700BF08A8002003460244934200D14F
:10330400704703F8011BF9E738B50546FFF7E4FFFA
:10331400044648B92846FFF7C9FF431C06D0442297
:10332400034B02FB003038BD0248FCE72046FAE7B5
:103334004CA8002008A8002010B50C46C9B12AB931
:10334400022000F0E1FBB0FBF4F010BD00F03CFB08
:103354000228024602D100F06CFBF4E7012802D1F6
:1033640000F064FBEFE7044B0448032A18BF184637
:10337400E9E70846E9E700BF006CDC0200D8B805BD
:1033840000207047002070470020704700207047DD
:1033940000220C4B10B51A60FFF7F2FF041E18BF91
:1033A4000124FFF7EFFF08B144F00204FFF7ECFF3C
:1033B40008B144F00404FFF7E9FF08B144F008043D
:1033C400204610BD04A8002010B586B000F008FF08
:1033D4003022002104461748FFF78EFF142201A86B
:1033E400FFF78AFF144B0193A3F558335B68C3F3CB
:1033F4000223023B042B1AD8104AD35C8B4208BF29
:103404000623102205934FF08053CDE9033200F0D8
:10341400E5FE0346591E4B4206484B41224601A98C
:1034240080F82730FFF77EFE002006B010BD06238B
:10343400E7E700BFD4A7002000100450605E00201E
:10344400B0F1805F08B502D0B0F1C04F04D1034899
:10345400FFF7CAF8400808BD0020FCE7D4A7002005
:10346400030305020600FFF7EBBF0000EFF3108033
:1034740072B6704780F31088704740BF714A136872
:10348400012B04D04FF0010313606F4A10606F4AA0
:1034940011606F484FF0805101607047EFF3108264
:1034A40072B66848016889B34FF00001016066484C
:1034B4000168B1B1EFF309811EF0100F08BF21EDCF
:1034C400108B21E9F00FEFF30B8441F8044D4FF01A
:1034D40000041EF0100F08BF012441F8044D0068D9
:1034E40001605A490968096808C910C984F30B883E
:1034F400B1E8F00F002B18BFB1EC108B81F30988F1
:103504004EF0100E002B18BF2EF0100E82F3108810
:103514004EF0040E70474F484FF47F01D0F800205E
:1035240041EA02010160704748490860EFF31482E0
:1035340022F0040282F3148843494FF0000008602B
:1035440040494FF00100086042484FF47F01D0F831
:10355400002041EA020101603D484FF080510160C2
:103564003D480068006800BF80F3088861B662B611
:10357400704700BF20BF7047EFF308801EF0040FB0
:1035840001D0EFF3098020E9F00FEFF30B8440F84A
:10359400044D40F804ED40F804ED1EF0040F02D091
:1035A40080F3098801E080F3088800B502F0E0FDAB
:1035B4005DF804EB4EF0040E7047EFF308801EF044
:1035C400040F01D0EFF3098020E9F00FEFF30B842F
:1035D40040F8044D40F804ED40F804ED1EF0040FEB
:1035E40002D080F3098801E080F3088800B502F076
:1035F40047FD5DF804EB4EF0040E704710B4EFF392
:10360400038410B47C4600B500B54DF804CD0FB466
:10361400089C2DE9F00FEFF30B8410B400B5684655
:1036240002F01AFD01BC10BC84F30B88BDE8F00F56
:103634000FBC5DF804CB5DF804EB10BC10BC10BCEF
:103644007047000088D2002090D200208CD2002045
:1036540004ED00E020ED00E008ED00E0104A1378EE
:10366400FF2B05D10F4B9B68DB4303F00103137061
:103674000D4A506B4BB10D4B1B681BB90A23B0FBB1
:10368400F3F070470A4B1B88F9E74FF47A72C0F3E2
:103694000E03C00B5343504300EBD330704700BFBD
:1036A400E6A2002000B00C5000000C5070CC0020AA
:1036B4006CCC002008B5002A00F05581002900F0E8
:1036C4005281612800F24A81DFE810F062002C0187
:1036D4004801690028016D00240148017100F000CF
:1036E4001C01180148017500480179007D0048015A
:1036F400810048014801860013018B009000950069
:10370400A200A700AC00480148014801B100B6007E
:103714000E010901BB00C00048014801C500480171
:103724004801CA004801CF00D400E900F90048016B
:1037340048014801480148014801D9000401DE005C
:103744003F01E100E300480148014801E500480168
:10375400E700480148014801EB00480148014801DD
:103764004801480148014801F200F200F70048010D
:10377400480148014801FB004801480100012001BB
:10378400300135013A019A00480102014401F20076
:1037940000230B6001234FF0A040136008BD0023F9
:1037A4000B600223F7E700230B600423F3E70023F5
:1037B4000B601023EFE700230B602023EBE70023CB
:1037C4000B604023E7E700230B608023E3E700233B
:1037D4000B604FF48073DEE700230B604FF48063CB
:1037E400D9E700230B604FF40063D4E700230B6098
:1037F4004FF48053CFE700230B604FF40053CAE724
:1038040001230B604FF400134FF080401360C5E7B1
:1038140000230B604FF48043BDE700230B604FF49B
:103824000043B8E700230B604FF48033B3E7002371
:103834000B604FF40033AEE700230B604FF480239A
:10384400A9E700230B604FF48013A4E700230B6067
:103854004FF400139FE700230B604FF480039AE7B3
:1038640000230B604FF0007395E700230B604FF0CB
:10387400006390E700230B604FF080538BE7002335
:103884000B604FF0004386E701230B6083E70123BD
:1038940086E7012388E701238AE7012390E70123D0
:1038A40096E701230B604FF4007374E701239EE74E
:1038B40001230B604FF400236DE70123C2E70123CA
:1038C400CFE701230B604FF4000364E70123C3E750
:1038D4000023F7E700230B604FF4807394E7002381
:1038E4000B604FF480638FE700230B604FF4007389
:1038F4008AE700230B604FF4004385E700230B6045
:10390400402381E700230B6020237DE700230B6025
:10391400102379E700230B60082375E700230B606D
:10392400042371E700230B6002236DE700230B607F
:103934004FF4801368E700230B604FF4002363E720
:1039440000230B604FF480235EE700230B604FF4E9
:10395400803359E700230B60802355E740F24B3155
:10396400024802F091FB002018E700BF206D002000
:1039740007B5134A134902EBC002D1F89C30927880
:10398400022862F30303C1F89C300DF1070011D142
:10399400FCF7A8FC10B10B238DF80730094A9DF8F9
:1039A4000710D2F8943061F30303C2F8943003B0E3
:1039B4005DF804FBFCF7A2FC0028EFD00D23EBE735
:1039C400BC6B002000A00C504FF0A0430D281A6AD5
:1039D4000DD842F6F173C34013F0010F0CBF01235D
:1039E40003238340134023FA00F0C0B2704701233D
:1039F400F7E70000012803D002280ED0002070470A
:103A04004FF0A043DB6A63B113F001000AD006480B
:103A1400C3F3830303FB000070474FF0A0431B6B09
:103A2400F1E71846704700BF00366E010120FFF72A
:103A3400E1BF0220FFF7DEBF0020704738B5244BFA
:103A4400A1F1B774A4F558549C423FD8012839D049
:103A5400022839D040F2A4611E4802F015FB1E4B27
:103A64000020D3F8942091075EBFD3F8942042F04D
:103A74000202C3F89420D3F89420D2075EBFD3F88F
:103A8400942042F00102C3F89420144A2B68B4FB3A
:103A9400F2F423F001032B602B6823F4005323F08A
:103AA4003C0343EA840343F4805343F001032B6053
:103AB40001F0E8FA0A2001F0E5FA2B68002BFCDAA1
:103AC400002038BD064DCAE7064DC8E70120F8E7D7
:103AD400002A7515206D002000B0005000366E01DC
:103AE4002C0000503000005001460120FFF7A6BF13
:103AF40001460220FFF7A2BF4FF0A042D36A002084
:103B040023F00103D3627047012808D14FF0A0438A
:103B14001B6A03F00303032B01D1FFF787BF01489E
:103B2400704700BF006CDC02021E08BF012210B502
:103B34001046FFF7E9FF012A04460AD0022A10D0F2
:103B440040F274710A4802F09FFA0123B4FBF3F0C7
:103B540010BD4FF0A0435B6ADBB2012BB8BF012359
:103B6400F4E74FF080435B6903F03F03F5E700BFE0
:103B7400206D00204FF0A04310B50D281B6A18D803
:103B840042F6F172C24012F0010F0CBF012203226F
:103B940002FA00F411404FF0A04223EA04038140EA
:103BA4000B43136220B90120FFF7BEFF024B1860DC
:103BB40010BD0122ECE700BFAC9B00200028D8BF59
:103BC400002008B5CCBFFF230346002912DB002ADE
:103BD40043F4E06340EA01200EDA4FF0A0414A6A60
:103BE40022EA030303434B620120FFF79DFF074BC7
:103BF400186008BD002A04DB43F4E04340EA0230C5
:103C0400EBE7002BF0D0FF23E7E700BFAC9B0020DD
:103C140070B50C46194D0646FFF7AAFE2B69FA202B
:103C240023F004032B6101F02DFA302C0DD8002170
:103C34000846FFF79FFF302004220021B0FBF4F078
:103C4400FFF7BCFF0024204670BD01F0A9F90C4821
:103C540000EBC60043680B48EB616043FFF744FF89
:103C640004460028EFD1012106220846FFF7A6FFEB
:103C740003212046FFF77EFFE4E700BF00B00050B9
:103C8400BC6B002040420F002DE9F3411F4C204F34
:103C940004EBC0023B6B9278054662F317534FEA7C
:103CA400C0083B630DF107000E46FCF71BFB10B187
:103CB4000B238DF807309DF8071014F935203025B3
:103CC4000A440021FB6C084662F38503FB64FFF79A
:103CD40051FF302EB5FBF6F504D940F627210D48E7
:103CE40002F0D2F9042200212846FFF767FFFFF70C
:103CF40003FF01F061F94444074B6268DA611A6911
:103D040042F004021A6102B0BDE8F081BC6B0020ED
:103D140000A00C50206D002000B0005070B5314E52
:103D2400054633780C46012B43D9023B012B02D9BB
:103D34000125284670BD2C4B53F82120FFF779FE4E
:103D44009042F5D8012905D829462046FFF79CFF63
:103D5400002535E000210846FFF70CFF2046FFF759
:103D640007FEFA2001F08EF9FFF7C6FE302D0DD8BC
:103D740001F022F900210846FFF7FCFE042200218D
:103D84003020B0FBF5F0FFF719FFE1E701F008F987
:103D940016486843FFF7A8FE05460028C8D101214C
:103DA40006220846FFF70AFF03212846FFF7E2FE32
:103DB400CEE7012909D901462046FFF729FF054628
:103DC4000020347001F05EF9B3E78B4203D14FF069
:103DD400FF321146D4E790210220FFF719FF002893
:103DE400A6D1B1E7009C0020AC6B002040420F003C
:103DF400002808B511DD002926DB012800D139B1DE
:103E04003F2343F4E06340EA0120002A0BDA0EE08A
:103E14000146F5E700200346F3E70029FADA002A11
:103E24000CDB0020034643F4E04340EA02304FF049
:103E340080414A6922EA030303434B610220FFF7EE
:103E440073FE024B186008BD3F23DEE7AC9B0020E5
:103E540038B5041E08BF012420460D46FFF764FE52
:103E6400012C08D0022C0ED00A4840F2957102F0C1
:103E74000BF9002006E04FF0A0435B6A3DB1C3F3A9
:103E84000223D84038BD4FF080435B69F6E7C3F3A3
:103E94000233F6E7206D00204FF080431A6842F4A5
:103EA40080221A601A685203FCD51A6822F4802210
:103EB4001A607047024A136823F0040313607047C2
:103EC40000000440134A1368590721D411680028DC
:103ED4000CBF01234FF0FF3341F0040111604FF098
:103EE400804243F48013136011680029FCD0094A0E
:103EF400116CC80606D5116C41F002011164116CF5
:103F0400C906FCD44FF080410A6822EA03030B601F
:103F1400704700BF0000044007B56A4601A9FFF7D7
:103F2400C9FBB0F1A04F0FD1019B13B1012B11D1EB
:103F34000C480368009A13430360036823EA0203EE
:103F4400036003B05DF804FBB0F1804F02D1019B24
:103F5400002BEED040F62C01034803B05DF804EBCF
:103F640002F092B804000050206D002007B56A46A4
:103F740001A9FFF79FFBB0F1A04F05D1019B83B1CD
:103F8400012B06D10F4B0DE0B0F1804F01D1019B05
:103F9400B3B140F64B010C4803B05DF804EB02F0FA
:103FA40073B80A4BEFF31081012282F310881A6868
:103FB400009802431A6081F3108803B05DF804FB93
:103FC400034BEFE70C000050206D00200800005068
:103FD4000400004007B56A4601A9FFF76BFBB0F186
:103FE400A04F05D1019B83B1012B06D1104B0DE0ED
:103FF400B0F1804F01D1019BBBB140F668010D487F
:1040040003B05DF804EB02F03FB80B4BEFF3108103
:10401400012282F310881A68009822EA00021A60CA
:1040240081F3108803B05DF804FB044BEEE700BF96
:104034000C000050206D00200800005004000040D7
:104044002DE9F8432A4B1B69002B4EDA4FF0A045AB
:104054006B6B4FF00B096FF30F036FEA93336FEA47
:1040640083334FF400744FF48078224E6B63736F84
:10407400214F43F4C0037367736F43F04063736766
:1040840047F6E073726F03EA44133A4013437367CD
:10409400032000F0F7FF6B6B43F080436B636B6BA3
:1040A400002BFCDAA96BAA6B6B6B90B223F08043F4
:1040B400B0EB114F6B634FEA114335BF1B1AC01AA3
:1040C4004444A4EB080435BF98B280B2A4B2A4B2AD
:1040D4003F2804D9B9F101094FEA5808D0D1A028E2
:1040E40094BF00200120BDE8F8830120FBE700BF56
:1040F40000000C5000A00C501F80FFFF0028D6BF0A
:104104000020FF230346002910DB090201F4E061CB
:10411400002A43F4E06340EA010009DA4FF0A041C9
:104124004A6C22EA030303434B647047002A06DB0C
:10413400120302F4E04243F4E0431043EEE7002BA1
:10414400F3D0FF23EAE74FF0A0435A6C22F4802215
:104154005A645A6C61F311425A64704708B50F20CF
:10416400FFF738FF0D20FFF735FF00210120FFF78F
:10417400EAFF0A460C20FFF7C1FF00210C20FFF7DD
:10418400F9FC01F065FF08BDF0280DD8902807D888
:10419400302807D8182894BF00210121FFF7BEBD9D
:1041A4000321FBE70221F9E701207047000000002A
:1041B4000000000000882A1100882A11FB0609006B
:1041C40030031000FD080A0031031100000B0D003C
:1041D40013021300020D0F00130213000020704796
:1041E400014B1888704700BF9A9B0020014B188828
:1041F400704700BF989B00204FF0C4407047473A77
:104204005C4F70656E5369466C695C5369466C69B2
:104214002D53444B5C637573746F6D65725C626F90
:10422400617264735C736633326C6235322D6E6115
:104234006E6F5F626173655C6273705F696E6974EF
:104244002E6300473A5C4F70656E5369466C695C37
:104254005369466C692D53444B5C637573746F6D7D
:1042640065725C626F617264735C736633326C6234
:1042740035322D6E616E6F5F626173655C6273705F
:104284005F70696E6D75782E6300473A5C4F706598
:104294006E5369466C695C5369466C692D53444B93
:1042A4005C647269766572735C68616C5C626630CA
:1042B4005F68616C5F6770696F2E6300473A5C4F9B
:1042C40070656E5369466C695C5369466C692D531D
:1042D400444B5C647269766572735C68616C5C62A1
:1042E40066305F68616C5F6870616F6E2E63004753
:1042F4003A5C4F70656E5369466C695C5369466CF1
:10430400692D53444B5C647269766572735C6861B1
:104314006C5C6266305F68616C5F6D70692E63000F
:10432400473A5C4F70656E5369466C695C536946E5
:104334006C692D53444B5C647269766572735C6876
:10434400616C5C6266305F68616C5F7263632E638C
:104354000052545F454F4B203D3D207200666C6116
:104364007368310038B50020FFF72EFB044628B9E6
:1043740000F016FE01212046FFF7FCFB01210C2072
:10438400FFF7F8FBFFF72AFF012863D0022000F0B3
:1043940097FD0120FFF796FD01F0EEFE00F022FEEE
:1043A400012001F089FE022001F08AFE3A4B3B4ACB
:1043B4000120C3F8902001F073FE01F0D5FE01F056
:1043C40077FE18B19521364801F05EFE354A36482D
:1043D400936843F00103936001F07EFE4FF0804246
:1043E400136943F010031361EFF31085012383F382
:1043F40010882E4C23781BB9A221294801F044FED1
:104404002378013BDBB2237023B9294AD36A23F012
:104414000103D36285F31088224B9C6814F00104D5
:1044240018D101F069FE64222146C82001F03CFE47
:1044340001F07AFE4FF41652B0FBF2F04FF47A72A8
:10444400B2FBF0F2144901320B6F23F47C7343EA9C
:1044540002130B6702240425F020FFF795FE15488C
:10446400FFF746FB002000F00DFE134B1C80134B9E
:104474001D80FBF7C5FE21462846FFF77BFB012282
:1044840000201146FBF7C6FEFEF79EFF2146BDE85D
:1044940038400620FFF76EBB00A00C5000E2040079
:1044A400FE6B002000B00C5000B00040888B002050
:1044B40000000C5000882A119A9B0020989B002031
:1044C40008B500F001F9BDE80840012000F063BA26
:1044D400704701460122002000F03CBA002101226D
:1044E400084608B500F036FABDE80840012200216C
:1044F400104600F02FBA4FF4FA7008B500F0C2FD70
:1045040000F0A0F8BDE8084001221146104600F072
:1045140021BA08B500F079F8BDE8084001220A2064
:10452400114600F017BA012200210A2000F012BA45
:10453400014601220A2000F00DBA10B501230446F9
:1045440010220921022000F025FF012310220A2154
:10455400032000F01FFF012310220B21042000F090
:1045640019FF012310220C21052000F013FF012361
:1045740010220D21092000F00DFF012310220E212D
:104584000A2000F007FF012310220F210B2000F066
:1045940001FF1022012311460C2000F0FBFE012331
:1045A40000221946082000F0F5FE01230022032111
:1045B400062000F0EFFE022C4FF0010310D0042C73
:1045C40021D0102206210D2000F0E4FE012108462E
:1045D40001F024F8BDE810400121072001F01EB8C5
:1045E40010220421184600F0D5FE012310220521D3
:1045F4000D2000F0CFFE2146BDE81040012300222B
:10460400072000F0C7BE0022DCE710B5012300221A
:104614005B21172000F0BEFE012300225C2118203C
:1046240000F0B8FE012330224FF49C71222000F0E8
:10463400B1FEBDE810400123302240F239111920A7
:1046440000F0A8BE08B50022012352210E2000F07C
:10465400A1FE0123002253210F2000F09BFE012321
:10466400002240F25511102000F094FE0123002294
:104674004FF4A771112000F08DFE0123002240F2B7
:104684004F11122000F086FE012300224FF4A8717E
:10469400132000F07FFE0123002240F25111142068
:1046A40000F078FE012300224FF4A971152000F0D8
:1046B40071FE0123002240F25311162000F06AFE1D
:1046C400BDE80840FFF7A1BF10B5A04B5B6813F429
:1046D400E06FC3F302245BD10123224603210220AD
:1046E40000F058FE0123224619460A2000F052FE2B
:1046F400012310220921082000F04CFE012310227E
:104704000A21032000F046FE012322460C210B203F
:1047140000F040FEFFF762FD012803D19F218C4881
:1047240001F0B2FC0123002219211E2000F032FE08
:10473400012300221B211A2000F02CFE0123102249
:1047440021211D2000F026FE0123102222211B20FE
:1047540000F020FE0123302223211C2000F01AFE49
:104764000123302224211F2000F014FE01233022D3
:1047740040F22111212000F00DFE012330224FF4DC
:104784009071202000F006FEBDE81040FFF75ABFEC
:10479400012C40D1234600220321052000F0FAFD1C
:1047A4002346002221460A2000F0F4FD234610226D
:1047B40009210C2000F0EEFD234610220A210320DB
:1047C40000F0E8FD234630220B21204600F0E2FDF4
:1047D400234630220C21092000F0DCFD2146022072
:1047E40000F01CFF2146042000F018FF214606209B
:1047F40000F014FF2146072000F010FF2146082096
:1048040000F00CFF21460B2000F008FF01210D20D1
:1048140000F004FF86E7023C042C00F28D80DFE800
:1048240004F046443E0342000123002219460A20B4
:1048340000F0B0FD012300220321092000F0AAFDAD
:10484400012310220921062000F0A4FD01231022D7
:104854000A21082000F09EFD012330220B210720AD
:1048640000F098FD012330220C210B2000F092FD72
:104874000121084600F0D2FE0121022000F0CEFE04
:104884000121032000F0CAFE0121042000F0C6FE2D
:104894000121052000F0C2FE01210C20B4E7022012
:1048A400FFF74BFE3EE70420FAE70120F8E7012377
:1048B40010220921022000F06DFD012310220A219B
:1048C400032000F067FD012310220B21042000F0D7
:1048D40061FD012310220C21052000F05BFD012362
:1048E40010220D21062000F055FD012310220E2177
:1048F400072000F04FFD012310220F21082000F0B3
:1049040049FD102201231146092000F043FD012333
:10491400102206210A2000F03DFD01230022194641
:104924000B2000F037FD0321012300220C2000F0AE
:1049340031FD0121084667E70024013401212046A6
:1049440000F06CFE0D2CF8D1ECE600BF00B0005076
:10495400436C00207FB50B4B0B4C0546002A18BF57
:104964001C4601230E46CDE901030023204601A97C
:10497400039300F02FF82046F2B2A9B200F02EF90A
:1049840004B070BD00000A500000084001220B2052
:104994001146FFF7DFBF08B5FFF7F8FF08BD0000B9
:1049A40008B50A4B984214BF402360238B4206D9B2
:1049B40001F01F034909138000EBC11008BD04482E
:1049C4004FF4617101F060FB0020F7E700000A502A
:1049D4008A6C002037B50C46054618B9DC214848D6
:1049E40001F052FB6368012B14D9112B12D0454AF4
:1049F40023F4001191420DD002F58012934209D0A4
:104A040023F4801302F50012934203D0DD213C48C5
:104A140001F03AFBA368022B03D9DE21384801F0E8
:104A240033FB284621880DF10602FFF7B9FF034640
:104A340090B101226168BDF80600012902FA00F272
:104A44000CD1596A11435962996D11439965DA641D
:104A5400DA65DA639A645A6103B030BD11290CD166
:104A6400596A11435962996D11439965DA64DA659B
:104A7400DA601A639A635A64EEE759B9596A1143C2
:104A84005962996D11439965DA64DA65DA639A6457
:104A94009A61E1E79A6161681A4CA14211D1D96A1D
:104AA4001143D9629A639A640122174982408D4264
:104AB4000BBF196A596D0A430A430CBF1A625A653F
:104AC400CAE7124CA14204D1D96A1143D962DA630C
:104AD40006E00F4CA14205D1D96A1143D9629A6309
:104AE4005A64E1E70B4CA14203D1196B11431963DA
:104AF400D8E7094CA142D7D1196B11431963E6E7F2
:104B04008A6C00200000111000000A5000002110DF
:104B140000003110000041100000511037B50D465F
:104B2400044620B940F251110E4801F0ADFA204676
:104B34000DF10602A9B2FFF733FF80B10123BDF8DE
:104B4400061082698B401A438261426A1A434262A8
:104B5400826D1A438265C364C365C363836403B00F
:104B640030BD00BF8A6C002037B50D46044620B91D
:104B74004FF4BE71184801F087FA294620460DF11A
:104B84000602FFF70DFFE0B10123BDF806204168DE
:104B94009340D140CC0716D4816AD140C90712D4BE
:104BA400416B01EA030433EA01010CD1016C8C432B
:104BB40009D10369D340DB4303F00103181E18BF76
:104BC400012003B030BD016921FA02F2D2074CBFC3
:104BD400426802681340F1E78A6C002073B50E4600
:104BE4001446054620B94FF4D9711B4801F04CFA1C
:104BF400012C04D940F2B311174801F045FA3146AB
:104C040028460DF10602FFF7CBFED0B10123BDF813
:104C1400061042688B40CA40D50718D4826ACA403D
:104C2400D20714D4416B01EA030233EA01010ED125
:104C3400056C05EA0201AA4309D124B943690B436F
:104C4400436102B070BD83690B438361F9E70CB122
:104C54008360F6E7C360F4E78A6C0020F7B50DF1D2
:104C6400060205460F46FFF79BFE044640B3294B58
:104C7400BDF806609D4225D0C36DF340D8071FD50B
:104C8400236DF340D90704D440F22D21224801F0CA
:104C9400FBF90123B340E3653946284601F050FA95
:104CA4001C4B9D421FD13946284600F039F9002893
:104CB40006DB01230830194A834043F00043936222
:104CC40003B0F0BDC36CF340DA07F9D5C369F34010
:104CD400DB0704D44FF40E710F4801F0D5F901231A
:104CE400B340E364D8E70E4B9D42E9D139462846E8
:104CF40001F02AFA0028E3DB012200F1080302FA9A
:104D040003F3084943F000438B620330064B8240AF
:104D1400DA60D5E700000A508A6C002000000C50CD
:104D2400000008400000044000A00C500C4B70B57B
:104D34009842044610D00B4B98420FD040F2722197
:104D4400094801F0A1F90025A9B220460135FFF771
:104D540085FFAE42F8D270BD4E26F4E72426F2E772
:104D640000000A50000008408A6C002037B50D4648
:104D7400044620B940F29E212F4801F085F90DF137
:104D8400060229462046FFF70BFE024600284ED0B5
:104D94004368BDF80610CB40DD070CD4836ACB40D2
:104DA400DC0708D40123406B8B4033EA000002D1B6
:104DB400106C834335D01369CB4013F001001ED12E
:104DC400D369CB4013F0010019D0936ACB4013F0A0
:104DD400010F536B23FA01F313D0D80703D5136CD7
:104DE400CB40DB071FD4536BCB40DD071DD4136CC2
:104DF4001248CB4013F0010F08BF4FF0FF3003B04F
:104E040030BDDC0703D5136CCB40D8070FD4536BEC
:104E1400CB40DB070ED4136C0948CB4013F0010FD1
:104E2400EAE71120EBE70748E9E70748E7E74FF02F
:104E3400FF30E4E70548E2E78A6C00200000211017
:104E4400000051100000311000001110000041104A
:104E540073B50DF106020646FFF7A2FD044640B302
:104E6400154BBDF806509E4212D0C36DEB40D807D7
:104E74000BD5236DEB40D90704D440F257310F48CA
:104E840001F002F90123AB40E365002002B070BDDC
:104E9400C36CEB40DA07F8D5C369EB40DB0704D4F5
:104EA40040F26131054801F0EFF80123AB40E364BF
:104EB400EBE70120EAE700BF00000A508A6C0020FB
:104EC400022838B524D1134CE620E36A43F00103E9
:104ED400E36200F0D7F8E36A9A06FCD51E2000F0DE
:104EE400D1F8E36A9B06FCD5EFF31085012383F325
:104EF4001088094C2378132B03D9D121074801F0DA
:104F0400C3F823780133237085F31088002038BD5B
:104F14000120FCE700000C50888B0020BC6C0020B2
:104F2400064B984206D1A1F1180083B2142B01D884
:104F340040B270474FF0FF30704700BF00000A5086
:104F44000346084631B1142B03D8183302480B80AA
:104F540070470020704700BF00000A50B9B1142800
:104F640015D80F280CD910380A4BC0B21A68072379
:104F740000EB400083401340C3400B700020704797
:104F8400072885BF0838044B044BC0B2EEE7012064
:104F9400704700BF0C000C5008000C5004000C506B
:104FA400044B1A6942F002021A611A69002AFCDAF7
:104FB400704700BF00000C50024A136923F002033B
:104FC4001361704700000C50054B5B6B834238BF84
:104FD40003F1FF33181A88422CBF032000207047C6
:104FE40000000C50094BDA6A92060CD508490020DF
:104FF4004A6842F000424A605A6842F000425A60ED
:1050040001225A6370470120704700BF00000C5012
:105014000000044010B5FFF7A5F9FFF7DFF80128F9
:1050240028D0FFF70DF8044618B1C221134801F047
:105034002BF801F091F8FFF791F8FFF7CFF801286A
:1050440001D001F079F8FFF7C9F8013818BF012041
:1050540001F006F8032001F01BF8002001F034F8F9
:1050640050B9074AD36823F00103D36001F088F8EC
:10507400204610BD0024DCE70124F9E7BE970310A5
:1050840000B00050034670B5B8B142F210754FF04D
:10509400E026AB4284BFA3F51C5442F2107332697C
:1050A40098BF0024184688BF103CD30708D400F0EA
:1050B4000BF82346002CECD101E000F005F870BD9C
:1050C40000F048F8F5E7000013B50190019B1C4C73
:1050D4004BB323683BB3019BB3F1807F04D94FF4F6
:1050E400CD71184800F0D0FF019B33B3164A136802
:1050F40013F001030DD11548D0F8FC1041F0807174
:10510400C0F8FC105360136843F4003343F0010308
:105114001360019B22680C49534348684A68121A79
:105124009A42FBD309E00020FEF7FEFC084BB0FBDB
:10513400F3F0019B2060002BCDD102B010BD00BF65
:1051440034AA0020BE970310001000E000ED00E038
:1051540040420F0037B501904FF0E0204FF47A72CF
:105164004469019B6343B3FBF2F301930023816918
:1051740082698A42FCD025BFA51A5B195B185B18AB
:10518400019938BF9B1A994201D803B030BD11462A
:10519400EEE707B50190019B13B903B05DF804FB7A
:1051A4004FF47A70FFF76EFF019B013B0193F2E726
:1051B4008B10A3F14802F0B5D6B2042E49D8022EC2
:1051C40010D8254D0E2405EB820540F2B222A1EB46
:1051D40086039BB2A3F59073032B3AD8DFE803F060
:1051E400091A27201D4D9B003D2440F221321D4405
:1051F400EDE70E2C4FF0080620D14FF47C512F68B8
:10520400031BB3407B400B4010447B40001B2B60CE
:1052140080B2F0BD0E2C4FF0000612D13F21EEE714
:105224000E2C4FF010060ED14FF47C11E7E70E2C34
:105234004FF018060AD14FF07C51E0E74FF4E061DB
:10524400DDE70721DBE74FF4E021D8E74FF0E06129
:10525400D5E70020DDE700BF58B000500CEF004058
:10526400002A31D02F2816DD3A282DDC0123174AD5
:105274002A388340106F11F0200F14BF184398434D
:105284001067124A11F0100FD16E14BF0B4321EABC
:105294000303D36670472638032815D80C4B11F046
:1052A400200F53F8202014BF42F0100222F0100205
:1052B40043F8202053F82020C9064CBF42F00802CE
:1052C40022F0080243F82020704700BF00B00C50C1
:1052D4005CB00C5038B14FF0A0429368064843F0DC
:1052E4000403936070474FF080425368034843F0CF
:1052F40008035360704700BF003000500030004086
:105304003A2870B5CDBF002601260546A0F13C051C
:1053140004463046FFF7DEFF4EB9402C07DD094A4C
:1053240052F8243061F30E3342F8243070BD05F195
:105334008043013B50F8232022F00F02114340F830
:105344002310F3E758AF0C503B28C8BF3C38430147
:1053540052B1064A0020134433F810208A4202D086
:1053640001301028F8D17047014AF3E7E4810020A6
:10537400448100203B28C8BF3C38000108441AB1CE
:10538400024B33F810007047014BFAE7E481002028
:10539400448100202DE9F8431546044618B94FF01E
:1053A400FF30BDE8F8833A28CDBF00270127064621
:1053B400A0F13C063846FFF78DFF8046002F00F031
:1053C400FE80A1F590739BB20B2B2ED82046FFF7DD
:1053D400EFFE01463A462046FFF7B6FF0F28814606
:1053E400DDDC3A4629462046FFF73AFF002F40F01D
:1053F400EF80402C40F3EC807F4AE80652F82430DA
:105404004FEA093923F4E04323F0180348BF43F07B
:105414000803A90648BF43F0100309F4E04949EA28
:10542400030342F824300020BBE7A1F59C739BB230
:10543400072B26D84A109C3AA1EB420189B2B1F558
:105444009C7F19D040F23913994240F0BF804FF04D
:10545400080E4FF47C5C6949A4F10E0351F8220054
:1054640003FA0EF3434003EA0C03434041F82230AD
:1054740004F5297189B2ADE74FF0000E4FF03F0CEF
:10548400E9E7A1F5EC739AB2092A36D80522B3FBF1
:10549400F2F3C3EB8332C3EB82020A4492B2A2F565
:1054A400EC7188B2032814D84FF03F0E5448C90059
:1054B40050F823C0A4F10E028A4082EA0C020EFACC
:1054C40001F10A4082EA0C0240F8232004F255213B
:1054D400D0E7B2F5EE7F79D13F214A48DA00D0F81F
:1054E4006CC0A4F10E03934083EA0C0301FA02F2A8
:1054F400134083EA0C03C366E8E76FF4017901EB18
:10550400090293B2052B27D80323B2FBF3F26FF4FD
:10551400017EC2EB823302EB83030B449BB203EBA9
:105524000E0C1FFA8CFCBCF1020F4FD8DB00A3F564
:1055340081533549A4F10E0E083B0EFA03F3DFF84C
:10554400D8E051F822005EF82CC0434003EA0C0373
:10555400434041F82230B9E76FF4F87C01EB0C03C7
:105564009AB2092A3FF636AFB1F5FC7F16D2590834
:1055740013F0010F254B4FF03F00254A18BF1A4680
:10558400C9008840D2F800C0A4F10E038B4083EA1E
:105594000C03034083EA0C03136097E707D040F23F
:1055A400F913994207D100213F201A4AEAE7102152
:1055B4004FF47C10F9E708214FF47C50F5E7A1F58E
:1055C40096739BB2072B3FF605AFFFE6002101E778
:1055D40006F18046013E58F8263005F0300509F002
:1055E4000F0945EA090523F03F031D4345F0400533
:1055F40048F8265017E700BF58AF0C5048B0005089
:1056040064B0005000B0005070B000507CB0005046
:1056140078B0005080B00050388100203A2838B566
:10562400044625DD402816DC0025A0F13C0128466F
:10563400FFF750FE01F18043013B50F823102A4646
:1056440021F05F0141F00F0140F8231000212046B2
:10565400FFF706FE0AE0084A52F8203023F4E0433C
:1056640023F00E0343F4E04342F82030002038BD19
:1056740001460125DBE700BF58AF0C503A2870B54E
:105684000D4611460ADC4FF0A042936843F0040330
:10569400936080BB4FF0FF36304670BD4FF08042C0
:1056A400536843F008035360B0F13C03F2D0402840
:1056B4002EDD1E4B53F82020C2F3C003D4064FEA5C
:1056C4000313C2F3023648BF43F0200312F004026E
:1056D40005D0002243F04003402B22D01BD823B135
:1056E400302B08BF052318BFFF230B703146FFF78B
:1056F40041FE2880D0E7034601220D4C03F180438C
:10570400013B54F8233003F00F0603F07003E3E782
:105714000022084CF2E7502B05D0702B08BF02235F
:10572400E1E70123E1E70323DFE700BF58AF0C50B3
:1057340000300050003000403F000000003F0000F7
:1057440000003F0000000000000000000000000016
:105754000000000000000000000000000000000045
:1057640000000000B200210301030000000000005B
:105774003B024B0237020000000000000000000062
:1057840000000000B3002203020300000000000038
:105794003C024B0238020000000000000000000040
:1057A40000000000B4002303030300000000000015
:1057B4003D024B023A02000000000000000000001D
:1057C40000000000B50024030403000000000000F2
:1057D4003E024B02390200000000000000000000FD
:1057E40000000000000000000000000000000000B5
:1057F40000000000000000000000000000000000A5
:1058040000000000F20004000000000000000B0093
:105814000000000000000000000000000000000084
:1058240000000000F3000900000000000000030075
:105834000000000000000000000000000000000064
:1058440000000000F4000A000000000000000A004C
:105854000000000000000000000000000000000044
:1058640000000000F5000B000000000000000B0029
:105874000000000000000000000000000000000024
:1058840000000000F6000C0000000000000003000F
:105894000000000000000000000000000000000004
:1058A40000000000F700030000000D0009000000E4
:1058B40000000000000000000000000000000000E4
:1058C40000000000F800020000000E000B000000C1
:1058D40000000000000000000000000000000000C4
:1058E40000000000F900010000000F000A00090098
:1058F40000000000000000000000000000000000A4
:1059040000000000FA000D000000100003000C006D
:105914000000000000000000000000000000000083
:1059240000000000FB000E00000006000100010062
:105934000000000000000000000000000000000063
:1059440000000000FC000F00000001000C000C002F
:105954000000000000000000000000000000000043
:1059640000000000FD00100000000300000009001A
:105974000000000000000000000000000000000023
:1059840000000000FE00050006000000000000000A
:105994000000000000000000000000000000000003
:1059A400000000005200540100000000B202630233
:1059B40000006A0100000000000000000000000078
:1059C400000000005300000000000000B302640265
:1059D40000000000000000000000000000000000C3
:1059E40000000000540055010000C601B402650225
:1059F4009A016B0100003B02000027020000000036
:105A04000000000055004E010000C801B502660206
:105A140099015F0100003C02000028020000000020
:105A24000000000056004F010000C701B6026702E3
:105A340097015E0100003D02000029020000000001
:105A440000000000570050010000C401B7026802C2
:105A54009501680100003E0200002A0200000000D7
:105A640000000000580051010000C501B80269029D
:105A74009401690100003F0200002B0200000000B5
:105A840000000000590052010000D401B9026A026A
:105A9400920160010000400200002C02000000009E
:105AA400000000005A0053010000D501BA026B0245
:105AB40091016101000041023A020000000000006F
:105AC400000000005B00000000000000BB026C024C
