:020000040800F2
:100000000809002079020008B51F0008811D0008BA
:10001000B11F00087F030008CB2600080000000085
:100020000000000000000000000000002520000883
:100030007D04000800000000B91F00082720000808
:10004000930200089302000893020008930200083C
:10005000930200089302000893020008930200082C
:100060009302000893020008930200088503000829
:1000700095030008A5030008B5030008C5030008A0
:100080009302000800000000930200089302000899
:1000900093020008930200089302000893020008EC
:1000A00093020008930200089302000893020008DC
:1000B00093020008930200089302000893020008CC
:1000C00093020008930200089302000893020008BC
:1000D00093020008930200089302000893020008AC
:1000E000930200089302000893020008930200089C
:1000F0009302000893020008930200080000000029
:1001000000000000930200080000000093020008B5
:100110009302000800000000930200089302000808
:10012000930200089302000893020008930200085B
:100130009302000800000000000000009302000885
:100140009302000893020008000000000000000075
:10015000000000000000000000000000000000009F
:1001600000000000000000000000000093020008F2
:1001700093020008000000000000000000000000E2
:1001800000000000930200080000000000000000D2
:10019000000000000000000000000000000000005F
:1001A0000000000000000000930200089302000815
:1001B0009302000893020008930200080000000068
:1001C0000000000093020008000000000000000092
:1001D000930200089302000800F002F800F03CF8D7
:1001E0000AA090E8000C82448344AAF10107DA4592
:1001F00001D100F031F8AFF2090EBAE80F0013F0A8
:10020000010F18BFFB1A43F00103184750250000E7
:1002100070250000103A24BF78C878C1FAD8520778
:1002200024BF30C830C144BF04680C607047000070
:100230000023002400250026103A28BF78C1FBD8EF
:10024000520728BF30C148BF0B6070471FB502F08E
:1002500073FA1FBD10B510BD00F058F81146FFF736
:10026000F5FF02F051FA00F076F803B4FFF7F2FF61
:1002700003BC00F07DF800000948804709480047AA
:10028000FEE7FEE7FEE7FEE7FEE7FEE7FEE7FEE746
:10029000FEE7FEE704480549054A064B70470000A3
:1002A0009D200008D901000808030020080900204B
:1002B00008050020080500204FF0000200B5134695
:1002C00094469646203922BFA0E80C50A0E80C5076
:1002D000B1F12001BFF4F7AF090728BFA0E80C5027
:1002E00048BF0CC05DF804EB890028BF40F8042B20
:1002F00008BF704748BF20F8022B11F0804F18BF8D
:1003000000F8012B7047704770477047754600F042
:100310002BF8AE4605006946534620F00700854697
:1003200018B020B5FFF7B6FFBDE820404FF000063B
:100330004FF000074FF000084FF0000B21F00701CD
:10034000AC46ACE8C009ACE8C009ACE8C009ACE810
:10035000C0098D46704710B50446AFF300802046B3
:10036000BDE81040FFF781BF00487047A40200209D
:1003700001491820ABBEFEE726000200704700BF0F
:10038000FEE7000010B5024800F07CF810BD000048
:100390004402002010B5024800F074F810BD0000BF
:1003A0002401002010B5024800F06CF810BD0000D8
:1003B0002C00002010B5024800F064F810BD0000C9
:1003C0008401002010B5024800F05CF810BD000068
:1003D000E401002030B50E4D0468AC4201D20D4955
:1003E00001E00C4920310B460478083C1425B4FB8D
:1003F000F5F2446CA40803EB84048464054C803457
:10040000C46402F01F050124AC40046530BD000047
:10041000080402400008024001794A1E064B03EB23
:1004200082024265044A403282654A1E02F01F037E
:1004300001229A40C26570470009024030B5D0E9F8
:1004400013546C60446D14B1D0E916546C6090F88C
:10045000444004F01F050124AC40056C6C60046846
:1004600063608468102C04D10468A2600468E160B1
:1004700003E00468A1600468E26030BD704772B6B2
:1004800000BFFEE770B50446206C0568206806686A
:1004900094F8440000F01F01042088402840E0B197
:1004A00006F00400C8B12068006800F0200028B9F8
:1004B0002068006820F004002168086094F8440077
:1004C00000F01F0104208840216C4860206B002848
:1004D00056D02046216B884752E094F8440000F043
:1004E0001F0102208840284018B306F0020000B324
:1004F0002068006800F0200040B92068006820F003
:100500000A0021680860012084F8250094F844005E
:1005100000F01F0102208840216C486000BF0020CD
:1005200084F8240000BFE06A50B32046E16A88479F
:1005300026E094F8440000F01F010820884028407D
:10054000F0B106F00800D8B12068006820F00E0075
:100550002168086094F8440000F01F0101208840E1
:10056000216C48600120E06384F8250000BF002072
:1005700084F8240000BF606B10B12046616B88478F
:1005800070BD000070B504460CB9012070BD2F4944
:10059000206888420BD22E492068401A1421B0FBF3
:1005A000F1F0800060642A48083820640AE0274996
:1005B0002068401A1421B0FBF1F0800060642348E9
:1005C00008382064022084F825002068056847F672
:1005D000F0708543D4E90201084321690843616949
:1005E0000843A1690843E1690843216A08430543B8
:1005F000206805602046FFF7EDFEA068B0F5804F4B
:1006000001D1002060602079A16C0860D4E913104A
:100610004860606860B16068042809D82046FFF728
:10062000FBFE0020616D0860D4E91610486003E00D
:1006300000206065A065E0650020E063012084F88B
:100640002500002084F8240000BF9FE70804024032
:10065000080002402DE9F04104460D4616461F46AB
:100660004FF0000800BF94F82400012802D10220B6
:10067000BDE8F081012084F8240000BF94F8250033
:1006800001283FD1022084F825000020E063206883
:10069000006820F00100216808603B463246294688
:1006A0002046FFF7CBFE206B30B12068006840F099
:1006B0000E00216808600BE02068006820F004004C
:1006C000216808602068006840F00A00216808601E
:1006D000A06C006800F4803028B1A06C006840F481
:1006E0008070A16C0860606D28B1606D006840F496
:1006F0008070616D08602068006840F0010021682A
:10070000086006E000BF002084F8240000BF4FF01E
:1007100002084046ACE7000078B502460B460021CF
:10072000CAE001268E401D6805EA0604002C73D03D
:100730001D7905F00305012D04D01D7905F0030591
:10074000022D13D190684E000325B540A8434E00FA
:10075000DD68B54028439060506801258D40A8436E
:100760001D79C5F300158D40284350601D7905F0B3
:100770000305032D09D0D0684E000325B540A843DA
:100780004E009D68B5402843D0601D7905F00305F3
:10079000022D13D1CE0802F1200555F826004D0791
:1007A000EE0E0F25B540A8434E07F60E1D69B54065
:1007B0002843CE0802F1200545F8260010684E00B7
:1007C0000325B540A8431D7905F003054E00B5404B
:1007D000284310605D6805F44035002D6BD000BFE4
:1007E000384D2D6E45F00105364E356635462D6E79
:1007F00005F00105009500BF00BF4FEAB6358E0831
:1008000055F826008D072E0F0F25B540A843B2F1ED
:10081000904F02D100251AE04DE02B4DAA4201D1A4
:10082000012514E0294DAA4201D102250FE0284DEF
:10083000AA4201D103250AE0264DAA4201D104258E
:1008400005E0254DAA4201D1052500E006258E07C9
:10085000360FB5402843214D8E0845F82600204D1F
:100860002868A0435D6805F4801505B120431C4D40
:1008700028602D1D2868A0435D6805F4001505B1AA
:100880002043174D2D1D2860154D2D1F2868A043AE
:100890005D6805F4003505B12043114D2D1F28601A
:1008A0002D1F2868A0435D6805F4803505B12043FD
:1008B0000B4D083D2860491C1D68CD40002D7FF47C
:1008C00030AF78BD00100240000400480008004826
:1008D000000C0048001000480014004808000140C7
:1008E0000804014001480068704700001C00002017
:1008F00003480068034909680844014908607047D3
:100900001C0000202400002010B50024032000F06B
:10091000ADF8002000F008F808B1012401E000F073
:100920002FF8204610BD000070B504460025114880
:100930000068D8B10F4800684FF47A71B1FBF0F04D
:100940000D490968B1FBF0F6304600F045FD58B995
:10095000102C07D200222146501E00F049F807480B
:10096000046004E0012502E0012500E0012528469D
:1009700070BD00002400002028000020200000207E
:1009800008B500BF0F48006E40F001000D49086631
:100990000846006E00F00100009000BF00BF00BFDD
:1009A0000846806D40F0805088650846806D00F0F4
:1009B0008050009000BF00BF052000F057F800F005
:1009C000F5F808BD001002400146084600280DDB7E
:1009D00000BF00BF00F01F0301229A4043099B00A3
:1009E00003F1E023C3F8002100BF00BF00BF704740
:1009F0002DE9F05F80460D46164601F069FE074678
:100A000039462A46334601F00700C0F1070ABAF119
:100A1000040F02D94FF0040A01E0C0F1070AD146E1
:100A200000F1040ABAF1070F02D24FF0000A01E008
:100A3000A0F1030AD4464FF0010A0AFA09FAAAF112
:100A4000010A0AEA020A0AFA0CFA4FF0010B0BFA41
:100A50000CFBABF1010B0BEA030B4AEA0B0421463A
:100A6000404601F03DFEBDE8F09F000000BF00F0F1
:100A70000702064B19684FF6FF031940044B0B435E
:100A800043EA0221014B196000BF70470CED00E002
:100A90000000FA0502468ABB4148006800F4C060C5
:100AA000B0F5806F2BD13E488030006820F4807014
:100AB0003B4BC3F880001846006820F4C06040F447
:100AC000007018603748006832235843364BB0FB3B
:100AD000F3F0411C00E0491E3148406900F4806099
:100AE000B0F5806F01D10029F5D12D48406900F49F
:100AF0008060B0F5806F51D10320704708E028482E
:100B00008030006820F48070254BC3F8800045E0F9
:100B1000B2F5007F3AD12248006800F4C060B0F519
:100B2000806F2AD11E488030006840F480701C4BD2
:100B3000C3F880001846006820F4C06040F40070DC
:100B400018601848006832235843174BB0FBF3F085
:100B5000411C00E0491E1248406900F48060B0F575
:100B6000806F01D10029F5D10D48406900F4806003
:100B7000B0F5806F12D10320BFE7094880300068CC
:100B800040F48070064BC3F8800007E0044800681A
:100B900020F4C06040F48060014B18600020ACE796
:100BA000007000402800002040420F000348806889
:100BB00040F48040014988607047000000700040A8
:100BC0002DE9F04104460D464FF0000814B901200C
:100BD000BDE8F0817D48006800F00F00A8420ED209
:100BE0007A48006820F00F002843784908600846DA
:100BF000006800F00F00A84201D00120E8E720784B
:100C000000F00100002864D06068032823D17048F8
:100C1000006800F0007008B90120D9E701F0CEF9B2
:100C200006466C48864237D96948806800F0F00073
:100C300030B1207800F0020002282DD1A06858BB06
:100C40006348806820F0F00040F0800060498860D0
:100C50004FF0800820E06068022806D15C480068F8
:100C600000F4003040B90120B2E75948006800F4B0
:100C7000806008B90120ABE700F0B4F8064655489B
:100C8000864209D95248806820F0F00040F0800088
:100C90004F4988604FF080084D48806820F003007D
:100CA000616808434A498860FFF71CFE074608E070
:100CB000FFF718FEC01B41F28831884201D903209A
:100CC00086E74348806800F00C006168B0EB810F54
:100CD000EED1207800F00200022820D1207800F028
:100CE0000400042805D13A48806840F4E06038499F
:100CF0008860207800F00800082807D13448806810
:100D000020F4605040F4E0603149886030488068E9
:100D100020F0F000A16808432D49886008E0B8F190
:100D2000800F05D12A48806820F0F00028498860AB
:100D30002648006800F00F00A84219D9234800682F
:100D400020F00F00284321490860FFF7CBFD07463C
:100D500008E0FFF7C7FDC01B41F28831884201D986
:100D6000032035E71948006800F00F00A842F0D1D1
:100D7000207800F00400042807D11548806820F48A
:100D8000E060E168084312498860207800F00800BC
:100D9000082808D10E48806820F46050216940EA94
:100DA000C1000B49886000F01DF809498968C1F34A
:100DB0000311094A515C01F01F01C840074908604E
:100DC00007480068FFF7B0FD02E70000002002407E
:100DD0000010024000B4C40442270008280000208C
:100DE0002000002070B5224DAD6805F00C05042DE3
:100DF00001D120483AE01E4DAD6805F00C05082DE4
:100E000001D11D4832E01A4DAD6805F00C050C2DDE
:100E10002BD1174DED6805F00304154DED68C5F3B2
:100E200003156A1C022C0CD0032C09D1124DB5FB02
:100E3000F2F50F4EF668C6F3062605FB06F10AE04A
:100E400000BF0C4DB5FBF2F5094EF668C6F3062659
:100E500005FB06F100BF00BF054DED68C5F3416518
:100E60006D1C6B00B1FBF3F000E0002070BD0000D2
:100E7000001002400024F40000127A002DE9F8432B
:100E8000044614B90120BDE8F883207800F0010081
:100E9000002865D0FC48806800F00C07FA48C0685C
:100EA00000F003060C2F01D1032E01D0082F0AD128
:100EB000F548006800F40030002851D06068002830
:100EC0004ED10120DFE700BF6068B0F5803F06D15A
:100ED000ED48006840F48030EB4908601AE0606833
:100EE000B0F5A02F0BD1E848006840F48020E64917
:100EF00008600846006840F4803008600AE0E24874
:100F0000006820F48030E04908600846006820F45A
:100F10008020086000BF606888B1FFF7E3FC0546E9
:100F200006E0FFF7DFFC401B642801D90320AAE795
:100F3000D548006800F400300028F2D010E0FFF738
:100F4000D1FC054606E0FFF7CDFC401B642801D923
:100F5000032098E7CC48006800F400300028F2D164
:100F6000207800F00200022860D1C748806800F0B5
:100F70000C07C548C06800F003060C2F01D1022EF3
:100F800001D0042F18D1C048006800F4806018B167
:100F9000E06808B9012076E7BB48406820F0FE40D1
:100FA000217C40EA0160B8494860B8480068FFF712
:100FB000BBFC18B3012066E7E06800B3B2480068E4
:100FC00040F48070B0490860FFF78CFC054606E0ED
:100FD000FFF788FC401B022801D9032053E7AA48E9
:100FE000006800F480600028F2D0A748406820F034
:100FF000FE40217C40EA0160A349486016E0A24817
:10100000006820F48070A0490860FFF76BFC05467B
:1010100006E0FFF767FC401B022801D9032032E7F6
:101020009948006800F480600028F2D1207800F030
:101030000800082836D16069D0B193489430006820
:1010400040F001009049C1F89400FFF74BFC0546C1
:1010500006E0FFF747FC401B022801D9032012E7F6
:1010600089489430006800F002000028F1D019E0AF
:1010700085489430006820F001008349C1F894004D
:10108000FFF730FC054606E0FFF72CFC401B02286A
:1010900001D90320F7E67C489430006800F0020094
:1010A0000028F1D1207800F00400042872D14FF01C
:1010B00000087548806D012121EA107078B100BFE9
:1010C0007148806D40F080506F4988650846806D9A
:1010D00000F08050009000BF00BF4FF001086C4846
:1010E000006800F48070B0B96948006840F480700E
:1010F00067490860FFF7F6FB054606E0FFF7F2FBDD
:10110000401B022801D90320BDE66148006800F4B5
:1011100080700028F2D000BFA068012808D15A488A
:101120009030006840F001005749C1F8900021E07C
:10113000A06805280FD154489030006840F00400A2
:101140005149C1F890000846D0F8900040F00100E5
:10115000C1F890000EE04C489030006820F001008B
:101160004949C1F890000846D0F8900020F00400EA
:10117000C1F8900000BFA068A8B1FFF7B3FB054617
:1011800009E0FFF7AFFB401B41F28831884202D9EA
:10119000032078E625E03C489030006800F002002B
:1011A0000028EED013E0FFF79DFB054608E0FFF7AF
:1011B00099FB401B41F28831884201D9032062E645
:1011C00031489030006800F002000028EFD1B8F1FB
:1011D000010F05D12C48806D20F080502A49886588
:1011E00000BF207800F02000202836D1A069D0B1BF
:1011F00025489830006840F001002349C1F8980064
:10120000FFF770FB054606E0FFF76CFB401B02286A
:1012100001D9032037E61C489830006800F002002E
:101220000028F1D019E018489830006820F001003B
:101230001549C1F89800FFF755FB054606E0FFF792
:1012400051FB401B022801D903201CE60E489830B0
:10125000006800F002000028F1D1E069002860D0A9
:101260000948806800F00C000C287AD0E069022858
:1012700058D10548006820F0807003490860FFF7E6
:1012800031FB05460DE00000001002402000002068
:1012900000700040FFF726FB401B022801D9032005
:1012A000F1E54A48006800F000700028F2D1D4E966
:1012B0000810401E41EA0011A06A41EA0021208E78
:1012C0000122C2EB500041EA40513420005DC2EBE4
:1012D000500041EA40612C20005D41EAC0603B497A
:1012E000C9683B4A114008433849C860084600684D
:1012F00040F0807008600846C06840F08070C860A8
:10130000FFF7F0FA054606E0FFF7ECFA401B02286B
:1013100001D90320B7E52D48006800F000700028CF
:10132000F2D051E02948006820F080702749086019
:10133000FFF7D8FA054606E0FFF7D4FA401B02286B
:1013400001D903209FE52148006800F000700028C3
:10135000F2D11E48C0681F4908401C49C86033E0EC
:10136000FFE7E069012800D18DE51848C66806F05E
:101370000301206A814225D106F0F001606A401E17
:10138000B1EB001F1ED106F4FE41A06AB1EB002FA5
:1013900018D106F078412C20005DB1EBC06F11D15F
:1013A00006F4C001208E0122C2EB5000B1EB405F79
:1013B00008D106F0C0613420005DC2EB5000B1EBF3
:1013C000406F01D001205EE500205CE50010024086
:1013D0000C809F01FCFFEEFE70B504462546681E9A
:1013E000B0F1807F01D301200FE0681E4FF0E021B3
:1013F00048610F214FF0FF3001F072F900204FF0EB
:10140000E021886107200861002070BD30B50246E8
:101410000B4600BF92F83C00012801D1022030BDEC
:10142000012082F83C0000BF022082F83D001068D5
:101430004168106884681D4D1068A84203D01C4D97
:101440001068A84203D121F470015868014319487B
:1014500001401868014310684160144D1068A842AB
:1014600013D01068B0F1804F0FD0134D1068A84210
:101470000BD0124D1068A84207D00D4D1068A8423D
:1014800003D00F4D1068A84205D124F0800498685D
:10149000044310688460012082F83D0000BF0020F2
:1014A00082F83C0000BF00BFB9E70000002C0140FB
:1014B000003401408FFFFFFD0004004000080040A1
:1014C0000040014010B504460CB9012010BD94F84D
:1014D0003D0028B9002084F83C00204600F02AF89E
:1014E000022084F83D00211D206800F0E1FD01206C
:1014F00084F8480000BF84F83E0001213F200155D8
:1015000040200155412001554220015543200155FD
:1015100000BF00BF012084F844004520015546204B
:1015200001554720015500BF012084F83D000020EF
:10153000CCE7000038B504462068B0F1804F7DD17B
:1015400000BF6348806D40F001006149886508462E
:10155000806D00F00100009000BF00BF5D485E4953
:1015600008603820486010215B4881600021C1601C
:101570008021016189004161890081610021C1618F
:101580004FF480510162FEF7FDFF08B1FEF777FFCF
:1015900000BF514961620846846200BF4D48143063
:1015A0004E4908603920486010214C488160002174
:1015B000C160802101618900416189008161002150
:1015C000C1614FF480510162FEF7DCFF08B1FEF704
:1015D00056FF00BF4149A1620846846200BF3D48F2
:1015E00028303F4908603A20486010213C4881601B
:1015F0000021C16080210161890041618900816110
:101600000021C1614FF480510162FEF7BBFF08B1B8
:10161000FEF735FF00BF3249E1620846846200BF31
:101620002C483C302F4908603B20486010212D4851
:1016300081600021C1608021016100E013E0890028
:101640004161890081610021C1614FF480510162D3
:10165000FEF798FF08B1FEF712FF00BF2149216392
:101660000846846232E02049206888422ED100BFBB
:101670001748806D40F00200154988650846806D66
:1016800000F00200009000BF00BF12481438174954
:1016900008603D2048601021144881600021C1602D
:1016A0008021016149004161890081610021C1619E
:1016B0004FF400510162FEF765FF08B1FEF7DFFE4F
:1016C00000BF0A4961620846846200BF38BD00005D
:1016D000001002401C000240240100202C000020C9
:1016E00084010020E40100200004004044020020A6
:1016F0002DE9F04104460D46002700BF94F83C0058
:10170000012802D10220BDE8F081012084F83C00CC
:1017100000BF022084F83D00206886683F480640EC
:1017200026F47F46206886602868702824D00CDC68
:1017300000F00F01002964D10011072861D2DFE811
:1017400000F05354555649353F00354A811A9042AE
:101750004FD009DCB0F5805F0DD0B0F5005F18D038
:10176000B0F1101F4DD143E0102943D0202942D0C1
:10177000502946D140E046E0D5E902136A68206866
:1017800000F090FD2068866846F077062068866045
:1017900039E0D5E902136A68206800F083FD20680B
:1017A000806840F48040216888602CE0EA686968BD
:1017B000206800F063FF5021206800F07FFD22E0E8
:1017C000EA686968206800F06CFF6021206800F01A
:1017D00075FD18E0EA686968206800F04FFF402155
:1017E000206800F06BFD0EE000BF00BF00BF00BF2F
:1017F00000BF00BF00BF00BF2968206800F05EFD89
:1018000001E0012700BF00BF012084F83D0000BFB8
:10181000002084F83C0000BF384674E788FFCEFF04
:10182000200010007047000010B586B00446142157
:1018300001A8FEF741FD2068B0F1804F1CD100BF28
:101840001E48C06C40F001001C49C8640846C06CCA
:1018500000F00100009000BF00BF0F2001900220A7
:1018600002900020039004900120059001A94FF000
:101870009040FEF751FF1FE01149206888421BD1BC
:1018800000BF0E48C06C40F001000C49C864084617
:10189000C06C00F00100009000BF00BF402001902C
:1018A000022002900020039004900220059001A9DC
:1018B0004FF09040FEF730FF06B010BD0010024020
:1018C000000400402DE9F04104460D46164600276D
:1018D00000BF94F83C00012802D10220BDE8F0814D
:1018E000012084F83C0000BF0C2E51D005DC4EB125
:1018F000042E1ED0082E7AD133E0102E60D0142E84
:10190000F9D175E02946206800F0E4FC2068806980
:1019100040F00800216888612068806920F0040098
:101920002168886120688069296908432168886185
:1019300078E02946206800F023FD2068806940F4A3
:101940000060216888612068806920F480602168D7
:10195000886120688069296940EA012021688861DE
:1019600060E02946206800F065FD2068C06940F00D
:1019700008002168C8612068C06920F0040021685F
:10198000C8612068C069296908432168C86149E0C5
:101990002946206800F0A8FD2068C06940F4006076
:1019A0002168C8612068C06920F480602168C8612E
:1019B0002068C069296940EA01202168C86131E0D6
:1019C0002946206800F0EAFD2068006D40F008001C
:1019D000216808652068006D20F004002168086512
:1019E0002068006D29690843216808651AE017E03E
:1019F0002946206800F00AFE2068006D40F400606F
:101A0000216808652068006D20F480602168086501
:101A10002068006D296940EA01202168086501E01D
:101A2000012700BF00BF00BF002084F83C0000BFBA
:101A3000384653E710B504460CB9012010BD94F8A0
:101A40003D0028B9002084F83C00204600F029F829
:101A5000022084F83D00211D206800F029FB0120B0
:101A600084F8480000BF84F83E0001213F20015562
:101A70004020015541200155422001554320015588
:101A800000BF00BF012084F84400452001554620D6
:101A900001554720015500BF012084F83D0000207A
:101AA000CCE7704710B504462068B0F1804F0DD1E7
:101AB000207F02280AD10423054A1946054800F070
:101AC0000FF805480078401C0349087010BD00005D
:101AD000080000208C000020180000207047000043
:101AE0002DE9F04704460D46164698464FF000098A
:101AF00015B994F83E0015E0042D02D13F20005D99
:101B000010E0082D02D14020005D0BE00C2D02D129
:101B10004120005D06E0102D02D14220005D01E071
:101B20004320005D022801D1BDE8F08715B994F883
:101B30003E0015E0042D02D13F20005D10E0082D8D
:101B400002D14020005D0BE00C2D02D14120005D50
:101B500006E0102D02D14220005D01E04320005D2F
:101B6000012826D116B1B8F1000F01D10120DBE721
:101B70001DB9022084F83E001DE0042D03D102218E
:101B80003F20015517E0082D03D1022140200155C7
:101B900011E00C2D03D10221412001550BE0102D45
:101BA00003D102214220015505E0022143200155C5
:101BB00001E00120B8E735B1042D1FD0082D38D041
:101BC0000C2D6CD150E06349606AC1626249606A61
:101BD00001636249606A4163216801F1340243464E
:101BE0003146606AFEF736FD08B101209CE72068A7
:101BF000C06840F400702168C86053E05549A06A8D
:101C0000C1625549A06A01635449A06A41632168D1
:101C100001F1380243463146A06AFEF71BFD08B1C8
:101C2000012081E72068C06840F480602168C860B6
:101C300038E04849E06AC1624749E06A01634749C0
:101C4000E06A4163216801F13C0243463146E06AA3
:101C5000FEF700FD08B1012066E72068C06840F487
:101C600000602168C8601DE03A49206BC1623A49B2
:101C7000206B01633949206B4163216801F1400207
:101C800043463146206BFEF7E5FC08B101204BE7E7
:101C90002068C06840F480502168C86002E04FF0BE
:101CA000010900BF00BFB9F1000F51D1012229463F
:101CB000206800F063FA2A49206888420FD0294939
:101CC000206888420BD028492068884207D02749DD
:101CD0002068884203D026492068884201D101202B
:101CE00000E0002028B12068406C40F400402168EA
:101CF00048641B492068884213D02068B0F1804FA7
:101D00000FD01C49206888420BD01B4920688842AC
:101D100007D014492068884203D0134920688842BC
:101D200010D120688068154900EA0107062F0FD0FE
:101D3000B7F5803F0CD02068006840F001002168B2
:101D4000086005E02068006840F001002168086034
:101D50004846E9E69F2100080722000847220008BC
:101D6000002C01400034014000400140004401408B
:101D70000048014000040040000800400700010046
:101D800000BFFEE708B500BF2148806C40F00400AA
:101D90001F4988640846806C00F00400009000BF72
:101DA00000BF00BF0846806C40F001008864084610
:101DB000806C00F00100009000BF00BF02221146BD
:101DC0000B20FEF715FE0B20FEF7FEFD022211464A
:101DD0000C20FEF70DFE0C20FEF7F6FD0222114648
:101DE0000D20FEF705FE0D20FEF7EEFD0222114646
:101DF0000E20FEF7FDFD0E20FEF7E6FD0222114645
:101E00000F20FEF7F5FD0F20FEF7DEFD08BD0000F8
:101E10000010024008B500BF0648C06C40F0010049
:101E20000449C8640846C06C00F00100009000BF7F
:101E300000BF08BD0010024000B58FB000200B901D
:101E40000C900D900E90089009900A901C2101A80A
:101E5000FEF732FA4FF080402B4908609520486029
:101E600000212948816040F2E731C1600021016111
:101E70008161FFF727FB08B1FEF701FB4FF48050AB
:101E80000B900BA92048FFF733FC08B1FEF7F7FAD7
:101E90001D48FFF7CFFD08B1FEF7F1FA00200890CA
:101EA0000A9008A91848FFF7B1FA08B1FEF7E7FA57
:101EB000602001900020029003900590002201A96B
:101EC0001148FFF7FFFC08B1FEF7D9FA042201A977
:101ED0000D48FFF7F7FC08B1FEF7D1FA082201A977
:101EE0000948FFF7EFFC08B1FEF7C9FA0C2201A977
:101EF0000548FFF7E7FC08B1FEF7C1FA0248FFF713
:101F000093FC0FB000BD00008C00002000B58FB026
:101F100000200B900C900D900E90089009900A9064
:101F20001C2101A8FEF7C8F91F4820490860952028
:101F3000486000211D48816040F2E731C160002106
:101F400001618161FFF7BEFA08B1FEF798FA4FF41C
:101F500080500B900BA91548FFF7CAFB08B1FEF79C
:101F60008EFA1248FFF766FD08B1FEF788FA0020E6
:101F700008900A9008A90D48FFF748FA08B1FEF743
:101F80007EFA6020019000200290039005900022CC
:101F900001A90648FFF796FC08B1FEF770FA03485E
:101FA000FFF742FC0FB000BD00040040D800002045
:101FB00000BFFEE700BFFEE77047000070B5164D9A
:101FC000ED6805F00304144DED68C5F303156B1CB3
:101FD000022C0CD0032C09D1104DB5FBF3F50E4E9D
:101FE000F668C6F3062605FB06F10AE000BF0C4DB5
:101FF000B5FBF3F5084EF668C6F3062605FB06F1B9
:1020000000BF00BF044DED68C5F341656D1C6A005B
:10201000B1FBF2F070BD00000010024000127A0027
:102020000024F400704710B5FEF762FC10BD00B547
:1020300093B0382105A8FEF73FF914216846FEF752
:102040003BF94FF40070FEF725FD02200590C0011A
:1020500008904020099002200C9002210D9104214B
:102060000E914B210F91022110911191129105A80F
:10207000FEF704FF08B1FEF702FA0F2000900320DC
:102080000190002002900390049004216846FEF71E
:1020900097FD08B1FEF7F3F913B000BD03480068DF
:1020A00040F47000014908607047000088ED00E0CE
:1020B00010B502682A4B98420BD0B0F1804F08D07F
:1020C000284B984205D0284B984202D0274B984283
:1020D00003D122F070024B681A43214B984214D06E
:1020E000B0F1804F11D01F4B98420ED01E4B98423A
:1020F0000BD01E4B984208D01D4B984205D01D4B6B
:10210000984202D01C4B984203D122F44072CB6813
:102110001A4322F080034C6943EA040202608B6890
:10212000C3620B6883620E4B98420BD00F4B9842F0
:1021300008D00F4B984205D00E4B984202D00E4B60
:10214000984201D10B69036301234361036903F0E2
:1021500001031BB1036923F00103036110BD0000FB
:10216000002C014000040040000800400034014001
:1021700000400140004401400048014030B501F0FA
:102180001F05012404FA05F3046A9C430462046AEF
:1021900001F01F0502FA05F52C43046230BD70B54D
:1021A0000546AC6A606AA84207D101202077E86939
:1021B00018BB012084F83E001FE0A06AA84207D1A6
:1021C00002202077E869C0B901213F20015514E0C1
:1021D000E06AA84207D104202077E86968B90121A4
:1021E0004020015509E0206BA84206D10820207745
:1021F000E86910B90121412001552046FFF752FC42
:102200000020207770BD70B50546AC6A606AA842B0
:1022100002D10120207710E0A06AA84202D102205A
:1022200020770AE0E06AA84202D10420207704E087
:10223000206BA84201D1082020772046FFF74EFCF2
:102240000020207770BD70B50546AC6A606AA84270
:1022500004D10120207784F83E001DE0A06AA84246
:1022600005D10220207701213F20015514E0E06ACA
:10227000A84205D1042020770121402001550BE020
:10228000206BA84205D1082020770121412001556B
:1022900002E0012084F83D002046FFF7C3FA002049
:1022A000207770BD30B50C46816821F47F4142EA49
:1022B000032525432943816030BD00000A4681681B
:1022C000034B194042F00703194381607047000037
:1022D0008FFFCFFF30B5026A056A25F00105056260
:1022E00043688469204D2C4024F003040D682C437E
:1022F00022F002028D682A431C4DA84200D10FE053
:102300001B4DA84200D10BE01A4DA84200D107E0B6
:10231000194DA84200D103E0184DA84206D100BFD4
:1023200022F00802CD682A4322F004020F4DA84291
:102330000BD00F4DA84208D00E4DA84205D00E4D2F
:10234000A84202D00D4DA84207D123F4807323F494
:1023500000734D692B438D692B43436084614D6845
:102360004563026230BD00008FFFFEFF002C01407C
:102370000034014000400140004401400048014059
:1023800030B5026A056A25F0100505624368846964
:10239000224D2C4024F440740D6844EA052422F0B8
:1023A00020028D6842EA05121D4DA84200D10FE0BF
:1023B0001C4DA84200D10BE01B4DA84200D100BF2C
:1023C0001A4DA84200D100BF194DA84207D106E01E
:1023D00022F08002CD6842EA051222F04002104D40
:1023E000A8420BD00F4DA84208D00F4DA84205D0EF
:1023F0000E4DA84202D00E4DA84209D123F48063AD
:1024000023F400634D6943EA85038D6943EA85033C
:10241000436084614D688563026230BDFF8FFFFEBB
:10242000002C0140003401400040014000440140C4
:102430000048014030B5026A056A25F480750562DE
:102440004368C469224D2C4024F003040D682C43DA
:1024500022F400728D6842EA05221E4DA84200D186
:102460000FE01D4DA84200D10BE01C4DA84200D149
:1024700000BF1B4DA84200D100BF1A4DA84207D192
:1024800006E022F40062CD6842EA052222F480626E
:10249000104DA8420BD0104DA84208D00F4DA842B5
:1024A00005D00F4DA84202D00E4DA84209D123F409
:1024B000805323F400534D6943EA05138D6943EAC1
:1024C00005134360C4614D68C563026230BD0000FE
:1024D0008FFFFEFF002C014000340140004001400E
:1024E000004401400048014030B5026A056A25F405
:1024F000805505624368C469224D2C4024F4407421
:102500000D6844EA052422F400528D6842EA05323F
:102510001D4DA84200D10FE01C4DA84200D10BE098
:102520001B4DA84200D100BF1A4DA84200D100BFE8
:10253000194DA84207D106E022F40042CD6842EAD4
:10254000053222F48042104DA8420BD00F4DA84214
:1025500008D00F4DA84205D00E4DA84202D00E4D16
:10256000A84209D123F4804323F400434D6943EA90
:1025700085138D6943EA85134360C4614D68056422
:10258000026230BDFF8FFFFE002C0140003401408D
:1025900000400140004401400048014030B5026A5B
:1025A000056A25F4803505624368046D114D2C40A1
:1025B0000D682C4322F400320D8942EA05420E4D8B
:1025C000A8420BD00D4DA84208D00D4DA84205D011
:1025D0000C4DA84202D00C4DA84204D123F4803304
:1025E0004D6943EA0523436004654D6885640262D2
:1025F00030BD00008FFFFEFF002C01400034014081
:1026000000400140004401400048014030B5026AEA
:10261000056A25F4801505624368046D114D2C4050
:102620000D6844EA052422F400120D8942EA05529D
:102630000D4DA8420BD00D4DA84208D00C4DA8421C
:1026400005D00C4DA84202D00B4DA84204D123F472
:1026500080234D6943EA8523436004654D68C56462
:10266000026230BDFF8FFFFE002C014000340140AC
:1026700000400140004401400048014030B50B4695
:102680001446026A056A25F001050562816921F098
:10269000F00141EA041122F00A021A438161026248
:1026A00030BD30B50B461446026A056A25F01005A8
:1026B0000562816921F4704141EA043122F0A002EF
:1026C00042EA03128161026230BD00BFFEE70000F2
:1026D00002480068C0F30220704700000CED00E0E3
:1026E00010B5002804DB0A07130E054A135406E050
:1026F0000A07140E034A00F00F031B1FD45410BD29
:1027000000E400E018ED00E0FEF7FEF8FFF78FFCB4
:10271000FFF780FBFFF736FBFFF7F8FBFFF78CFBBB
:102720000423034A19460348FFF7DAF900BFFEE71E
:10273000080000208C0000204FF04070E1EE100AED
:1027400070470000000000000000010203040607BB
:102750000809000000000102030400007C270008B3
:10276000000000202C00000014020008A827000828
:102770002C000020DC080000300200086400FA0091
:10278000F401F40164000000FA000000F40100000C
:10279000F401000000000000000000001000000034
:0827A000010000000024F40018
:04000005080001D915
:00000001FF
